{
  "_format": "hh-sol-artifact-1",
  "contractName": "Girand_Hero_Medusa",
  "sourceName": "contracts/Girant_Hero_Medusa.sol",
  "abi": [
    {
      "inputs": [
        {
          "internalType": "string",
          "name": "baseURI",
          "type": "string"
        },
        {
          "internalType": "string",
          "name": "name",
          "type": "string"
        },
        {
          "internalType": "string",
          "name": "symbol",
          "type": "string"
        },
        {
          "internalType": "uint96",
          "name": "royalty",
          "type": "uint96"
        },
        {
          "internalType": "bytes32",
          "name": "_merkleRoot",
          "type": "bytes32"
        }
      ],
      "stateMutability": "nonpayable",
      "type": "constructor"
    },
    {
      "inputs": [],
      "name": "ApprovalCallerNotOwnerNorApproved",
      "type": "error"
    },
    {
      "inputs": [],
      "name": "ApprovalQueryForNonexistentToken",
      "type": "error"
    },
    {
      "inputs": [],
      "name": "BalanceQueryForZeroAddress",
      "type": "error"
    },
    {
      "inputs": [],
      "name": "MintERC2309QuantityExceedsLimit",
      "type": "error"
    },
    {
      "inputs": [],
      "name": "MintToZeroAddress",
      "type": "error"
    },
    {
      "inputs": [],
      "name": "MintZeroQuantity",
      "type": "error"
    },
    {
      "inputs": [],
      "name": "OwnerQueryForNonexistentToken",
      "type": "error"
    },
    {
      "inputs": [],
      "name": "OwnershipNotInitializedForExtraData",
      "type": "error"
    },
    {
      "inputs": [],
      "name": "TransferCallerNotOwnerNorApproved",
      "type": "error"
    },
    {
      "inputs": [],
      "name": "TransferFromIncorrectOwner",
      "type": "error"
    },
    {
      "inputs": [],
      "name": "TransferToNonERC721ReceiverImplementer",
      "type": "error"
    },
    {
      "inputs": [],
      "name": "TransferToZeroAddress",
      "type": "error"
    },
    {
      "inputs": [],
      "name": "URIQueryForNonexistentToken",
      "type": "error"
    },
    {
      "anonymous": false,
      "inputs": [
        {
          "indexed": true,
          "internalType": "address",
          "name": "owner",
          "type": "address"
        },
        {
          "indexed": true,
          "internalType": "address",
          "name": "approved",
          "type": "address"
        },
        {
          "indexed": true,
          "internalType": "uint256",
          "name": "tokenId",
          "type": "uint256"
        }
      ],
      "name": "Approval",
      "type": "event"
    },
    {
      "anonymous": false,
      "inputs": [
        {
          "indexed": true,
          "internalType": "address",
          "name": "owner",
          "type": "address"
        },
        {
          "indexed": true,
          "internalType": "address",
          "name": "operator",
          "type": "address"
        },
        {
          "indexed": false,
          "internalType": "bool",
          "name": "approved",
          "type": "bool"
        }
      ],
      "name": "ApprovalForAll",
      "type": "event"
    },
    {
      "anonymous": false,
      "inputs": [
        {
          "indexed": false,
          "internalType": "string",
          "name": "baseURI",
          "type": "string"
        }
      ],
      "name": "BaseURIChanged",
      "type": "event"
    },
    {
      "anonymous": false,
      "inputs": [
        {
          "indexed": true,
          "internalType": "uint256",
          "name": "fromTokenId",
          "type": "uint256"
        },
        {
          "indexed": false,
          "internalType": "uint256",
          "name": "toTokenId",
          "type": "uint256"
        },
        {
          "indexed": true,
          "internalType": "address",
          "name": "from",
          "type": "address"
        },
        {
          "indexed": true,
          "internalType": "address",
          "name": "to",
          "type": "address"
        }
      ],
      "name": "ConsecutiveTransfer",
      "type": "event"
    },
    {
      "anonymous": false,
      "inputs": [
        {
          "indexed": false,
          "internalType": "address",
          "name": "mintTo",
          "type": "address"
        },
        {
          "indexed": false,
          "internalType": "uint256",
          "name": "tokensCount",
          "type": "uint256"
        }
      ],
      "name": "FreeMint",
      "type": "event"
    },
    {
      "anonymous": false,
      "inputs": [
        {
          "indexed": true,
          "internalType": "address",
          "name": "previousOwner",
          "type": "address"
        },
        {
          "indexed": true,
          "internalType": "address",
          "name": "newOwner",
          "type": "address"
        }
      ],
      "name": "OwnershipTransferred",
      "type": "event"
    },
    {
      "anonymous": false,
      "inputs": [
        {
          "indexed": true,
          "internalType": "address",
          "name": "from",
          "type": "address"
        },
        {
          "indexed": true,
          "internalType": "address",
          "name": "to",
          "type": "address"
        },
        {
          "indexed": true,
          "internalType": "uint256",
          "name": "tokenId",
          "type": "uint256"
        }
      ],
      "name": "Transfer",
      "type": "event"
    },
    {
      "inputs": [],
      "name": "activeDrop",
      "outputs": [
        {
          "internalType": "uint256",
          "name": "",
          "type": "uint256"
        }
      ],
      "stateMutability": "view",
      "type": "function"
    },
    {
      "inputs": [
        {
          "internalType": "address",
          "name": "to",
          "type": "address"
        },
        {
          "internalType": "uint256",
          "name": "tokenId",
          "type": "uint256"
        }
      ],
      "name": "approve",
      "outputs": [],
      "stateMutability": "payable",
      "type": "function"
    },
    {
      "inputs": [
        {
          "internalType": "address",
          "name": "owner",
          "type": "address"
        }
      ],
      "name": "balanceOf",
      "outputs": [
        {
          "internalType": "uint256",
          "name": "",
          "type": "uint256"
        }
      ],
      "stateMutability": "view",
      "type": "function"
    },
    {
      "inputs": [
        {
          "internalType": "address",
          "name": "receiver",
          "type": "address"
        },
        {
          "internalType": "uint96",
          "name": "feeNumerator",
          "type": "uint96"
        }
      ],
      "name": "changeDefaultRoyalties",
      "outputs": [],
      "stateMutability": "nonpayable",
      "type": "function"
    },
    {
      "inputs": [
        {
          "internalType": "uint256",
          "name": "",
          "type": "uint256"
        }
      ],
      "name": "drops",
      "outputs": [
        {
          "internalType": "uint256",
          "name": "id",
          "type": "uint256"
        },
        {
          "internalType": "uint256",
          "name": "totalSupply",
          "type": "uint256"
        },
        {
          "internalType": "uint256",
          "name": "preMintMaxSupply",
          "type": "uint256"
        },
        {
          "internalType": "uint256",
          "name": "maxDropSupply",
          "type": "uint256"
        },
        {
          "internalType": "uint256",
          "name": "timePreMintStart",
          "type": "uint256"
        },
        {
          "internalType": "uint256",
          "name": "timeMintAfterPreMint",
          "type": "uint256"
        },
        {
          "internalType": "bool",
          "name": "preMintStarted",
          "type": "bool"
        },
        {
          "internalType": "bool",
          "name": "whiteList",
          "type": "bool"
        },
        {
          "internalType": "bytes32",
          "name": "merkleRoot",
          "type": "bytes32"
        }
      ],
      "stateMutability": "view",
      "type": "function"
    },
    {
      "inputs": [
        {
          "internalType": "bytes32[]",
          "name": "proof",
          "type": "bytes32[]"
        }
      ],
      "name": "freeMint",
      "outputs": [],
      "stateMutability": "nonpayable",
      "type": "function"
    },
    {
      "inputs": [
        {
          "internalType": "uint256",
          "name": "tokenId",
          "type": "uint256"
        }
      ],
      "name": "getApproved",
      "outputs": [
        {
          "internalType": "address",
          "name": "",
          "type": "address"
        }
      ],
      "stateMutability": "view",
      "type": "function"
    },
    {
      "inputs": [
        {
          "internalType": "uint256",
          "name": "dropId",
          "type": "uint256"
        }
      ],
      "name": "getDropData",
      "outputs": [
        {
          "internalType": "uint256",
          "name": "totalSupply",
          "type": "uint256"
        },
        {
          "internalType": "uint256",
          "name": "preMintMaxSupply",
          "type": "uint256"
        },
        {
          "internalType": "uint256",
          "name": "maxDropSupply",
          "type": "uint256"
        },
        {
          "internalType": "uint256",
          "name": "timeMintAfterPreMint",
          "type": "uint256"
        },
        {
          "internalType": "bool",
          "name": "preMintStarted",
          "type": "bool"
        },
        {
          "internalType": "bool",
          "name": "whiteList",
          "type": "bool"
        },
        {
          "internalType": "bytes32",
          "name": "merkleRoot",
          "type": "bytes32"
        }
      ],
      "stateMutability": "view",
      "type": "function"
    },
    {
      "inputs": [
        {
          "internalType": "uint256",
          "name": "dropId",
          "type": "uint256"
        },
        {
          "internalType": "address",
          "name": "trackAddress",
          "type": "address"
        }
      ],
      "name": "getDropNFTtrackerInfo",
      "outputs": [
        {
          "internalType": "bool",
          "name": "nftMinted",
          "type": "bool"
        }
      ],
      "stateMutability": "view",
      "type": "function"
    },
    {
      "inputs": [
        {
          "internalType": "address",
          "name": "owner",
          "type": "address"
        },
        {
          "internalType": "address",
          "name": "operator",
          "type": "address"
        }
      ],
      "name": "isApprovedForAll",
      "outputs": [
        {
          "internalType": "bool",
          "name": "",
          "type": "bool"
        }
      ],
      "stateMutability": "view",
      "type": "function"
    },
    {
      "inputs": [],
      "name": "maxSupply",
      "outputs": [
        {
          "internalType": "uint256",
          "name": "",
          "type": "uint256"
        }
      ],
      "stateMutability": "view",
      "type": "function"
    },
    {
      "inputs": [],
      "name": "name",
      "outputs": [
        {
          "internalType": "string",
          "name": "",
          "type": "string"
        }
      ],
      "stateMutability": "view",
      "type": "function"
    },
    {
      "inputs": [],
      "name": "owner",
      "outputs": [
        {
          "internalType": "address",
          "name": "",
          "type": "address"
        }
      ],
      "stateMutability": "view",
      "type": "function"
    },
    {
      "inputs": [
        {
          "internalType": "uint256",
          "name": "tokenId",
          "type": "uint256"
        }
      ],
      "name": "ownerOf",
      "outputs": [
        {
          "internalType": "address",
          "name": "",
          "type": "address"
        }
      ],
      "stateMutability": "view",
      "type": "function"
    },
    {
      "inputs": [],
      "name": "renounceOwnership",
      "outputs": [],
      "stateMutability": "nonpayable",
      "type": "function"
    },
    {
      "inputs": [
        {
          "internalType": "uint256",
          "name": "_tokenId",
          "type": "uint256"
        },
        {
          "internalType": "uint256",
          "name": "_salePrice",
          "type": "uint256"
        }
      ],
      "name": "royaltyInfo",
      "outputs": [
        {
          "internalType": "address",
          "name": "",
          "type": "address"
        },
        {
          "internalType": "uint256",
          "name": "",
          "type": "uint256"
        }
      ],
      "stateMutability": "view",
      "type": "function"
    },
    {
      "inputs": [
        {
          "internalType": "address",
          "name": "from",
          "type": "address"
        },
        {
          "internalType": "address",
          "name": "to",
          "type": "address"
        },
        {
          "internalType": "uint256",
          "name": "tokenId",
          "type": "uint256"
        }
      ],
      "name": "safeTransferFrom",
      "outputs": [],
      "stateMutability": "payable",
      "type": "function"
    },
    {
      "inputs": [
        {
          "internalType": "address",
          "name": "from",
          "type": "address"
        },
        {
          "internalType": "address",
          "name": "to",
          "type": "address"
        },
        {
          "internalType": "uint256",
          "name": "tokenId",
          "type": "uint256"
        },
        {
          "internalType": "bytes",
          "name": "_data",
          "type": "bytes"
        }
      ],
      "name": "safeTransferFrom",
      "outputs": [],
      "stateMutability": "payable",
      "type": "function"
    },
    {
      "inputs": [
        {
          "internalType": "address",
          "name": "operator",
          "type": "address"
        },
        {
          "internalType": "bool",
          "name": "approved",
          "type": "bool"
        }
      ],
      "name": "setApprovalForAll",
      "outputs": [],
      "stateMutability": "nonpayable",
      "type": "function"
    },
    {
      "inputs": [
        {
          "internalType": "string",
          "name": "baseURI",
          "type": "string"
        }
      ],
      "name": "setBaseURI",
      "outputs": [],
      "stateMutability": "nonpayable",
      "type": "function"
    },
    {
      "inputs": [
        {
          "internalType": "uint256",
          "name": "_preMintMaxSupply",
          "type": "uint256"
        },
        {
          "internalType": "uint256",
          "name": "_maxSupply",
          "type": "uint256"
        },
        {
          "internalType": "uint256",
          "name": "_timeMintAfterPreMint",
          "type": "uint256"
        },
        {
          "internalType": "bool",
          "name": "_whiteList",
          "type": "bool"
        },
        {
          "internalType": "bytes32",
          "name": "_merkleRoot",
          "type": "bytes32"
        }
      ],
      "name": "setNewDrop",
      "outputs": [],
      "stateMutability": "nonpayable",
      "type": "function"
    },
    {
      "inputs": [
        {
          "internalType": "uint256",
          "name": "_maxSupply",
          "type": "uint256"
        }
      ],
      "name": "setNewMaxSupply",
      "outputs": [],
      "stateMutability": "nonpayable",
      "type": "function"
    },
    {
      "inputs": [
        {
          "internalType": "bytes32",
          "name": "_merkleRoot",
          "type": "bytes32"
        }
      ],
      "name": "setNewMerkleRoot",
      "outputs": [],
      "stateMutability": "nonpayable",
      "type": "function"
    },
    {
      "inputs": [
        {
          "internalType": "uint256",
          "name": "_preMintMaxSupply",
          "type": "uint256"
        }
      ],
      "name": "setNewPreMintMaxSupply",
      "outputs": [],
      "stateMutability": "nonpayable",
      "type": "function"
    },
    {
      "inputs": [
        {
          "internalType": "uint256",
          "name": "_timeMintAfterPreMint",
          "type": "uint256"
        }
      ],
      "name": "setNewTimeMintAfterPreMint",
      "outputs": [],
      "stateMutability": "nonpayable",
      "type": "function"
    },
    {
      "inputs": [
        {
          "internalType": "bool",
          "name": "_whiteList",
          "type": "bool"
        }
      ],
      "name": "setWhiteListState",
      "outputs": [],
      "stateMutability": "nonpayable",
      "type": "function"
    },
    {
      "inputs": [],
      "name": "startPreMint",
      "outputs": [],
      "stateMutability": "nonpayable",
      "type": "function"
    },
    {
      "inputs": [],
      "name": "stopMint",
      "outputs": [],
      "stateMutability": "nonpayable",
      "type": "function"
    },
    {
      "inputs": [
        {
          "internalType": "bytes4",
          "name": "interfaceId",
          "type": "bytes4"
        }
      ],
      "name": "supportsInterface",
      "outputs": [
        {
          "internalType": "bool",
          "name": "",
          "type": "bool"
        }
      ],
      "stateMutability": "view",
      "type": "function"
    },
    {
      "inputs": [],
      "name": "symbol",
      "outputs": [
        {
          "internalType": "string",
          "name": "",
          "type": "string"
        }
      ],
      "stateMutability": "view",
      "type": "function"
    },
    {
      "inputs": [
        {
          "internalType": "uint256",
          "name": "tokenId",
          "type": "uint256"
        }
      ],
      "name": "tokenURI",
      "outputs": [
        {
          "internalType": "string",
          "name": "",
          "type": "string"
        }
      ],
      "stateMutability": "view",
      "type": "function"
    },
    {
      "inputs": [],
      "name": "totalSupply",
      "outputs": [
        {
          "internalType": "uint256",
          "name": "",
          "type": "uint256"
        }
      ],
      "stateMutability": "view",
      "type": "function"
    },
    {
      "inputs": [
        {
          "internalType": "address",
          "name": "from",
          "type": "address"
        },
        {
          "internalType": "address",
          "name": "to",
          "type": "address"
        },
        {
          "internalType": "uint256",
          "name": "tokenId",
          "type": "uint256"
        }
      ],
      "name": "transferFrom",
      "outputs": [],
      "stateMutability": "payable",
      "type": "function"
    },
    {
      "inputs": [
        {
          "internalType": "address",
          "name": "newOwner",
          "type": "address"
        }
      ],
      "name": "transferOwnership",
      "outputs": [],
      "stateMutability": "nonpayable",
      "type": "function"
    }
  ],
  "bytecode": "0x60806040523480156200001157600080fd5b5060405162004a7438038062004a7483398181016040528101906200003791906200062f565b8383620000596200004d6200019a60201b60201c565b620001a260201b60201c565b6001808190555081600690816200007191906200095f565b5080600790816200008391906200095f565b50620000946200026660201b60201c565b600481905550505084600f9081620000ad91906200095f565b506001600e819055506005600c6000600e548152602001908152602001600020600201819055506005600c6000600e548152602001908152602001600020600301819055506064600c6000600e548152602001908152602001600020600501819055506001600c6000600e54815260200190815260200160002060060160016101000a81548160ff02191690831515021790555080600c6000600e54815260200190815260200160002060070181905550600c6000600e54815260200190815260200160002060030154600d819055506200018f33836200026b60201b60201c565b505050505062000b61565b600033905090565b60008060009054906101000a900473ffffffffffffffffffffffffffffffffffffffff169050816000806101000a81548173ffffffffffffffffffffffffffffffffffffffff021916908373ffffffffffffffffffffffffffffffffffffffff1602179055508173ffffffffffffffffffffffffffffffffffffffff168173ffffffffffffffffffffffffffffffffffffffff167f8be0079c531659141344cd1fd0a4f28419497f9722a3daafe3b4186f6b6457e060405160405180910390a35050565b600090565b6200027b6200040e60201b60201c565b6bffffffffffffffffffffffff16816bffffffffffffffffffffffff161115620002dc576040517f08c379a0000000000000000000000000000000000000000000000000000000008152600401620002d39062000acd565b60405180910390fd5b600073ffffffffffffffffffffffffffffffffffffffff168273ffffffffffffffffffffffffffffffffffffffff16036200034e576040517f08c379a0000000000000000000000000000000000000000000000000000000008152600401620003459062000b3f565b60405180910390fd5b60405180604001604052808373ffffffffffffffffffffffffffffffffffffffff168152602001826bffffffffffffffffffffffff16815250600260008201518160000160006101000a81548173ffffffffffffffffffffffffffffffffffffffff021916908373ffffffffffffffffffffffffffffffffffffffff16021790555060208201518160000160146101000a8154816bffffffffffffffffffffffff02191690836bffffffffffffffffffffffff1602179055509050505050565b6000612710905090565b6000604051905090565b600080fd5b600080fd5b600080fd5b600080fd5b6000601f19601f8301169050919050565b7f4e487b7100000000000000000000000000000000000000000000000000000000600052604160045260246000fd5b620004818262000436565b810181811067ffffffffffffffff82111715620004a357620004a262000447565b5b80604052505050565b6000620004b862000418565b9050620004c6828262000476565b919050565b600067ffffffffffffffff821115620004e957620004e862000447565b5b620004f48262000436565b9050602081019050919050565b60005b838110156200052157808201518184015260208101905062000504565b60008484015250505050565b6000620005446200053e84620004cb565b620004ac565b90508281526020810184848401111562000563576200056262000431565b5b6200057084828562000501565b509392505050565b600082601f83011262000590576200058f6200042c565b5b8151620005a28482602086016200052d565b91505092915050565b60006bffffffffffffffffffffffff82169050919050565b620005ce81620005ab565b8114620005da57600080fd5b50565b600081519050620005ee81620005c3565b92915050565b6000819050919050565b6200060981620005f4565b81146200061557600080fd5b50565b6000815190506200062981620005fe565b92915050565b600080600080600060a086880312156200064e576200064d62000422565b5b600086015167ffffffffffffffff8111156200066f576200066e62000427565b5b6200067d8882890162000578565b955050602086015167ffffffffffffffff811115620006a157620006a062000427565b5b620006af8882890162000578565b945050604086015167ffffffffffffffff811115620006d357620006d262000427565b5b620006e18882890162000578565b9350506060620006f488828901620005dd565b9250506080620007078882890162000618565b9150509295509295909350565b600081519050919050565b7f4e487b7100000000000000000000000000000000000000000000000000000000600052602260045260246000fd5b600060028204905060018216806200076757607f821691505b6020821081036200077d576200077c6200071f565b5b50919050565b60008190508160005260206000209050919050565b60006020601f8301049050919050565b600082821b905092915050565b600060088302620007e77fffffffffffffffffffffffffffffffffffffffffffffffffffffffffffffffff82620007a8565b620007f38683620007a8565b95508019841693508086168417925050509392505050565b6000819050919050565b6000819050919050565b6000620008406200083a62000834846200080b565b62000815565b6200080b565b9050919050565b6000819050919050565b6200085c836200081f565b620008746200086b8262000847565b848454620007b5565b825550505050565b600090565b6200088b6200087c565b6200089881848462000851565b505050565b5b81811015620008c057620008b460008262000881565b6001810190506200089e565b5050565b601f8211156200090f57620008d98162000783565b620008e48462000798565b81016020851015620008f4578190505b6200090c620009038562000798565b8301826200089d565b50505b505050565b600082821c905092915050565b6000620009346000198460080262000914565b1980831691505092915050565b60006200094f838362000921565b9150826002028217905092915050565b6200096a8262000714565b67ffffffffffffffff81111562000986576200098562000447565b5b6200099282546200074e565b6200099f828285620008c4565b600060209050601f831160018114620009d75760008415620009c2578287015190505b620009ce858262000941565b86555062000a3e565b601f198416620009e78662000783565b60005b8281101562000a1157848901518255600182019150602085019450602081019050620009ea565b8683101562000a31578489015162000a2d601f89168262000921565b8355505b6001600288020188555050505b505050505050565b600082825260208201905092915050565b7f455243323938313a20726f79616c7479206665652077696c6c2065786365656460008201527f2073616c65507269636500000000000000000000000000000000000000000000602082015250565b600062000ab5602a8362000a46565b915062000ac28262000a57565b604082019050919050565b6000602082019050818103600083015262000ae88162000aa6565b9050919050565b7f455243323938313a20696e76616c696420726563656976657200000000000000600082015250565b600062000b2760198362000a46565b915062000b348262000aef565b602082019050919050565b6000602082019050818103600083015262000b5a8162000b18565b9050919050565b613f038062000b716000396000f3fe6080604052600436106101f95760003560e01c80638b63d54a1161010d578063b88d4fde116100a0578063d55829651161006f578063d558296514610716578063d5abeb011461072d578063e985e9c514610758578063f247b56914610795578063f2fde38b146107c0576101f9565b8063b88d4fde14610651578063be91484c1461066d578063c87b56dd146106b0578063cfd1c79f146106ed576101f9565b8063a22cb465116100dc578063a22cb465146105ad578063a9fe3075146105d6578063b3e5e0de146105ff578063b7c7d9a714610628576101f9565b80638b63d54a146104f15780638da5cb5b1461051a578063922003cd1461054557806395d89b4114610582576101f9565b806342842e0e11610190578063611236a41161015f578063611236a41461040e5780636352211e1461043757806370a0823114610474578063715018a6146104b157806388d15d50146104c8576101f9565b806342842e0e1461035b57806355f804b31461037757806358b1adbf146103a05780635eb39968146103c9576101f9565b806318160ddd116101cc57806318160ddd146102bf57806323b872dd146102ea5780632a55205a14610306578063363f032514610344576101f9565b806301ffc9a7146101fe57806306fdde031461023b578063081812fc14610266578063095ea7b3146102a3575b600080fd5b34801561020a57600080fd5b5061022560048036038101906102209190612917565b6107e9565b604051610232919061295f565b60405180910390f35b34801561024757600080fd5b5061025061080b565b60405161025d9190612a0a565b60405180910390f35b34801561027257600080fd5b5061028d60048036038101906102889190612a62565b61089d565b60405161029a9190612ad0565b60405180910390f35b6102bd60048036038101906102b89190612b17565b6108fb565b005b3480156102cb57600080fd5b506102d461090b565b6040516102e19190612b66565b60405180910390f35b61030460048036038101906102ff9190612b81565b610922565b005b34801561031257600080fd5b5061032d60048036038101906103289190612bd4565b610be3565b60405161033b929190612c14565b60405180910390f35b34801561035057600080fd5b50610359610dcd565b005b61037560048036038101906103709190612b81565b610e25565b005b34801561038357600080fd5b5061039e60048036038101906103999190612d72565b610e45565b005b3480156103ac57600080fd5b506103c760048036038101906103c29190612a62565b610e97565b005b3480156103d557600080fd5b506103f060048036038101906103eb9190612a62565b610ebf565b60405161040599989796959493929190612dd4565b60405180910390f35b34801561041a57600080fd5b5061043560048036038101906104309190612e8d565b610f27565b005b34801561044357600080fd5b5061045e60048036038101906104599190612a62565b610f4f565b60405161046b9190612ad0565b60405180910390f35b34801561048057600080fd5b5061049b60048036038101906104969190612eba565b610f61565b6040516104a89190612b66565b60405180910390f35b3480156104bd57600080fd5b506104c6610ff8565b005b3480156104d457600080fd5b506104ef60048036038101906104ea9190612f47565b61100c565b005b3480156104fd57600080fd5b5061051860048036038101906105139190612fd8565b6113ea565b005b34801561052657600080fd5b5061052f611408565b60405161053c9190612ad0565b60405180910390f35b34801561055157600080fd5b5061056c60048036038101906105679190613018565b611431565b604051610579919061295f565b60405180910390f35b34801561058e57600080fd5b5061059761149c565b6040516105a49190612a0a565b60405180910390f35b3480156105b957600080fd5b506105d460048036038101906105cf9190613084565b61152e565b005b3480156105e257600080fd5b506105fd60048036038101906105f891906130c4565b611639565b005b34801561060b57600080fd5b506106266004803603810190610621919061313f565b61173c565b005b34801561063457600080fd5b5061064f600480360381019061064a9190612a62565b611777565b005b61066b6004803603810190610666919061320d565b61179f565b005b34801561067957600080fd5b50610694600480360381019061068f9190612a62565b6117f1565b6040516106a79796959493929190613290565b60405180910390f35b3480156106bc57600080fd5b506106d760048036038101906106d29190612a62565b6118d0565b6040516106e49190612a0a565b60405180910390f35b3480156106f957600080fd5b50610714600480360381019061070f9190612a62565b611907565b005b34801561072257600080fd5b5061072b61192f565b005b34801561073957600080fd5b5061074261196a565b60405161074f9190612b66565b60405180910390f35b34801561076457600080fd5b5061077f600480360381019061077a91906132ff565b611970565b60405161078c919061295f565b60405180910390f35b3480156107a157600080fd5b506107aa611a04565b6040516107b79190612b66565b60405180910390f35b3480156107cc57600080fd5b506107e760048036038101906107e29190612eba565b611a0a565b005b60006107f482611a8d565b80610804575061080382611b1f565b5b9050919050565b60606006805461081a9061336e565b80601f01602080910402602001604051908101604052809291908181526020018280546108469061336e565b80156108935780601f1061086857610100808354040283529160200191610893565b820191906000526020600020905b81548152906001019060200180831161087657829003601f168201915b5050505050905090565b60006108a882611b99565b6108bd576108bc63cf4700e460e01b611c12565b5b600a600083815260200190815260200160002060000160009054906101000a900473ffffffffffffffffffffffffffffffffffffffff169050919050565b61090782826001611c1c565b5050565b6000610915611d4b565b6005546004540303905090565b600061092d82611d50565b905073ffffffffffffffffffffffffffffffffffffffff8473ffffffffffffffffffffffffffffffffffffffff161693508373ffffffffffffffffffffffffffffffffffffffff168173ffffffffffffffffffffffffffffffffffffffff16146109a2576109a163a114810060e01b611c12565b5b6000806109ae84611e3c565b915091506109c481876109bf611e63565b611e6b565b6109ef576109d9866109d4611e63565b611970565b6109ee576109ed6359c896be60e01b611c12565b5b5b6109fc8686866001611eaf565b8015610a0757600082555b600960008773ffffffffffffffffffffffffffffffffffffffff1673ffffffffffffffffffffffffffffffffffffffff168152602001908152602001600020600081546001900391905081905550600960008673ffffffffffffffffffffffffffffffffffffffff1673ffffffffffffffffffffffffffffffffffffffff1681526020019081526020016000206000815460010191905081905550610ad585610ab1888887611eb5565b7c020000000000000000000000000000000000000000000000000000000017611edd565b600860008681526020019081526020016000208190555060007c0200000000000000000000000000000000000000000000000000000000841603610b5b5760006001850190506000600860008381526020019081526020016000205403610b59576004548114610b58578360086000838152602001908152602001600020819055505b5b505b600073ffffffffffffffffffffffffffffffffffffffff8673ffffffffffffffffffffffffffffffffffffffff161690508481887fddf252ad1be2c89b69c2b068fc378daa952ba7f163c4a11628f55a4df523b3ef600080a460008103610bcd57610bcc63ea553b3460e01b611c12565b5b610bda8787876001611f08565b50505050505050565b6000806000600360008681526020019081526020016000206040518060400160405290816000820160009054906101000a900473ffffffffffffffffffffffffffffffffffffffff1673ffffffffffffffffffffffffffffffffffffffff1673ffffffffffffffffffffffffffffffffffffffff1681526020016000820160149054906101000a90046bffffffffffffffffffffffff166bffffffffffffffffffffffff166bffffffffffffffffffffffff16815250509050600073ffffffffffffffffffffffffffffffffffffffff16816000015173ffffffffffffffffffffffffffffffffffffffff1603610d785760026040518060400160405290816000820160009054906101000a900473ffffffffffffffffffffffffffffffffffffffff1673ffffffffffffffffffffffffffffffffffffffff1673ffffffffffffffffffffffffffffffffffffffff1681526020016000820160149054906101000a90046bffffffffffffffffffffffff166bffffffffffffffffffffffff166bffffffffffffffffffffffff168152505090505b6000610d82611f0e565b6bffffffffffffffffffffffff1682602001516bffffffffffffffffffffffff1686610dae91906133ce565b610db8919061343f565b90508160000151819350935050509250929050565b610dd5611f18565b42600c6000600e548152602001908152602001600020600401819055506001600c6000600e54815260200190815260200160002060060160006101000a81548160ff021916908315150217905550565b610e408383836040518060200160405280600081525061179f565b505050565b610e4d611f18565b80600f9081610e5c919061361c565b507f5411e8ebf1636d9e83d5fc4900bf80cbac82e8790da2a4c94db4895e889eedf681604051610e8c9190612a0a565b60405180910390a150565b610e9f611f18565b80600c6000600e5481526020019081526020016000206005018190555050565b600c6020528060005260406000206000915090508060000154908060010154908060020154908060030154908060040154908060050154908060060160009054906101000a900460ff16908060060160019054906101000a900460ff16908060070154905089565b610f2f611f18565b80600c6000600e5481526020019081526020016000206007018190555050565b6000610f5a82611d50565b9050919050565b60008073ffffffffffffffffffffffffffffffffffffffff168273ffffffffffffffffffffffffffffffffffffffff1603610fa757610fa6638f4eb60460e01b611c12565b5b67ffffffffffffffff600960008473ffffffffffffffffffffffffffffffffffffffff1673ffffffffffffffffffffffffffffffffffffffff16815260200190815260200160002054169050919050565b611000611f18565b61100a6000611f96565b565b600c6000600e54815260200190815260200160002060060160009054906101000a900460ff16611071576040517f08c379a000000000000000000000000000000000000000000000000000000000815260040161106890613760565b60405180910390fd5b6002600154036110b6576040517f08c379a00000000000000000000000000000000000000000000000000000000081526004016110ad906137cc565b60405180910390fd5b6002600181905550600c6000600e54815260200190815260200160002060060160019054906101000a900460ff1615611133576110f3828261205a565b611132576040517f08c379a00000000000000000000000000000000000000000000000000000000081526004016111299061385e565b60405180910390fd5b5b42600c6000600e54815260200190815260200160002060050154600c6000600e54815260200190815260200160002060040154611170919061387e565b11156111e957600c6000600e54815260200190815260200160002060020154600c6000600e54815260200190815260200160002060010154106111e8576040517f08c379a00000000000000000000000000000000000000000000000000000000081526004016111df906138fe565b60405180910390fd5b5b600c6000600e54815260200190815260200160002060030154600c6000600e548152602001908152602001600020600101541061125b576040517f08c379a00000000000000000000000000000000000000000000000000000000081526004016112529061396a565b60405180910390fd5b600c6000600e54815260200190815260200160002060080160003373ffffffffffffffffffffffffffffffffffffffff1673ffffffffffffffffffffffffffffffffffffffff16815260200190815260200160002060009054906101000a900460ff16156112fe576040517f08c379a00000000000000000000000000000000000000000000000000000000081526004016112f5906139fc565b60405180910390fd5b6001600c6000600e54815260200190815260200160002060080160003373ffffffffffffffffffffffffffffffffffffffff1673ffffffffffffffffffffffffffffffffffffffff16815260200190815260200160002060006101000a81548160ff021916908315150217905550600c6000600e548152602001908152602001600020600101600081548092919061139590613a1c565b91905055506113a53360016120f9565b7f1a75c98f3caa5c596c30e5e4c83e0802685273950677d98a322c514a03b05b573360016040516113d7929190613a9f565b60405180910390a1600180819055505050565b6113f2611f18565b6113fa612117565b6114048282612164565b5050565b60008060009054906101000a900473ffffffffffffffffffffffffffffffffffffffff16905090565b6000600c600084815260200190815260200160002060080160008373ffffffffffffffffffffffffffffffffffffffff1673ffffffffffffffffffffffffffffffffffffffff16815260200190815260200160002060009054906101000a900460ff16905092915050565b6060600780546114ab9061336e565b80601f01602080910402602001604051908101604052809291908181526020018280546114d79061336e565b80156115245780601f106114f957610100808354040283529160200191611524565b820191906000526020600020905b81548152906001019060200180831161150757829003601f168201915b5050505050905090565b80600b600061153b611e63565b73ffffffffffffffffffffffffffffffffffffffff1673ffffffffffffffffffffffffffffffffffffffff16815260200190815260200160002060008473ffffffffffffffffffffffffffffffffffffffff1673ffffffffffffffffffffffffffffffffffffffff16815260200190815260200160002060006101000a81548160ff0219169083151502179055508173ffffffffffffffffffffffffffffffffffffffff166115e8611e63565b73ffffffffffffffffffffffffffffffffffffffff167f17307eab39ab6107e8899845ad3d59bd9653f200f220920489ca2b5937696c318360405161162d919061295f565b60405180910390a35050565b611641611f18565b600e600081548092919061165490613a1c565b9190505550600e54600c6000600e5481526020019081526020016000206000018190555084600c6000600e5481526020019081526020016000206002018190555083600c6000600e5481526020019081526020016000206003018190555082600c6000600e5481526020019081526020016000206005018190555081600c6000600e54815260200190815260200160002060060160016101000a81548160ff02191690831515021790555080600c6000600e5481526020019081526020016000206007018190555083600d600082825461172e919061387e565b925050819055505050505050565b611744611f18565b80600c6000600e54815260200190815260200160002060060160016101000a81548160ff02191690831515021790555050565b61177f611f18565b80600c6000600e5481526020019081526020016000206003018190555050565b6117aa848484610922565b60008373ffffffffffffffffffffffffffffffffffffffff163b146117eb576117d5848484846122f9565b6117ea576117e963d1a57ed660e01b611c12565b5b5b50505050565b6000806000806000806000600c600089815260200190815260200160002060010154600c60008a815260200190815260200160002060020154600c60008b815260200190815260200160002060030154600c60008c815260200190815260200160002060050154600c60008d815260200190815260200160002060060160009054906101000a900460ff16600c60008e815260200190815260200160002060060160019054906101000a900460ff16600c60008f8152602001908152602001600020600701549650965096509650965096509650919395979092949650565b606060006118dd83612428565b9050806040516020016118f09190613b50565b604051602081830303815290604052915050919050565b61190f611f18565b80600c6000600e5481526020019081526020016000206002018190555050565b611937611f18565b6000600c6000600e54815260200190815260200160002060060160006101000a81548160ff021916908315150217905550565b600d5481565b6000600b60008473ffffffffffffffffffffffffffffffffffffffff1673ffffffffffffffffffffffffffffffffffffffff16815260200190815260200160002060008373ffffffffffffffffffffffffffffffffffffffff1673ffffffffffffffffffffffffffffffffffffffff16815260200190815260200160002060009054906101000a900460ff16905092915050565b600e5481565b611a12611f18565b600073ffffffffffffffffffffffffffffffffffffffff168173ffffffffffffffffffffffffffffffffffffffff1603611a81576040517f08c379a0000000000000000000000000000000000000000000000000000000008152600401611a7890613be4565b60405180910390fd5b611a8a81611f96565b50565b60006301ffc9a760e01b827bffffffffffffffffffffffffffffffffffffffffffffffffffffffff19161480611ae857506380ac58cd60e01b827bffffffffffffffffffffffffffffffffffffffffffffffffffffffff1916145b80611b185750635b5e139f60e01b827bffffffffffffffffffffffffffffffffffffffffffffffffffffffff1916145b9050919050565b60007f2a55205a000000000000000000000000000000000000000000000000000000007bffffffffffffffffffffffffffffffffffffffffffffffffffffffff1916827bffffffffffffffffffffffffffffffffffffffffffffffffffffffff19161480611b925750611b91826124a5565b5b9050919050565b600081611ba4611d4b565b11611c0d57600454821015611c0c5760005b6000600860008581526020019081526020016000205491508103611be55782611bde90613c04565b9250611bb6565b60007c01000000000000000000000000000000000000000000000000000000008216149150505b5b919050565b8060005260046000fd5b6000611c2783610f4f565b9050818015611c6957508073ffffffffffffffffffffffffffffffffffffffff16611c50611e63565b73ffffffffffffffffffffffffffffffffffffffff1614155b15611c9557611c7f81611c7a611e63565b611970565b611c9457611c9363cfb3b94260e01b611c12565b5b5b83600a600085815260200190815260200160002060000160006101000a81548173ffffffffffffffffffffffffffffffffffffffff021916908373ffffffffffffffffffffffffffffffffffffffff160217905550828473ffffffffffffffffffffffffffffffffffffffff168273ffffffffffffffffffffffffffffffffffffffff167f8c5be1e5ebec7d5bd14f71427d1e84f3dd0314c0f7b2291e5b200ac8c7c3b92560405160405180910390a450505050565b600090565b600081611d5b611d4b565b11611e26576008600083815260200190815260200160002054905060008103611dfd576004548210611d9857611d9763df2d9b4260e01b611c12565b5b5b60086000836001900393508381526020019081526020016000205490506000810315611df85760007c010000000000000000000000000000000000000000000000000000000082160315611e3757611df763df2d9b4260e01b611c12565b5b611d99565b60007c010000000000000000000000000000000000000000000000000000000082160315611e37575b611e3663df2d9b4260e01b611c12565b5b919050565b6000806000600a600085815260200190815260200160002090508092508254915050915091565b600033905090565b600073ffffffffffffffffffffffffffffffffffffffff8316925073ffffffffffffffffffffffffffffffffffffffff821691508382148383141790509392505050565b50505050565b60008060e883901c905060e8611ecc86868461250f565b62ffffff16901b9150509392505050565b600073ffffffffffffffffffffffffffffffffffffffff83169250814260a01b178317905092915050565b50505050565b6000612710905090565b611f20612518565b73ffffffffffffffffffffffffffffffffffffffff16611f3e611408565b73ffffffffffffffffffffffffffffffffffffffff1614611f94576040517f08c379a0000000000000000000000000000000000000000000000000000000008152600401611f8b90613c79565b60405180910390fd5b565b60008060009054906101000a900473ffffffffffffffffffffffffffffffffffffffff169050816000806101000a81548173ffffffffffffffffffffffffffffffffffffffff021916908373ffffffffffffffffffffffffffffffffffffffff1602179055508173ffffffffffffffffffffffffffffffffffffffff168173ffffffffffffffffffffffffffffffffffffffff167f8be0079c531659141344cd1fd0a4f28419497f9722a3daafe3b4186f6b6457e060405160405180910390a35050565b6000803360405160200161206e9190612ad0565b60405160208183030381529060405280519060200120905060006120ec858580806020026020016040519081016040528093929190818152602001838360200280828437600081840152601f19601f82011690508083019250505050505050600c6000600e5481526020019081526020016000206007015484612520565b9050809250505092915050565b612113828260405180602001604052806000815250612537565b5050565b6002600080820160006101000a81549073ffffffffffffffffffffffffffffffffffffffff02191690556000820160146101000a8154906bffffffffffffffffffffffff02191690555050565b61216c611f0e565b6bffffffffffffffffffffffff16816bffffffffffffffffffffffff1611156121ca576040517f08c379a00000000000000000000000000000000000000000000000000000000081526004016121c190613d0b565b60405180910390fd5b600073ffffffffffffffffffffffffffffffffffffffff168273ffffffffffffffffffffffffffffffffffffffff1603612239576040517f08c379a000000000000000000000000000000000000000000000000000000000815260040161223090613d77565b60405180910390fd5b60405180604001604052808373ffffffffffffffffffffffffffffffffffffffff168152602001826bffffffffffffffffffffffff16815250600260008201518160000160006101000a81548173ffffffffffffffffffffffffffffffffffffffff021916908373ffffffffffffffffffffffffffffffffffffffff16021790555060208201518160000160146101000a8154816bffffffffffffffffffffffff02191690836bffffffffffffffffffffffff1602179055509050505050565b60008373ffffffffffffffffffffffffffffffffffffffff1663150b7a0261231f611e63565b8786866040518563ffffffff1660e01b81526004016123419493929190613dec565b6020604051808303816000875af192505050801561237d57506040513d601f19601f8201168201806040525081019061237a9190613e4d565b60015b6123d5573d80600081146123ad576040519150601f19603f3d011682016040523d82523d6000602084013e6123b2565b606091505b5060008151036123cd576123cc63d1a57ed660e01b611c12565b5b805181602001fd5b63150b7a0260e01b7bffffffffffffffffffffffffffffffffffffffffffffffffffffffff1916817bffffffffffffffffffffffffffffffffffffffffffffffffffffffff191614915050949350505050565b606061243382611b99565b6124485761244763a14c4b5060e01b611c12565b5b60006124526125bd565b90506000815103612472576040518060200160405280600081525061249d565b8061247c8461264f565b60405160200161248d929190613e7a565b6040516020818303038152906040525b915050919050565b60007f01ffc9a7000000000000000000000000000000000000000000000000000000007bffffffffffffffffffffffffffffffffffffffffffffffffffffffff1916827bffffffffffffffffffffffffffffffffffffffffffffffffffffffff1916149050919050565b60009392505050565b600033905090565b60008261252d858461269f565b1490509392505050565b61254183836126f5565b60008373ffffffffffffffffffffffffffffffffffffffff163b146125b85760006004549050600083820390505b61258260008683806001019450866122f9565b6125975761259663d1a57ed660e01b611c12565b5b81811061256f5781600454146125b5576125b4600060e01b611c12565b5b50505b505050565b6060600f80546125cc9061336e565b80601f01602080910402602001604051908101604052809291908181526020018280546125f89061336e565b80156126455780601f1061261a57610100808354040283529160200191612645565b820191906000526020600020905b81548152906001019060200180831161262857829003601f168201915b5050505050905090565b606060a060405101806040526020810391506000825281835b60011561268a57600184039350600a81066030018453600a8104905080612668575b50828103602084039350808452505050919050565b60008082905060005b84518110156126ea576126d5828683815181106126c8576126c7613e9e565b5b6020026020010151612859565b915080806126e290613a1c565b9150506126a8565b508091505092915050565b60006004549050600082036127155761271463b562e8dd60e01b611c12565b5b6127226000848385611eaf565b612742836127336000866000611eb5565b61273c85612884565b17611edd565b6008600083815260200190815260200160002081905550600160406001901b178202600960008573ffffffffffffffffffffffffffffffffffffffff1673ffffffffffffffffffffffffffffffffffffffff16815260200190815260200160002060008282540192505081905550600073ffffffffffffffffffffffffffffffffffffffff8473ffffffffffffffffffffffffffffffffffffffff16169050600081036127fa576127f9632e07630060e01b611c12565b5b6000838301905060008390505b808360007fddf252ad1be2c89b69c2b068fc378daa952ba7f163c4a11628f55a4df523b3ef600080a481816001019150810361280757816004819055505050506128546000848385611f08565b505050565b60008183106128715761286c8284612894565b61287c565b61287b8383612894565b5b905092915050565b60006001821460e11b9050919050565b600082600052816020526040600020905092915050565b6000604051905090565b600080fd5b600080fd5b60007fffffffff0000000000000000000000000000000000000000000000000000000082169050919050565b6128f4816128bf565b81146128ff57600080fd5b50565b600081359050612911816128eb565b92915050565b60006020828403121561292d5761292c6128b5565b5b600061293b84828501612902565b91505092915050565b60008115159050919050565b61295981612944565b82525050565b60006020820190506129746000830184612950565b92915050565b600081519050919050565b600082825260208201905092915050565b60005b838110156129b4578082015181840152602081019050612999565b60008484015250505050565b6000601f19601f8301169050919050565b60006129dc8261297a565b6129e68185612985565b93506129f6818560208601612996565b6129ff816129c0565b840191505092915050565b60006020820190508181036000830152612a2481846129d1565b905092915050565b6000819050919050565b612a3f81612a2c565b8114612a4a57600080fd5b50565b600081359050612a5c81612a36565b92915050565b600060208284031215612a7857612a776128b5565b5b6000612a8684828501612a4d565b91505092915050565b600073ffffffffffffffffffffffffffffffffffffffff82169050919050565b6000612aba82612a8f565b9050919050565b612aca81612aaf565b82525050565b6000602082019050612ae56000830184612ac1565b92915050565b612af481612aaf565b8114612aff57600080fd5b50565b600081359050612b1181612aeb565b92915050565b60008060408385031215612b2e57612b2d6128b5565b5b6000612b3c85828601612b02565b9250506020612b4d85828601612a4d565b9150509250929050565b612b6081612a2c565b82525050565b6000602082019050612b7b6000830184612b57565b92915050565b600080600060608486031215612b9a57612b996128b5565b5b6000612ba886828701612b02565b9350506020612bb986828701612b02565b9250506040612bca86828701612a4d565b9150509250925092565b60008060408385031215612beb57612bea6128b5565b5b6000612bf985828601612a4d565b9250506020612c0a85828601612a4d565b9150509250929050565b6000604082019050612c296000830185612ac1565b612c366020830184612b57565b9392505050565b600080fd5b600080fd5b7f4e487b7100000000000000000000000000000000000000000000000000000000600052604160045260246000fd5b612c7f826129c0565b810181811067ffffffffffffffff82111715612c9e57612c9d612c47565b5b80604052505050565b6000612cb16128ab565b9050612cbd8282612c76565b919050565b600067ffffffffffffffff821115612cdd57612cdc612c47565b5b612ce6826129c0565b9050602081019050919050565b82818337600083830152505050565b6000612d15612d1084612cc2565b612ca7565b905082815260208101848484011115612d3157612d30612c42565b5b612d3c848285612cf3565b509392505050565b600082601f830112612d5957612d58612c3d565b5b8135612d69848260208601612d02565b91505092915050565b600060208284031215612d8857612d876128b5565b5b600082013567ffffffffffffffff811115612da657612da56128ba565b5b612db284828501612d44565b91505092915050565b6000819050919050565b612dce81612dbb565b82525050565b600061012082019050612dea600083018c612b57565b612df7602083018b612b57565b612e04604083018a612b57565b612e116060830189612b57565b612e1e6080830188612b57565b612e2b60a0830187612b57565b612e3860c0830186612950565b612e4560e0830185612950565b612e53610100830184612dc5565b9a9950505050505050505050565b612e6a81612dbb565b8114612e7557600080fd5b50565b600081359050612e8781612e61565b92915050565b600060208284031215612ea357612ea26128b5565b5b6000612eb184828501612e78565b91505092915050565b600060208284031215612ed057612ecf6128b5565b5b6000612ede84828501612b02565b91505092915050565b600080fd5b600080fd5b60008083601f840112612f0757612f06612c3d565b5b8235905067ffffffffffffffff811115612f2457612f23612ee7565b5b602083019150836020820283011115612f4057612f3f612eec565b5b9250929050565b60008060208385031215612f5e57612f5d6128b5565b5b600083013567ffffffffffffffff811115612f7c57612f7b6128ba565b5b612f8885828601612ef1565b92509250509250929050565b60006bffffffffffffffffffffffff82169050919050565b612fb581612f94565b8114612fc057600080fd5b50565b600081359050612fd281612fac565b92915050565b60008060408385031215612fef57612fee6128b5565b5b6000612ffd85828601612b02565b925050602061300e85828601612fc3565b9150509250929050565b6000806040838503121561302f5761302e6128b5565b5b600061303d85828601612a4d565b925050602061304e85828601612b02565b9150509250929050565b61306181612944565b811461306c57600080fd5b50565b60008135905061307e81613058565b92915050565b6000806040838503121561309b5761309a6128b5565b5b60006130a985828601612b02565b92505060206130ba8582860161306f565b9150509250929050565b600080600080600060a086880312156130e0576130df6128b5565b5b60006130ee88828901612a4d565b95505060206130ff88828901612a4d565b945050604061311088828901612a4d565b93505060606131218882890161306f565b925050608061313288828901612e78565b9150509295509295909350565b600060208284031215613155576131546128b5565b5b60006131638482850161306f565b91505092915050565b600067ffffffffffffffff82111561318757613186612c47565b5b613190826129c0565b9050602081019050919050565b60006131b06131ab8461316c565b612ca7565b9050828152602081018484840111156131cc576131cb612c42565b5b6131d7848285612cf3565b509392505050565b600082601f8301126131f4576131f3612c3d565b5b813561320484826020860161319d565b91505092915050565b60008060008060808587031215613227576132266128b5565b5b600061323587828801612b02565b945050602061324687828801612b02565b935050604061325787828801612a4d565b925050606085013567ffffffffffffffff811115613278576132776128ba565b5b613284878288016131df565b91505092959194509250565b600060e0820190506132a5600083018a612b57565b6132b26020830189612b57565b6132bf6040830188612b57565b6132cc6060830187612b57565b6132d96080830186612950565b6132e660a0830185612950565b6132f360c0830184612dc5565b98975050505050505050565b60008060408385031215613316576133156128b5565b5b600061332485828601612b02565b925050602061333585828601612b02565b9150509250929050565b7f4e487b7100000000000000000000000000000000000000000000000000000000600052602260045260246000fd5b6000600282049050600182168061338657607f821691505b6020821081036133995761339861333f565b5b50919050565b7f4e487b7100000000000000000000000000000000000000000000000000000000600052601160045260246000fd5b60006133d982612a2c565b91506133e483612a2c565b92508282026133f281612a2c565b915082820484148315176134095761340861339f565b5b5092915050565b7f4e487b7100000000000000000000000000000000000000000000000000000000600052601260045260246000fd5b600061344a82612a2c565b915061345583612a2c565b92508261346557613464613410565b5b828204905092915050565b60008190508160005260206000209050919050565b60006020601f8301049050919050565b600082821b905092915050565b6000600883026134d27fffffffffffffffffffffffffffffffffffffffffffffffffffffffffffffffff82613495565b6134dc8683613495565b95508019841693508086168417925050509392505050565b6000819050919050565b600061351961351461350f84612a2c565b6134f4565b612a2c565b9050919050565b6000819050919050565b613533836134fe565b61354761353f82613520565b8484546134a2565b825550505050565b600090565b61355c61354f565b61356781848461352a565b505050565b5b8181101561358b57613580600082613554565b60018101905061356d565b5050565b601f8211156135d0576135a181613470565b6135aa84613485565b810160208510156135b9578190505b6135cd6135c585613485565b83018261356c565b50505b505050565b600082821c905092915050565b60006135f3600019846008026135d5565b1980831691505092915050565b600061360c83836135e2565b9150826002028217905092915050565b6136258261297a565b67ffffffffffffffff81111561363e5761363d612c47565b5b613648825461336e565b61365382828561358f565b600060209050601f8311600181146136865760008415613674578287015190505b61367e8582613600565b8655506136e6565b601f19841661369486613470565b60005b828110156136bc57848901518255600182019150602085019450602081019050613697565b868310156136d957848901516136d5601f8916826135e2565b8355505b6001600288020188555050505b505050505050565b7f4d696e74696e67206576656e7420686173206e6f74207374617274656420796560008201527f7400000000000000000000000000000000000000000000000000000000000000602082015250565b600061374a602183612985565b9150613755826136ee565b604082019050919050565b600060208201905081810360008301526137798161373d565b9050919050565b7f5265656e7472616e637947756172643a207265656e7472616e742063616c6c00600082015250565b60006137b6601f83612985565b91506137c182613780565b602082019050919050565b600060208201905081810360008301526137e5816137a9565b9050919050565b7f596f75722061646472657373206973206e6f7420696e2074686520776869746560008201527f6c69737400000000000000000000000000000000000000000000000000000000602082015250565b6000613848602483612985565b9150613853826137ec565b604082019050919050565b600060208201905081810360008301526138778161383b565b9050919050565b600061388982612a2c565b915061389483612a2c565b92508282019050808211156138ac576138ab61339f565b5b92915050565b7f4578636565646564206d6178207072656d696e74204e46547320616d6f756e74600082015250565b60006138e8602083612985565b91506138f3826138b2565b602082019050919050565b60006020820190508181036000830152613917816138db565b9050919050565b7f4578636565646564206d6178204e46547320616d6f756e740000000000000000600082015250565b6000613954601883612985565b915061395f8261391e565b602082019050919050565b6000602082019050818103600083015261398381613947565b9050919050565b7f4d696e74696e6720776f756c64206578636565642077616c6c6574206c696d6960008201527f7400000000000000000000000000000000000000000000000000000000000000602082015250565b60006139e6602183612985565b91506139f18261398a565b604082019050919050565b60006020820190508181036000830152613a15816139d9565b9050919050565b6000613a2782612a2c565b91507fffffffffffffffffffffffffffffffffffffffffffffffffffffffffffffffff8203613a5957613a5861339f565b5b600182019050919050565b6000819050919050565b6000613a89613a84613a7f84613a64565b6134f4565b612a2c565b9050919050565b613a9981613a6e565b82525050565b6000604082019050613ab46000830185612ac1565b613ac16020830184613a90565b9392505050565b600081905092915050565b6000613ade8261297a565b613ae88185613ac8565b9350613af8818560208601612996565b80840191505092915050565b7f2e6a736f6e000000000000000000000000000000000000000000000000000000600082015250565b6000613b3a600583613ac8565b9150613b4582613b04565b600582019050919050565b6000613b5c8284613ad3565b9150613b6782613b2d565b915081905092915050565b7f4f776e61626c653a206e6577206f776e657220697320746865207a65726f206160008201527f6464726573730000000000000000000000000000000000000000000000000000602082015250565b6000613bce602683612985565b9150613bd982613b72565b604082019050919050565b60006020820190508181036000830152613bfd81613bc1565b9050919050565b6000613c0f82612a2c565b915060008203613c2257613c2161339f565b5b600182039050919050565b7f4f776e61626c653a2063616c6c6572206973206e6f7420746865206f776e6572600082015250565b6000613c63602083612985565b9150613c6e82613c2d565b602082019050919050565b60006020820190508181036000830152613c9281613c56565b9050919050565b7f455243323938313a20726f79616c7479206665652077696c6c2065786365656460008201527f2073616c65507269636500000000000000000000000000000000000000000000602082015250565b6000613cf5602a83612985565b9150613d0082613c99565b604082019050919050565b60006020820190508181036000830152613d2481613ce8565b9050919050565b7f455243323938313a20696e76616c696420726563656976657200000000000000600082015250565b6000613d61601983612985565b9150613d6c82613d2b565b602082019050919050565b60006020820190508181036000830152613d9081613d54565b9050919050565b600081519050919050565b600082825260208201905092915050565b6000613dbe82613d97565b613dc88185613da2565b9350613dd8818560208601612996565b613de1816129c0565b840191505092915050565b6000608082019050613e016000830187612ac1565b613e0e6020830186612ac1565b613e1b6040830185612b57565b8181036060830152613e2d8184613db3565b905095945050505050565b600081519050613e47816128eb565b92915050565b600060208284031215613e6357613e626128b5565b5b6000613e7184828501613e38565b91505092915050565b6000613e868285613ad3565b9150613e928284613ad3565b91508190509392505050565b7f4e487b7100000000000000000000000000000000000000000000000000000000600052603260045260246000fdfea26469706673582212200995550ee265af9f62123b8239b553b309f1c931e3089da970f65caf606fa33e64736f6c63430008130033",
  "linkReferences": {},
  "deployedLinkReferences": {}
}