{"contracts/Girant_Amulet.sol":{"Girand_Amulet":{"abi":[{"inputs":[{"internalType":"string","name":"baseURI","type":"string"},{"internalType":"string","name":"name","type":"string"},{"internalType":"string","name":"symbol","type":"string"},{"internalType":"uint96","name":"royalty","type":"uint96"}],"stateMutability":"nonpayable","type":"constructor"},{"inputs":[],"name":"ApprovalCallerNotOwnerNorApproved","type":"error"},{"inputs":[],"name":"ApprovalQueryForNonexistentToken","type":"error"},{"inputs":[],"name":"BalanceQueryForZeroAddress","type":"error"},{"inputs":[],"name":"MintERC2309QuantityExceedsLimit","type":"error"},{"inputs":[],"name":"MintToZeroAddress","type":"error"},{"inputs":[],"name":"MintZeroQuantity","type":"error"},{"inputs":[],"name":"OwnerQueryForNonexistentToken","type":"error"},{"inputs":[],"name":"OwnershipNotInitializedForExtraData","type":"error"},{"inputs":[],"name":"TransferCallerNotOwnerNorApproved","type":"error"},{"inputs":[],"name":"TransferFromIncorrectOwner","type":"error"},{"inputs":[],"name":"TransferToNonERC721ReceiverImplementer","type":"error"},{"inputs":[],"name":"TransferToZeroAddress","type":"error"},{"inputs":[],"name":"URIQueryForNonexistentToken","type":"error"},{"anonymous":false,"inputs":[{"indexed":false,"internalType":"uint256","name":"tokensCount","type":"uint256"}],"name":"Airdrop","type":"event"},{"anonymous":false,"inputs":[{"indexed":true,"internalType":"address","name":"owner","type":"address"},{"indexed":true,"internalType":"address","name":"approved","type":"address"},{"indexed":true,"internalType":"uint256","name":"tokenId","type":"uint256"}],"name":"Approval","type":"event"},{"anonymous":false,"inputs":[{"indexed":true,"internalType":"address","name":"owner","type":"address"},{"indexed":true,"internalType":"address","name":"operator","type":"address"},{"indexed":false,"internalType":"bool","name":"approved","type":"bool"}],"name":"ApprovalForAll","type":"event"},{"anonymous":false,"inputs":[{"indexed":false,"internalType":"string","name":"baseURI","type":"string"}],"name":"BaseURIChanged","type":"event"},{"anonymous":false,"inputs":[{"indexed":true,"internalType":"uint256","name":"fromTokenId","type":"uint256"},{"indexed":false,"internalType":"uint256","name":"toTokenId","type":"uint256"},{"indexed":true,"internalType":"address","name":"from","type":"address"},{"indexed":true,"internalType":"address","name":"to","type":"address"}],"name":"ConsecutiveTransfer","type":"event"},{"anonymous":false,"inputs":[{"indexed":false,"internalType":"address","name":"mintTo","type":"address"},{"indexed":false,"internalType":"uint256","name":"tokensCount","type":"uint256"}],"name":"FreeMint","type":"event"},{"anonymous":false,"inputs":[{"indexed":false,"internalType":"uint256","name":"id","type":"uint256"}],"name":"NewFreeDrop","type":"event"},{"anonymous":false,"inputs":[{"indexed":true,"internalType":"address","name":"previousOwner","type":"address"},{"indexed":true,"internalType":"address","name":"newOwner","type":"address"}],"name":"OwnershipTransferred","type":"event"},{"anonymous":false,"inputs":[{"indexed":false,"internalType":"address","name":"mintTo","type":"address"},{"indexed":false,"internalType":"uint256","name":"tokensCount","type":"uint256"}],"name":"SaleMint","type":"event"},{"anonymous":false,"inputs":[{"indexed":true,"internalType":"address","name":"from","type":"address"},{"indexed":true,"internalType":"address","name":"to","type":"address"},{"indexed":true,"internalType":"uint256","name":"tokenId","type":"uint256"}],"name":"Transfer","type":"event"},{"inputs":[],"name":"NFTLimitPresale","outputs":[{"internalType":"uint256","name":"","type":"uint256"}],"stateMutability":"view","type":"function"},{"inputs":[],"name":"NFTLimitPublic","outputs":[{"internalType":"uint256","name":"","type":"uint256"}],"stateMutability":"view","type":"function"},{"inputs":[{"internalType":"address","name":"","type":"address"}],"name":"NFTtracker","outputs":[{"internalType":"uint256","name":"","type":"uint256"}],"stateMutability":"view","type":"function"},{"inputs":[{"internalType":"uint256","name":"quantity","type":"uint256"},{"internalType":"address[]","name":"receivers","type":"address[]"}],"name":"airdrop","outputs":[],"stateMutability":"nonpayable","type":"function"},{"inputs":[{"internalType":"address","name":"to","type":"address"},{"internalType":"uint256","name":"tokenId","type":"uint256"}],"name":"approve","outputs":[],"stateMutability":"payable","type":"function"},{"inputs":[{"internalType":"address","name":"owner","type":"address"}],"name":"balanceOf","outputs":[{"internalType":"uint256","name":"","type":"uint256"}],"stateMutability":"view","type":"function"},{"inputs":[{"internalType":"address","name":"receiver","type":"address"},{"internalType":"uint96","name":"feeNumerator","type":"uint96"}],"name":"changeDefaultRoyalties","outputs":[],"stateMutability":"nonpayable","type":"function"},{"inputs":[{"internalType":"bytes32[]","name":"proof","type":"bytes32[]"},{"internalType":"uint256","name":"dropId","type":"uint256"}],"name":"freeMint","outputs":[],"stateMutability":"nonpayable","type":"function"},{"inputs":[{"internalType":"uint256","name":"tokenId","type":"uint256"}],"name":"getApproved","outputs":[{"internalType":"address","name":"","type":"address"}],"stateMutability":"view","type":"function"},{"inputs":[{"internalType":"address","name":"owner","type":"address"},{"internalType":"address","name":"operator","type":"address"}],"name":"isApprovedForAll","outputs":[{"internalType":"bool","name":"","type":"bool"}],"stateMutability":"view","type":"function"},{"inputs":[],"name":"lastDropId","outputs":[{"internalType":"uint256","name":"","type":"uint256"}],"stateMutability":"view","type":"function"},{"inputs":[],"name":"maxSupply","outputs":[{"internalType":"uint256","name":"","type":"uint256"}],"stateMutability":"view","type":"function"},{"inputs":[],"name":"name","outputs":[{"internalType":"string","name":"","type":"string"}],"stateMutability":"view","type":"function"},{"inputs":[],"name":"owner","outputs":[{"internalType":"address","name":"","type":"address"}],"stateMutability":"view","type":"function"},{"inputs":[{"internalType":"uint256","name":"tokenId","type":"uint256"}],"name":"ownerOf","outputs":[{"internalType":"address","name":"","type":"address"}],"stateMutability":"view","type":"function"},{"inputs":[{"internalType":"uint256","name":"quantity","type":"uint256"},{"internalType":"bytes32[]","name":"proof","type":"bytes32[]"}],"name":"presaleMint","outputs":[],"stateMutability":"payable","type":"function"},{"inputs":[],"name":"presalePrice","outputs":[{"internalType":"uint256","name":"","type":"uint256"}],"stateMutability":"view","type":"function"},{"inputs":[],"name":"presaleStarted","outputs":[{"internalType":"bool","name":"","type":"bool"}],"stateMutability":"view","type":"function"},{"inputs":[{"internalType":"uint256","name":"quantity","type":"uint256"}],"name":"publicMint","outputs":[],"stateMutability":"payable","type":"function"},{"inputs":[],"name":"publicSalePrice","outputs":[{"internalType":"uint256","name":"","type":"uint256"}],"stateMutability":"view","type":"function"},{"inputs":[],"name":"publicSaleStarted","outputs":[{"internalType":"bool","name":"","type":"bool"}],"stateMutability":"view","type":"function"},{"inputs":[],"name":"renounceOwnership","outputs":[],"stateMutability":"nonpayable","type":"function"},{"inputs":[{"internalType":"uint256","name":"_tokenId","type":"uint256"},{"internalType":"uint256","name":"_salePrice","type":"uint256"}],"name":"royaltyInfo","outputs":[{"internalType":"address","name":"","type":"address"},{"internalType":"uint256","name":"","type":"uint256"}],"stateMutability":"view","type":"function"},{"inputs":[{"internalType":"address","name":"from","type":"address"},{"internalType":"address","name":"to","type":"address"},{"internalType":"uint256","name":"tokenId","type":"uint256"}],"name":"safeTransferFrom","outputs":[],"stateMutability":"payable","type":"function"},{"inputs":[{"internalType":"address","name":"from","type":"address"},{"internalType":"address","name":"to","type":"address"},{"internalType":"uint256","name":"tokenId","type":"uint256"},{"internalType":"bytes","name":"_data","type":"bytes"}],"name":"safeTransferFrom","outputs":[],"stateMutability":"payable","type":"function"},{"inputs":[{"internalType":"address","name":"operator","type":"address"},{"internalType":"bool","name":"approved","type":"bool"}],"name":"setApprovalForAll","outputs":[],"stateMutability":"nonpayable","type":"function"},{"inputs":[{"internalType":"string","name":"baseURI","type":"string"}],"name":"setBaseURI","outputs":[],"stateMutability":"nonpayable","type":"function"},{"inputs":[{"internalType":"uint256","name":"_maxSupply","type":"uint256"}],"name":"setNFTHardcap","outputs":[],"stateMutability":"nonpayable","type":"function"},{"inputs":[{"internalType":"uint256","name":"_newLimitPublic","type":"uint256"},{"internalType":"uint256","name":"_newLimitPresale","type":"uint256"}],"name":"setNFTLimits","outputs":[],"stateMutability":"nonpayable","type":"function"},{"inputs":[{"internalType":"uint256","name":"_preMintMaxSupply","type":"uint256"},{"internalType":"uint256","name":"_maxSupply","type":"uint256"},{"internalType":"uint256","name":"_timeMintAfterPreMint","type":"uint256"},{"internalType":"bool","name":"_whiteList","type":"bool"},{"internalType":"bytes32","name":"_merkleRoot","type":"bytes32"}],"name":"setNewDrop","outputs":[],"stateMutability":"nonpayable","type":"function"},{"inputs":[{"internalType":"uint256","name":"_maxSupply","type":"uint256"},{"internalType":"uint256","name":"dropId","type":"uint256"}],"name":"setNewMaxSupply","outputs":[],"stateMutability":"nonpayable","type":"function"},{"inputs":[{"internalType":"bytes32","name":"_merkleRoot","type":"bytes32"},{"internalType":"uint256","name":"dropId","type":"uint256"}],"name":"setNewMerkleRoot","outputs":[],"stateMutability":"nonpayable","type":"function"},{"inputs":[{"internalType":"uint256","name":"_preMintMaxSupply","type":"uint256"},{"internalType":"uint256","name":"dropId","type":"uint256"}],"name":"setNewPreMintMaxSupply","outputs":[],"stateMutability":"nonpayable","type":"function"},{"inputs":[{"internalType":"uint256","name":"_timeMintAfterPreMint","type":"uint256"},{"internalType":"uint256","name":"dropId","type":"uint256"}],"name":"setNewTimeMintAfterPreMint","outputs":[],"stateMutability":"nonpayable","type":"function"},{"inputs":[{"internalType":"uint256","name":"_newPublicSalePrice","type":"uint256"},{"internalType":"uint256","name":"_newPresalePrice","type":"uint256"}],"name":"setPrices","outputs":[],"stateMutability":"nonpayable","type":"function"},{"inputs":[{"internalType":"bool","name":"_whiteList","type":"bool"},{"internalType":"uint256","name":"dropId","type":"uint256"}],"name":"setWhiteListState","outputs":[],"stateMutability":"nonpayable","type":"function"},{"inputs":[{"internalType":"bytes32","name":"_merkleRoot","type":"bytes32"}],"name":"setmerkleRoot","outputs":[],"stateMutability":"nonpayable","type":"function"},{"inputs":[{"internalType":"uint256","name":"dropId","type":"uint256"}],"name":"startFreeMint","outputs":[],"stateMutability":"nonpayable","type":"function"},{"inputs":[{"internalType":"uint256","name":"dropId","type":"uint256"}],"name":"stopFreeMint","outputs":[],"stateMutability":"nonpayable","type":"function"},{"inputs":[{"internalType":"bytes4","name":"interfaceId","type":"bytes4"}],"name":"supportsInterface","outputs":[{"internalType":"bool","name":"","type":"bool"}],"stateMutability":"view","type":"function"},{"inputs":[],"name":"symbol","outputs":[{"internalType":"string","name":"","type":"string"}],"stateMutability":"view","type":"function"},{"inputs":[],"name":"togglePresaleStarted","outputs":[],"stateMutability":"nonpayable","type":"function"},{"inputs":[],"name":"togglePublicSaleStarted","outputs":[],"stateMutability":"nonpayable","type":"function"},{"inputs":[{"internalType":"uint256","name":"tokenId","type":"uint256"}],"name":"tokenURI","outputs":[{"internalType":"string","name":"","type":"string"}],"stateMutability":"view","type":"function"},{"inputs":[],"name":"totalNFTs","outputs":[{"internalType":"uint256","name":"","type":"uint256"}],"stateMutability":"view","type":"function"},{"inputs":[],"name":"totalSupply","outputs":[{"internalType":"uint256","name":"","type":"uint256"}],"stateMutability":"view","type":"function"},{"inputs":[{"internalType":"address","name":"from","type":"address"},{"internalType":"address","name":"to","type":"address"},{"internalType":"uint256","name":"tokenId","type":"uint256"}],"name":"transferFrom","outputs":[],"stateMutability":"payable","type":"function"},{"inputs":[{"internalType":"address","name":"newOwner","type":"address"}],"name":"transferOwnership","outputs":[],"stateMutability":"nonpayable","type":"function"}],"evm":{"bytecode":{"linkReferences":{},"object":"60806040523480156200001157600080fd5b506040516200542c3803806200542c83398181016040528101906200003791906200052d565b8282620000596200004d620000d360201b60201c565b620000db60201b60201c565b60018081905550816006908162000071919062000847565b50806007908162000083919062000847565b50620000946200019f60201b60201c565b60048190555050508360119081620000ad919062000847565b50612710601081905550620000c93382620001a460201b60201c565b5050505062000a49565b600033905090565b60008060009054906101000a900473ffffffffffffffffffffffffffffffffffffffff169050816000806101000a81548173ffffffffffffffffffffffffffffffffffffffff021916908373ffffffffffffffffffffffffffffffffffffffff1602179055508173ffffffffffffffffffffffffffffffffffffffff168173ffffffffffffffffffffffffffffffffffffffff167f8be0079c531659141344cd1fd0a4f28419497f9722a3daafe3b4186f6b6457e060405160405180910390a35050565b600090565b620001b46200034760201b60201c565b6bffffffffffffffffffffffff16816bffffffffffffffffffffffff16111562000215576040517f08c379a00000000000000000000000000000000000000000000000000000000081526004016200020c90620009b5565b60405180910390fd5b600073ffffffffffffffffffffffffffffffffffffffff168273ffffffffffffffffffffffffffffffffffffffff160362000287576040517f08c379a00000000000000000000000000000000000000000000000000000000081526004016200027e9062000a27565b60405180910390fd5b60405180604001604052808373ffffffffffffffffffffffffffffffffffffffff168152602001826bffffffffffffffffffffffff16815250600260008201518160000160006101000a81548173ffffffffffffffffffffffffffffffffffffffff021916908373ffffffffffffffffffffffffffffffffffffffff16021790555060208201518160000160146101000a8154816bffffffffffffffffffffffff02191690836bffffffffffffffffffffffff1602179055509050505050565b6000612710905090565b6000604051905090565b600080fd5b600080fd5b600080fd5b600080fd5b6000601f19601f8301169050919050565b7f4e487b7100000000000000000000000000000000000000000000000000000000600052604160045260246000fd5b620003ba826200036f565b810181811067ffffffffffffffff82111715620003dc57620003db62000380565b5b80604052505050565b6000620003f162000351565b9050620003ff8282620003af565b919050565b600067ffffffffffffffff82111562000422576200042162000380565b5b6200042d826200036f565b9050602081019050919050565b60005b838110156200045a5780820151818401526020810190506200043d565b60008484015250505050565b60006200047d620004778462000404565b620003e5565b9050828152602081018484840111156200049c576200049b6200036a565b5b620004a98482856200043a565b509392505050565b600082601f830112620004c957620004c862000365565b5b8151620004db84826020860162000466565b91505092915050565b60006bffffffffffffffffffffffff82169050919050565b6200050781620004e4565b81146200051357600080fd5b50565b6000815190506200052781620004fc565b92915050565b600080600080608085870312156200054a57620005496200035b565b5b600085015167ffffffffffffffff8111156200056b576200056a62000360565b5b6200057987828801620004b1565b945050602085015167ffffffffffffffff8111156200059d576200059c62000360565b5b620005ab87828801620004b1565b935050604085015167ffffffffffffffff811115620005cf57620005ce62000360565b5b620005dd87828801620004b1565b9250506060620005f08782880162000516565b91505092959194509250565b600081519050919050565b7f4e487b7100000000000000000000000000000000000000000000000000000000600052602260045260246000fd5b600060028204905060018216806200064f57607f821691505b60208210810362000665576200066462000607565b5b50919050565b60008190508160005260206000209050919050565b60006020601f8301049050919050565b600082821b905092915050565b600060088302620006cf7fffffffffffffffffffffffffffffffffffffffffffffffffffffffffffffffff8262000690565b620006db868362000690565b95508019841693508086168417925050509392505050565b6000819050919050565b6000819050919050565b600062000728620007226200071c84620006f3565b620006fd565b620006f3565b9050919050565b6000819050919050565b620007448362000707565b6200075c62000753826200072f565b8484546200069d565b825550505050565b600090565b6200077362000764565b6200078081848462000739565b505050565b5b81811015620007a8576200079c60008262000769565b60018101905062000786565b5050565b601f821115620007f757620007c1816200066b565b620007cc8462000680565b81016020851015620007dc578190505b620007f4620007eb8562000680565b83018262000785565b50505b505050565b600082821c905092915050565b60006200081c60001984600802620007fc565b1980831691505092915050565b600062000837838362000809565b9150826002028217905092915050565b6200085282620005fc565b67ffffffffffffffff8111156200086e576200086d62000380565b5b6200087a825462000636565b62000887828285620007ac565b600060209050601f831160018114620008bf5760008415620008aa578287015190505b620008b6858262000829565b86555062000926565b601f198416620008cf866200066b565b60005b82811015620008f957848901518255600182019150602085019450602081019050620008d2565b8683101562000919578489015162000915601f89168262000809565b8355505b6001600288020188555050505b505050505050565b600082825260208201905092915050565b7f455243323938313a20726f79616c7479206665652077696c6c2065786365656460008201527f2073616c65507269636500000000000000000000000000000000000000000000602082015250565b60006200099d602a836200092e565b9150620009aa826200093f565b604082019050919050565b60006020820190508181036000830152620009d0816200098e565b9050919050565b7f455243323938313a20696e76616c696420726563656976657200000000000000600082015250565b600062000a0f6019836200092e565b915062000a1c82620009d7565b602082019050919050565b6000602082019050818103600083015262000a428162000a00565b9050919050565b6149d38062000a596000396000f3fe6080604052600436106102925760003560e01c80636352211e1161015a578063a9fe3075116100c1578063e3e1e8ef1161007a578063e3e1e8ef14610991578063e858ad03146109ad578063e985e9c5146109d6578063ed1fc2a214610a13578063f2fde38b14610a2a578063fdc3631614610a5357610292565b8063a9fe307514610892578063b88d4fde146108bb578063bdf7a8e6146108d7578063c87b56dd14610900578063d5abeb011461093d578063d60e45ee1461096857610292565b806392913970116101135780639291397014610796578063956e6e1e146107bf57806395d89b41146107e85780639b6860c814610813578063a22cb4651461083e578063a2e914771461086757610292565b80636352211e1461068657806370a08231146106c3578063715018a614610700578063855d5180146107175780638b63d54a146107425780638da5cb5b1461076b57610292565b806323b872dd116101fe5780633615ab45116101b75780633615ab451461059b5780633abb9190146105c457806341f4bbfe146105ed57806342842e0e1461061857806355f804b314610634578063626440661461065d57610292565b806323b872dd146104bc5780632a55205a146104d85780632a8f8c5e146105165780632db115441461053f5780632efd3cb91461055b5780632f8145751461058457610292565b8063081812fc11610250578063081812fc146103a7578063095ea7b3146103e45780630d0e96da1461040057806314dcb4281461042b57806315c914db1461045457806318160ddd1461049157610292565b80620e7fa8146102975780630175df62146102c257806301ffc9a7146102eb57806304549d6f1461032857806305fefda71461035357806306fdde031461037c575b600080fd5b3480156102a357600080fd5b506102ac610a7e565b6040516102b9919061318d565b60405180910390f35b3480156102ce57600080fd5b506102e960048036038101906102e4919061321e565b610a84565b005b3480156102f757600080fd5b50610312600480360381019061030d91906132b6565b610aab565b60405161031f91906132fe565b60405180910390f35b34801561033457600080fd5b5061033d610acd565b60405161034a91906132fe565b60405180910390f35b34801561035f57600080fd5b5061037a60048036038101906103759190613319565b610ae0565b005b34801561038857600080fd5b50610391610afa565b60405161039e91906133e9565b60405180910390f35b3480156103b357600080fd5b506103ce60048036038101906103c9919061340b565b610b8c565b6040516103db9190613479565b60405180910390f35b6103fe60048036038101906103f991906134c0565b610bea565b005b34801561040c57600080fd5b50610415610bfa565b604051610422919061318d565b60405180910390f35b34801561043757600080fd5b50610452600480360381019061044d9190613319565b610c00565b005b34801561046057600080fd5b5061047b60048036038101906104769190613500565b610c1a565b604051610488919061318d565b60405180910390f35b34801561049d57600080fd5b506104a6610c32565b6040516104b3919061318d565b60405180910390f35b6104d660048036038101906104d1919061352d565b610c49565b005b3480156104e457600080fd5b506104ff60048036038101906104fa9190613319565b610f0a565b60405161050d929190613580565b60405180910390f35b34801561052257600080fd5b5061053d60048036038101906105389190613319565b6110f4565b005b6105596004803603810190610554919061340b565b61111b565b005b34801561056757600080fd5b50610582600480360381019061057d919061340b565b6113b6565b005b34801561059057600080fd5b5061059961140b565b005b3480156105a757600080fd5b506105c260048036038101906105bd919061360e565b61143f565b005b3480156105d057600080fd5b506105eb60048036038101906105e6919061340b565b611825565b005b3480156105f957600080fd5b50610602611837565b60405161060f919061318d565b60405180910390f35b610632600480360381019061062d919061352d565b61183d565b005b34801561064057600080fd5b5061065b6004803603810190610656919061379e565b61185d565b005b34801561066957600080fd5b50610684600480360381019061067f9190613319565b6118af565b005b34801561069257600080fd5b506106ad60048036038101906106a8919061340b565b6118d6565b6040516106ba9190613479565b60405180910390f35b3480156106cf57600080fd5b506106ea60048036038101906106e59190613500565b6118e8565b6040516106f7919061318d565b60405180910390f35b34801561070c57600080fd5b5061071561197f565b005b34801561072357600080fd5b5061072c611993565b604051610739919061318d565b60405180910390f35b34801561074e57600080fd5b506107696004803603810190610764919061382b565b611999565b005b34801561077757600080fd5b506107806119b7565b60405161078d9190613479565b60405180910390f35b3480156107a257600080fd5b506107bd60048036038101906107b89190613897565b6119e0565b005b3480156107cb57600080fd5b506107e660048036038101906107e1919061340b565b611a1a565b005b3480156107f457600080fd5b506107fd611a54565b60405161080a91906133e9565b60405180910390f35b34801561081f57600080fd5b50610828611ae6565b604051610835919061318d565b60405180910390f35b34801561084a57600080fd5b50610865600480360381019061086091906138d7565b611aec565b005b34801561087357600080fd5b5061087c611bf7565b60405161088991906132fe565b60405180910390f35b34801561089e57600080fd5b506108b960048036038101906108b49190613917565b611c0a565b005b6108d560048036038101906108d09190613a33565b611d27565b005b3480156108e357600080fd5b506108fe60048036038101906108f99190613b0c565b611d79565b005b34801561090c57600080fd5b506109276004803603810190610922919061340b565b611e9c565b60405161093491906133e9565b60405180910390f35b34801561094957600080fd5b50610952611ed3565b60405161095f919061318d565b60405180910390f35b34801561097457600080fd5b5061098f600480360381019061098a9190613319565b611ed9565b005b6109ab60048036038101906109a69190613b6c565b611f00565b005b3480156109b957600080fd5b506109d460048036038101906109cf9190613bcc565b6121db565b005b3480156109e257600080fd5b506109fd60048036038101906109f89190613bf9565b6121ed565b604051610a0a91906132fe565b60405180910390f35b348015610a1f57600080fd5b50610a28612281565b005b348015610a3657600080fd5b50610a516004803603810190610a4c9190613500565b6122b5565b005b348015610a5f57600080fd5b50610a68612338565b604051610a75919061318d565b60405180910390f35b60175481565b610a8c61233e565b81600c6000838152602001908152602001600020600701819055505050565b6000610ab6826123bc565b80610ac65750610ac58261244e565b5b9050919050565b601260019054906101000a900460ff1681565b610ae861233e565b81601681905550806017819055505050565b606060068054610b0990613c68565b80601f0160208091040260200160405190810160405280929190818152602001828054610b3590613c68565b8015610b825780601f10610b5757610100808354040283529160200191610b82565b820191906000526020600020905b815481529060010190602001808311610b6557829003601f168201915b5050505050905090565b6000610b97826124c8565b610bac57610bab63cf4700e460e01b612541565b5b600a600083815260200190815260200160002060000160009054906101000a900473ffffffffffffffffffffffffffffffffffffffff169050919050565b610bf68282600161254b565b5050565b600f5481565b610c0861233e565b81601481905550806015819055505050565b60136020528060005260406000206000915090505481565b6000610c3c61267a565b6005546004540303905090565b6000610c548261267f565b905073ffffffffffffffffffffffffffffffffffffffff8473ffffffffffffffffffffffffffffffffffffffff161693508373ffffffffffffffffffffffffffffffffffffffff168173ffffffffffffffffffffffffffffffffffffffff1614610cc957610cc863a114810060e01b612541565b5b600080610cd58461276b565b91509150610ceb8187610ce6612792565b61279a565b610d1657610d0086610cfb612792565b6121ed565b610d1557610d146359c896be60e01b612541565b5b5b610d2386868660016127de565b8015610d2e57600082555b600960008773ffffffffffffffffffffffffffffffffffffffff1673ffffffffffffffffffffffffffffffffffffffff168152602001908152602001600020600081546001900391905081905550600960008673ffffffffffffffffffffffffffffffffffffffff1673ffffffffffffffffffffffffffffffffffffffff1681526020019081526020016000206000815460010191905081905550610dfc85610dd88888876127e4565b7c02000000000000000000000000000000000000000000000000000000001761280c565b600860008681526020019081526020016000208190555060007c0200000000000000000000000000000000000000000000000000000000841603610e825760006001850190506000600860008381526020019081526020016000205403610e80576004548114610e7f578360086000838152602001908152602001600020819055505b5b505b600073ffffffffffffffffffffffffffffffffffffffff8673ffffffffffffffffffffffffffffffffffffffff161690508481887fddf252ad1be2c89b69c2b068fc378daa952ba7f163c4a11628f55a4df523b3ef600080a460008103610ef457610ef363ea553b3460e01b612541565b5b610f018787876001612837565b50505050505050565b6000806000600360008681526020019081526020016000206040518060400160405290816000820160009054906101000a900473ffffffffffffffffffffffffffffffffffffffff1673ffffffffffffffffffffffffffffffffffffffff1673ffffffffffffffffffffffffffffffffffffffff1681526020016000820160149054906101000a90046bffffffffffffffffffffffff166bffffffffffffffffffffffff166bffffffffffffffffffffffff16815250509050600073ffffffffffffffffffffffffffffffffffffffff16816000015173ffffffffffffffffffffffffffffffffffffffff160361109f5760026040518060400160405290816000820160009054906101000a900473ffffffffffffffffffffffffffffffffffffffff1673ffffffffffffffffffffffffffffffffffffffff1673ffffffffffffffffffffffffffffffffffffffff1681526020016000820160149054906101000a90046bffffffffffffffffffffffff166bffffffffffffffffffffffff166bffffffffffffffffffffffff168152505090505b60006110a961283d565b6bffffffffffffffffffffffff1682602001516bffffffffffffffffffffffff16866110d59190613cc8565b6110df9190613d39565b90508160000151819350935050509250929050565b6110fc61233e565b81600c6000838152602001908152602001600020600501819055505050565b601260009054906101000a900460ff1661116a576040517f08c379a000000000000000000000000000000000000000000000000000000000815260040161116190613db6565b60405180910390fd5b6002600154036111af576040517f08c379a00000000000000000000000000000000000000000000000000000000081526004016111a690613e22565b60405180910390fd5b6002600181905550601054816111c3610c32565b6111cd9190613e42565b111561120e576040517f08c379a000000000000000000000000000000000000000000000000000000000815260040161120590613ec2565b60405180910390fd5b60155460145461121e9190613e42565b81601360003373ffffffffffffffffffffffffffffffffffffffff1673ffffffffffffffffffffffffffffffffffffffff168152602001908152602001600020546112699190613e42565b11156112aa576040517f08c379a00000000000000000000000000000000000000000000000000000000081526004016112a190613f54565b60405180910390fd5b34816016546112b99190613cc8565b11156112fa576040517f08c379a00000000000000000000000000000000000000000000000000000000081526004016112f190613fc0565b60405180910390fd5b6113043382612847565b80600f60008282546113169190613e42565b9250508190555080601360003373ffffffffffffffffffffffffffffffffffffffff1673ffffffffffffffffffffffffffffffffffffffff168152602001908152602001600020600082825461136c9190613e42565b925050819055507f35b6d348af664cd334c7ec2746e1ab49907efa953fa3f622552cd0b19a828b3f33826040516113a4929190613580565b60405180910390a16001808190555050565b6113be61233e565b42600c6000838152602001908152602001600020600401819055506001600c600083815260200190815260200160002060060160006101000a81548160ff02191690831515021790555050565b61141361233e565b601260009054906101000a900460ff1615601260006101000a81548160ff021916908315150217905550565b80600c600082815260200190815260200160002060060160009054906101000a900460ff166114a3576040517f08c379a000000000000000000000000000000000000000000000000000000000815260040161149a90614052565b60405180910390fd5b6002600154036114e8576040517f08c379a00000000000000000000000000000000000000000000000000000000081526004016114df90613e22565b60405180910390fd5b600260018190555042600c600084815260200190815260200160002060050154600c6000858152602001908152602001600020600401546115299190613e42565b111561161357600c600083815260200190815260200160002060020154600c600084815260200190815260200160002060010154111561159e576040517f08c379a0000000000000000000000000000000000000000000000000000000008152600401611595906140be565b60405180910390fd5b600c600083815260200190815260200160002060060160019054906101000a900460ff1615611612576115d2848484612865565b611611576040517f08c379a000000000000000000000000000000000000000000000000000000000815260040161160890614150565b60405180910390fd5b5b5b600c600083815260200190815260200160002060030154600c6000848152602001908152602001600020600101541115611682576040517f08c379a000000000000000000000000000000000000000000000000000000000815260040161167990613ec2565b60405180910390fd5b600c600083815260200190815260200160002060080160003373ffffffffffffffffffffffffffffffffffffffff1673ffffffffffffffffffffffffffffffffffffffff16815260200190815260200160002060009054906101000a900460ff1615611723576040517f08c379a000000000000000000000000000000000000000000000000000000000815260040161171a90613f54565b60405180910390fd5b6001600c600084815260200190815260200160002060080160003373ffffffffffffffffffffffffffffffffffffffff1673ffffffffffffffffffffffffffffffffffffffff16815260200190815260200160002060006101000a81548160ff021916908315150217905550600c600083815260200190815260200160002060010160008154809291906117b690614170565b9190505550600f60008154809291906117ce90614170565b91905055506117de336001612847565b7f1a75c98f3caa5c596c30e5e4c83e0802685273950677d98a322c514a03b05b573360016040516118109291906141fd565b60405180910390a16001808190555050505050565b61182d61233e565b8060108190555050565b600e5481565b61185883838360405180602001604052806000815250611d27565b505050565b61186561233e565b806011908161187491906143c8565b507f5411e8ebf1636d9e83d5fc4900bf80cbac82e8790da2a4c94db4895e889eedf6816040516118a491906133e9565b60405180910390a150565b6118b761233e565b81600c6000838152602001908152602001600020600301819055505050565b60006118e18261267f565b9050919050565b60008073ffffffffffffffffffffffffffffffffffffffff168273ffffffffffffffffffffffffffffffffffffffff160361192e5761192d638f4eb60460e01b612541565b5b67ffffffffffffffff600960008473ffffffffffffffffffffffffffffffffffffffff1673ffffffffffffffffffffffffffffffffffffffff16815260200190815260200160002054169050919050565b61198761233e565b611991600061291c565b565b60155481565b6119a161233e565b6119a96129e0565b6119b38282612a2d565b5050565b60008060009054906101000a900473ffffffffffffffffffffffffffffffffffffffff16905090565b6119e861233e565b81600c600083815260200190815260200160002060060160016101000a81548160ff0219169083151502179055505050565b611a2261233e565b6000600c600083815260200190815260200160002060060160006101000a81548160ff02191690831515021790555050565b606060078054611a6390613c68565b80601f0160208091040260200160405190810160405280929190818152602001828054611a8f90613c68565b8015611adc5780601f10611ab157610100808354040283529160200191611adc565b820191906000526020600020905b815481529060010190602001808311611abf57829003601f168201915b5050505050905090565b60165481565b80600b6000611af9612792565b73ffffffffffffffffffffffffffffffffffffffff1673ffffffffffffffffffffffffffffffffffffffff16815260200190815260200160002060008473ffffffffffffffffffffffffffffffffffffffff1673ffffffffffffffffffffffffffffffffffffffff16815260200190815260200160002060006101000a81548160ff0219169083151502179055508173ffffffffffffffffffffffffffffffffffffffff16611ba6612792565b73ffffffffffffffffffffffffffffffffffffffff167f17307eab39ab6107e8899845ad3d59bd9653f200f220920489ca2b5937696c3183604051611beb91906132fe565b60405180910390a35050565b601260009054906101000a900460ff1681565b611c1261233e565b600e6000815480929190611c2590614170565b919050555084600c6000600e5481526020019081526020016000206002018190555083600c6000600e5481526020019081526020016000206003018190555082600c6000600e5481526020019081526020016000206005018190555081600c6000600e54815260200190815260200160002060060160016101000a81548160ff02191690831515021790555080600c6000600e548152602001908152602001600020600701819055508360106000828254611ce09190613e42565b925050819055507f2d6d0e514e495f0e0847ca6b03935bfa1eb829d808ef5fcb9918580cff958fe2600e54604051611d18919061318d565b60405180910390a15050505050565b611d32848484610c49565b60008373ffffffffffffffffffffffffffffffffffffffff163b14611d7357611d5d84848484612bc2565b611d7257611d7163d1a57ed660e01b612541565b5b5b50505050565b611d8161233e565b6010548282905084611d939190613cc8565b611d9b610c32565b611da59190613e42565b1115611de6576040517f08c379a0000000000000000000000000000000000000000000000000000000008152600401611ddd90613ec2565b60405180910390fd5b60005b82829050811015611e3857611e25838383818110611e0a57611e0961449a565b5b9050602002016020810190611e1f9190613500565b85612847565b8080611e3090614170565b915050611de9565b508181905083611e489190613cc8565b600f6000828254611e599190613e42565b925050819055507fd0ecdf4854f39daba34ba0e2c1ed0132a7023a5434bffc90b24f3335fb90e5e383604051611e8f919061318d565b60405180910390a1505050565b60606000611ea983612cf1565b905080604051602001611ebc9190614551565b604051602081830303815290604052915050919050565b60105481565b611ee161233e565b81600c6000838152602001908152602001600020600201819055505050565b601260019054906101000a900460ff16611f4f576040517f08c379a0000000000000000000000000000000000000000000000000000000008152600401611f46906145bf565b60405180910390fd5b600260015403611f94576040517f08c379a0000000000000000000000000000000000000000000000000000000008152600401611f8b90613e22565b60405180910390fd5b600260018190555060155483601360003373ffffffffffffffffffffffffffffffffffffffff1673ffffffffffffffffffffffffffffffffffffffff16815260200190815260200160002054611fea9190613e42565b111561202b576040517f08c379a000000000000000000000000000000000000000000000000000000000815260040161202290613f54565b60405180910390fd5b60105483612037610c32565b6120419190613e42565b1115612082576040517f08c379a000000000000000000000000000000000000000000000000000000000815260040161207990613ec2565b60405180910390fd5b34836017546120919190613cc8565b11156120d2576040517f08c379a00000000000000000000000000000000000000000000000000000000081526004016120c990613fc0565b60405180910390fd5b6120de82826000612865565b61211d576040517f08c379a000000000000000000000000000000000000000000000000000000000815260040161211490614651565b60405180910390fd5b82600f600082825461212f9190613e42565b9250508190555082601360003373ffffffffffffffffffffffffffffffffffffffff1673ffffffffffffffffffffffffffffffffffffffff16815260200190815260200160002060008282546121859190613e42565b925050819055506121963384612847565b7f35b6d348af664cd334c7ec2746e1ab49907efa953fa3f622552cd0b19a828b3f33846040516121c7929190613580565b60405180910390a160018081905550505050565b6121e361233e565b80600d8190555050565b6000600b60008473ffffffffffffffffffffffffffffffffffffffff1673ffffffffffffffffffffffffffffffffffffffff16815260200190815260200160002060008373ffffffffffffffffffffffffffffffffffffffff1673ffffffffffffffffffffffffffffffffffffffff16815260200190815260200160002060009054906101000a900460ff16905092915050565b61228961233e565b601260019054906101000a900460ff1615601260016101000a81548160ff021916908315150217905550565b6122bd61233e565b600073ffffffffffffffffffffffffffffffffffffffff168173ffffffffffffffffffffffffffffffffffffffff160361232c576040517f08c379a0000000000000000000000000000000000000000000000000000000008152600401612323906146e3565b60405180910390fd5b6123358161291c565b50565b60145481565b612346612d6e565b73ffffffffffffffffffffffffffffffffffffffff166123646119b7565b73ffffffffffffffffffffffffffffffffffffffff16146123ba576040517f08c379a00000000000000000000000000000000000000000000000000000000081526004016123b19061474f565b60405180910390fd5b565b60006301ffc9a760e01b827bffffffffffffffffffffffffffffffffffffffffffffffffffffffff1916148061241757506380ac58cd60e01b827bffffffffffffffffffffffffffffffffffffffffffffffffffffffff1916145b806124475750635b5e139f60e01b827bffffffffffffffffffffffffffffffffffffffffffffffffffffffff1916145b9050919050565b60007f2a55205a000000000000000000000000000000000000000000000000000000007bffffffffffffffffffffffffffffffffffffffffffffffffffffffff1916827bffffffffffffffffffffffffffffffffffffffffffffffffffffffff191614806124c157506124c082612d76565b5b9050919050565b6000816124d361267a565b1161253c5760045482101561253b5760005b6000600860008581526020019081526020016000205491508103612514578261250d9061476f565b92506124e5565b60007c01000000000000000000000000000000000000000000000000000000008216149150505b5b919050565b8060005260046000fd5b6000612556836118d6565b905081801561259857508073ffffffffffffffffffffffffffffffffffffffff1661257f612792565b73ffffffffffffffffffffffffffffffffffffffff1614155b156125c4576125ae816125a9612792565b6121ed565b6125c3576125c263cfb3b94260e01b612541565b5b5b83600a600085815260200190815260200160002060000160006101000a81548173ffffffffffffffffffffffffffffffffffffffff021916908373ffffffffffffffffffffffffffffffffffffffff160217905550828473ffffffffffffffffffffffffffffffffffffffff168273ffffffffffffffffffffffffffffffffffffffff167f8c5be1e5ebec7d5bd14f71427d1e84f3dd0314c0f7b2291e5b200ac8c7c3b92560405160405180910390a450505050565b600090565b60008161268a61267a565b1161275557600860008381526020019081526020016000205490506000810361272c5760045482106126c7576126c663df2d9b4260e01b612541565b5b5b600860008360019003935083815260200190815260200160002054905060008103156127275760007c0100000000000000000000000000000000000000000000000000000000821603156127665761272663df2d9b4260e01b612541565b5b6126c8565b60007c010000000000000000000000000000000000000000000000000000000082160315612766575b61276563df2d9b4260e01b612541565b5b919050565b6000806000600a600085815260200190815260200160002090508092508254915050915091565b600033905090565b600073ffffffffffffffffffffffffffffffffffffffff8316925073ffffffffffffffffffffffffffffffffffffffff821691508382148383141790509392505050565b50505050565b60008060e883901c905060e86127fb868684612de0565b62ffffff16901b9150509392505050565b600073ffffffffffffffffffffffffffffffffffffffff83169250814260a01b178317905092915050565b50505050565b6000612710905090565b612861828260405180602001604052806000815250612de9565b5050565b6000806000830361287a57600d549050612894565b600c60008481526020019081526020016000206007015490505b6000336040516020016128a79190613479565b604051602081830303815290604052805190602001209050600061290d878780806020026020016040519081016040528093929190818152602001838360200280828437600081840152601f19601f820116905080830192505050505050508484612e6f565b90508093505050509392505050565b60008060009054906101000a900473ffffffffffffffffffffffffffffffffffffffff169050816000806101000a81548173ffffffffffffffffffffffffffffffffffffffff021916908373ffffffffffffffffffffffffffffffffffffffff1602179055508173ffffffffffffffffffffffffffffffffffffffff168173ffffffffffffffffffffffffffffffffffffffff167f8be0079c531659141344cd1fd0a4f28419497f9722a3daafe3b4186f6b6457e060405160405180910390a35050565b6002600080820160006101000a81549073ffffffffffffffffffffffffffffffffffffffff02191690556000820160146101000a8154906bffffffffffffffffffffffff02191690555050565b612a3561283d565b6bffffffffffffffffffffffff16816bffffffffffffffffffffffff161115612a93576040517f08c379a0000000000000000000000000000000000000000000000000000000008152600401612a8a9061480a565b60405180910390fd5b600073ffffffffffffffffffffffffffffffffffffffff168273ffffffffffffffffffffffffffffffffffffffff1603612b02576040517f08c379a0000000000000000000000000000000000000000000000000000000008152600401612af990614876565b60405180910390fd5b60405180604001604052808373ffffffffffffffffffffffffffffffffffffffff168152602001826bffffffffffffffffffffffff16815250600260008201518160000160006101000a81548173ffffffffffffffffffffffffffffffffffffffff021916908373ffffffffffffffffffffffffffffffffffffffff16021790555060208201518160000160146101000a8154816bffffffffffffffffffffffff02191690836bffffffffffffffffffffffff1602179055509050505050565b60008373ffffffffffffffffffffffffffffffffffffffff1663150b7a02612be8612792565b8786866040518563ffffffff1660e01b8152600401612c0a94939291906148eb565b6020604051808303816000875af1925050508015612c4657506040513d601f19601f82011682018060405250810190612c43919061494c565b60015b612c9e573d8060008114612c76576040519150601f19603f3d011682016040523d82523d6000602084013e612c7b565b606091505b506000815103612c9657612c9563d1a57ed660e01b612541565b5b805181602001fd5b63150b7a0260e01b7bffffffffffffffffffffffffffffffffffffffffffffffffffffffff1916817bffffffffffffffffffffffffffffffffffffffffffffffffffffffff191614915050949350505050565b6060612cfc826124c8565b612d1157612d1063a14c4b5060e01b612541565b5b6000612d1b612e86565b90506000815103612d3b5760405180602001604052806000815250612d66565b80612d4584612f18565b604051602001612d56929190614979565b6040516020818303038152906040525b915050919050565b600033905090565b60007f01ffc9a7000000000000000000000000000000000000000000000000000000007bffffffffffffffffffffffffffffffffffffffffffffffffffffffff1916827bffffffffffffffffffffffffffffffffffffffffffffffffffffffff1916149050919050565b60009392505050565b612df38383612f68565b60008373ffffffffffffffffffffffffffffffffffffffff163b14612e6a5760006004549050600083820390505b612e346000868380600101945086612bc2565b612e4957612e4863d1a57ed660e01b612541565b5b818110612e21578160045414612e6757612e66600060e01b612541565b5b50505b505050565b600082612e7c85846130cc565b1490509392505050565b606060118054612e9590613c68565b80601f0160208091040260200160405190810160405280929190818152602001828054612ec190613c68565b8015612f0e5780601f10612ee357610100808354040283529160200191612f0e565b820191906000526020600020905b815481529060010190602001808311612ef157829003601f168201915b5050505050905090565b606060a060405101806040526020810391506000825281835b600115612f5357600184039350600a81066030018453600a8104905080612f31575b50828103602084039350808452505050919050565b6000600454905060008203612f8857612f8763b562e8dd60e01b612541565b5b612f9560008483856127de565b612fb583612fa660008660006127e4565b612faf85613122565b1761280c565b6008600083815260200190815260200160002081905550600160406001901b178202600960008573ffffffffffffffffffffffffffffffffffffffff1673ffffffffffffffffffffffffffffffffffffffff16815260200190815260200160002060008282540192505081905550600073ffffffffffffffffffffffffffffffffffffffff8473ffffffffffffffffffffffffffffffffffffffff161690506000810361306d5761306c632e07630060e01b612541565b5b6000838301905060008390505b808360007fddf252ad1be2c89b69c2b068fc378daa952ba7f163c4a11628f55a4df523b3ef600080a481816001019150810361307a57816004819055505050506130c76000848385612837565b505050565b60008082905060005b845181101561311757613102828683815181106130f5576130f461449a565b5b6020026020010151613132565b9150808061310f90614170565b9150506130d5565b508091505092915050565b60006001821460e11b9050919050565b600081831061314a57613145828461315d565b613155565b613154838361315d565b5b905092915050565b600082600052816020526040600020905092915050565b6000819050919050565b61318781613174565b82525050565b60006020820190506131a2600083018461317e565b92915050565b6000604051905090565b600080fd5b600080fd5b6000819050919050565b6131cf816131bc565b81146131da57600080fd5b50565b6000813590506131ec816131c6565b92915050565b6131fb81613174565b811461320657600080fd5b50565b600081359050613218816131f2565b92915050565b60008060408385031215613235576132346131b2565b5b6000613243858286016131dd565b925050602061325485828601613209565b9150509250929050565b60007fffffffff0000000000000000000000000000000000000000000000000000000082169050919050565b6132938161325e565b811461329e57600080fd5b50565b6000813590506132b08161328a565b92915050565b6000602082840312156132cc576132cb6131b2565b5b60006132da848285016132a1565b91505092915050565b60008115159050919050565b6132f8816132e3565b82525050565b600060208201905061331360008301846132ef565b92915050565b600080604083850312156133305761332f6131b2565b5b600061333e85828601613209565b925050602061334f85828601613209565b9150509250929050565b600081519050919050565b600082825260208201905092915050565b60005b83811015613393578082015181840152602081019050613378565b60008484015250505050565b6000601f19601f8301169050919050565b60006133bb82613359565b6133c58185613364565b93506133d5818560208601613375565b6133de8161339f565b840191505092915050565b6000602082019050818103600083015261340381846133b0565b905092915050565b600060208284031215613421576134206131b2565b5b600061342f84828501613209565b91505092915050565b600073ffffffffffffffffffffffffffffffffffffffff82169050919050565b600061346382613438565b9050919050565b61347381613458565b82525050565b600060208201905061348e600083018461346a565b92915050565b61349d81613458565b81146134a857600080fd5b50565b6000813590506134ba81613494565b92915050565b600080604083850312156134d7576134d66131b2565b5b60006134e5858286016134ab565b92505060206134f685828601613209565b9150509250929050565b600060208284031215613516576135156131b2565b5b6000613524848285016134ab565b91505092915050565b600080600060608486031215613546576135456131b2565b5b6000613554868287016134ab565b9350506020613565868287016134ab565b925050604061357686828701613209565b9150509250925092565b6000604082019050613595600083018561346a565b6135a2602083018461317e565b9392505050565b600080fd5b600080fd5b600080fd5b60008083601f8401126135ce576135cd6135a9565b5b8235905067ffffffffffffffff8111156135eb576135ea6135ae565b5b602083019150836020820283011115613607576136066135b3565b5b9250929050565b600080600060408486031215613627576136266131b2565b5b600084013567ffffffffffffffff811115613645576136446131b7565b5b613651868287016135b8565b9350935050602061366486828701613209565b9150509250925092565b600080fd5b7f4e487b7100000000000000000000000000000000000000000000000000000000600052604160045260246000fd5b6136ab8261339f565b810181811067ffffffffffffffff821117156136ca576136c9613673565b5b80604052505050565b60006136dd6131a8565b90506136e982826136a2565b919050565b600067ffffffffffffffff82111561370957613708613673565b5b6137128261339f565b9050602081019050919050565b82818337600083830152505050565b600061374161373c846136ee565b6136d3565b90508281526020810184848401111561375d5761375c61366e565b5b61376884828561371f565b509392505050565b600082601f830112613785576137846135a9565b5b813561379584826020860161372e565b91505092915050565b6000602082840312156137b4576137b36131b2565b5b600082013567ffffffffffffffff8111156137d2576137d16131b7565b5b6137de84828501613770565b91505092915050565b60006bffffffffffffffffffffffff82169050919050565b613808816137e7565b811461381357600080fd5b50565b600081359050613825816137ff565b92915050565b60008060408385031215613842576138416131b2565b5b6000613850858286016134ab565b925050602061386185828601613816565b9150509250929050565b613874816132e3565b811461387f57600080fd5b50565b6000813590506138918161386b565b92915050565b600080604083850312156138ae576138ad6131b2565b5b60006138bc85828601613882565b92505060206138cd85828601613209565b9150509250929050565b600080604083850312156138ee576138ed6131b2565b5b60006138fc858286016134ab565b925050602061390d85828601613882565b9150509250929050565b600080600080600060a08688031215613933576139326131b2565b5b600061394188828901613209565b955050602061395288828901613209565b945050604061396388828901613209565b935050606061397488828901613882565b9250506080613985888289016131dd565b9150509295509295909350565b600067ffffffffffffffff8211156139ad576139ac613673565b5b6139b68261339f565b9050602081019050919050565b60006139d66139d184613992565b6136d3565b9050828152602081018484840111156139f2576139f161366e565b5b6139fd84828561371f565b509392505050565b600082601f830112613a1a57613a196135a9565b5b8135613a2a8482602086016139c3565b91505092915050565b60008060008060808587031215613a4d57613a4c6131b2565b5b6000613a5b878288016134ab565b9450506020613a6c878288016134ab565b9350506040613a7d87828801613209565b925050606085013567ffffffffffffffff811115613a9e57613a9d6131b7565b5b613aaa87828801613a05565b91505092959194509250565b60008083601f840112613acc57613acb6135a9565b5b8235905067ffffffffffffffff811115613ae957613ae86135ae565b5b602083019150836020820283011115613b0557613b046135b3565b5b9250929050565b600080600060408486031215613b2557613b246131b2565b5b6000613b3386828701613209565b935050602084013567ffffffffffffffff811115613b5457613b536131b7565b5b613b6086828701613ab6565b92509250509250925092565b600080600060408486031215613b8557613b846131b2565b5b6000613b9386828701613209565b935050602084013567ffffffffffffffff811115613bb457613bb36131b7565b5b613bc0868287016135b8565b92509250509250925092565b600060208284031215613be257613be16131b2565b5b6000613bf0848285016131dd565b91505092915050565b60008060408385031215613c1057613c0f6131b2565b5b6000613c1e858286016134ab565b9250506020613c2f858286016134ab565b9150509250929050565b7f4e487b7100000000000000000000000000000000000000000000000000000000600052602260045260246000fd5b60006002820490506001821680613c8057607f821691505b602082108103613c9357613c92613c39565b5b50919050565b7f4e487b7100000000000000000000000000000000000000000000000000000000600052601160045260246000fd5b6000613cd382613174565b9150613cde83613174565b9250828202613cec81613174565b91508282048414831517613d0357613d02613c99565b5b5092915050565b7f4e487b7100000000000000000000000000000000000000000000000000000000600052601260045260246000fd5b6000613d4482613174565b9150613d4f83613174565b925082613d5f57613d5e613d0a565b5b828204905092915050565b7f5075626c69632073616c6520686173206e6f7420737461727465642079657400600082015250565b6000613da0601f83613364565b9150613dab82613d6a565b602082019050919050565b60006020820190508181036000830152613dcf81613d93565b9050919050565b7f5265656e7472616e637947756172643a207265656e7472616e742063616c6c00600082015250565b6000613e0c601f83613364565b9150613e1782613dd6565b602082019050919050565b60006020820190508181036000830152613e3b81613dff565b9050919050565b6000613e4d82613174565b9150613e5883613174565b9250828201905080821115613e7057613e6f613c99565b5b92915050565b7f4578636565646564206d6178204e46547320616d6f756e740000000000000000600082015250565b6000613eac601883613364565b9150613eb782613e76565b602082019050919050565b60006020820190508181036000830152613edb81613e9f565b9050919050565b7f4d696e74696e6720776f756c64206578636565642077616c6c6574206c696d6960008201527f7400000000000000000000000000000000000000000000000000000000000000602082015250565b6000613f3e602183613364565b9150613f4982613ee2565b604082019050919050565b60006020820190508181036000830152613f6d81613f31565b9050919050565b7f46756e6420616d6f756e7420697320696e636f72726563740000000000000000600082015250565b6000613faa601883613364565b9150613fb582613f74565b602082019050919050565b60006020820190508181036000830152613fd981613f9d565b9050919050565b7f4d696e74696e67206576656e7420686173206e6f74207374617274656420796560008201527f7400000000000000000000000000000000000000000000000000000000000000602082015250565b600061403c602183613364565b915061404782613fe0565b604082019050919050565b6000602082019050818103600083015261406b8161402f565b9050919050565b7f4578636565646564206d6178207072656d696e74204e46547320616d6f756e74600082015250565b60006140a8602083613364565b91506140b382614072565b602082019050919050565b600060208201905081810360008301526140d78161409b565b9050919050565b7f596f75722061646472657373206973206e6f7420696e2074686520776869746560008201527f6c69737400000000000000000000000000000000000000000000000000000000602082015250565b600061413a602483613364565b9150614145826140de565b604082019050919050565b600060208201905081810360008301526141698161412d565b9050919050565b600061417b82613174565b91507fffffffffffffffffffffffffffffffffffffffffffffffffffffffffffffffff82036141ad576141ac613c99565b5b600182019050919050565b6000819050919050565b6000819050919050565b60006141e76141e26141dd846141b8565b6141c2565b613174565b9050919050565b6141f7816141cc565b82525050565b6000604082019050614212600083018561346a565b61421f60208301846141ee565b9392505050565b60008190508160005260206000209050919050565b60006020601f8301049050919050565b600082821b905092915050565b6000600883026142887fffffffffffffffffffffffffffffffffffffffffffffffffffffffffffffffff8261424b565b614292868361424b565b95508019841693508086168417925050509392505050565b60006142c56142c06142bb84613174565b6141c2565b613174565b9050919050565b6000819050919050565b6142df836142aa565b6142f36142eb826142cc565b848454614258565b825550505050565b600090565b6143086142fb565b6143138184846142d6565b505050565b5b818110156143375761432c600082614300565b600181019050614319565b5050565b601f82111561437c5761434d81614226565b6143568461423b565b81016020851015614365578190505b6143796143718561423b565b830182614318565b50505b505050565b600082821c905092915050565b600061439f60001984600802614381565b1980831691505092915050565b60006143b8838361438e565b9150826002028217905092915050565b6143d182613359565b67ffffffffffffffff8111156143ea576143e9613673565b5b6143f48254613c68565b6143ff82828561433b565b600060209050601f8311600181146144325760008415614420578287015190505b61442a85826143ac565b865550614492565b601f19841661444086614226565b60005b8281101561446857848901518255600182019150602085019450602081019050614443565b868310156144855784890151614481601f89168261438e565b8355505b6001600288020188555050505b505050505050565b7f4e487b7100000000000000000000000000000000000000000000000000000000600052603260045260246000fd5b600081905092915050565b60006144df82613359565b6144e981856144c9565b93506144f9818560208601613375565b80840191505092915050565b7f2e6a736f6e000000000000000000000000000000000000000000000000000000600082015250565b600061453b6005836144c9565b915061454682614505565b600582019050919050565b600061455d82846144d4565b91506145688261452e565b915081905092915050565b7f50726573616c6520686173206e6f742073746172746564207965740000000000600082015250565b60006145a9601b83613364565b91506145b482614573565b602082019050919050565b600060208201905081810360008301526145d88161459c565b9050919050565b7f50726573616c65206d757374206265206d696e7465642066726f6d206f75722060008201527f7765627369746500000000000000000000000000000000000000000000000000602082015250565b600061463b602783613364565b9150614646826145df565b604082019050919050565b6000602082019050818103600083015261466a8161462e565b9050919050565b7f4f776e61626c653a206e6577206f776e657220697320746865207a65726f206160008201527f6464726573730000000000000000000000000000000000000000000000000000602082015250565b60006146cd602683613364565b91506146d882614671565b604082019050919050565b600060208201905081810360008301526146fc816146c0565b9050919050565b7f4f776e61626c653a2063616c6c6572206973206e6f7420746865206f776e6572600082015250565b6000614739602083613364565b915061474482614703565b602082019050919050565b600060208201905081810360008301526147688161472c565b9050919050565b600061477a82613174565b91506000820361478d5761478c613c99565b5b600182039050919050565b7f455243323938313a20726f79616c7479206665652077696c6c2065786365656460008201527f2073616c65507269636500000000000000000000000000000000000000000000602082015250565b60006147f4602a83613364565b91506147ff82614798565b604082019050919050565b60006020820190508181036000830152614823816147e7565b9050919050565b7f455243323938313a20696e76616c696420726563656976657200000000000000600082015250565b6000614860601983613364565b915061486b8261482a565b602082019050919050565b6000602082019050818103600083015261488f81614853565b9050919050565b600081519050919050565b600082825260208201905092915050565b60006148bd82614896565b6148c781856148a1565b93506148d7818560208601613375565b6148e08161339f565b840191505092915050565b6000608082019050614900600083018761346a565b61490d602083018661346a565b61491a604083018561317e565b818103606083015261492c81846148b2565b905095945050505050565b6000815190506149468161328a565b92915050565b600060208284031215614962576149616131b2565b5b600061497084828501614937565b91505092915050565b600061498582856144d4565b915061499182846144d4565b9150819050939250505056fea2646970667358221220dd05d9f36b28f894159cf010264932f16ba10b2fc6a0d643bba78862af0004a064736f6c63430008130033","opcodes":"PUSH1 0x80 PUSH1 0x40 MSTORE CALLVALUE DUP1 ISZERO PUSH3 0x11 JUMPI PUSH1 0x0 DUP1 REVERT JUMPDEST POP PUSH1 0x40 MLOAD PUSH3 0x542C CODESIZE SUB DUP1 PUSH3 0x542C DUP4 CODECOPY DUP2 DUP2 ADD PUSH1 0x40 MSTORE DUP2 ADD SWAP1 PUSH3 0x37 SWAP2 SWAP1 PUSH3 0x52D JUMP JUMPDEST DUP3 DUP3 PUSH3 0x59 PUSH3 0x4D PUSH3 0xD3 PUSH1 0x20 SHL PUSH1 0x20 SHR JUMP JUMPDEST PUSH3 0xDB PUSH1 0x20 SHL PUSH1 0x20 SHR JUMP JUMPDEST PUSH1 0x1 DUP1 DUP2 SWAP1 SSTORE POP DUP2 PUSH1 0x6 SWAP1 DUP2 PUSH3 0x71 SWAP2 SWAP1 PUSH3 0x847 JUMP JUMPDEST POP DUP1 PUSH1 0x7 SWAP1 DUP2 PUSH3 0x83 SWAP2 SWAP1 PUSH3 0x847 JUMP JUMPDEST POP PUSH3 0x94 PUSH3 0x19F PUSH1 0x20 SHL PUSH1 0x20 SHR JUMP JUMPDEST PUSH1 0x4 DUP2 SWAP1 SSTORE POP POP POP DUP4 PUSH1 0x11 SWAP1 DUP2 PUSH3 0xAD SWAP2 SWAP1 PUSH3 0x847 JUMP JUMPDEST POP PUSH2 0x2710 PUSH1 0x10 DUP2 SWAP1 SSTORE POP PUSH3 0xC9 CALLER DUP3 PUSH3 0x1A4 PUSH1 0x20 SHL PUSH1 0x20 SHR JUMP JUMPDEST POP POP POP POP PUSH3 0xA49 JUMP JUMPDEST PUSH1 0x0 CALLER SWAP1 POP SWAP1 JUMP JUMPDEST PUSH1 0x0 DUP1 PUSH1 0x0 SWAP1 SLOAD SWAP1 PUSH2 0x100 EXP SWAP1 DIV PUSH20 0xFFFFFFFFFFFFFFFFFFFFFFFFFFFFFFFFFFFFFFFF AND SWAP1 POP DUP2 PUSH1 0x0 DUP1 PUSH2 0x100 EXP DUP2 SLOAD DUP2 PUSH20 0xFFFFFFFFFFFFFFFFFFFFFFFFFFFFFFFFFFFFFFFF MUL NOT AND SWAP1 DUP4 PUSH20 0xFFFFFFFFFFFFFFFFFFFFFFFFFFFFFFFFFFFFFFFF AND MUL OR SWAP1 SSTORE POP DUP2 PUSH20 0xFFFFFFFFFFFFFFFFFFFFFFFFFFFFFFFFFFFFFFFF AND DUP2 PUSH20 0xFFFFFFFFFFFFFFFFFFFFFFFFFFFFFFFFFFFFFFFF AND PUSH32 0x8BE0079C531659141344CD1FD0A4F28419497F9722A3DAAFE3B4186F6B6457E0 PUSH1 0x40 MLOAD PUSH1 0x40 MLOAD DUP1 SWAP2 SUB SWAP1 LOG3 POP POP JUMP JUMPDEST PUSH1 0x0 SWAP1 JUMP JUMPDEST PUSH3 0x1B4 PUSH3 0x347 PUSH1 0x20 SHL PUSH1 0x20 SHR JUMP JUMPDEST PUSH12 0xFFFFFFFFFFFFFFFFFFFFFFFF AND DUP2 PUSH12 0xFFFFFFFFFFFFFFFFFFFFFFFF AND GT ISZERO PUSH3 0x215 JUMPI PUSH1 0x40 MLOAD PUSH32 0x8C379A000000000000000000000000000000000000000000000000000000000 DUP2 MSTORE PUSH1 0x4 ADD PUSH3 0x20C SWAP1 PUSH3 0x9B5 JUMP JUMPDEST PUSH1 0x40 MLOAD DUP1 SWAP2 SUB SWAP1 REVERT JUMPDEST PUSH1 0x0 PUSH20 0xFFFFFFFFFFFFFFFFFFFFFFFFFFFFFFFFFFFFFFFF AND DUP3 PUSH20 0xFFFFFFFFFFFFFFFFFFFFFFFFFFFFFFFFFFFFFFFF AND SUB PUSH3 0x287 JUMPI PUSH1 0x40 MLOAD PUSH32 0x8C379A000000000000000000000000000000000000000000000000000000000 DUP2 MSTORE PUSH1 0x4 ADD PUSH3 0x27E SWAP1 PUSH3 0xA27 JUMP JUMPDEST PUSH1 0x40 MLOAD DUP1 SWAP2 SUB SWAP1 REVERT JUMPDEST PUSH1 0x40 MLOAD DUP1 PUSH1 0x40 ADD PUSH1 0x40 MSTORE DUP1 DUP4 PUSH20 0xFFFFFFFFFFFFFFFFFFFFFFFFFFFFFFFFFFFFFFFF AND DUP2 MSTORE PUSH1 0x20 ADD DUP3 PUSH12 0xFFFFFFFFFFFFFFFFFFFFFFFF AND DUP2 MSTORE POP PUSH1 0x2 PUSH1 0x0 DUP3 ADD MLOAD DUP2 PUSH1 0x0 ADD PUSH1 0x0 PUSH2 0x100 EXP DUP2 SLOAD DUP2 PUSH20 0xFFFFFFFFFFFFFFFFFFFFFFFFFFFFFFFFFFFFFFFF MUL NOT AND SWAP1 DUP4 PUSH20 0xFFFFFFFFFFFFFFFFFFFFFFFFFFFFFFFFFFFFFFFF AND MUL OR SWAP1 SSTORE POP PUSH1 0x20 DUP3 ADD MLOAD DUP2 PUSH1 0x0 ADD PUSH1 0x14 PUSH2 0x100 EXP DUP2 SLOAD DUP2 PUSH12 0xFFFFFFFFFFFFFFFFFFFFFFFF MUL NOT AND SWAP1 DUP4 PUSH12 0xFFFFFFFFFFFFFFFFFFFFFFFF AND MUL OR SWAP1 SSTORE POP SWAP1 POP POP POP POP JUMP JUMPDEST PUSH1 0x0 PUSH2 0x2710 SWAP1 POP SWAP1 JUMP JUMPDEST PUSH1 0x0 PUSH1 0x40 MLOAD SWAP1 POP SWAP1 JUMP JUMPDEST PUSH1 0x0 DUP1 REVERT JUMPDEST PUSH1 0x0 DUP1 REVERT JUMPDEST PUSH1 0x0 DUP1 REVERT JUMPDEST PUSH1 0x0 DUP1 REVERT JUMPDEST PUSH1 0x0 PUSH1 0x1F NOT PUSH1 0x1F DUP4 ADD AND SWAP1 POP SWAP2 SWAP1 POP JUMP JUMPDEST PUSH32 0x4E487B7100000000000000000000000000000000000000000000000000000000 PUSH1 0x0 MSTORE PUSH1 0x41 PUSH1 0x4 MSTORE PUSH1 0x24 PUSH1 0x0 REVERT JUMPDEST PUSH3 0x3BA DUP3 PUSH3 0x36F JUMP JUMPDEST DUP2 ADD DUP2 DUP2 LT PUSH8 0xFFFFFFFFFFFFFFFF DUP3 GT OR ISZERO PUSH3 0x3DC JUMPI PUSH3 0x3DB PUSH3 0x380 JUMP JUMPDEST JUMPDEST DUP1 PUSH1 0x40 MSTORE POP POP POP JUMP JUMPDEST PUSH1 0x0 PUSH3 0x3F1 PUSH3 0x351 JUMP JUMPDEST SWAP1 POP PUSH3 0x3FF DUP3 DUP3 PUSH3 0x3AF JUMP JUMPDEST SWAP2 SWAP1 POP JUMP JUMPDEST PUSH1 0x0 PUSH8 0xFFFFFFFFFFFFFFFF DUP3 GT ISZERO PUSH3 0x422 JUMPI PUSH3 0x421 PUSH3 0x380 JUMP JUMPDEST JUMPDEST PUSH3 0x42D DUP3 PUSH3 0x36F JUMP JUMPDEST SWAP1 POP PUSH1 0x20 DUP2 ADD SWAP1 POP SWAP2 SWAP1 POP JUMP JUMPDEST PUSH1 0x0 JUMPDEST DUP4 DUP2 LT ISZERO PUSH3 0x45A JUMPI DUP1 DUP3 ADD MLOAD DUP2 DUP5 ADD MSTORE PUSH1 0x20 DUP2 ADD SWAP1 POP PUSH3 0x43D JUMP JUMPDEST PUSH1 0x0 DUP5 DUP5 ADD MSTORE POP POP POP POP JUMP JUMPDEST PUSH1 0x0 PUSH3 0x47D PUSH3 0x477 DUP5 PUSH3 0x404 JUMP JUMPDEST PUSH3 0x3E5 JUMP JUMPDEST SWAP1 POP DUP3 DUP2 MSTORE PUSH1 0x20 DUP2 ADD DUP5 DUP5 DUP5 ADD GT ISZERO PUSH3 0x49C JUMPI PUSH3 0x49B PUSH3 0x36A JUMP JUMPDEST JUMPDEST PUSH3 0x4A9 DUP5 DUP3 DUP6 PUSH3 0x43A JUMP JUMPDEST POP SWAP4 SWAP3 POP POP POP JUMP JUMPDEST PUSH1 0x0 DUP3 PUSH1 0x1F DUP4 ADD SLT PUSH3 0x4C9 JUMPI PUSH3 0x4C8 PUSH3 0x365 JUMP JUMPDEST JUMPDEST DUP2 MLOAD PUSH3 0x4DB DUP5 DUP3 PUSH1 0x20 DUP7 ADD PUSH3 0x466 JUMP JUMPDEST SWAP2 POP POP SWAP3 SWAP2 POP POP JUMP JUMPDEST PUSH1 0x0 PUSH12 0xFFFFFFFFFFFFFFFFFFFFFFFF DUP3 AND SWAP1 POP SWAP2 SWAP1 POP JUMP JUMPDEST PUSH3 0x507 DUP2 PUSH3 0x4E4 JUMP JUMPDEST DUP2 EQ PUSH3 0x513 JUMPI PUSH1 0x0 DUP1 REVERT JUMPDEST POP JUMP JUMPDEST PUSH1 0x0 DUP2 MLOAD SWAP1 POP PUSH3 0x527 DUP2 PUSH3 0x4FC JUMP JUMPDEST SWAP3 SWAP2 POP POP JUMP JUMPDEST PUSH1 0x0 DUP1 PUSH1 0x0 DUP1 PUSH1 0x80 DUP6 DUP8 SUB SLT ISZERO PUSH3 0x54A JUMPI PUSH3 0x549 PUSH3 0x35B JUMP JUMPDEST JUMPDEST PUSH1 0x0 DUP6 ADD MLOAD PUSH8 0xFFFFFFFFFFFFFFFF DUP2 GT ISZERO PUSH3 0x56B JUMPI PUSH3 0x56A PUSH3 0x360 JUMP JUMPDEST JUMPDEST PUSH3 0x579 DUP8 DUP3 DUP9 ADD PUSH3 0x4B1 JUMP JUMPDEST SWAP5 POP POP PUSH1 0x20 DUP6 ADD MLOAD PUSH8 0xFFFFFFFFFFFFFFFF DUP2 GT ISZERO PUSH3 0x59D JUMPI PUSH3 0x59C PUSH3 0x360 JUMP JUMPDEST JUMPDEST PUSH3 0x5AB DUP8 DUP3 DUP9 ADD PUSH3 0x4B1 JUMP JUMPDEST SWAP4 POP POP PUSH1 0x40 DUP6 ADD MLOAD PUSH8 0xFFFFFFFFFFFFFFFF DUP2 GT ISZERO PUSH3 0x5CF JUMPI PUSH3 0x5CE PUSH3 0x360 JUMP JUMPDEST JUMPDEST PUSH3 0x5DD DUP8 DUP3 DUP9 ADD PUSH3 0x4B1 JUMP JUMPDEST SWAP3 POP POP PUSH1 0x60 PUSH3 0x5F0 DUP8 DUP3 DUP9 ADD PUSH3 0x516 JUMP JUMPDEST SWAP2 POP POP SWAP3 SWAP6 SWAP2 SWAP5 POP SWAP3 POP JUMP JUMPDEST PUSH1 0x0 DUP2 MLOAD SWAP1 POP SWAP2 SWAP1 POP JUMP JUMPDEST PUSH32 0x4E487B7100000000000000000000000000000000000000000000000000000000 PUSH1 0x0 MSTORE PUSH1 0x22 PUSH1 0x4 MSTORE PUSH1 0x24 PUSH1 0x0 REVERT JUMPDEST PUSH1 0x0 PUSH1 0x2 DUP3 DIV SWAP1 POP PUSH1 0x1 DUP3 AND DUP1 PUSH3 0x64F JUMPI PUSH1 0x7F DUP3 AND SWAP2 POP JUMPDEST PUSH1 0x20 DUP3 LT DUP2 SUB PUSH3 0x665 JUMPI PUSH3 0x664 PUSH3 0x607 JUMP JUMPDEST JUMPDEST POP SWAP2 SWAP1 POP JUMP JUMPDEST PUSH1 0x0 DUP2 SWAP1 POP DUP2 PUSH1 0x0 MSTORE PUSH1 0x20 PUSH1 0x0 KECCAK256 SWAP1 POP SWAP2 SWAP1 POP JUMP JUMPDEST PUSH1 0x0 PUSH1 0x20 PUSH1 0x1F DUP4 ADD DIV SWAP1 POP SWAP2 SWAP1 POP JUMP JUMPDEST PUSH1 0x0 DUP3 DUP3 SHL SWAP1 POP SWAP3 SWAP2 POP POP JUMP JUMPDEST PUSH1 0x0 PUSH1 0x8 DUP4 MUL PUSH3 0x6CF PUSH32 0xFFFFFFFFFFFFFFFFFFFFFFFFFFFFFFFFFFFFFFFFFFFFFFFFFFFFFFFFFFFFFFFF DUP3 PUSH3 0x690 JUMP JUMPDEST PUSH3 0x6DB DUP7 DUP4 PUSH3 0x690 JUMP JUMPDEST SWAP6 POP DUP1 NOT DUP5 AND SWAP4 POP DUP1 DUP7 AND DUP5 OR SWAP3 POP POP POP SWAP4 SWAP3 POP POP POP JUMP JUMPDEST PUSH1 0x0 DUP2 SWAP1 POP SWAP2 SWAP1 POP JUMP JUMPDEST PUSH1 0x0 DUP2 SWAP1 POP SWAP2 SWAP1 POP JUMP JUMPDEST PUSH1 0x0 PUSH3 0x728 PUSH3 0x722 PUSH3 0x71C DUP5 PUSH3 0x6F3 JUMP JUMPDEST PUSH3 0x6FD JUMP JUMPDEST PUSH3 0x6F3 JUMP JUMPDEST SWAP1 POP SWAP2 SWAP1 POP JUMP JUMPDEST PUSH1 0x0 DUP2 SWAP1 POP SWAP2 SWAP1 POP JUMP JUMPDEST PUSH3 0x744 DUP4 PUSH3 0x707 JUMP JUMPDEST PUSH3 0x75C PUSH3 0x753 DUP3 PUSH3 0x72F JUMP JUMPDEST DUP5 DUP5 SLOAD PUSH3 0x69D JUMP JUMPDEST DUP3 SSTORE POP POP POP POP JUMP JUMPDEST PUSH1 0x0 SWAP1 JUMP JUMPDEST PUSH3 0x773 PUSH3 0x764 JUMP JUMPDEST PUSH3 0x780 DUP2 DUP5 DUP5 PUSH3 0x739 JUMP JUMPDEST POP POP POP JUMP JUMPDEST JUMPDEST DUP2 DUP2 LT ISZERO PUSH3 0x7A8 JUMPI PUSH3 0x79C PUSH1 0x0 DUP3 PUSH3 0x769 JUMP JUMPDEST PUSH1 0x1 DUP2 ADD SWAP1 POP PUSH3 0x786 JUMP JUMPDEST POP POP JUMP JUMPDEST PUSH1 0x1F DUP3 GT ISZERO PUSH3 0x7F7 JUMPI PUSH3 0x7C1 DUP2 PUSH3 0x66B JUMP JUMPDEST PUSH3 0x7CC DUP5 PUSH3 0x680 JUMP JUMPDEST DUP2 ADD PUSH1 0x20 DUP6 LT ISZERO PUSH3 0x7DC JUMPI DUP2 SWAP1 POP JUMPDEST PUSH3 0x7F4 PUSH3 0x7EB DUP6 PUSH3 0x680 JUMP JUMPDEST DUP4 ADD DUP3 PUSH3 0x785 JUMP JUMPDEST POP POP JUMPDEST POP POP POP JUMP JUMPDEST PUSH1 0x0 DUP3 DUP3 SHR SWAP1 POP SWAP3 SWAP2 POP POP JUMP JUMPDEST PUSH1 0x0 PUSH3 0x81C PUSH1 0x0 NOT DUP5 PUSH1 0x8 MUL PUSH3 0x7FC JUMP JUMPDEST NOT DUP1 DUP4 AND SWAP2 POP POP SWAP3 SWAP2 POP POP JUMP JUMPDEST PUSH1 0x0 PUSH3 0x837 DUP4 DUP4 PUSH3 0x809 JUMP JUMPDEST SWAP2 POP DUP3 PUSH1 0x2 MUL DUP3 OR SWAP1 POP SWAP3 SWAP2 POP POP JUMP JUMPDEST PUSH3 0x852 DUP3 PUSH3 0x5FC JUMP JUMPDEST PUSH8 0xFFFFFFFFFFFFFFFF DUP2 GT ISZERO PUSH3 0x86E JUMPI PUSH3 0x86D PUSH3 0x380 JUMP JUMPDEST JUMPDEST PUSH3 0x87A DUP3 SLOAD PUSH3 0x636 JUMP JUMPDEST PUSH3 0x887 DUP3 DUP3 DUP6 PUSH3 0x7AC JUMP JUMPDEST PUSH1 0x0 PUSH1 0x20 SWAP1 POP PUSH1 0x1F DUP4 GT PUSH1 0x1 DUP2 EQ PUSH3 0x8BF JUMPI PUSH1 0x0 DUP5 ISZERO PUSH3 0x8AA JUMPI DUP3 DUP8 ADD MLOAD SWAP1 POP JUMPDEST PUSH3 0x8B6 DUP6 DUP3 PUSH3 0x829 JUMP JUMPDEST DUP7 SSTORE POP PUSH3 0x926 JUMP JUMPDEST PUSH1 0x1F NOT DUP5 AND PUSH3 0x8CF DUP7 PUSH3 0x66B JUMP JUMPDEST PUSH1 0x0 JUMPDEST DUP3 DUP2 LT ISZERO PUSH3 0x8F9 JUMPI DUP5 DUP10 ADD MLOAD DUP3 SSTORE PUSH1 0x1 DUP3 ADD SWAP2 POP PUSH1 0x20 DUP6 ADD SWAP5 POP PUSH1 0x20 DUP2 ADD SWAP1 POP PUSH3 0x8D2 JUMP JUMPDEST DUP7 DUP4 LT ISZERO PUSH3 0x919 JUMPI DUP5 DUP10 ADD MLOAD PUSH3 0x915 PUSH1 0x1F DUP10 AND DUP3 PUSH3 0x809 JUMP JUMPDEST DUP4 SSTORE POP JUMPDEST PUSH1 0x1 PUSH1 0x2 DUP9 MUL ADD DUP9 SSTORE POP POP POP JUMPDEST POP POP POP POP POP POP JUMP JUMPDEST PUSH1 0x0 DUP3 DUP3 MSTORE PUSH1 0x20 DUP3 ADD SWAP1 POP SWAP3 SWAP2 POP POP JUMP JUMPDEST PUSH32 0x455243323938313A20726F79616C7479206665652077696C6C20657863656564 PUSH1 0x0 DUP3 ADD MSTORE PUSH32 0x2073616C65507269636500000000000000000000000000000000000000000000 PUSH1 0x20 DUP3 ADD MSTORE POP JUMP JUMPDEST PUSH1 0x0 PUSH3 0x99D PUSH1 0x2A DUP4 PUSH3 0x92E JUMP JUMPDEST SWAP2 POP PUSH3 0x9AA DUP3 PUSH3 0x93F JUMP JUMPDEST PUSH1 0x40 DUP3 ADD SWAP1 POP SWAP2 SWAP1 POP JUMP JUMPDEST PUSH1 0x0 PUSH1 0x20 DUP3 ADD SWAP1 POP DUP2 DUP2 SUB PUSH1 0x0 DUP4 ADD MSTORE PUSH3 0x9D0 DUP2 PUSH3 0x98E JUMP JUMPDEST SWAP1 POP SWAP2 SWAP1 POP JUMP JUMPDEST PUSH32 0x455243323938313A20696E76616C696420726563656976657200000000000000 PUSH1 0x0 DUP3 ADD MSTORE POP JUMP JUMPDEST PUSH1 0x0 PUSH3 0xA0F PUSH1 0x19 DUP4 PUSH3 0x92E JUMP JUMPDEST SWAP2 POP PUSH3 0xA1C DUP3 PUSH3 0x9D7 JUMP JUMPDEST PUSH1 0x20 DUP3 ADD SWAP1 POP SWAP2 SWAP1 POP JUMP JUMPDEST PUSH1 0x0 PUSH1 0x20 DUP3 ADD SWAP1 POP DUP2 DUP2 SUB PUSH1 0x0 DUP4 ADD MSTORE PUSH3 0xA42 DUP2 PUSH3 0xA00 JUMP JUMPDEST SWAP1 POP SWAP2 SWAP1 POP JUMP JUMPDEST PUSH2 0x49D3 DUP1 PUSH3 0xA59 PUSH1 0x0 CODECOPY PUSH1 0x0 RETURN INVALID PUSH1 0x80 PUSH1 0x40 MSTORE PUSH1 0x4 CALLDATASIZE LT PUSH2 0x292 JUMPI PUSH1 0x0 CALLDATALOAD PUSH1 0xE0 SHR DUP1 PUSH4 0x6352211E GT PUSH2 0x15A JUMPI DUP1 PUSH4 0xA9FE3075 GT PUSH2 0xC1 JUMPI DUP1 PUSH4 0xE3E1E8EF GT PUSH2 0x7A JUMPI DUP1 PUSH4 0xE3E1E8EF EQ PUSH2 0x991 JUMPI DUP1 PUSH4 0xE858AD03 EQ PUSH2 0x9AD JUMPI DUP1 PUSH4 0xE985E9C5 EQ PUSH2 0x9D6 JUMPI DUP1 PUSH4 0xED1FC2A2 EQ PUSH2 0xA13 JUMPI DUP1 PUSH4 0xF2FDE38B EQ PUSH2 0xA2A JUMPI DUP1 PUSH4 0xFDC36316 EQ PUSH2 0xA53 JUMPI PUSH2 0x292 JUMP JUMPDEST DUP1 PUSH4 0xA9FE3075 EQ PUSH2 0x892 JUMPI DUP1 PUSH4 0xB88D4FDE EQ PUSH2 0x8BB JUMPI DUP1 PUSH4 0xBDF7A8E6 EQ PUSH2 0x8D7 JUMPI DUP1 PUSH4 0xC87B56DD EQ PUSH2 0x900 JUMPI DUP1 PUSH4 0xD5ABEB01 EQ PUSH2 0x93D JUMPI DUP1 PUSH4 0xD60E45EE EQ PUSH2 0x968 JUMPI PUSH2 0x292 JUMP JUMPDEST DUP1 PUSH4 0x92913970 GT PUSH2 0x113 JUMPI DUP1 PUSH4 0x92913970 EQ PUSH2 0x796 JUMPI DUP1 PUSH4 0x956E6E1E EQ PUSH2 0x7BF JUMPI DUP1 PUSH4 0x95D89B41 EQ PUSH2 0x7E8 JUMPI DUP1 PUSH4 0x9B6860C8 EQ PUSH2 0x813 JUMPI DUP1 PUSH4 0xA22CB465 EQ PUSH2 0x83E JUMPI DUP1 PUSH4 0xA2E91477 EQ PUSH2 0x867 JUMPI PUSH2 0x292 JUMP JUMPDEST DUP1 PUSH4 0x6352211E EQ PUSH2 0x686 JUMPI DUP1 PUSH4 0x70A08231 EQ PUSH2 0x6C3 JUMPI DUP1 PUSH4 0x715018A6 EQ PUSH2 0x700 JUMPI DUP1 PUSH4 0x855D5180 EQ PUSH2 0x717 JUMPI DUP1 PUSH4 0x8B63D54A EQ PUSH2 0x742 JUMPI DUP1 PUSH4 0x8DA5CB5B EQ PUSH2 0x76B JUMPI PUSH2 0x292 JUMP JUMPDEST DUP1 PUSH4 0x23B872DD GT PUSH2 0x1FE JUMPI DUP1 PUSH4 0x3615AB45 GT PUSH2 0x1B7 JUMPI DUP1 PUSH4 0x3615AB45 EQ PUSH2 0x59B JUMPI DUP1 PUSH4 0x3ABB9190 EQ PUSH2 0x5C4 JUMPI DUP1 PUSH4 0x41F4BBFE EQ PUSH2 0x5ED JUMPI DUP1 PUSH4 0x42842E0E EQ PUSH2 0x618 JUMPI DUP1 PUSH4 0x55F804B3 EQ PUSH2 0x634 JUMPI DUP1 PUSH4 0x62644066 EQ PUSH2 0x65D JUMPI PUSH2 0x292 JUMP JUMPDEST DUP1 PUSH4 0x23B872DD EQ PUSH2 0x4BC JUMPI DUP1 PUSH4 0x2A55205A EQ PUSH2 0x4D8 JUMPI DUP1 PUSH4 0x2A8F8C5E EQ PUSH2 0x516 JUMPI DUP1 PUSH4 0x2DB11544 EQ PUSH2 0x53F JUMPI DUP1 PUSH4 0x2EFD3CB9 EQ PUSH2 0x55B JUMPI DUP1 PUSH4 0x2F814575 EQ PUSH2 0x584 JUMPI PUSH2 0x292 JUMP JUMPDEST DUP1 PUSH4 0x81812FC GT PUSH2 0x250 JUMPI DUP1 PUSH4 0x81812FC EQ PUSH2 0x3A7 JUMPI DUP1 PUSH4 0x95EA7B3 EQ PUSH2 0x3E4 JUMPI DUP1 PUSH4 0xD0E96DA EQ PUSH2 0x400 JUMPI DUP1 PUSH4 0x14DCB428 EQ PUSH2 0x42B JUMPI DUP1 PUSH4 0x15C914DB EQ PUSH2 0x454 JUMPI DUP1 PUSH4 0x18160DDD EQ PUSH2 0x491 JUMPI PUSH2 0x292 JUMP JUMPDEST DUP1 PUSH3 0xE7FA8 EQ PUSH2 0x297 JUMPI DUP1 PUSH4 0x175DF62 EQ PUSH2 0x2C2 JUMPI DUP1 PUSH4 0x1FFC9A7 EQ PUSH2 0x2EB JUMPI DUP1 PUSH4 0x4549D6F EQ PUSH2 0x328 JUMPI DUP1 PUSH4 0x5FEFDA7 EQ PUSH2 0x353 JUMPI DUP1 PUSH4 0x6FDDE03 EQ PUSH2 0x37C JUMPI JUMPDEST PUSH1 0x0 DUP1 REVERT JUMPDEST CALLVALUE DUP1 ISZERO PUSH2 0x2A3 JUMPI PUSH1 0x0 DUP1 REVERT JUMPDEST POP PUSH2 0x2AC PUSH2 0xA7E JUMP JUMPDEST PUSH1 0x40 MLOAD PUSH2 0x2B9 SWAP2 SWAP1 PUSH2 0x318D JUMP JUMPDEST PUSH1 0x40 MLOAD DUP1 SWAP2 SUB SWAP1 RETURN JUMPDEST CALLVALUE DUP1 ISZERO PUSH2 0x2CE JUMPI PUSH1 0x0 DUP1 REVERT JUMPDEST POP PUSH2 0x2E9 PUSH1 0x4 DUP1 CALLDATASIZE SUB DUP2 ADD SWAP1 PUSH2 0x2E4 SWAP2 SWAP1 PUSH2 0x321E JUMP JUMPDEST PUSH2 0xA84 JUMP JUMPDEST STOP JUMPDEST CALLVALUE DUP1 ISZERO PUSH2 0x2F7 JUMPI PUSH1 0x0 DUP1 REVERT JUMPDEST POP PUSH2 0x312 PUSH1 0x4 DUP1 CALLDATASIZE SUB DUP2 ADD SWAP1 PUSH2 0x30D SWAP2 SWAP1 PUSH2 0x32B6 JUMP JUMPDEST PUSH2 0xAAB JUMP JUMPDEST PUSH1 0x40 MLOAD PUSH2 0x31F SWAP2 SWAP1 PUSH2 0x32FE JUMP JUMPDEST PUSH1 0x40 MLOAD DUP1 SWAP2 SUB SWAP1 RETURN JUMPDEST CALLVALUE DUP1 ISZERO PUSH2 0x334 JUMPI PUSH1 0x0 DUP1 REVERT JUMPDEST POP PUSH2 0x33D PUSH2 0xACD JUMP JUMPDEST PUSH1 0x40 MLOAD PUSH2 0x34A SWAP2 SWAP1 PUSH2 0x32FE JUMP JUMPDEST PUSH1 0x40 MLOAD DUP1 SWAP2 SUB SWAP1 RETURN JUMPDEST CALLVALUE DUP1 ISZERO PUSH2 0x35F JUMPI PUSH1 0x0 DUP1 REVERT JUMPDEST POP PUSH2 0x37A PUSH1 0x4 DUP1 CALLDATASIZE SUB DUP2 ADD SWAP1 PUSH2 0x375 SWAP2 SWAP1 PUSH2 0x3319 JUMP JUMPDEST PUSH2 0xAE0 JUMP JUMPDEST STOP JUMPDEST CALLVALUE DUP1 ISZERO PUSH2 0x388 JUMPI PUSH1 0x0 DUP1 REVERT JUMPDEST POP PUSH2 0x391 PUSH2 0xAFA JUMP JUMPDEST PUSH1 0x40 MLOAD PUSH2 0x39E SWAP2 SWAP1 PUSH2 0x33E9 JUMP JUMPDEST PUSH1 0x40 MLOAD DUP1 SWAP2 SUB SWAP1 RETURN JUMPDEST CALLVALUE DUP1 ISZERO PUSH2 0x3B3 JUMPI PUSH1 0x0 DUP1 REVERT JUMPDEST POP PUSH2 0x3CE PUSH1 0x4 DUP1 CALLDATASIZE SUB DUP2 ADD SWAP1 PUSH2 0x3C9 SWAP2 SWAP1 PUSH2 0x340B JUMP JUMPDEST PUSH2 0xB8C JUMP JUMPDEST PUSH1 0x40 MLOAD PUSH2 0x3DB SWAP2 SWAP1 PUSH2 0x3479 JUMP JUMPDEST PUSH1 0x40 MLOAD DUP1 SWAP2 SUB SWAP1 RETURN JUMPDEST PUSH2 0x3FE PUSH1 0x4 DUP1 CALLDATASIZE SUB DUP2 ADD SWAP1 PUSH2 0x3F9 SWAP2 SWAP1 PUSH2 0x34C0 JUMP JUMPDEST PUSH2 0xBEA JUMP JUMPDEST STOP JUMPDEST CALLVALUE DUP1 ISZERO PUSH2 0x40C JUMPI PUSH1 0x0 DUP1 REVERT JUMPDEST POP PUSH2 0x415 PUSH2 0xBFA JUMP JUMPDEST PUSH1 0x40 MLOAD PUSH2 0x422 SWAP2 SWAP1 PUSH2 0x318D JUMP JUMPDEST PUSH1 0x40 MLOAD DUP1 SWAP2 SUB SWAP1 RETURN JUMPDEST CALLVALUE DUP1 ISZERO PUSH2 0x437 JUMPI PUSH1 0x0 DUP1 REVERT JUMPDEST POP PUSH2 0x452 PUSH1 0x4 DUP1 CALLDATASIZE SUB DUP2 ADD SWAP1 PUSH2 0x44D SWAP2 SWAP1 PUSH2 0x3319 JUMP JUMPDEST PUSH2 0xC00 JUMP JUMPDEST STOP JUMPDEST CALLVALUE DUP1 ISZERO PUSH2 0x460 JUMPI PUSH1 0x0 DUP1 REVERT JUMPDEST POP PUSH2 0x47B PUSH1 0x4 DUP1 CALLDATASIZE SUB DUP2 ADD SWAP1 PUSH2 0x476 SWAP2 SWAP1 PUSH2 0x3500 JUMP JUMPDEST PUSH2 0xC1A JUMP JUMPDEST PUSH1 0x40 MLOAD PUSH2 0x488 SWAP2 SWAP1 PUSH2 0x318D JUMP JUMPDEST PUSH1 0x40 MLOAD DUP1 SWAP2 SUB SWAP1 RETURN JUMPDEST CALLVALUE DUP1 ISZERO PUSH2 0x49D JUMPI PUSH1 0x0 DUP1 REVERT JUMPDEST POP PUSH2 0x4A6 PUSH2 0xC32 JUMP JUMPDEST PUSH1 0x40 MLOAD PUSH2 0x4B3 SWAP2 SWAP1 PUSH2 0x318D JUMP JUMPDEST PUSH1 0x40 MLOAD DUP1 SWAP2 SUB SWAP1 RETURN JUMPDEST PUSH2 0x4D6 PUSH1 0x4 DUP1 CALLDATASIZE SUB DUP2 ADD SWAP1 PUSH2 0x4D1 SWAP2 SWAP1 PUSH2 0x352D JUMP JUMPDEST PUSH2 0xC49 JUMP JUMPDEST STOP JUMPDEST CALLVALUE DUP1 ISZERO PUSH2 0x4E4 JUMPI PUSH1 0x0 DUP1 REVERT JUMPDEST POP PUSH2 0x4FF PUSH1 0x4 DUP1 CALLDATASIZE SUB DUP2 ADD SWAP1 PUSH2 0x4FA SWAP2 SWAP1 PUSH2 0x3319 JUMP JUMPDEST PUSH2 0xF0A JUMP JUMPDEST PUSH1 0x40 MLOAD PUSH2 0x50D SWAP3 SWAP2 SWAP1 PUSH2 0x3580 JUMP JUMPDEST PUSH1 0x40 MLOAD DUP1 SWAP2 SUB SWAP1 RETURN JUMPDEST CALLVALUE DUP1 ISZERO PUSH2 0x522 JUMPI PUSH1 0x0 DUP1 REVERT JUMPDEST POP PUSH2 0x53D PUSH1 0x4 DUP1 CALLDATASIZE SUB DUP2 ADD SWAP1 PUSH2 0x538 SWAP2 SWAP1 PUSH2 0x3319 JUMP JUMPDEST PUSH2 0x10F4 JUMP JUMPDEST STOP JUMPDEST PUSH2 0x559 PUSH1 0x4 DUP1 CALLDATASIZE SUB DUP2 ADD SWAP1 PUSH2 0x554 SWAP2 SWAP1 PUSH2 0x340B JUMP JUMPDEST PUSH2 0x111B JUMP JUMPDEST STOP JUMPDEST CALLVALUE DUP1 ISZERO PUSH2 0x567 JUMPI PUSH1 0x0 DUP1 REVERT JUMPDEST POP PUSH2 0x582 PUSH1 0x4 DUP1 CALLDATASIZE SUB DUP2 ADD SWAP1 PUSH2 0x57D SWAP2 SWAP1 PUSH2 0x340B JUMP JUMPDEST PUSH2 0x13B6 JUMP JUMPDEST STOP JUMPDEST CALLVALUE DUP1 ISZERO PUSH2 0x590 JUMPI PUSH1 0x0 DUP1 REVERT JUMPDEST POP PUSH2 0x599 PUSH2 0x140B JUMP JUMPDEST STOP JUMPDEST CALLVALUE DUP1 ISZERO PUSH2 0x5A7 JUMPI PUSH1 0x0 DUP1 REVERT JUMPDEST POP PUSH2 0x5C2 PUSH1 0x4 DUP1 CALLDATASIZE SUB DUP2 ADD SWAP1 PUSH2 0x5BD SWAP2 SWAP1 PUSH2 0x360E JUMP JUMPDEST PUSH2 0x143F JUMP JUMPDEST STOP JUMPDEST CALLVALUE DUP1 ISZERO PUSH2 0x5D0 JUMPI PUSH1 0x0 DUP1 REVERT JUMPDEST POP PUSH2 0x5EB PUSH1 0x4 DUP1 CALLDATASIZE SUB DUP2 ADD SWAP1 PUSH2 0x5E6 SWAP2 SWAP1 PUSH2 0x340B JUMP JUMPDEST PUSH2 0x1825 JUMP JUMPDEST STOP JUMPDEST CALLVALUE DUP1 ISZERO PUSH2 0x5F9 JUMPI PUSH1 0x0 DUP1 REVERT JUMPDEST POP PUSH2 0x602 PUSH2 0x1837 JUMP JUMPDEST PUSH1 0x40 MLOAD PUSH2 0x60F SWAP2 SWAP1 PUSH2 0x318D JUMP JUMPDEST PUSH1 0x40 MLOAD DUP1 SWAP2 SUB SWAP1 RETURN JUMPDEST PUSH2 0x632 PUSH1 0x4 DUP1 CALLDATASIZE SUB DUP2 ADD SWAP1 PUSH2 0x62D SWAP2 SWAP1 PUSH2 0x352D JUMP JUMPDEST PUSH2 0x183D JUMP JUMPDEST STOP JUMPDEST CALLVALUE DUP1 ISZERO PUSH2 0x640 JUMPI PUSH1 0x0 DUP1 REVERT JUMPDEST POP PUSH2 0x65B PUSH1 0x4 DUP1 CALLDATASIZE SUB DUP2 ADD SWAP1 PUSH2 0x656 SWAP2 SWAP1 PUSH2 0x379E JUMP JUMPDEST PUSH2 0x185D JUMP JUMPDEST STOP JUMPDEST CALLVALUE DUP1 ISZERO PUSH2 0x669 JUMPI PUSH1 0x0 DUP1 REVERT JUMPDEST POP PUSH2 0x684 PUSH1 0x4 DUP1 CALLDATASIZE SUB DUP2 ADD SWAP1 PUSH2 0x67F SWAP2 SWAP1 PUSH2 0x3319 JUMP JUMPDEST PUSH2 0x18AF JUMP JUMPDEST STOP JUMPDEST CALLVALUE DUP1 ISZERO PUSH2 0x692 JUMPI PUSH1 0x0 DUP1 REVERT JUMPDEST POP PUSH2 0x6AD PUSH1 0x4 DUP1 CALLDATASIZE SUB DUP2 ADD SWAP1 PUSH2 0x6A8 SWAP2 SWAP1 PUSH2 0x340B JUMP JUMPDEST PUSH2 0x18D6 JUMP JUMPDEST PUSH1 0x40 MLOAD PUSH2 0x6BA SWAP2 SWAP1 PUSH2 0x3479 JUMP JUMPDEST PUSH1 0x40 MLOAD DUP1 SWAP2 SUB SWAP1 RETURN JUMPDEST CALLVALUE DUP1 ISZERO PUSH2 0x6CF JUMPI PUSH1 0x0 DUP1 REVERT JUMPDEST POP PUSH2 0x6EA PUSH1 0x4 DUP1 CALLDATASIZE SUB DUP2 ADD SWAP1 PUSH2 0x6E5 SWAP2 SWAP1 PUSH2 0x3500 JUMP JUMPDEST PUSH2 0x18E8 JUMP JUMPDEST PUSH1 0x40 MLOAD PUSH2 0x6F7 SWAP2 SWAP1 PUSH2 0x318D JUMP JUMPDEST PUSH1 0x40 MLOAD DUP1 SWAP2 SUB SWAP1 RETURN JUMPDEST CALLVALUE DUP1 ISZERO PUSH2 0x70C JUMPI PUSH1 0x0 DUP1 REVERT JUMPDEST POP PUSH2 0x715 PUSH2 0x197F JUMP JUMPDEST STOP JUMPDEST CALLVALUE DUP1 ISZERO PUSH2 0x723 JUMPI PUSH1 0x0 DUP1 REVERT JUMPDEST POP PUSH2 0x72C PUSH2 0x1993 JUMP JUMPDEST PUSH1 0x40 MLOAD PUSH2 0x739 SWAP2 SWAP1 PUSH2 0x318D JUMP JUMPDEST PUSH1 0x40 MLOAD DUP1 SWAP2 SUB SWAP1 RETURN JUMPDEST CALLVALUE DUP1 ISZERO PUSH2 0x74E JUMPI PUSH1 0x0 DUP1 REVERT JUMPDEST POP PUSH2 0x769 PUSH1 0x4 DUP1 CALLDATASIZE SUB DUP2 ADD SWAP1 PUSH2 0x764 SWAP2 SWAP1 PUSH2 0x382B JUMP JUMPDEST PUSH2 0x1999 JUMP JUMPDEST STOP JUMPDEST CALLVALUE DUP1 ISZERO PUSH2 0x777 JUMPI PUSH1 0x0 DUP1 REVERT JUMPDEST POP PUSH2 0x780 PUSH2 0x19B7 JUMP JUMPDEST PUSH1 0x40 MLOAD PUSH2 0x78D SWAP2 SWAP1 PUSH2 0x3479 JUMP JUMPDEST PUSH1 0x40 MLOAD DUP1 SWAP2 SUB SWAP1 RETURN JUMPDEST CALLVALUE DUP1 ISZERO PUSH2 0x7A2 JUMPI PUSH1 0x0 DUP1 REVERT JUMPDEST POP PUSH2 0x7BD PUSH1 0x4 DUP1 CALLDATASIZE SUB DUP2 ADD SWAP1 PUSH2 0x7B8 SWAP2 SWAP1 PUSH2 0x3897 JUMP JUMPDEST PUSH2 0x19E0 JUMP JUMPDEST STOP JUMPDEST CALLVALUE DUP1 ISZERO PUSH2 0x7CB JUMPI PUSH1 0x0 DUP1 REVERT JUMPDEST POP PUSH2 0x7E6 PUSH1 0x4 DUP1 CALLDATASIZE SUB DUP2 ADD SWAP1 PUSH2 0x7E1 SWAP2 SWAP1 PUSH2 0x340B JUMP JUMPDEST PUSH2 0x1A1A JUMP JUMPDEST STOP JUMPDEST CALLVALUE DUP1 ISZERO PUSH2 0x7F4 JUMPI PUSH1 0x0 DUP1 REVERT JUMPDEST POP PUSH2 0x7FD PUSH2 0x1A54 JUMP JUMPDEST PUSH1 0x40 MLOAD PUSH2 0x80A SWAP2 SWAP1 PUSH2 0x33E9 JUMP JUMPDEST PUSH1 0x40 MLOAD DUP1 SWAP2 SUB SWAP1 RETURN JUMPDEST CALLVALUE DUP1 ISZERO PUSH2 0x81F JUMPI PUSH1 0x0 DUP1 REVERT JUMPDEST POP PUSH2 0x828 PUSH2 0x1AE6 JUMP JUMPDEST PUSH1 0x40 MLOAD PUSH2 0x835 SWAP2 SWAP1 PUSH2 0x318D JUMP JUMPDEST PUSH1 0x40 MLOAD DUP1 SWAP2 SUB SWAP1 RETURN JUMPDEST CALLVALUE DUP1 ISZERO PUSH2 0x84A JUMPI PUSH1 0x0 DUP1 REVERT JUMPDEST POP PUSH2 0x865 PUSH1 0x4 DUP1 CALLDATASIZE SUB DUP2 ADD SWAP1 PUSH2 0x860 SWAP2 SWAP1 PUSH2 0x38D7 JUMP JUMPDEST PUSH2 0x1AEC JUMP JUMPDEST STOP JUMPDEST CALLVALUE DUP1 ISZERO PUSH2 0x873 JUMPI PUSH1 0x0 DUP1 REVERT JUMPDEST POP PUSH2 0x87C PUSH2 0x1BF7 JUMP JUMPDEST PUSH1 0x40 MLOAD PUSH2 0x889 SWAP2 SWAP1 PUSH2 0x32FE JUMP JUMPDEST PUSH1 0x40 MLOAD DUP1 SWAP2 SUB SWAP1 RETURN JUMPDEST CALLVALUE DUP1 ISZERO PUSH2 0x89E JUMPI PUSH1 0x0 DUP1 REVERT JUMPDEST POP PUSH2 0x8B9 PUSH1 0x4 DUP1 CALLDATASIZE SUB DUP2 ADD SWAP1 PUSH2 0x8B4 SWAP2 SWAP1 PUSH2 0x3917 JUMP JUMPDEST PUSH2 0x1C0A JUMP JUMPDEST STOP JUMPDEST PUSH2 0x8D5 PUSH1 0x4 DUP1 CALLDATASIZE SUB DUP2 ADD SWAP1 PUSH2 0x8D0 SWAP2 SWAP1 PUSH2 0x3A33 JUMP JUMPDEST PUSH2 0x1D27 JUMP JUMPDEST STOP JUMPDEST CALLVALUE DUP1 ISZERO PUSH2 0x8E3 JUMPI PUSH1 0x0 DUP1 REVERT JUMPDEST POP PUSH2 0x8FE PUSH1 0x4 DUP1 CALLDATASIZE SUB DUP2 ADD SWAP1 PUSH2 0x8F9 SWAP2 SWAP1 PUSH2 0x3B0C JUMP JUMPDEST PUSH2 0x1D79 JUMP JUMPDEST STOP JUMPDEST CALLVALUE DUP1 ISZERO PUSH2 0x90C JUMPI PUSH1 0x0 DUP1 REVERT JUMPDEST POP PUSH2 0x927 PUSH1 0x4 DUP1 CALLDATASIZE SUB DUP2 ADD SWAP1 PUSH2 0x922 SWAP2 SWAP1 PUSH2 0x340B JUMP JUMPDEST PUSH2 0x1E9C JUMP JUMPDEST PUSH1 0x40 MLOAD PUSH2 0x934 SWAP2 SWAP1 PUSH2 0x33E9 JUMP JUMPDEST PUSH1 0x40 MLOAD DUP1 SWAP2 SUB SWAP1 RETURN JUMPDEST CALLVALUE DUP1 ISZERO PUSH2 0x949 JUMPI PUSH1 0x0 DUP1 REVERT JUMPDEST POP PUSH2 0x952 PUSH2 0x1ED3 JUMP JUMPDEST PUSH1 0x40 MLOAD PUSH2 0x95F SWAP2 SWAP1 PUSH2 0x318D JUMP JUMPDEST PUSH1 0x40 MLOAD DUP1 SWAP2 SUB SWAP1 RETURN JUMPDEST CALLVALUE DUP1 ISZERO PUSH2 0x974 JUMPI PUSH1 0x0 DUP1 REVERT JUMPDEST POP PUSH2 0x98F PUSH1 0x4 DUP1 CALLDATASIZE SUB DUP2 ADD SWAP1 PUSH2 0x98A SWAP2 SWAP1 PUSH2 0x3319 JUMP JUMPDEST PUSH2 0x1ED9 JUMP JUMPDEST STOP JUMPDEST PUSH2 0x9AB PUSH1 0x4 DUP1 CALLDATASIZE SUB DUP2 ADD SWAP1 PUSH2 0x9A6 SWAP2 SWAP1 PUSH2 0x3B6C JUMP JUMPDEST PUSH2 0x1F00 JUMP JUMPDEST STOP JUMPDEST CALLVALUE DUP1 ISZERO PUSH2 0x9B9 JUMPI PUSH1 0x0 DUP1 REVERT JUMPDEST POP PUSH2 0x9D4 PUSH1 0x4 DUP1 CALLDATASIZE SUB DUP2 ADD SWAP1 PUSH2 0x9CF SWAP2 SWAP1 PUSH2 0x3BCC JUMP JUMPDEST PUSH2 0x21DB JUMP JUMPDEST STOP JUMPDEST CALLVALUE DUP1 ISZERO PUSH2 0x9E2 JUMPI PUSH1 0x0 DUP1 REVERT JUMPDEST POP PUSH2 0x9FD PUSH1 0x4 DUP1 CALLDATASIZE SUB DUP2 ADD SWAP1 PUSH2 0x9F8 SWAP2 SWAP1 PUSH2 0x3BF9 JUMP JUMPDEST PUSH2 0x21ED JUMP JUMPDEST PUSH1 0x40 MLOAD PUSH2 0xA0A SWAP2 SWAP1 PUSH2 0x32FE JUMP JUMPDEST PUSH1 0x40 MLOAD DUP1 SWAP2 SUB SWAP1 RETURN JUMPDEST CALLVALUE DUP1 ISZERO PUSH2 0xA1F JUMPI PUSH1 0x0 DUP1 REVERT JUMPDEST POP PUSH2 0xA28 PUSH2 0x2281 JUMP JUMPDEST STOP JUMPDEST CALLVALUE DUP1 ISZERO PUSH2 0xA36 JUMPI PUSH1 0x0 DUP1 REVERT JUMPDEST POP PUSH2 0xA51 PUSH1 0x4 DUP1 CALLDATASIZE SUB DUP2 ADD SWAP1 PUSH2 0xA4C SWAP2 SWAP1 PUSH2 0x3500 JUMP JUMPDEST PUSH2 0x22B5 JUMP JUMPDEST STOP JUMPDEST CALLVALUE DUP1 ISZERO PUSH2 0xA5F JUMPI PUSH1 0x0 DUP1 REVERT JUMPDEST POP PUSH2 0xA68 PUSH2 0x2338 JUMP JUMPDEST PUSH1 0x40 MLOAD PUSH2 0xA75 SWAP2 SWAP1 PUSH2 0x318D JUMP JUMPDEST PUSH1 0x40 MLOAD DUP1 SWAP2 SUB SWAP1 RETURN JUMPDEST PUSH1 0x17 SLOAD DUP2 JUMP JUMPDEST PUSH2 0xA8C PUSH2 0x233E JUMP JUMPDEST DUP2 PUSH1 0xC PUSH1 0x0 DUP4 DUP2 MSTORE PUSH1 0x20 ADD SWAP1 DUP2 MSTORE PUSH1 0x20 ADD PUSH1 0x0 KECCAK256 PUSH1 0x7 ADD DUP2 SWAP1 SSTORE POP POP POP JUMP JUMPDEST PUSH1 0x0 PUSH2 0xAB6 DUP3 PUSH2 0x23BC JUMP JUMPDEST DUP1 PUSH2 0xAC6 JUMPI POP PUSH2 0xAC5 DUP3 PUSH2 0x244E JUMP JUMPDEST JUMPDEST SWAP1 POP SWAP2 SWAP1 POP JUMP JUMPDEST PUSH1 0x12 PUSH1 0x1 SWAP1 SLOAD SWAP1 PUSH2 0x100 EXP SWAP1 DIV PUSH1 0xFF AND DUP2 JUMP JUMPDEST PUSH2 0xAE8 PUSH2 0x233E JUMP JUMPDEST DUP2 PUSH1 0x16 DUP2 SWAP1 SSTORE POP DUP1 PUSH1 0x17 DUP2 SWAP1 SSTORE POP POP POP JUMP JUMPDEST PUSH1 0x60 PUSH1 0x6 DUP1 SLOAD PUSH2 0xB09 SWAP1 PUSH2 0x3C68 JUMP JUMPDEST DUP1 PUSH1 0x1F ADD PUSH1 0x20 DUP1 SWAP2 DIV MUL PUSH1 0x20 ADD PUSH1 0x40 MLOAD SWAP1 DUP2 ADD PUSH1 0x40 MSTORE DUP1 SWAP3 SWAP2 SWAP1 DUP2 DUP2 MSTORE PUSH1 0x20 ADD DUP3 DUP1 SLOAD PUSH2 0xB35 SWAP1 PUSH2 0x3C68 JUMP JUMPDEST DUP1 ISZERO PUSH2 0xB82 JUMPI DUP1 PUSH1 0x1F LT PUSH2 0xB57 JUMPI PUSH2 0x100 DUP1 DUP4 SLOAD DIV MUL DUP4 MSTORE SWAP2 PUSH1 0x20 ADD SWAP2 PUSH2 0xB82 JUMP JUMPDEST DUP3 ADD SWAP2 SWAP1 PUSH1 0x0 MSTORE PUSH1 0x20 PUSH1 0x0 KECCAK256 SWAP1 JUMPDEST DUP2 SLOAD DUP2 MSTORE SWAP1 PUSH1 0x1 ADD SWAP1 PUSH1 0x20 ADD DUP1 DUP4 GT PUSH2 0xB65 JUMPI DUP3 SWAP1 SUB PUSH1 0x1F AND DUP3 ADD SWAP2 JUMPDEST POP POP POP POP POP SWAP1 POP SWAP1 JUMP JUMPDEST PUSH1 0x0 PUSH2 0xB97 DUP3 PUSH2 0x24C8 JUMP JUMPDEST PUSH2 0xBAC JUMPI PUSH2 0xBAB PUSH4 0xCF4700E4 PUSH1 0xE0 SHL PUSH2 0x2541 JUMP JUMPDEST JUMPDEST PUSH1 0xA PUSH1 0x0 DUP4 DUP2 MSTORE PUSH1 0x20 ADD SWAP1 DUP2 MSTORE PUSH1 0x20 ADD PUSH1 0x0 KECCAK256 PUSH1 0x0 ADD PUSH1 0x0 SWAP1 SLOAD SWAP1 PUSH2 0x100 EXP SWAP1 DIV PUSH20 0xFFFFFFFFFFFFFFFFFFFFFFFFFFFFFFFFFFFFFFFF AND SWAP1 POP SWAP2 SWAP1 POP JUMP JUMPDEST PUSH2 0xBF6 DUP3 DUP3 PUSH1 0x1 PUSH2 0x254B JUMP JUMPDEST POP POP JUMP JUMPDEST PUSH1 0xF SLOAD DUP2 JUMP JUMPDEST PUSH2 0xC08 PUSH2 0x233E JUMP JUMPDEST DUP2 PUSH1 0x14 DUP2 SWAP1 SSTORE POP DUP1 PUSH1 0x15 DUP2 SWAP1 SSTORE POP POP POP JUMP JUMPDEST PUSH1 0x13 PUSH1 0x20 MSTORE DUP1 PUSH1 0x0 MSTORE PUSH1 0x40 PUSH1 0x0 KECCAK256 PUSH1 0x0 SWAP2 POP SWAP1 POP SLOAD DUP2 JUMP JUMPDEST PUSH1 0x0 PUSH2 0xC3C PUSH2 0x267A JUMP JUMPDEST PUSH1 0x5 SLOAD PUSH1 0x4 SLOAD SUB SUB SWAP1 POP SWAP1 JUMP JUMPDEST PUSH1 0x0 PUSH2 0xC54 DUP3 PUSH2 0x267F JUMP JUMPDEST SWAP1 POP PUSH20 0xFFFFFFFFFFFFFFFFFFFFFFFFFFFFFFFFFFFFFFFF DUP5 PUSH20 0xFFFFFFFFFFFFFFFFFFFFFFFFFFFFFFFFFFFFFFFF AND AND SWAP4 POP DUP4 PUSH20 0xFFFFFFFFFFFFFFFFFFFFFFFFFFFFFFFFFFFFFFFF AND DUP2 PUSH20 0xFFFFFFFFFFFFFFFFFFFFFFFFFFFFFFFFFFFFFFFF AND EQ PUSH2 0xCC9 JUMPI PUSH2 0xCC8 PUSH4 0xA1148100 PUSH1 0xE0 SHL PUSH2 0x2541 JUMP JUMPDEST JUMPDEST PUSH1 0x0 DUP1 PUSH2 0xCD5 DUP5 PUSH2 0x276B JUMP JUMPDEST SWAP2 POP SWAP2 POP PUSH2 0xCEB DUP2 DUP8 PUSH2 0xCE6 PUSH2 0x2792 JUMP JUMPDEST PUSH2 0x279A JUMP JUMPDEST PUSH2 0xD16 JUMPI PUSH2 0xD00 DUP7 PUSH2 0xCFB PUSH2 0x2792 JUMP JUMPDEST PUSH2 0x21ED JUMP JUMPDEST PUSH2 0xD15 JUMPI PUSH2 0xD14 PUSH4 0x59C896BE PUSH1 0xE0 SHL PUSH2 0x2541 JUMP JUMPDEST JUMPDEST JUMPDEST PUSH2 0xD23 DUP7 DUP7 DUP7 PUSH1 0x1 PUSH2 0x27DE JUMP JUMPDEST DUP1 ISZERO PUSH2 0xD2E JUMPI PUSH1 0x0 DUP3 SSTORE JUMPDEST PUSH1 0x9 PUSH1 0x0 DUP8 PUSH20 0xFFFFFFFFFFFFFFFFFFFFFFFFFFFFFFFFFFFFFFFF AND PUSH20 0xFFFFFFFFFFFFFFFFFFFFFFFFFFFFFFFFFFFFFFFF AND DUP2 MSTORE PUSH1 0x20 ADD SWAP1 DUP2 MSTORE PUSH1 0x20 ADD PUSH1 0x0 KECCAK256 PUSH1 0x0 DUP2 SLOAD PUSH1 0x1 SWAP1 SUB SWAP2 SWAP1 POP DUP2 SWAP1 SSTORE POP PUSH1 0x9 PUSH1 0x0 DUP7 PUSH20 0xFFFFFFFFFFFFFFFFFFFFFFFFFFFFFFFFFFFFFFFF AND PUSH20 0xFFFFFFFFFFFFFFFFFFFFFFFFFFFFFFFFFFFFFFFF AND DUP2 MSTORE PUSH1 0x20 ADD SWAP1 DUP2 MSTORE PUSH1 0x20 ADD PUSH1 0x0 KECCAK256 PUSH1 0x0 DUP2 SLOAD PUSH1 0x1 ADD SWAP2 SWAP1 POP DUP2 SWAP1 SSTORE POP PUSH2 0xDFC DUP6 PUSH2 0xDD8 DUP9 DUP9 DUP8 PUSH2 0x27E4 JUMP JUMPDEST PUSH29 0x200000000000000000000000000000000000000000000000000000000 OR PUSH2 0x280C JUMP JUMPDEST PUSH1 0x8 PUSH1 0x0 DUP7 DUP2 MSTORE PUSH1 0x20 ADD SWAP1 DUP2 MSTORE PUSH1 0x20 ADD PUSH1 0x0 KECCAK256 DUP2 SWAP1 SSTORE POP PUSH1 0x0 PUSH29 0x200000000000000000000000000000000000000000000000000000000 DUP5 AND SUB PUSH2 0xE82 JUMPI PUSH1 0x0 PUSH1 0x1 DUP6 ADD SWAP1 POP PUSH1 0x0 PUSH1 0x8 PUSH1 0x0 DUP4 DUP2 MSTORE PUSH1 0x20 ADD SWAP1 DUP2 MSTORE PUSH1 0x20 ADD PUSH1 0x0 KECCAK256 SLOAD SUB PUSH2 0xE80 JUMPI PUSH1 0x4 SLOAD DUP2 EQ PUSH2 0xE7F JUMPI DUP4 PUSH1 0x8 PUSH1 0x0 DUP4 DUP2 MSTORE PUSH1 0x20 ADD SWAP1 DUP2 MSTORE PUSH1 0x20 ADD PUSH1 0x0 KECCAK256 DUP2 SWAP1 SSTORE POP JUMPDEST JUMPDEST POP JUMPDEST PUSH1 0x0 PUSH20 0xFFFFFFFFFFFFFFFFFFFFFFFFFFFFFFFFFFFFFFFF DUP7 PUSH20 0xFFFFFFFFFFFFFFFFFFFFFFFFFFFFFFFFFFFFFFFF AND AND SWAP1 POP DUP5 DUP2 DUP9 PUSH32 0xDDF252AD1BE2C89B69C2B068FC378DAA952BA7F163C4A11628F55A4DF523B3EF PUSH1 0x0 DUP1 LOG4 PUSH1 0x0 DUP2 SUB PUSH2 0xEF4 JUMPI PUSH2 0xEF3 PUSH4 0xEA553B34 PUSH1 0xE0 SHL PUSH2 0x2541 JUMP JUMPDEST JUMPDEST PUSH2 0xF01 DUP8 DUP8 DUP8 PUSH1 0x1 PUSH2 0x2837 JUMP JUMPDEST POP POP POP POP POP POP POP JUMP JUMPDEST PUSH1 0x0 DUP1 PUSH1 0x0 PUSH1 0x3 PUSH1 0x0 DUP7 DUP2 MSTORE PUSH1 0x20 ADD SWAP1 DUP2 MSTORE PUSH1 0x20 ADD PUSH1 0x0 KECCAK256 PUSH1 0x40 MLOAD DUP1 PUSH1 0x40 ADD PUSH1 0x40 MSTORE SWAP1 DUP2 PUSH1 0x0 DUP3 ADD PUSH1 0x0 SWAP1 SLOAD SWAP1 PUSH2 0x100 EXP SWAP1 DIV PUSH20 0xFFFFFFFFFFFFFFFFFFFFFFFFFFFFFFFFFFFFFFFF AND PUSH20 0xFFFFFFFFFFFFFFFFFFFFFFFFFFFFFFFFFFFFFFFF AND PUSH20 0xFFFFFFFFFFFFFFFFFFFFFFFFFFFFFFFFFFFFFFFF AND DUP2 MSTORE PUSH1 0x20 ADD PUSH1 0x0 DUP3 ADD PUSH1 0x14 SWAP1 SLOAD SWAP1 PUSH2 0x100 EXP SWAP1 DIV PUSH12 0xFFFFFFFFFFFFFFFFFFFFFFFF AND PUSH12 0xFFFFFFFFFFFFFFFFFFFFFFFF AND PUSH12 0xFFFFFFFFFFFFFFFFFFFFFFFF AND DUP2 MSTORE POP POP SWAP1 POP PUSH1 0x0 PUSH20 0xFFFFFFFFFFFFFFFFFFFFFFFFFFFFFFFFFFFFFFFF AND DUP2 PUSH1 0x0 ADD MLOAD PUSH20 0xFFFFFFFFFFFFFFFFFFFFFFFFFFFFFFFFFFFFFFFF AND SUB PUSH2 0x109F JUMPI PUSH1 0x2 PUSH1 0x40 MLOAD DUP1 PUSH1 0x40 ADD PUSH1 0x40 MSTORE SWAP1 DUP2 PUSH1 0x0 DUP3 ADD PUSH1 0x0 SWAP1 SLOAD SWAP1 PUSH2 0x100 EXP SWAP1 DIV PUSH20 0xFFFFFFFFFFFFFFFFFFFFFFFFFFFFFFFFFFFFFFFF AND PUSH20 0xFFFFFFFFFFFFFFFFFFFFFFFFFFFFFFFFFFFFFFFF AND PUSH20 0xFFFFFFFFFFFFFFFFFFFFFFFFFFFFFFFFFFFFFFFF AND DUP2 MSTORE PUSH1 0x20 ADD PUSH1 0x0 DUP3 ADD PUSH1 0x14 SWAP1 SLOAD SWAP1 PUSH2 0x100 EXP SWAP1 DIV PUSH12 0xFFFFFFFFFFFFFFFFFFFFFFFF AND PUSH12 0xFFFFFFFFFFFFFFFFFFFFFFFF AND PUSH12 0xFFFFFFFFFFFFFFFFFFFFFFFF AND DUP2 MSTORE POP POP SWAP1 POP JUMPDEST PUSH1 0x0 PUSH2 0x10A9 PUSH2 0x283D JUMP JUMPDEST PUSH12 0xFFFFFFFFFFFFFFFFFFFFFFFF AND DUP3 PUSH1 0x20 ADD MLOAD PUSH12 0xFFFFFFFFFFFFFFFFFFFFFFFF AND DUP7 PUSH2 0x10D5 SWAP2 SWAP1 PUSH2 0x3CC8 JUMP JUMPDEST PUSH2 0x10DF SWAP2 SWAP1 PUSH2 0x3D39 JUMP JUMPDEST SWAP1 POP DUP2 PUSH1 0x0 ADD MLOAD DUP2 SWAP4 POP SWAP4 POP POP POP SWAP3 POP SWAP3 SWAP1 POP JUMP JUMPDEST PUSH2 0x10FC PUSH2 0x233E JUMP JUMPDEST DUP2 PUSH1 0xC PUSH1 0x0 DUP4 DUP2 MSTORE PUSH1 0x20 ADD SWAP1 DUP2 MSTORE PUSH1 0x20 ADD PUSH1 0x0 KECCAK256 PUSH1 0x5 ADD DUP2 SWAP1 SSTORE POP POP POP JUMP JUMPDEST PUSH1 0x12 PUSH1 0x0 SWAP1 SLOAD SWAP1 PUSH2 0x100 EXP SWAP1 DIV PUSH1 0xFF AND PUSH2 0x116A JUMPI PUSH1 0x40 MLOAD PUSH32 0x8C379A000000000000000000000000000000000000000000000000000000000 DUP2 MSTORE PUSH1 0x4 ADD PUSH2 0x1161 SWAP1 PUSH2 0x3DB6 JUMP JUMPDEST PUSH1 0x40 MLOAD DUP1 SWAP2 SUB SWAP1 REVERT JUMPDEST PUSH1 0x2 PUSH1 0x1 SLOAD SUB PUSH2 0x11AF JUMPI PUSH1 0x40 MLOAD PUSH32 0x8C379A000000000000000000000000000000000000000000000000000000000 DUP2 MSTORE PUSH1 0x4 ADD PUSH2 0x11A6 SWAP1 PUSH2 0x3E22 JUMP JUMPDEST PUSH1 0x40 MLOAD DUP1 SWAP2 SUB SWAP1 REVERT JUMPDEST PUSH1 0x2 PUSH1 0x1 DUP2 SWAP1 SSTORE POP PUSH1 0x10 SLOAD DUP2 PUSH2 0x11C3 PUSH2 0xC32 JUMP JUMPDEST PUSH2 0x11CD SWAP2 SWAP1 PUSH2 0x3E42 JUMP JUMPDEST GT ISZERO PUSH2 0x120E JUMPI PUSH1 0x40 MLOAD PUSH32 0x8C379A000000000000000000000000000000000000000000000000000000000 DUP2 MSTORE PUSH1 0x4 ADD PUSH2 0x1205 SWAP1 PUSH2 0x3EC2 JUMP JUMPDEST PUSH1 0x40 MLOAD DUP1 SWAP2 SUB SWAP1 REVERT JUMPDEST PUSH1 0x15 SLOAD PUSH1 0x14 SLOAD PUSH2 0x121E SWAP2 SWAP1 PUSH2 0x3E42 JUMP JUMPDEST DUP2 PUSH1 0x13 PUSH1 0x0 CALLER PUSH20 0xFFFFFFFFFFFFFFFFFFFFFFFFFFFFFFFFFFFFFFFF AND PUSH20 0xFFFFFFFFFFFFFFFFFFFFFFFFFFFFFFFFFFFFFFFF AND DUP2 MSTORE PUSH1 0x20 ADD SWAP1 DUP2 MSTORE PUSH1 0x20 ADD PUSH1 0x0 KECCAK256 SLOAD PUSH2 0x1269 SWAP2 SWAP1 PUSH2 0x3E42 JUMP JUMPDEST GT ISZERO PUSH2 0x12AA JUMPI PUSH1 0x40 MLOAD PUSH32 0x8C379A000000000000000000000000000000000000000000000000000000000 DUP2 MSTORE PUSH1 0x4 ADD PUSH2 0x12A1 SWAP1 PUSH2 0x3F54 JUMP JUMPDEST PUSH1 0x40 MLOAD DUP1 SWAP2 SUB SWAP1 REVERT JUMPDEST CALLVALUE DUP2 PUSH1 0x16 SLOAD PUSH2 0x12B9 SWAP2 SWAP1 PUSH2 0x3CC8 JUMP JUMPDEST GT ISZERO PUSH2 0x12FA JUMPI PUSH1 0x40 MLOAD PUSH32 0x8C379A000000000000000000000000000000000000000000000000000000000 DUP2 MSTORE PUSH1 0x4 ADD PUSH2 0x12F1 SWAP1 PUSH2 0x3FC0 JUMP JUMPDEST PUSH1 0x40 MLOAD DUP1 SWAP2 SUB SWAP1 REVERT JUMPDEST PUSH2 0x1304 CALLER DUP3 PUSH2 0x2847 JUMP JUMPDEST DUP1 PUSH1 0xF PUSH1 0x0 DUP3 DUP3 SLOAD PUSH2 0x1316 SWAP2 SWAP1 PUSH2 0x3E42 JUMP JUMPDEST SWAP3 POP POP DUP2 SWAP1 SSTORE POP DUP1 PUSH1 0x13 PUSH1 0x0 CALLER PUSH20 0xFFFFFFFFFFFFFFFFFFFFFFFFFFFFFFFFFFFFFFFF AND PUSH20 0xFFFFFFFFFFFFFFFFFFFFFFFFFFFFFFFFFFFFFFFF AND DUP2 MSTORE PUSH1 0x20 ADD SWAP1 DUP2 MSTORE PUSH1 0x20 ADD PUSH1 0x0 KECCAK256 PUSH1 0x0 DUP3 DUP3 SLOAD PUSH2 0x136C SWAP2 SWAP1 PUSH2 0x3E42 JUMP JUMPDEST SWAP3 POP POP DUP2 SWAP1 SSTORE POP PUSH32 0x35B6D348AF664CD334C7EC2746E1AB49907EFA953FA3F622552CD0B19A828B3F CALLER DUP3 PUSH1 0x40 MLOAD PUSH2 0x13A4 SWAP3 SWAP2 SWAP1 PUSH2 0x3580 JUMP JUMPDEST PUSH1 0x40 MLOAD DUP1 SWAP2 SUB SWAP1 LOG1 PUSH1 0x1 DUP1 DUP2 SWAP1 SSTORE POP POP JUMP JUMPDEST PUSH2 0x13BE PUSH2 0x233E JUMP JUMPDEST TIMESTAMP PUSH1 0xC PUSH1 0x0 DUP4 DUP2 MSTORE PUSH1 0x20 ADD SWAP1 DUP2 MSTORE PUSH1 0x20 ADD PUSH1 0x0 KECCAK256 PUSH1 0x4 ADD DUP2 SWAP1 SSTORE POP PUSH1 0x1 PUSH1 0xC PUSH1 0x0 DUP4 DUP2 MSTORE PUSH1 0x20 ADD SWAP1 DUP2 MSTORE PUSH1 0x20 ADD PUSH1 0x0 KECCAK256 PUSH1 0x6 ADD PUSH1 0x0 PUSH2 0x100 EXP DUP2 SLOAD DUP2 PUSH1 0xFF MUL NOT AND SWAP1 DUP4 ISZERO ISZERO MUL OR SWAP1 SSTORE POP POP JUMP JUMPDEST PUSH2 0x1413 PUSH2 0x233E JUMP JUMPDEST PUSH1 0x12 PUSH1 0x0 SWAP1 SLOAD SWAP1 PUSH2 0x100 EXP SWAP1 DIV PUSH1 0xFF AND ISZERO PUSH1 0x12 PUSH1 0x0 PUSH2 0x100 EXP DUP2 SLOAD DUP2 PUSH1 0xFF MUL NOT AND SWAP1 DUP4 ISZERO ISZERO MUL OR SWAP1 SSTORE POP JUMP JUMPDEST DUP1 PUSH1 0xC PUSH1 0x0 DUP3 DUP2 MSTORE PUSH1 0x20 ADD SWAP1 DUP2 MSTORE PUSH1 0x20 ADD PUSH1 0x0 KECCAK256 PUSH1 0x6 ADD PUSH1 0x0 SWAP1 SLOAD SWAP1 PUSH2 0x100 EXP SWAP1 DIV PUSH1 0xFF AND PUSH2 0x14A3 JUMPI PUSH1 0x40 MLOAD PUSH32 0x8C379A000000000000000000000000000000000000000000000000000000000 DUP2 MSTORE PUSH1 0x4 ADD PUSH2 0x149A SWAP1 PUSH2 0x4052 JUMP JUMPDEST PUSH1 0x40 MLOAD DUP1 SWAP2 SUB SWAP1 REVERT JUMPDEST PUSH1 0x2 PUSH1 0x1 SLOAD SUB PUSH2 0x14E8 JUMPI PUSH1 0x40 MLOAD PUSH32 0x8C379A000000000000000000000000000000000000000000000000000000000 DUP2 MSTORE PUSH1 0x4 ADD PUSH2 0x14DF SWAP1 PUSH2 0x3E22 JUMP JUMPDEST PUSH1 0x40 MLOAD DUP1 SWAP2 SUB SWAP1 REVERT JUMPDEST PUSH1 0x2 PUSH1 0x1 DUP2 SWAP1 SSTORE POP TIMESTAMP PUSH1 0xC PUSH1 0x0 DUP5 DUP2 MSTORE PUSH1 0x20 ADD SWAP1 DUP2 MSTORE PUSH1 0x20 ADD PUSH1 0x0 KECCAK256 PUSH1 0x5 ADD SLOAD PUSH1 0xC PUSH1 0x0 DUP6 DUP2 MSTORE PUSH1 0x20 ADD SWAP1 DUP2 MSTORE PUSH1 0x20 ADD PUSH1 0x0 KECCAK256 PUSH1 0x4 ADD SLOAD PUSH2 0x1529 SWAP2 SWAP1 PUSH2 0x3E42 JUMP JUMPDEST GT ISZERO PUSH2 0x1613 JUMPI PUSH1 0xC PUSH1 0x0 DUP4 DUP2 MSTORE PUSH1 0x20 ADD SWAP1 DUP2 MSTORE PUSH1 0x20 ADD PUSH1 0x0 KECCAK256 PUSH1 0x2 ADD SLOAD PUSH1 0xC PUSH1 0x0 DUP5 DUP2 MSTORE PUSH1 0x20 ADD SWAP1 DUP2 MSTORE PUSH1 0x20 ADD PUSH1 0x0 KECCAK256 PUSH1 0x1 ADD SLOAD GT ISZERO PUSH2 0x159E JUMPI PUSH1 0x40 MLOAD PUSH32 0x8C379A000000000000000000000000000000000000000000000000000000000 DUP2 MSTORE PUSH1 0x4 ADD PUSH2 0x1595 SWAP1 PUSH2 0x40BE JUMP JUMPDEST PUSH1 0x40 MLOAD DUP1 SWAP2 SUB SWAP1 REVERT JUMPDEST PUSH1 0xC PUSH1 0x0 DUP4 DUP2 MSTORE PUSH1 0x20 ADD SWAP1 DUP2 MSTORE PUSH1 0x20 ADD PUSH1 0x0 KECCAK256 PUSH1 0x6 ADD PUSH1 0x1 SWAP1 SLOAD SWAP1 PUSH2 0x100 EXP SWAP1 DIV PUSH1 0xFF AND ISZERO PUSH2 0x1612 JUMPI PUSH2 0x15D2 DUP5 DUP5 DUP5 PUSH2 0x2865 JUMP JUMPDEST PUSH2 0x1611 JUMPI PUSH1 0x40 MLOAD PUSH32 0x8C379A000000000000000000000000000000000000000000000000000000000 DUP2 MSTORE PUSH1 0x4 ADD PUSH2 0x1608 SWAP1 PUSH2 0x4150 JUMP JUMPDEST PUSH1 0x40 MLOAD DUP1 SWAP2 SUB SWAP1 REVERT JUMPDEST JUMPDEST JUMPDEST PUSH1 0xC PUSH1 0x0 DUP4 DUP2 MSTORE PUSH1 0x20 ADD SWAP1 DUP2 MSTORE PUSH1 0x20 ADD PUSH1 0x0 KECCAK256 PUSH1 0x3 ADD SLOAD PUSH1 0xC PUSH1 0x0 DUP5 DUP2 MSTORE PUSH1 0x20 ADD SWAP1 DUP2 MSTORE PUSH1 0x20 ADD PUSH1 0x0 KECCAK256 PUSH1 0x1 ADD SLOAD GT ISZERO PUSH2 0x1682 JUMPI PUSH1 0x40 MLOAD PUSH32 0x8C379A000000000000000000000000000000000000000000000000000000000 DUP2 MSTORE PUSH1 0x4 ADD PUSH2 0x1679 SWAP1 PUSH2 0x3EC2 JUMP JUMPDEST PUSH1 0x40 MLOAD DUP1 SWAP2 SUB SWAP1 REVERT JUMPDEST PUSH1 0xC PUSH1 0x0 DUP4 DUP2 MSTORE PUSH1 0x20 ADD SWAP1 DUP2 MSTORE PUSH1 0x20 ADD PUSH1 0x0 KECCAK256 PUSH1 0x8 ADD PUSH1 0x0 CALLER PUSH20 0xFFFFFFFFFFFFFFFFFFFFFFFFFFFFFFFFFFFFFFFF AND PUSH20 0xFFFFFFFFFFFFFFFFFFFFFFFFFFFFFFFFFFFFFFFF AND DUP2 MSTORE PUSH1 0x20 ADD SWAP1 DUP2 MSTORE PUSH1 0x20 ADD PUSH1 0x0 KECCAK256 PUSH1 0x0 SWAP1 SLOAD SWAP1 PUSH2 0x100 EXP SWAP1 DIV PUSH1 0xFF AND ISZERO PUSH2 0x1723 JUMPI PUSH1 0x40 MLOAD PUSH32 0x8C379A000000000000000000000000000000000000000000000000000000000 DUP2 MSTORE PUSH1 0x4 ADD PUSH2 0x171A SWAP1 PUSH2 0x3F54 JUMP JUMPDEST PUSH1 0x40 MLOAD DUP1 SWAP2 SUB SWAP1 REVERT JUMPDEST PUSH1 0x1 PUSH1 0xC PUSH1 0x0 DUP5 DUP2 MSTORE PUSH1 0x20 ADD SWAP1 DUP2 MSTORE PUSH1 0x20 ADD PUSH1 0x0 KECCAK256 PUSH1 0x8 ADD PUSH1 0x0 CALLER PUSH20 0xFFFFFFFFFFFFFFFFFFFFFFFFFFFFFFFFFFFFFFFF AND PUSH20 0xFFFFFFFFFFFFFFFFFFFFFFFFFFFFFFFFFFFFFFFF AND DUP2 MSTORE PUSH1 0x20 ADD SWAP1 DUP2 MSTORE PUSH1 0x20 ADD PUSH1 0x0 KECCAK256 PUSH1 0x0 PUSH2 0x100 EXP DUP2 SLOAD DUP2 PUSH1 0xFF MUL NOT AND SWAP1 DUP4 ISZERO ISZERO MUL OR SWAP1 SSTORE POP PUSH1 0xC PUSH1 0x0 DUP4 DUP2 MSTORE PUSH1 0x20 ADD SWAP1 DUP2 MSTORE PUSH1 0x20 ADD PUSH1 0x0 KECCAK256 PUSH1 0x1 ADD PUSH1 0x0 DUP2 SLOAD DUP1 SWAP3 SWAP2 SWAP1 PUSH2 0x17B6 SWAP1 PUSH2 0x4170 JUMP JUMPDEST SWAP2 SWAP1 POP SSTORE POP PUSH1 0xF PUSH1 0x0 DUP2 SLOAD DUP1 SWAP3 SWAP2 SWAP1 PUSH2 0x17CE SWAP1 PUSH2 0x4170 JUMP JUMPDEST SWAP2 SWAP1 POP SSTORE POP PUSH2 0x17DE CALLER PUSH1 0x1 PUSH2 0x2847 JUMP JUMPDEST PUSH32 0x1A75C98F3CAA5C596C30E5E4C83E0802685273950677D98A322C514A03B05B57 CALLER PUSH1 0x1 PUSH1 0x40 MLOAD PUSH2 0x1810 SWAP3 SWAP2 SWAP1 PUSH2 0x41FD JUMP JUMPDEST PUSH1 0x40 MLOAD DUP1 SWAP2 SUB SWAP1 LOG1 PUSH1 0x1 DUP1 DUP2 SWAP1 SSTORE POP POP POP POP POP JUMP JUMPDEST PUSH2 0x182D PUSH2 0x233E JUMP JUMPDEST DUP1 PUSH1 0x10 DUP2 SWAP1 SSTORE POP POP JUMP JUMPDEST PUSH1 0xE SLOAD DUP2 JUMP JUMPDEST PUSH2 0x1858 DUP4 DUP4 DUP4 PUSH1 0x40 MLOAD DUP1 PUSH1 0x20 ADD PUSH1 0x40 MSTORE DUP1 PUSH1 0x0 DUP2 MSTORE POP PUSH2 0x1D27 JUMP JUMPDEST POP POP POP JUMP JUMPDEST PUSH2 0x1865 PUSH2 0x233E JUMP JUMPDEST DUP1 PUSH1 0x11 SWAP1 DUP2 PUSH2 0x1874 SWAP2 SWAP1 PUSH2 0x43C8 JUMP JUMPDEST POP PUSH32 0x5411E8EBF1636D9E83D5FC4900BF80CBAC82E8790DA2A4C94DB4895E889EEDF6 DUP2 PUSH1 0x40 MLOAD PUSH2 0x18A4 SWAP2 SWAP1 PUSH2 0x33E9 JUMP JUMPDEST PUSH1 0x40 MLOAD DUP1 SWAP2 SUB SWAP1 LOG1 POP JUMP JUMPDEST PUSH2 0x18B7 PUSH2 0x233E JUMP JUMPDEST DUP2 PUSH1 0xC PUSH1 0x0 DUP4 DUP2 MSTORE PUSH1 0x20 ADD SWAP1 DUP2 MSTORE PUSH1 0x20 ADD PUSH1 0x0 KECCAK256 PUSH1 0x3 ADD DUP2 SWAP1 SSTORE POP POP POP JUMP JUMPDEST PUSH1 0x0 PUSH2 0x18E1 DUP3 PUSH2 0x267F JUMP JUMPDEST SWAP1 POP SWAP2 SWAP1 POP JUMP JUMPDEST PUSH1 0x0 DUP1 PUSH20 0xFFFFFFFFFFFFFFFFFFFFFFFFFFFFFFFFFFFFFFFF AND DUP3 PUSH20 0xFFFFFFFFFFFFFFFFFFFFFFFFFFFFFFFFFFFFFFFF AND SUB PUSH2 0x192E JUMPI PUSH2 0x192D PUSH4 0x8F4EB604 PUSH1 0xE0 SHL PUSH2 0x2541 JUMP JUMPDEST JUMPDEST PUSH8 0xFFFFFFFFFFFFFFFF PUSH1 0x9 PUSH1 0x0 DUP5 PUSH20 0xFFFFFFFFFFFFFFFFFFFFFFFFFFFFFFFFFFFFFFFF AND PUSH20 0xFFFFFFFFFFFFFFFFFFFFFFFFFFFFFFFFFFFFFFFF AND DUP2 MSTORE PUSH1 0x20 ADD SWAP1 DUP2 MSTORE PUSH1 0x20 ADD PUSH1 0x0 KECCAK256 SLOAD AND SWAP1 POP SWAP2 SWAP1 POP JUMP JUMPDEST PUSH2 0x1987 PUSH2 0x233E JUMP JUMPDEST PUSH2 0x1991 PUSH1 0x0 PUSH2 0x291C JUMP JUMPDEST JUMP JUMPDEST PUSH1 0x15 SLOAD DUP2 JUMP JUMPDEST PUSH2 0x19A1 PUSH2 0x233E JUMP JUMPDEST PUSH2 0x19A9 PUSH2 0x29E0 JUMP JUMPDEST PUSH2 0x19B3 DUP3 DUP3 PUSH2 0x2A2D JUMP JUMPDEST POP POP JUMP JUMPDEST PUSH1 0x0 DUP1 PUSH1 0x0 SWAP1 SLOAD SWAP1 PUSH2 0x100 EXP SWAP1 DIV PUSH20 0xFFFFFFFFFFFFFFFFFFFFFFFFFFFFFFFFFFFFFFFF AND SWAP1 POP SWAP1 JUMP JUMPDEST PUSH2 0x19E8 PUSH2 0x233E JUMP JUMPDEST DUP2 PUSH1 0xC PUSH1 0x0 DUP4 DUP2 MSTORE PUSH1 0x20 ADD SWAP1 DUP2 MSTORE PUSH1 0x20 ADD PUSH1 0x0 KECCAK256 PUSH1 0x6 ADD PUSH1 0x1 PUSH2 0x100 EXP DUP2 SLOAD DUP2 PUSH1 0xFF MUL NOT AND SWAP1 DUP4 ISZERO ISZERO MUL OR SWAP1 SSTORE POP POP POP JUMP JUMPDEST PUSH2 0x1A22 PUSH2 0x233E JUMP JUMPDEST PUSH1 0x0 PUSH1 0xC PUSH1 0x0 DUP4 DUP2 MSTORE PUSH1 0x20 ADD SWAP1 DUP2 MSTORE PUSH1 0x20 ADD PUSH1 0x0 KECCAK256 PUSH1 0x6 ADD PUSH1 0x0 PUSH2 0x100 EXP DUP2 SLOAD DUP2 PUSH1 0xFF MUL NOT AND SWAP1 DUP4 ISZERO ISZERO MUL OR SWAP1 SSTORE POP POP JUMP JUMPDEST PUSH1 0x60 PUSH1 0x7 DUP1 SLOAD PUSH2 0x1A63 SWAP1 PUSH2 0x3C68 JUMP JUMPDEST DUP1 PUSH1 0x1F ADD PUSH1 0x20 DUP1 SWAP2 DIV MUL PUSH1 0x20 ADD PUSH1 0x40 MLOAD SWAP1 DUP2 ADD PUSH1 0x40 MSTORE DUP1 SWAP3 SWAP2 SWAP1 DUP2 DUP2 MSTORE PUSH1 0x20 ADD DUP3 DUP1 SLOAD PUSH2 0x1A8F SWAP1 PUSH2 0x3C68 JUMP JUMPDEST DUP1 ISZERO PUSH2 0x1ADC JUMPI DUP1 PUSH1 0x1F LT PUSH2 0x1AB1 JUMPI PUSH2 0x100 DUP1 DUP4 SLOAD DIV MUL DUP4 MSTORE SWAP2 PUSH1 0x20 ADD SWAP2 PUSH2 0x1ADC JUMP JUMPDEST DUP3 ADD SWAP2 SWAP1 PUSH1 0x0 MSTORE PUSH1 0x20 PUSH1 0x0 KECCAK256 SWAP1 JUMPDEST DUP2 SLOAD DUP2 MSTORE SWAP1 PUSH1 0x1 ADD SWAP1 PUSH1 0x20 ADD DUP1 DUP4 GT PUSH2 0x1ABF JUMPI DUP3 SWAP1 SUB PUSH1 0x1F AND DUP3 ADD SWAP2 JUMPDEST POP POP POP POP POP SWAP1 POP SWAP1 JUMP JUMPDEST PUSH1 0x16 SLOAD DUP2 JUMP JUMPDEST DUP1 PUSH1 0xB PUSH1 0x0 PUSH2 0x1AF9 PUSH2 0x2792 JUMP JUMPDEST PUSH20 0xFFFFFFFFFFFFFFFFFFFFFFFFFFFFFFFFFFFFFFFF AND PUSH20 0xFFFFFFFFFFFFFFFFFFFFFFFFFFFFFFFFFFFFFFFF AND DUP2 MSTORE PUSH1 0x20 ADD SWAP1 DUP2 MSTORE PUSH1 0x20 ADD PUSH1 0x0 KECCAK256 PUSH1 0x0 DUP5 PUSH20 0xFFFFFFFFFFFFFFFFFFFFFFFFFFFFFFFFFFFFFFFF AND PUSH20 0xFFFFFFFFFFFFFFFFFFFFFFFFFFFFFFFFFFFFFFFF AND DUP2 MSTORE PUSH1 0x20 ADD SWAP1 DUP2 MSTORE PUSH1 0x20 ADD PUSH1 0x0 KECCAK256 PUSH1 0x0 PUSH2 0x100 EXP DUP2 SLOAD DUP2 PUSH1 0xFF MUL NOT AND SWAP1 DUP4 ISZERO ISZERO MUL OR SWAP1 SSTORE POP DUP2 PUSH20 0xFFFFFFFFFFFFFFFFFFFFFFFFFFFFFFFFFFFFFFFF AND PUSH2 0x1BA6 PUSH2 0x2792 JUMP JUMPDEST PUSH20 0xFFFFFFFFFFFFFFFFFFFFFFFFFFFFFFFFFFFFFFFF AND PUSH32 0x17307EAB39AB6107E8899845AD3D59BD9653F200F220920489CA2B5937696C31 DUP4 PUSH1 0x40 MLOAD PUSH2 0x1BEB SWAP2 SWAP1 PUSH2 0x32FE JUMP JUMPDEST PUSH1 0x40 MLOAD DUP1 SWAP2 SUB SWAP1 LOG3 POP POP JUMP JUMPDEST PUSH1 0x12 PUSH1 0x0 SWAP1 SLOAD SWAP1 PUSH2 0x100 EXP SWAP1 DIV PUSH1 0xFF AND DUP2 JUMP JUMPDEST PUSH2 0x1C12 PUSH2 0x233E JUMP JUMPDEST PUSH1 0xE PUSH1 0x0 DUP2 SLOAD DUP1 SWAP3 SWAP2 SWAP1 PUSH2 0x1C25 SWAP1 PUSH2 0x4170 JUMP JUMPDEST SWAP2 SWAP1 POP SSTORE POP DUP5 PUSH1 0xC PUSH1 0x0 PUSH1 0xE SLOAD DUP2 MSTORE PUSH1 0x20 ADD SWAP1 DUP2 MSTORE PUSH1 0x20 ADD PUSH1 0x0 KECCAK256 PUSH1 0x2 ADD DUP2 SWAP1 SSTORE POP DUP4 PUSH1 0xC PUSH1 0x0 PUSH1 0xE SLOAD DUP2 MSTORE PUSH1 0x20 ADD SWAP1 DUP2 MSTORE PUSH1 0x20 ADD PUSH1 0x0 KECCAK256 PUSH1 0x3 ADD DUP2 SWAP1 SSTORE POP DUP3 PUSH1 0xC PUSH1 0x0 PUSH1 0xE SLOAD DUP2 MSTORE PUSH1 0x20 ADD SWAP1 DUP2 MSTORE PUSH1 0x20 ADD PUSH1 0x0 KECCAK256 PUSH1 0x5 ADD DUP2 SWAP1 SSTORE POP DUP2 PUSH1 0xC PUSH1 0x0 PUSH1 0xE SLOAD DUP2 MSTORE PUSH1 0x20 ADD SWAP1 DUP2 MSTORE PUSH1 0x20 ADD PUSH1 0x0 KECCAK256 PUSH1 0x6 ADD PUSH1 0x1 PUSH2 0x100 EXP DUP2 SLOAD DUP2 PUSH1 0xFF MUL NOT AND SWAP1 DUP4 ISZERO ISZERO MUL OR SWAP1 SSTORE POP DUP1 PUSH1 0xC PUSH1 0x0 PUSH1 0xE SLOAD DUP2 MSTORE PUSH1 0x20 ADD SWAP1 DUP2 MSTORE PUSH1 0x20 ADD PUSH1 0x0 KECCAK256 PUSH1 0x7 ADD DUP2 SWAP1 SSTORE POP DUP4 PUSH1 0x10 PUSH1 0x0 DUP3 DUP3 SLOAD PUSH2 0x1CE0 SWAP2 SWAP1 PUSH2 0x3E42 JUMP JUMPDEST SWAP3 POP POP DUP2 SWAP1 SSTORE POP PUSH32 0x2D6D0E514E495F0E0847CA6B03935BFA1EB829D808EF5FCB9918580CFF958FE2 PUSH1 0xE SLOAD PUSH1 0x40 MLOAD PUSH2 0x1D18 SWAP2 SWAP1 PUSH2 0x318D JUMP JUMPDEST PUSH1 0x40 MLOAD DUP1 SWAP2 SUB SWAP1 LOG1 POP POP POP POP POP JUMP JUMPDEST PUSH2 0x1D32 DUP5 DUP5 DUP5 PUSH2 0xC49 JUMP JUMPDEST PUSH1 0x0 DUP4 PUSH20 0xFFFFFFFFFFFFFFFFFFFFFFFFFFFFFFFFFFFFFFFF AND EXTCODESIZE EQ PUSH2 0x1D73 JUMPI PUSH2 0x1D5D DUP5 DUP5 DUP5 DUP5 PUSH2 0x2BC2 JUMP JUMPDEST PUSH2 0x1D72 JUMPI PUSH2 0x1D71 PUSH4 0xD1A57ED6 PUSH1 0xE0 SHL PUSH2 0x2541 JUMP JUMPDEST JUMPDEST JUMPDEST POP POP POP POP JUMP JUMPDEST PUSH2 0x1D81 PUSH2 0x233E JUMP JUMPDEST PUSH1 0x10 SLOAD DUP3 DUP3 SWAP1 POP DUP5 PUSH2 0x1D93 SWAP2 SWAP1 PUSH2 0x3CC8 JUMP JUMPDEST PUSH2 0x1D9B PUSH2 0xC32 JUMP JUMPDEST PUSH2 0x1DA5 SWAP2 SWAP1 PUSH2 0x3E42 JUMP JUMPDEST GT ISZERO PUSH2 0x1DE6 JUMPI PUSH1 0x40 MLOAD PUSH32 0x8C379A000000000000000000000000000000000000000000000000000000000 DUP2 MSTORE PUSH1 0x4 ADD PUSH2 0x1DDD SWAP1 PUSH2 0x3EC2 JUMP JUMPDEST PUSH1 0x40 MLOAD DUP1 SWAP2 SUB SWAP1 REVERT JUMPDEST PUSH1 0x0 JUMPDEST DUP3 DUP3 SWAP1 POP DUP2 LT ISZERO PUSH2 0x1E38 JUMPI PUSH2 0x1E25 DUP4 DUP4 DUP4 DUP2 DUP2 LT PUSH2 0x1E0A JUMPI PUSH2 0x1E09 PUSH2 0x449A JUMP JUMPDEST JUMPDEST SWAP1 POP PUSH1 0x20 MUL ADD PUSH1 0x20 DUP2 ADD SWAP1 PUSH2 0x1E1F SWAP2 SWAP1 PUSH2 0x3500 JUMP JUMPDEST DUP6 PUSH2 0x2847 JUMP JUMPDEST DUP1 DUP1 PUSH2 0x1E30 SWAP1 PUSH2 0x4170 JUMP JUMPDEST SWAP2 POP POP PUSH2 0x1DE9 JUMP JUMPDEST POP DUP2 DUP2 SWAP1 POP DUP4 PUSH2 0x1E48 SWAP2 SWAP1 PUSH2 0x3CC8 JUMP JUMPDEST PUSH1 0xF PUSH1 0x0 DUP3 DUP3 SLOAD PUSH2 0x1E59 SWAP2 SWAP1 PUSH2 0x3E42 JUMP JUMPDEST SWAP3 POP POP DUP2 SWAP1 SSTORE POP PUSH32 0xD0ECDF4854F39DABA34BA0E2C1ED0132A7023A5434BFFC90B24F3335FB90E5E3 DUP4 PUSH1 0x40 MLOAD PUSH2 0x1E8F SWAP2 SWAP1 PUSH2 0x318D JUMP JUMPDEST PUSH1 0x40 MLOAD DUP1 SWAP2 SUB SWAP1 LOG1 POP POP POP JUMP JUMPDEST PUSH1 0x60 PUSH1 0x0 PUSH2 0x1EA9 DUP4 PUSH2 0x2CF1 JUMP JUMPDEST SWAP1 POP DUP1 PUSH1 0x40 MLOAD PUSH1 0x20 ADD PUSH2 0x1EBC SWAP2 SWAP1 PUSH2 0x4551 JUMP JUMPDEST PUSH1 0x40 MLOAD PUSH1 0x20 DUP2 DUP4 SUB SUB DUP2 MSTORE SWAP1 PUSH1 0x40 MSTORE SWAP2 POP POP SWAP2 SWAP1 POP JUMP JUMPDEST PUSH1 0x10 SLOAD DUP2 JUMP JUMPDEST PUSH2 0x1EE1 PUSH2 0x233E JUMP JUMPDEST DUP2 PUSH1 0xC PUSH1 0x0 DUP4 DUP2 MSTORE PUSH1 0x20 ADD SWAP1 DUP2 MSTORE PUSH1 0x20 ADD PUSH1 0x0 KECCAK256 PUSH1 0x2 ADD DUP2 SWAP1 SSTORE POP POP POP JUMP JUMPDEST PUSH1 0x12 PUSH1 0x1 SWAP1 SLOAD SWAP1 PUSH2 0x100 EXP SWAP1 DIV PUSH1 0xFF AND PUSH2 0x1F4F JUMPI PUSH1 0x40 MLOAD PUSH32 0x8C379A000000000000000000000000000000000000000000000000000000000 DUP2 MSTORE PUSH1 0x4 ADD PUSH2 0x1F46 SWAP1 PUSH2 0x45BF JUMP JUMPDEST PUSH1 0x40 MLOAD DUP1 SWAP2 SUB SWAP1 REVERT JUMPDEST PUSH1 0x2 PUSH1 0x1 SLOAD SUB PUSH2 0x1F94 JUMPI PUSH1 0x40 MLOAD PUSH32 0x8C379A000000000000000000000000000000000000000000000000000000000 DUP2 MSTORE PUSH1 0x4 ADD PUSH2 0x1F8B SWAP1 PUSH2 0x3E22 JUMP JUMPDEST PUSH1 0x40 MLOAD DUP1 SWAP2 SUB SWAP1 REVERT JUMPDEST PUSH1 0x2 PUSH1 0x1 DUP2 SWAP1 SSTORE POP PUSH1 0x15 SLOAD DUP4 PUSH1 0x13 PUSH1 0x0 CALLER PUSH20 0xFFFFFFFFFFFFFFFFFFFFFFFFFFFFFFFFFFFFFFFF AND PUSH20 0xFFFFFFFFFFFFFFFFFFFFFFFFFFFFFFFFFFFFFFFF AND DUP2 MSTORE PUSH1 0x20 ADD SWAP1 DUP2 MSTORE PUSH1 0x20 ADD PUSH1 0x0 KECCAK256 SLOAD PUSH2 0x1FEA SWAP2 SWAP1 PUSH2 0x3E42 JUMP JUMPDEST GT ISZERO PUSH2 0x202B JUMPI PUSH1 0x40 MLOAD PUSH32 0x8C379A000000000000000000000000000000000000000000000000000000000 DUP2 MSTORE PUSH1 0x4 ADD PUSH2 0x2022 SWAP1 PUSH2 0x3F54 JUMP JUMPDEST PUSH1 0x40 MLOAD DUP1 SWAP2 SUB SWAP1 REVERT JUMPDEST PUSH1 0x10 SLOAD DUP4 PUSH2 0x2037 PUSH2 0xC32 JUMP JUMPDEST PUSH2 0x2041 SWAP2 SWAP1 PUSH2 0x3E42 JUMP JUMPDEST GT ISZERO PUSH2 0x2082 JUMPI PUSH1 0x40 MLOAD PUSH32 0x8C379A000000000000000000000000000000000000000000000000000000000 DUP2 MSTORE PUSH1 0x4 ADD PUSH2 0x2079 SWAP1 PUSH2 0x3EC2 JUMP JUMPDEST PUSH1 0x40 MLOAD DUP1 SWAP2 SUB SWAP1 REVERT JUMPDEST CALLVALUE DUP4 PUSH1 0x17 SLOAD PUSH2 0x2091 SWAP2 SWAP1 PUSH2 0x3CC8 JUMP JUMPDEST GT ISZERO PUSH2 0x20D2 JUMPI PUSH1 0x40 MLOAD PUSH32 0x8C379A000000000000000000000000000000000000000000000000000000000 DUP2 MSTORE PUSH1 0x4 ADD PUSH2 0x20C9 SWAP1 PUSH2 0x3FC0 JUMP JUMPDEST PUSH1 0x40 MLOAD DUP1 SWAP2 SUB SWAP1 REVERT JUMPDEST PUSH2 0x20DE DUP3 DUP3 PUSH1 0x0 PUSH2 0x2865 JUMP JUMPDEST PUSH2 0x211D JUMPI PUSH1 0x40 MLOAD PUSH32 0x8C379A000000000000000000000000000000000000000000000000000000000 DUP2 MSTORE PUSH1 0x4 ADD PUSH2 0x2114 SWAP1 PUSH2 0x4651 JUMP JUMPDEST PUSH1 0x40 MLOAD DUP1 SWAP2 SUB SWAP1 REVERT JUMPDEST DUP3 PUSH1 0xF PUSH1 0x0 DUP3 DUP3 SLOAD PUSH2 0x212F SWAP2 SWAP1 PUSH2 0x3E42 JUMP JUMPDEST SWAP3 POP POP DUP2 SWAP1 SSTORE POP DUP3 PUSH1 0x13 PUSH1 0x0 CALLER PUSH20 0xFFFFFFFFFFFFFFFFFFFFFFFFFFFFFFFFFFFFFFFF AND PUSH20 0xFFFFFFFFFFFFFFFFFFFFFFFFFFFFFFFFFFFFFFFF AND DUP2 MSTORE PUSH1 0x20 ADD SWAP1 DUP2 MSTORE PUSH1 0x20 ADD PUSH1 0x0 KECCAK256 PUSH1 0x0 DUP3 DUP3 SLOAD PUSH2 0x2185 SWAP2 SWAP1 PUSH2 0x3E42 JUMP JUMPDEST SWAP3 POP POP DUP2 SWAP1 SSTORE POP PUSH2 0x2196 CALLER DUP5 PUSH2 0x2847 JUMP JUMPDEST PUSH32 0x35B6D348AF664CD334C7EC2746E1AB49907EFA953FA3F622552CD0B19A828B3F CALLER DUP5 PUSH1 0x40 MLOAD PUSH2 0x21C7 SWAP3 SWAP2 SWAP1 PUSH2 0x3580 JUMP JUMPDEST PUSH1 0x40 MLOAD DUP1 SWAP2 SUB SWAP1 LOG1 PUSH1 0x1 DUP1 DUP2 SWAP1 SSTORE POP POP POP POP JUMP JUMPDEST PUSH2 0x21E3 PUSH2 0x233E JUMP JUMPDEST DUP1 PUSH1 0xD DUP2 SWAP1 SSTORE POP POP JUMP JUMPDEST PUSH1 0x0 PUSH1 0xB PUSH1 0x0 DUP5 PUSH20 0xFFFFFFFFFFFFFFFFFFFFFFFFFFFFFFFFFFFFFFFF AND PUSH20 0xFFFFFFFFFFFFFFFFFFFFFFFFFFFFFFFFFFFFFFFF AND DUP2 MSTORE PUSH1 0x20 ADD SWAP1 DUP2 MSTORE PUSH1 0x20 ADD PUSH1 0x0 KECCAK256 PUSH1 0x0 DUP4 PUSH20 0xFFFFFFFFFFFFFFFFFFFFFFFFFFFFFFFFFFFFFFFF AND PUSH20 0xFFFFFFFFFFFFFFFFFFFFFFFFFFFFFFFFFFFFFFFF AND DUP2 MSTORE PUSH1 0x20 ADD SWAP1 DUP2 MSTORE PUSH1 0x20 ADD PUSH1 0x0 KECCAK256 PUSH1 0x0 SWAP1 SLOAD SWAP1 PUSH2 0x100 EXP SWAP1 DIV PUSH1 0xFF AND SWAP1 POP SWAP3 SWAP2 POP POP JUMP JUMPDEST PUSH2 0x2289 PUSH2 0x233E JUMP JUMPDEST PUSH1 0x12 PUSH1 0x1 SWAP1 SLOAD SWAP1 PUSH2 0x100 EXP SWAP1 DIV PUSH1 0xFF AND ISZERO PUSH1 0x12 PUSH1 0x1 PUSH2 0x100 EXP DUP2 SLOAD DUP2 PUSH1 0xFF MUL NOT AND SWAP1 DUP4 ISZERO ISZERO MUL OR SWAP1 SSTORE POP JUMP JUMPDEST PUSH2 0x22BD PUSH2 0x233E JUMP JUMPDEST PUSH1 0x0 PUSH20 0xFFFFFFFFFFFFFFFFFFFFFFFFFFFFFFFFFFFFFFFF AND DUP2 PUSH20 0xFFFFFFFFFFFFFFFFFFFFFFFFFFFFFFFFFFFFFFFF AND SUB PUSH2 0x232C JUMPI PUSH1 0x40 MLOAD PUSH32 0x8C379A000000000000000000000000000000000000000000000000000000000 DUP2 MSTORE PUSH1 0x4 ADD PUSH2 0x2323 SWAP1 PUSH2 0x46E3 JUMP JUMPDEST PUSH1 0x40 MLOAD DUP1 SWAP2 SUB SWAP1 REVERT JUMPDEST PUSH2 0x2335 DUP2 PUSH2 0x291C JUMP JUMPDEST POP JUMP JUMPDEST PUSH1 0x14 SLOAD DUP2 JUMP JUMPDEST PUSH2 0x2346 PUSH2 0x2D6E JUMP JUMPDEST PUSH20 0xFFFFFFFFFFFFFFFFFFFFFFFFFFFFFFFFFFFFFFFF AND PUSH2 0x2364 PUSH2 0x19B7 JUMP JUMPDEST PUSH20 0xFFFFFFFFFFFFFFFFFFFFFFFFFFFFFFFFFFFFFFFF AND EQ PUSH2 0x23BA JUMPI PUSH1 0x40 MLOAD PUSH32 0x8C379A000000000000000000000000000000000000000000000000000000000 DUP2 MSTORE PUSH1 0x4 ADD PUSH2 0x23B1 SWAP1 PUSH2 0x474F JUMP JUMPDEST PUSH1 0x40 MLOAD DUP1 SWAP2 SUB SWAP1 REVERT JUMPDEST JUMP JUMPDEST PUSH1 0x0 PUSH4 0x1FFC9A7 PUSH1 0xE0 SHL DUP3 PUSH28 0xFFFFFFFFFFFFFFFFFFFFFFFFFFFFFFFFFFFFFFFFFFFFFFFFFFFFFFFF NOT AND EQ DUP1 PUSH2 0x2417 JUMPI POP PUSH4 0x80AC58CD PUSH1 0xE0 SHL DUP3 PUSH28 0xFFFFFFFFFFFFFFFFFFFFFFFFFFFFFFFFFFFFFFFFFFFFFFFFFFFFFFFF NOT AND EQ JUMPDEST DUP1 PUSH2 0x2447 JUMPI POP PUSH4 0x5B5E139F PUSH1 0xE0 SHL DUP3 PUSH28 0xFFFFFFFFFFFFFFFFFFFFFFFFFFFFFFFFFFFFFFFFFFFFFFFFFFFFFFFF NOT AND EQ JUMPDEST SWAP1 POP SWAP2 SWAP1 POP JUMP JUMPDEST PUSH1 0x0 PUSH32 0x2A55205A00000000000000000000000000000000000000000000000000000000 PUSH28 0xFFFFFFFFFFFFFFFFFFFFFFFFFFFFFFFFFFFFFFFFFFFFFFFFFFFFFFFF NOT AND DUP3 PUSH28 0xFFFFFFFFFFFFFFFFFFFFFFFFFFFFFFFFFFFFFFFFFFFFFFFFFFFFFFFF NOT AND EQ DUP1 PUSH2 0x24C1 JUMPI POP PUSH2 0x24C0 DUP3 PUSH2 0x2D76 JUMP JUMPDEST JUMPDEST SWAP1 POP SWAP2 SWAP1 POP JUMP JUMPDEST PUSH1 0x0 DUP2 PUSH2 0x24D3 PUSH2 0x267A JUMP JUMPDEST GT PUSH2 0x253C JUMPI PUSH1 0x4 SLOAD DUP3 LT ISZERO PUSH2 0x253B JUMPI PUSH1 0x0 JUMPDEST PUSH1 0x0 PUSH1 0x8 PUSH1 0x0 DUP6 DUP2 MSTORE PUSH1 0x20 ADD SWAP1 DUP2 MSTORE PUSH1 0x20 ADD PUSH1 0x0 KECCAK256 SLOAD SWAP2 POP DUP2 SUB PUSH2 0x2514 JUMPI DUP3 PUSH2 0x250D SWAP1 PUSH2 0x476F JUMP JUMPDEST SWAP3 POP PUSH2 0x24E5 JUMP JUMPDEST PUSH1 0x0 PUSH29 0x100000000000000000000000000000000000000000000000000000000 DUP3 AND EQ SWAP2 POP POP JUMPDEST JUMPDEST SWAP2 SWAP1 POP JUMP JUMPDEST DUP1 PUSH1 0x0 MSTORE PUSH1 0x4 PUSH1 0x0 REVERT JUMPDEST PUSH1 0x0 PUSH2 0x2556 DUP4 PUSH2 0x18D6 JUMP JUMPDEST SWAP1 POP DUP2 DUP1 ISZERO PUSH2 0x2598 JUMPI POP DUP1 PUSH20 0xFFFFFFFFFFFFFFFFFFFFFFFFFFFFFFFFFFFFFFFF AND PUSH2 0x257F PUSH2 0x2792 JUMP JUMPDEST PUSH20 0xFFFFFFFFFFFFFFFFFFFFFFFFFFFFFFFFFFFFFFFF AND EQ ISZERO JUMPDEST ISZERO PUSH2 0x25C4 JUMPI PUSH2 0x25AE DUP2 PUSH2 0x25A9 PUSH2 0x2792 JUMP JUMPDEST PUSH2 0x21ED JUMP JUMPDEST PUSH2 0x25C3 JUMPI PUSH2 0x25C2 PUSH4 0xCFB3B942 PUSH1 0xE0 SHL PUSH2 0x2541 JUMP JUMPDEST JUMPDEST JUMPDEST DUP4 PUSH1 0xA PUSH1 0x0 DUP6 DUP2 MSTORE PUSH1 0x20 ADD SWAP1 DUP2 MSTORE PUSH1 0x20 ADD PUSH1 0x0 KECCAK256 PUSH1 0x0 ADD PUSH1 0x0 PUSH2 0x100 EXP DUP2 SLOAD DUP2 PUSH20 0xFFFFFFFFFFFFFFFFFFFFFFFFFFFFFFFFFFFFFFFF MUL NOT AND SWAP1 DUP4 PUSH20 0xFFFFFFFFFFFFFFFFFFFFFFFFFFFFFFFFFFFFFFFF AND MUL OR SWAP1 SSTORE POP DUP3 DUP5 PUSH20 0xFFFFFFFFFFFFFFFFFFFFFFFFFFFFFFFFFFFFFFFF AND DUP3 PUSH20 0xFFFFFFFFFFFFFFFFFFFFFFFFFFFFFFFFFFFFFFFF AND PUSH32 0x8C5BE1E5EBEC7D5BD14F71427D1E84F3DD0314C0F7B2291E5B200AC8C7C3B925 PUSH1 0x40 MLOAD PUSH1 0x40 MLOAD DUP1 SWAP2 SUB SWAP1 LOG4 POP POP POP POP JUMP JUMPDEST PUSH1 0x0 SWAP1 JUMP JUMPDEST PUSH1 0x0 DUP2 PUSH2 0x268A PUSH2 0x267A JUMP JUMPDEST GT PUSH2 0x2755 JUMPI PUSH1 0x8 PUSH1 0x0 DUP4 DUP2 MSTORE PUSH1 0x20 ADD SWAP1 DUP2 MSTORE PUSH1 0x20 ADD PUSH1 0x0 KECCAK256 SLOAD SWAP1 POP PUSH1 0x0 DUP2 SUB PUSH2 0x272C JUMPI PUSH1 0x4 SLOAD DUP3 LT PUSH2 0x26C7 JUMPI PUSH2 0x26C6 PUSH4 0xDF2D9B42 PUSH1 0xE0 SHL PUSH2 0x2541 JUMP JUMPDEST JUMPDEST JUMPDEST PUSH1 0x8 PUSH1 0x0 DUP4 PUSH1 0x1 SWAP1 SUB SWAP4 POP DUP4 DUP2 MSTORE PUSH1 0x20 ADD SWAP1 DUP2 MSTORE PUSH1 0x20 ADD PUSH1 0x0 KECCAK256 SLOAD SWAP1 POP PUSH1 0x0 DUP2 SUB ISZERO PUSH2 0x2727 JUMPI PUSH1 0x0 PUSH29 0x100000000000000000000000000000000000000000000000000000000 DUP3 AND SUB ISZERO PUSH2 0x2766 JUMPI PUSH2 0x2726 PUSH4 0xDF2D9B42 PUSH1 0xE0 SHL PUSH2 0x2541 JUMP JUMPDEST JUMPDEST PUSH2 0x26C8 JUMP JUMPDEST PUSH1 0x0 PUSH29 0x100000000000000000000000000000000000000000000000000000000 DUP3 AND SUB ISZERO PUSH2 0x2766 JUMPI JUMPDEST PUSH2 0x2765 PUSH4 0xDF2D9B42 PUSH1 0xE0 SHL PUSH2 0x2541 JUMP JUMPDEST JUMPDEST SWAP2 SWAP1 POP JUMP JUMPDEST PUSH1 0x0 DUP1 PUSH1 0x0 PUSH1 0xA PUSH1 0x0 DUP6 DUP2 MSTORE PUSH1 0x20 ADD SWAP1 DUP2 MSTORE PUSH1 0x20 ADD PUSH1 0x0 KECCAK256 SWAP1 POP DUP1 SWAP3 POP DUP3 SLOAD SWAP2 POP POP SWAP2 POP SWAP2 JUMP JUMPDEST PUSH1 0x0 CALLER SWAP1 POP SWAP1 JUMP JUMPDEST PUSH1 0x0 PUSH20 0xFFFFFFFFFFFFFFFFFFFFFFFFFFFFFFFFFFFFFFFF DUP4 AND SWAP3 POP PUSH20 0xFFFFFFFFFFFFFFFFFFFFFFFFFFFFFFFFFFFFFFFF DUP3 AND SWAP2 POP DUP4 DUP3 EQ DUP4 DUP4 EQ OR SWAP1 POP SWAP4 SWAP3 POP POP POP JUMP JUMPDEST POP POP POP POP JUMP JUMPDEST PUSH1 0x0 DUP1 PUSH1 0xE8 DUP4 SWAP1 SHR SWAP1 POP PUSH1 0xE8 PUSH2 0x27FB DUP7 DUP7 DUP5 PUSH2 0x2DE0 JUMP JUMPDEST PUSH3 0xFFFFFF AND SWAP1 SHL SWAP2 POP POP SWAP4 SWAP3 POP POP POP JUMP JUMPDEST PUSH1 0x0 PUSH20 0xFFFFFFFFFFFFFFFFFFFFFFFFFFFFFFFFFFFFFFFF DUP4 AND SWAP3 POP DUP2 TIMESTAMP PUSH1 0xA0 SHL OR DUP4 OR SWAP1 POP SWAP3 SWAP2 POP POP JUMP JUMPDEST POP POP POP POP JUMP JUMPDEST PUSH1 0x0 PUSH2 0x2710 SWAP1 POP SWAP1 JUMP JUMPDEST PUSH2 0x2861 DUP3 DUP3 PUSH1 0x40 MLOAD DUP1 PUSH1 0x20 ADD PUSH1 0x40 MSTORE DUP1 PUSH1 0x0 DUP2 MSTORE POP PUSH2 0x2DE9 JUMP JUMPDEST POP POP JUMP JUMPDEST PUSH1 0x0 DUP1 PUSH1 0x0 DUP4 SUB PUSH2 0x287A JUMPI PUSH1 0xD SLOAD SWAP1 POP PUSH2 0x2894 JUMP JUMPDEST PUSH1 0xC PUSH1 0x0 DUP5 DUP2 MSTORE PUSH1 0x20 ADD SWAP1 DUP2 MSTORE PUSH1 0x20 ADD PUSH1 0x0 KECCAK256 PUSH1 0x7 ADD SLOAD SWAP1 POP JUMPDEST PUSH1 0x0 CALLER PUSH1 0x40 MLOAD PUSH1 0x20 ADD PUSH2 0x28A7 SWAP2 SWAP1 PUSH2 0x3479 JUMP JUMPDEST PUSH1 0x40 MLOAD PUSH1 0x20 DUP2 DUP4 SUB SUB DUP2 MSTORE SWAP1 PUSH1 0x40 MSTORE DUP1 MLOAD SWAP1 PUSH1 0x20 ADD KECCAK256 SWAP1 POP PUSH1 0x0 PUSH2 0x290D DUP8 DUP8 DUP1 DUP1 PUSH1 0x20 MUL PUSH1 0x20 ADD PUSH1 0x40 MLOAD SWAP1 DUP2 ADD PUSH1 0x40 MSTORE DUP1 SWAP4 SWAP3 SWAP2 SWAP1 DUP2 DUP2 MSTORE PUSH1 0x20 ADD DUP4 DUP4 PUSH1 0x20 MUL DUP1 DUP3 DUP5 CALLDATACOPY PUSH1 0x0 DUP2 DUP5 ADD MSTORE PUSH1 0x1F NOT PUSH1 0x1F DUP3 ADD AND SWAP1 POP DUP1 DUP4 ADD SWAP3 POP POP POP POP POP POP POP DUP5 DUP5 PUSH2 0x2E6F JUMP JUMPDEST SWAP1 POP DUP1 SWAP4 POP POP POP POP SWAP4 SWAP3 POP POP POP JUMP JUMPDEST PUSH1 0x0 DUP1 PUSH1 0x0 SWAP1 SLOAD SWAP1 PUSH2 0x100 EXP SWAP1 DIV PUSH20 0xFFFFFFFFFFFFFFFFFFFFFFFFFFFFFFFFFFFFFFFF AND SWAP1 POP DUP2 PUSH1 0x0 DUP1 PUSH2 0x100 EXP DUP2 SLOAD DUP2 PUSH20 0xFFFFFFFFFFFFFFFFFFFFFFFFFFFFFFFFFFFFFFFF MUL NOT AND SWAP1 DUP4 PUSH20 0xFFFFFFFFFFFFFFFFFFFFFFFFFFFFFFFFFFFFFFFF AND MUL OR SWAP1 SSTORE POP DUP2 PUSH20 0xFFFFFFFFFFFFFFFFFFFFFFFFFFFFFFFFFFFFFFFF AND DUP2 PUSH20 0xFFFFFFFFFFFFFFFFFFFFFFFFFFFFFFFFFFFFFFFF AND PUSH32 0x8BE0079C531659141344CD1FD0A4F28419497F9722A3DAAFE3B4186F6B6457E0 PUSH1 0x40 MLOAD PUSH1 0x40 MLOAD DUP1 SWAP2 SUB SWAP1 LOG3 POP POP JUMP JUMPDEST PUSH1 0x2 PUSH1 0x0 DUP1 DUP3 ADD PUSH1 0x0 PUSH2 0x100 EXP DUP2 SLOAD SWAP1 PUSH20 0xFFFFFFFFFFFFFFFFFFFFFFFFFFFFFFFFFFFFFFFF MUL NOT AND SWAP1 SSTORE PUSH1 0x0 DUP3 ADD PUSH1 0x14 PUSH2 0x100 EXP DUP2 SLOAD SWAP1 PUSH12 0xFFFFFFFFFFFFFFFFFFFFFFFF MUL NOT AND SWAP1 SSTORE POP POP JUMP JUMPDEST PUSH2 0x2A35 PUSH2 0x283D JUMP JUMPDEST PUSH12 0xFFFFFFFFFFFFFFFFFFFFFFFF AND DUP2 PUSH12 0xFFFFFFFFFFFFFFFFFFFFFFFF AND GT ISZERO PUSH2 0x2A93 JUMPI PUSH1 0x40 MLOAD PUSH32 0x8C379A000000000000000000000000000000000000000000000000000000000 DUP2 MSTORE PUSH1 0x4 ADD PUSH2 0x2A8A SWAP1 PUSH2 0x480A JUMP JUMPDEST PUSH1 0x40 MLOAD DUP1 SWAP2 SUB SWAP1 REVERT JUMPDEST PUSH1 0x0 PUSH20 0xFFFFFFFFFFFFFFFFFFFFFFFFFFFFFFFFFFFFFFFF AND DUP3 PUSH20 0xFFFFFFFFFFFFFFFFFFFFFFFFFFFFFFFFFFFFFFFF AND SUB PUSH2 0x2B02 JUMPI PUSH1 0x40 MLOAD PUSH32 0x8C379A000000000000000000000000000000000000000000000000000000000 DUP2 MSTORE PUSH1 0x4 ADD PUSH2 0x2AF9 SWAP1 PUSH2 0x4876 JUMP JUMPDEST PUSH1 0x40 MLOAD DUP1 SWAP2 SUB SWAP1 REVERT JUMPDEST PUSH1 0x40 MLOAD DUP1 PUSH1 0x40 ADD PUSH1 0x40 MSTORE DUP1 DUP4 PUSH20 0xFFFFFFFFFFFFFFFFFFFFFFFFFFFFFFFFFFFFFFFF AND DUP2 MSTORE PUSH1 0x20 ADD DUP3 PUSH12 0xFFFFFFFFFFFFFFFFFFFFFFFF AND DUP2 MSTORE POP PUSH1 0x2 PUSH1 0x0 DUP3 ADD MLOAD DUP2 PUSH1 0x0 ADD PUSH1 0x0 PUSH2 0x100 EXP DUP2 SLOAD DUP2 PUSH20 0xFFFFFFFFFFFFFFFFFFFFFFFFFFFFFFFFFFFFFFFF MUL NOT AND SWAP1 DUP4 PUSH20 0xFFFFFFFFFFFFFFFFFFFFFFFFFFFFFFFFFFFFFFFF AND MUL OR SWAP1 SSTORE POP PUSH1 0x20 DUP3 ADD MLOAD DUP2 PUSH1 0x0 ADD PUSH1 0x14 PUSH2 0x100 EXP DUP2 SLOAD DUP2 PUSH12 0xFFFFFFFFFFFFFFFFFFFFFFFF MUL NOT AND SWAP1 DUP4 PUSH12 0xFFFFFFFFFFFFFFFFFFFFFFFF AND MUL OR SWAP1 SSTORE POP SWAP1 POP POP POP POP JUMP JUMPDEST PUSH1 0x0 DUP4 PUSH20 0xFFFFFFFFFFFFFFFFFFFFFFFFFFFFFFFFFFFFFFFF AND PUSH4 0x150B7A02 PUSH2 0x2BE8 PUSH2 0x2792 JUMP JUMPDEST DUP8 DUP7 DUP7 PUSH1 0x40 MLOAD DUP6 PUSH4 0xFFFFFFFF AND PUSH1 0xE0 SHL DUP2 MSTORE PUSH1 0x4 ADD PUSH2 0x2C0A SWAP5 SWAP4 SWAP3 SWAP2 SWAP1 PUSH2 0x48EB JUMP JUMPDEST PUSH1 0x20 PUSH1 0x40 MLOAD DUP1 DUP4 SUB DUP2 PUSH1 0x0 DUP8 GAS CALL SWAP3 POP POP POP DUP1 ISZERO PUSH2 0x2C46 JUMPI POP PUSH1 0x40 MLOAD RETURNDATASIZE PUSH1 0x1F NOT PUSH1 0x1F DUP3 ADD AND DUP3 ADD DUP1 PUSH1 0x40 MSTORE POP DUP2 ADD SWAP1 PUSH2 0x2C43 SWAP2 SWAP1 PUSH2 0x494C JUMP JUMPDEST PUSH1 0x1 JUMPDEST PUSH2 0x2C9E JUMPI RETURNDATASIZE DUP1 PUSH1 0x0 DUP2 EQ PUSH2 0x2C76 JUMPI PUSH1 0x40 MLOAD SWAP2 POP PUSH1 0x1F NOT PUSH1 0x3F RETURNDATASIZE ADD AND DUP3 ADD PUSH1 0x40 MSTORE RETURNDATASIZE DUP3 MSTORE RETURNDATASIZE PUSH1 0x0 PUSH1 0x20 DUP5 ADD RETURNDATACOPY PUSH2 0x2C7B JUMP JUMPDEST PUSH1 0x60 SWAP2 POP JUMPDEST POP PUSH1 0x0 DUP2 MLOAD SUB PUSH2 0x2C96 JUMPI PUSH2 0x2C95 PUSH4 0xD1A57ED6 PUSH1 0xE0 SHL PUSH2 0x2541 JUMP JUMPDEST JUMPDEST DUP1 MLOAD DUP2 PUSH1 0x20 ADD REVERT JUMPDEST PUSH4 0x150B7A02 PUSH1 0xE0 SHL PUSH28 0xFFFFFFFFFFFFFFFFFFFFFFFFFFFFFFFFFFFFFFFFFFFFFFFFFFFFFFFF NOT AND DUP2 PUSH28 0xFFFFFFFFFFFFFFFFFFFFFFFFFFFFFFFFFFFFFFFFFFFFFFFFFFFFFFFF NOT AND EQ SWAP2 POP POP SWAP5 SWAP4 POP POP POP POP JUMP JUMPDEST PUSH1 0x60 PUSH2 0x2CFC DUP3 PUSH2 0x24C8 JUMP JUMPDEST PUSH2 0x2D11 JUMPI PUSH2 0x2D10 PUSH4 0xA14C4B50 PUSH1 0xE0 SHL PUSH2 0x2541 JUMP JUMPDEST JUMPDEST PUSH1 0x0 PUSH2 0x2D1B PUSH2 0x2E86 JUMP JUMPDEST SWAP1 POP PUSH1 0x0 DUP2 MLOAD SUB PUSH2 0x2D3B JUMPI PUSH1 0x40 MLOAD DUP1 PUSH1 0x20 ADD PUSH1 0x40 MSTORE DUP1 PUSH1 0x0 DUP2 MSTORE POP PUSH2 0x2D66 JUMP JUMPDEST DUP1 PUSH2 0x2D45 DUP5 PUSH2 0x2F18 JUMP JUMPDEST PUSH1 0x40 MLOAD PUSH1 0x20 ADD PUSH2 0x2D56 SWAP3 SWAP2 SWAP1 PUSH2 0x4979 JUMP JUMPDEST PUSH1 0x40 MLOAD PUSH1 0x20 DUP2 DUP4 SUB SUB DUP2 MSTORE SWAP1 PUSH1 0x40 MSTORE JUMPDEST SWAP2 POP POP SWAP2 SWAP1 POP JUMP JUMPDEST PUSH1 0x0 CALLER SWAP1 POP SWAP1 JUMP JUMPDEST PUSH1 0x0 PUSH32 0x1FFC9A700000000000000000000000000000000000000000000000000000000 PUSH28 0xFFFFFFFFFFFFFFFFFFFFFFFFFFFFFFFFFFFFFFFFFFFFFFFFFFFFFFFF NOT AND DUP3 PUSH28 0xFFFFFFFFFFFFFFFFFFFFFFFFFFFFFFFFFFFFFFFFFFFFFFFFFFFFFFFF NOT AND EQ SWAP1 POP SWAP2 SWAP1 POP JUMP JUMPDEST PUSH1 0x0 SWAP4 SWAP3 POP POP POP JUMP JUMPDEST PUSH2 0x2DF3 DUP4 DUP4 PUSH2 0x2F68 JUMP JUMPDEST PUSH1 0x0 DUP4 PUSH20 0xFFFFFFFFFFFFFFFFFFFFFFFFFFFFFFFFFFFFFFFF AND EXTCODESIZE EQ PUSH2 0x2E6A JUMPI PUSH1 0x0 PUSH1 0x4 SLOAD SWAP1 POP PUSH1 0x0 DUP4 DUP3 SUB SWAP1 POP JUMPDEST PUSH2 0x2E34 PUSH1 0x0 DUP7 DUP4 DUP1 PUSH1 0x1 ADD SWAP5 POP DUP7 PUSH2 0x2BC2 JUMP JUMPDEST PUSH2 0x2E49 JUMPI PUSH2 0x2E48 PUSH4 0xD1A57ED6 PUSH1 0xE0 SHL PUSH2 0x2541 JUMP JUMPDEST JUMPDEST DUP2 DUP2 LT PUSH2 0x2E21 JUMPI DUP2 PUSH1 0x4 SLOAD EQ PUSH2 0x2E67 JUMPI PUSH2 0x2E66 PUSH1 0x0 PUSH1 0xE0 SHL PUSH2 0x2541 JUMP JUMPDEST JUMPDEST POP POP JUMPDEST POP POP POP JUMP JUMPDEST PUSH1 0x0 DUP3 PUSH2 0x2E7C DUP6 DUP5 PUSH2 0x30CC JUMP JUMPDEST EQ SWAP1 POP SWAP4 SWAP3 POP POP POP JUMP JUMPDEST PUSH1 0x60 PUSH1 0x11 DUP1 SLOAD PUSH2 0x2E95 SWAP1 PUSH2 0x3C68 JUMP JUMPDEST DUP1 PUSH1 0x1F ADD PUSH1 0x20 DUP1 SWAP2 DIV MUL PUSH1 0x20 ADD PUSH1 0x40 MLOAD SWAP1 DUP2 ADD PUSH1 0x40 MSTORE DUP1 SWAP3 SWAP2 SWAP1 DUP2 DUP2 MSTORE PUSH1 0x20 ADD DUP3 DUP1 SLOAD PUSH2 0x2EC1 SWAP1 PUSH2 0x3C68 JUMP JUMPDEST DUP1 ISZERO PUSH2 0x2F0E JUMPI DUP1 PUSH1 0x1F LT PUSH2 0x2EE3 JUMPI PUSH2 0x100 DUP1 DUP4 SLOAD DIV MUL DUP4 MSTORE SWAP2 PUSH1 0x20 ADD SWAP2 PUSH2 0x2F0E JUMP JUMPDEST DUP3 ADD SWAP2 SWAP1 PUSH1 0x0 MSTORE PUSH1 0x20 PUSH1 0x0 KECCAK256 SWAP1 JUMPDEST DUP2 SLOAD DUP2 MSTORE SWAP1 PUSH1 0x1 ADD SWAP1 PUSH1 0x20 ADD DUP1 DUP4 GT PUSH2 0x2EF1 JUMPI DUP3 SWAP1 SUB PUSH1 0x1F AND DUP3 ADD SWAP2 JUMPDEST POP POP POP POP POP SWAP1 POP SWAP1 JUMP JUMPDEST PUSH1 0x60 PUSH1 0xA0 PUSH1 0x40 MLOAD ADD DUP1 PUSH1 0x40 MSTORE PUSH1 0x20 DUP2 SUB SWAP2 POP PUSH1 0x0 DUP3 MSTORE DUP2 DUP4 JUMPDEST PUSH1 0x1 ISZERO PUSH2 0x2F53 JUMPI PUSH1 0x1 DUP5 SUB SWAP4 POP PUSH1 0xA DUP2 MOD PUSH1 0x30 ADD DUP5 MSTORE8 PUSH1 0xA DUP2 DIV SWAP1 POP DUP1 PUSH2 0x2F31 JUMPI JUMPDEST POP DUP3 DUP2 SUB PUSH1 0x20 DUP5 SUB SWAP4 POP DUP1 DUP5 MSTORE POP POP POP SWAP2 SWAP1 POP JUMP JUMPDEST PUSH1 0x0 PUSH1 0x4 SLOAD SWAP1 POP PUSH1 0x0 DUP3 SUB PUSH2 0x2F88 JUMPI PUSH2 0x2F87 PUSH4 0xB562E8DD PUSH1 0xE0 SHL PUSH2 0x2541 JUMP JUMPDEST JUMPDEST PUSH2 0x2F95 PUSH1 0x0 DUP5 DUP4 DUP6 PUSH2 0x27DE JUMP JUMPDEST PUSH2 0x2FB5 DUP4 PUSH2 0x2FA6 PUSH1 0x0 DUP7 PUSH1 0x0 PUSH2 0x27E4 JUMP JUMPDEST PUSH2 0x2FAF DUP6 PUSH2 0x3122 JUMP JUMPDEST OR PUSH2 0x280C JUMP JUMPDEST PUSH1 0x8 PUSH1 0x0 DUP4 DUP2 MSTORE PUSH1 0x20 ADD SWAP1 DUP2 MSTORE PUSH1 0x20 ADD PUSH1 0x0 KECCAK256 DUP2 SWAP1 SSTORE POP PUSH1 0x1 PUSH1 0x40 PUSH1 0x1 SWAP1 SHL OR DUP3 MUL PUSH1 0x9 PUSH1 0x0 DUP6 PUSH20 0xFFFFFFFFFFFFFFFFFFFFFFFFFFFFFFFFFFFFFFFF AND PUSH20 0xFFFFFFFFFFFFFFFFFFFFFFFFFFFFFFFFFFFFFFFF AND DUP2 MSTORE PUSH1 0x20 ADD SWAP1 DUP2 MSTORE PUSH1 0x20 ADD PUSH1 0x0 KECCAK256 PUSH1 0x0 DUP3 DUP3 SLOAD ADD SWAP3 POP POP DUP2 SWAP1 SSTORE POP PUSH1 0x0 PUSH20 0xFFFFFFFFFFFFFFFFFFFFFFFFFFFFFFFFFFFFFFFF DUP5 PUSH20 0xFFFFFFFFFFFFFFFFFFFFFFFFFFFFFFFFFFFFFFFF AND AND SWAP1 POP PUSH1 0x0 DUP2 SUB PUSH2 0x306D JUMPI PUSH2 0x306C PUSH4 0x2E076300 PUSH1 0xE0 SHL PUSH2 0x2541 JUMP JUMPDEST JUMPDEST PUSH1 0x0 DUP4 DUP4 ADD SWAP1 POP PUSH1 0x0 DUP4 SWAP1 POP JUMPDEST DUP1 DUP4 PUSH1 0x0 PUSH32 0xDDF252AD1BE2C89B69C2B068FC378DAA952BA7F163C4A11628F55A4DF523B3EF PUSH1 0x0 DUP1 LOG4 DUP2 DUP2 PUSH1 0x1 ADD SWAP2 POP DUP2 SUB PUSH2 0x307A JUMPI DUP2 PUSH1 0x4 DUP2 SWAP1 SSTORE POP POP POP POP PUSH2 0x30C7 PUSH1 0x0 DUP5 DUP4 DUP6 PUSH2 0x2837 JUMP JUMPDEST POP POP POP JUMP JUMPDEST PUSH1 0x0 DUP1 DUP3 SWAP1 POP PUSH1 0x0 JUMPDEST DUP5 MLOAD DUP2 LT ISZERO PUSH2 0x3117 JUMPI PUSH2 0x3102 DUP3 DUP7 DUP4 DUP2 MLOAD DUP2 LT PUSH2 0x30F5 JUMPI PUSH2 0x30F4 PUSH2 0x449A JUMP JUMPDEST JUMPDEST PUSH1 0x20 MUL PUSH1 0x20 ADD ADD MLOAD PUSH2 0x3132 JUMP JUMPDEST SWAP2 POP DUP1 DUP1 PUSH2 0x310F SWAP1 PUSH2 0x4170 JUMP JUMPDEST SWAP2 POP POP PUSH2 0x30D5 JUMP JUMPDEST POP DUP1 SWAP2 POP POP SWAP3 SWAP2 POP POP JUMP JUMPDEST PUSH1 0x0 PUSH1 0x1 DUP3 EQ PUSH1 0xE1 SHL SWAP1 POP SWAP2 SWAP1 POP JUMP JUMPDEST PUSH1 0x0 DUP2 DUP4 LT PUSH2 0x314A JUMPI PUSH2 0x3145 DUP3 DUP5 PUSH2 0x315D JUMP JUMPDEST PUSH2 0x3155 JUMP JUMPDEST PUSH2 0x3154 DUP4 DUP4 PUSH2 0x315D JUMP JUMPDEST JUMPDEST SWAP1 POP SWAP3 SWAP2 POP POP JUMP JUMPDEST PUSH1 0x0 DUP3 PUSH1 0x0 MSTORE DUP2 PUSH1 0x20 MSTORE PUSH1 0x40 PUSH1 0x0 KECCAK256 SWAP1 POP SWAP3 SWAP2 POP POP JUMP JUMPDEST PUSH1 0x0 DUP2 SWAP1 POP SWAP2 SWAP1 POP JUMP JUMPDEST PUSH2 0x3187 DUP2 PUSH2 0x3174 JUMP JUMPDEST DUP3 MSTORE POP POP JUMP JUMPDEST PUSH1 0x0 PUSH1 0x20 DUP3 ADD SWAP1 POP PUSH2 0x31A2 PUSH1 0x0 DUP4 ADD DUP5 PUSH2 0x317E JUMP JUMPDEST SWAP3 SWAP2 POP POP JUMP JUMPDEST PUSH1 0x0 PUSH1 0x40 MLOAD SWAP1 POP SWAP1 JUMP JUMPDEST PUSH1 0x0 DUP1 REVERT JUMPDEST PUSH1 0x0 DUP1 REVERT JUMPDEST PUSH1 0x0 DUP2 SWAP1 POP SWAP2 SWAP1 POP JUMP JUMPDEST PUSH2 0x31CF DUP2 PUSH2 0x31BC JUMP JUMPDEST DUP2 EQ PUSH2 0x31DA JUMPI PUSH1 0x0 DUP1 REVERT JUMPDEST POP JUMP JUMPDEST PUSH1 0x0 DUP2 CALLDATALOAD SWAP1 POP PUSH2 0x31EC DUP2 PUSH2 0x31C6 JUMP JUMPDEST SWAP3 SWAP2 POP POP JUMP JUMPDEST PUSH2 0x31FB DUP2 PUSH2 0x3174 JUMP JUMPDEST DUP2 EQ PUSH2 0x3206 JUMPI PUSH1 0x0 DUP1 REVERT JUMPDEST POP JUMP JUMPDEST PUSH1 0x0 DUP2 CALLDATALOAD SWAP1 POP PUSH2 0x3218 DUP2 PUSH2 0x31F2 JUMP JUMPDEST SWAP3 SWAP2 POP POP JUMP JUMPDEST PUSH1 0x0 DUP1 PUSH1 0x40 DUP4 DUP6 SUB SLT ISZERO PUSH2 0x3235 JUMPI PUSH2 0x3234 PUSH2 0x31B2 JUMP JUMPDEST JUMPDEST PUSH1 0x0 PUSH2 0x3243 DUP6 DUP3 DUP7 ADD PUSH2 0x31DD JUMP JUMPDEST SWAP3 POP POP PUSH1 0x20 PUSH2 0x3254 DUP6 DUP3 DUP7 ADD PUSH2 0x3209 JUMP JUMPDEST SWAP2 POP POP SWAP3 POP SWAP3 SWAP1 POP JUMP JUMPDEST PUSH1 0x0 PUSH32 0xFFFFFFFF00000000000000000000000000000000000000000000000000000000 DUP3 AND SWAP1 POP SWAP2 SWAP1 POP JUMP JUMPDEST PUSH2 0x3293 DUP2 PUSH2 0x325E JUMP JUMPDEST DUP2 EQ PUSH2 0x329E JUMPI PUSH1 0x0 DUP1 REVERT JUMPDEST POP JUMP JUMPDEST PUSH1 0x0 DUP2 CALLDATALOAD SWAP1 POP PUSH2 0x32B0 DUP2 PUSH2 0x328A JUMP JUMPDEST SWAP3 SWAP2 POP POP JUMP JUMPDEST PUSH1 0x0 PUSH1 0x20 DUP3 DUP5 SUB SLT ISZERO PUSH2 0x32CC JUMPI PUSH2 0x32CB PUSH2 0x31B2 JUMP JUMPDEST JUMPDEST PUSH1 0x0 PUSH2 0x32DA DUP5 DUP3 DUP6 ADD PUSH2 0x32A1 JUMP JUMPDEST SWAP2 POP POP SWAP3 SWAP2 POP POP JUMP JUMPDEST PUSH1 0x0 DUP2 ISZERO ISZERO SWAP1 POP SWAP2 SWAP1 POP JUMP JUMPDEST PUSH2 0x32F8 DUP2 PUSH2 0x32E3 JUMP JUMPDEST DUP3 MSTORE POP POP JUMP JUMPDEST PUSH1 0x0 PUSH1 0x20 DUP3 ADD SWAP1 POP PUSH2 0x3313 PUSH1 0x0 DUP4 ADD DUP5 PUSH2 0x32EF JUMP JUMPDEST SWAP3 SWAP2 POP POP JUMP JUMPDEST PUSH1 0x0 DUP1 PUSH1 0x40 DUP4 DUP6 SUB SLT ISZERO PUSH2 0x3330 JUMPI PUSH2 0x332F PUSH2 0x31B2 JUMP JUMPDEST JUMPDEST PUSH1 0x0 PUSH2 0x333E DUP6 DUP3 DUP7 ADD PUSH2 0x3209 JUMP JUMPDEST SWAP3 POP POP PUSH1 0x20 PUSH2 0x334F DUP6 DUP3 DUP7 ADD PUSH2 0x3209 JUMP JUMPDEST SWAP2 POP POP SWAP3 POP SWAP3 SWAP1 POP JUMP JUMPDEST PUSH1 0x0 DUP2 MLOAD SWAP1 POP SWAP2 SWAP1 POP JUMP JUMPDEST PUSH1 0x0 DUP3 DUP3 MSTORE PUSH1 0x20 DUP3 ADD SWAP1 POP SWAP3 SWAP2 POP POP JUMP JUMPDEST PUSH1 0x0 JUMPDEST DUP4 DUP2 LT ISZERO PUSH2 0x3393 JUMPI DUP1 DUP3 ADD MLOAD DUP2 DUP5 ADD MSTORE PUSH1 0x20 DUP2 ADD SWAP1 POP PUSH2 0x3378 JUMP JUMPDEST PUSH1 0x0 DUP5 DUP5 ADD MSTORE POP POP POP POP JUMP JUMPDEST PUSH1 0x0 PUSH1 0x1F NOT PUSH1 0x1F DUP4 ADD AND SWAP1 POP SWAP2 SWAP1 POP JUMP JUMPDEST PUSH1 0x0 PUSH2 0x33BB DUP3 PUSH2 0x3359 JUMP JUMPDEST PUSH2 0x33C5 DUP2 DUP6 PUSH2 0x3364 JUMP JUMPDEST SWAP4 POP PUSH2 0x33D5 DUP2 DUP6 PUSH1 0x20 DUP7 ADD PUSH2 0x3375 JUMP JUMPDEST PUSH2 0x33DE DUP2 PUSH2 0x339F JUMP JUMPDEST DUP5 ADD SWAP2 POP POP SWAP3 SWAP2 POP POP JUMP JUMPDEST PUSH1 0x0 PUSH1 0x20 DUP3 ADD SWAP1 POP DUP2 DUP2 SUB PUSH1 0x0 DUP4 ADD MSTORE PUSH2 0x3403 DUP2 DUP5 PUSH2 0x33B0 JUMP JUMPDEST SWAP1 POP SWAP3 SWAP2 POP POP JUMP JUMPDEST PUSH1 0x0 PUSH1 0x20 DUP3 DUP5 SUB SLT ISZERO PUSH2 0x3421 JUMPI PUSH2 0x3420 PUSH2 0x31B2 JUMP JUMPDEST JUMPDEST PUSH1 0x0 PUSH2 0x342F DUP5 DUP3 DUP6 ADD PUSH2 0x3209 JUMP JUMPDEST SWAP2 POP POP SWAP3 SWAP2 POP POP JUMP JUMPDEST PUSH1 0x0 PUSH20 0xFFFFFFFFFFFFFFFFFFFFFFFFFFFFFFFFFFFFFFFF DUP3 AND SWAP1 POP SWAP2 SWAP1 POP JUMP JUMPDEST PUSH1 0x0 PUSH2 0x3463 DUP3 PUSH2 0x3438 JUMP JUMPDEST SWAP1 POP SWAP2 SWAP1 POP JUMP JUMPDEST PUSH2 0x3473 DUP2 PUSH2 0x3458 JUMP JUMPDEST DUP3 MSTORE POP POP JUMP JUMPDEST PUSH1 0x0 PUSH1 0x20 DUP3 ADD SWAP1 POP PUSH2 0x348E PUSH1 0x0 DUP4 ADD DUP5 PUSH2 0x346A JUMP JUMPDEST SWAP3 SWAP2 POP POP JUMP JUMPDEST PUSH2 0x349D DUP2 PUSH2 0x3458 JUMP JUMPDEST DUP2 EQ PUSH2 0x34A8 JUMPI PUSH1 0x0 DUP1 REVERT JUMPDEST POP JUMP JUMPDEST PUSH1 0x0 DUP2 CALLDATALOAD SWAP1 POP PUSH2 0x34BA DUP2 PUSH2 0x3494 JUMP JUMPDEST SWAP3 SWAP2 POP POP JUMP JUMPDEST PUSH1 0x0 DUP1 PUSH1 0x40 DUP4 DUP6 SUB SLT ISZERO PUSH2 0x34D7 JUMPI PUSH2 0x34D6 PUSH2 0x31B2 JUMP JUMPDEST JUMPDEST PUSH1 0x0 PUSH2 0x34E5 DUP6 DUP3 DUP7 ADD PUSH2 0x34AB JUMP JUMPDEST SWAP3 POP POP PUSH1 0x20 PUSH2 0x34F6 DUP6 DUP3 DUP7 ADD PUSH2 0x3209 JUMP JUMPDEST SWAP2 POP POP SWAP3 POP SWAP3 SWAP1 POP JUMP JUMPDEST PUSH1 0x0 PUSH1 0x20 DUP3 DUP5 SUB SLT ISZERO PUSH2 0x3516 JUMPI PUSH2 0x3515 PUSH2 0x31B2 JUMP JUMPDEST JUMPDEST PUSH1 0x0 PUSH2 0x3524 DUP5 DUP3 DUP6 ADD PUSH2 0x34AB JUMP JUMPDEST SWAP2 POP POP SWAP3 SWAP2 POP POP JUMP JUMPDEST PUSH1 0x0 DUP1 PUSH1 0x0 PUSH1 0x60 DUP5 DUP7 SUB SLT ISZERO PUSH2 0x3546 JUMPI PUSH2 0x3545 PUSH2 0x31B2 JUMP JUMPDEST JUMPDEST PUSH1 0x0 PUSH2 0x3554 DUP7 DUP3 DUP8 ADD PUSH2 0x34AB JUMP JUMPDEST SWAP4 POP POP PUSH1 0x20 PUSH2 0x3565 DUP7 DUP3 DUP8 ADD PUSH2 0x34AB JUMP JUMPDEST SWAP3 POP POP PUSH1 0x40 PUSH2 0x3576 DUP7 DUP3 DUP8 ADD PUSH2 0x3209 JUMP JUMPDEST SWAP2 POP POP SWAP3 POP SWAP3 POP SWAP3 JUMP JUMPDEST PUSH1 0x0 PUSH1 0x40 DUP3 ADD SWAP1 POP PUSH2 0x3595 PUSH1 0x0 DUP4 ADD DUP6 PUSH2 0x346A JUMP JUMPDEST PUSH2 0x35A2 PUSH1 0x20 DUP4 ADD DUP5 PUSH2 0x317E JUMP JUMPDEST SWAP4 SWAP3 POP POP POP JUMP JUMPDEST PUSH1 0x0 DUP1 REVERT JUMPDEST PUSH1 0x0 DUP1 REVERT JUMPDEST PUSH1 0x0 DUP1 REVERT JUMPDEST PUSH1 0x0 DUP1 DUP4 PUSH1 0x1F DUP5 ADD SLT PUSH2 0x35CE JUMPI PUSH2 0x35CD PUSH2 0x35A9 JUMP JUMPDEST JUMPDEST DUP3 CALLDATALOAD SWAP1 POP PUSH8 0xFFFFFFFFFFFFFFFF DUP2 GT ISZERO PUSH2 0x35EB JUMPI PUSH2 0x35EA PUSH2 0x35AE JUMP JUMPDEST JUMPDEST PUSH1 0x20 DUP4 ADD SWAP2 POP DUP4 PUSH1 0x20 DUP3 MUL DUP4 ADD GT ISZERO PUSH2 0x3607 JUMPI PUSH2 0x3606 PUSH2 0x35B3 JUMP JUMPDEST JUMPDEST SWAP3 POP SWAP3 SWAP1 POP JUMP JUMPDEST PUSH1 0x0 DUP1 PUSH1 0x0 PUSH1 0x40 DUP5 DUP7 SUB SLT ISZERO PUSH2 0x3627 JUMPI PUSH2 0x3626 PUSH2 0x31B2 JUMP JUMPDEST JUMPDEST PUSH1 0x0 DUP5 ADD CALLDATALOAD PUSH8 0xFFFFFFFFFFFFFFFF DUP2 GT ISZERO PUSH2 0x3645 JUMPI PUSH2 0x3644 PUSH2 0x31B7 JUMP JUMPDEST JUMPDEST PUSH2 0x3651 DUP7 DUP3 DUP8 ADD PUSH2 0x35B8 JUMP JUMPDEST SWAP4 POP SWAP4 POP POP PUSH1 0x20 PUSH2 0x3664 DUP7 DUP3 DUP8 ADD PUSH2 0x3209 JUMP JUMPDEST SWAP2 POP POP SWAP3 POP SWAP3 POP SWAP3 JUMP JUMPDEST PUSH1 0x0 DUP1 REVERT JUMPDEST PUSH32 0x4E487B7100000000000000000000000000000000000000000000000000000000 PUSH1 0x0 MSTORE PUSH1 0x41 PUSH1 0x4 MSTORE PUSH1 0x24 PUSH1 0x0 REVERT JUMPDEST PUSH2 0x36AB DUP3 PUSH2 0x339F JUMP JUMPDEST DUP2 ADD DUP2 DUP2 LT PUSH8 0xFFFFFFFFFFFFFFFF DUP3 GT OR ISZERO PUSH2 0x36CA JUMPI PUSH2 0x36C9 PUSH2 0x3673 JUMP JUMPDEST JUMPDEST DUP1 PUSH1 0x40 MSTORE POP POP POP JUMP JUMPDEST PUSH1 0x0 PUSH2 0x36DD PUSH2 0x31A8 JUMP JUMPDEST SWAP1 POP PUSH2 0x36E9 DUP3 DUP3 PUSH2 0x36A2 JUMP JUMPDEST SWAP2 SWAP1 POP JUMP JUMPDEST PUSH1 0x0 PUSH8 0xFFFFFFFFFFFFFFFF DUP3 GT ISZERO PUSH2 0x3709 JUMPI PUSH2 0x3708 PUSH2 0x3673 JUMP JUMPDEST JUMPDEST PUSH2 0x3712 DUP3 PUSH2 0x339F JUMP JUMPDEST SWAP1 POP PUSH1 0x20 DUP2 ADD SWAP1 POP SWAP2 SWAP1 POP JUMP JUMPDEST DUP3 DUP2 DUP4 CALLDATACOPY PUSH1 0x0 DUP4 DUP4 ADD MSTORE POP POP POP JUMP JUMPDEST PUSH1 0x0 PUSH2 0x3741 PUSH2 0x373C DUP5 PUSH2 0x36EE JUMP JUMPDEST PUSH2 0x36D3 JUMP JUMPDEST SWAP1 POP DUP3 DUP2 MSTORE PUSH1 0x20 DUP2 ADD DUP5 DUP5 DUP5 ADD GT ISZERO PUSH2 0x375D JUMPI PUSH2 0x375C PUSH2 0x366E JUMP JUMPDEST JUMPDEST PUSH2 0x3768 DUP5 DUP3 DUP6 PUSH2 0x371F JUMP JUMPDEST POP SWAP4 SWAP3 POP POP POP JUMP JUMPDEST PUSH1 0x0 DUP3 PUSH1 0x1F DUP4 ADD SLT PUSH2 0x3785 JUMPI PUSH2 0x3784 PUSH2 0x35A9 JUMP JUMPDEST JUMPDEST DUP2 CALLDATALOAD PUSH2 0x3795 DUP5 DUP3 PUSH1 0x20 DUP7 ADD PUSH2 0x372E JUMP JUMPDEST SWAP2 POP POP SWAP3 SWAP2 POP POP JUMP JUMPDEST PUSH1 0x0 PUSH1 0x20 DUP3 DUP5 SUB SLT ISZERO PUSH2 0x37B4 JUMPI PUSH2 0x37B3 PUSH2 0x31B2 JUMP JUMPDEST JUMPDEST PUSH1 0x0 DUP3 ADD CALLDATALOAD PUSH8 0xFFFFFFFFFFFFFFFF DUP2 GT ISZERO PUSH2 0x37D2 JUMPI PUSH2 0x37D1 PUSH2 0x31B7 JUMP JUMPDEST JUMPDEST PUSH2 0x37DE DUP5 DUP3 DUP6 ADD PUSH2 0x3770 JUMP JUMPDEST SWAP2 POP POP SWAP3 SWAP2 POP POP JUMP JUMPDEST PUSH1 0x0 PUSH12 0xFFFFFFFFFFFFFFFFFFFFFFFF DUP3 AND SWAP1 POP SWAP2 SWAP1 POP JUMP JUMPDEST PUSH2 0x3808 DUP2 PUSH2 0x37E7 JUMP JUMPDEST DUP2 EQ PUSH2 0x3813 JUMPI PUSH1 0x0 DUP1 REVERT JUMPDEST POP JUMP JUMPDEST PUSH1 0x0 DUP2 CALLDATALOAD SWAP1 POP PUSH2 0x3825 DUP2 PUSH2 0x37FF JUMP JUMPDEST SWAP3 SWAP2 POP POP JUMP JUMPDEST PUSH1 0x0 DUP1 PUSH1 0x40 DUP4 DUP6 SUB SLT ISZERO PUSH2 0x3842 JUMPI PUSH2 0x3841 PUSH2 0x31B2 JUMP JUMPDEST JUMPDEST PUSH1 0x0 PUSH2 0x3850 DUP6 DUP3 DUP7 ADD PUSH2 0x34AB JUMP JUMPDEST SWAP3 POP POP PUSH1 0x20 PUSH2 0x3861 DUP6 DUP3 DUP7 ADD PUSH2 0x3816 JUMP JUMPDEST SWAP2 POP POP SWAP3 POP SWAP3 SWAP1 POP JUMP JUMPDEST PUSH2 0x3874 DUP2 PUSH2 0x32E3 JUMP JUMPDEST DUP2 EQ PUSH2 0x387F JUMPI PUSH1 0x0 DUP1 REVERT JUMPDEST POP JUMP JUMPDEST PUSH1 0x0 DUP2 CALLDATALOAD SWAP1 POP PUSH2 0x3891 DUP2 PUSH2 0x386B JUMP JUMPDEST SWAP3 SWAP2 POP POP JUMP JUMPDEST PUSH1 0x0 DUP1 PUSH1 0x40 DUP4 DUP6 SUB SLT ISZERO PUSH2 0x38AE JUMPI PUSH2 0x38AD PUSH2 0x31B2 JUMP JUMPDEST JUMPDEST PUSH1 0x0 PUSH2 0x38BC DUP6 DUP3 DUP7 ADD PUSH2 0x3882 JUMP JUMPDEST SWAP3 POP POP PUSH1 0x20 PUSH2 0x38CD DUP6 DUP3 DUP7 ADD PUSH2 0x3209 JUMP JUMPDEST SWAP2 POP POP SWAP3 POP SWAP3 SWAP1 POP JUMP JUMPDEST PUSH1 0x0 DUP1 PUSH1 0x40 DUP4 DUP6 SUB SLT ISZERO PUSH2 0x38EE JUMPI PUSH2 0x38ED PUSH2 0x31B2 JUMP JUMPDEST JUMPDEST PUSH1 0x0 PUSH2 0x38FC DUP6 DUP3 DUP7 ADD PUSH2 0x34AB JUMP JUMPDEST SWAP3 POP POP PUSH1 0x20 PUSH2 0x390D DUP6 DUP3 DUP7 ADD PUSH2 0x3882 JUMP JUMPDEST SWAP2 POP POP SWAP3 POP SWAP3 SWAP1 POP JUMP JUMPDEST PUSH1 0x0 DUP1 PUSH1 0x0 DUP1 PUSH1 0x0 PUSH1 0xA0 DUP7 DUP9 SUB SLT ISZERO PUSH2 0x3933 JUMPI PUSH2 0x3932 PUSH2 0x31B2 JUMP JUMPDEST JUMPDEST PUSH1 0x0 PUSH2 0x3941 DUP9 DUP3 DUP10 ADD PUSH2 0x3209 JUMP JUMPDEST SWAP6 POP POP PUSH1 0x20 PUSH2 0x3952 DUP9 DUP3 DUP10 ADD PUSH2 0x3209 JUMP JUMPDEST SWAP5 POP POP PUSH1 0x40 PUSH2 0x3963 DUP9 DUP3 DUP10 ADD PUSH2 0x3209 JUMP JUMPDEST SWAP4 POP POP PUSH1 0x60 PUSH2 0x3974 DUP9 DUP3 DUP10 ADD PUSH2 0x3882 JUMP JUMPDEST SWAP3 POP POP PUSH1 0x80 PUSH2 0x3985 DUP9 DUP3 DUP10 ADD PUSH2 0x31DD JUMP JUMPDEST SWAP2 POP POP SWAP3 SWAP6 POP SWAP3 SWAP6 SWAP1 SWAP4 POP JUMP JUMPDEST PUSH1 0x0 PUSH8 0xFFFFFFFFFFFFFFFF DUP3 GT ISZERO PUSH2 0x39AD JUMPI PUSH2 0x39AC PUSH2 0x3673 JUMP JUMPDEST JUMPDEST PUSH2 0x39B6 DUP3 PUSH2 0x339F JUMP JUMPDEST SWAP1 POP PUSH1 0x20 DUP2 ADD SWAP1 POP SWAP2 SWAP1 POP JUMP JUMPDEST PUSH1 0x0 PUSH2 0x39D6 PUSH2 0x39D1 DUP5 PUSH2 0x3992 JUMP JUMPDEST PUSH2 0x36D3 JUMP JUMPDEST SWAP1 POP DUP3 DUP2 MSTORE PUSH1 0x20 DUP2 ADD DUP5 DUP5 DUP5 ADD GT ISZERO PUSH2 0x39F2 JUMPI PUSH2 0x39F1 PUSH2 0x366E JUMP JUMPDEST JUMPDEST PUSH2 0x39FD DUP5 DUP3 DUP6 PUSH2 0x371F JUMP JUMPDEST POP SWAP4 SWAP3 POP POP POP JUMP JUMPDEST PUSH1 0x0 DUP3 PUSH1 0x1F DUP4 ADD SLT PUSH2 0x3A1A JUMPI PUSH2 0x3A19 PUSH2 0x35A9 JUMP JUMPDEST JUMPDEST DUP2 CALLDATALOAD PUSH2 0x3A2A DUP5 DUP3 PUSH1 0x20 DUP7 ADD PUSH2 0x39C3 JUMP JUMPDEST SWAP2 POP POP SWAP3 SWAP2 POP POP JUMP JUMPDEST PUSH1 0x0 DUP1 PUSH1 0x0 DUP1 PUSH1 0x80 DUP6 DUP8 SUB SLT ISZERO PUSH2 0x3A4D JUMPI PUSH2 0x3A4C PUSH2 0x31B2 JUMP JUMPDEST JUMPDEST PUSH1 0x0 PUSH2 0x3A5B DUP8 DUP3 DUP9 ADD PUSH2 0x34AB JUMP JUMPDEST SWAP5 POP POP PUSH1 0x20 PUSH2 0x3A6C DUP8 DUP3 DUP9 ADD PUSH2 0x34AB JUMP JUMPDEST SWAP4 POP POP PUSH1 0x40 PUSH2 0x3A7D DUP8 DUP3 DUP9 ADD PUSH2 0x3209 JUMP JUMPDEST SWAP3 POP POP PUSH1 0x60 DUP6 ADD CALLDATALOAD PUSH8 0xFFFFFFFFFFFFFFFF DUP2 GT ISZERO PUSH2 0x3A9E JUMPI PUSH2 0x3A9D PUSH2 0x31B7 JUMP JUMPDEST JUMPDEST PUSH2 0x3AAA DUP8 DUP3 DUP9 ADD PUSH2 0x3A05 JUMP JUMPDEST SWAP2 POP POP SWAP3 SWAP6 SWAP2 SWAP5 POP SWAP3 POP JUMP JUMPDEST PUSH1 0x0 DUP1 DUP4 PUSH1 0x1F DUP5 ADD SLT PUSH2 0x3ACC JUMPI PUSH2 0x3ACB PUSH2 0x35A9 JUMP JUMPDEST JUMPDEST DUP3 CALLDATALOAD SWAP1 POP PUSH8 0xFFFFFFFFFFFFFFFF DUP2 GT ISZERO PUSH2 0x3AE9 JUMPI PUSH2 0x3AE8 PUSH2 0x35AE JUMP JUMPDEST JUMPDEST PUSH1 0x20 DUP4 ADD SWAP2 POP DUP4 PUSH1 0x20 DUP3 MUL DUP4 ADD GT ISZERO PUSH2 0x3B05 JUMPI PUSH2 0x3B04 PUSH2 0x35B3 JUMP JUMPDEST JUMPDEST SWAP3 POP SWAP3 SWAP1 POP JUMP JUMPDEST PUSH1 0x0 DUP1 PUSH1 0x0 PUSH1 0x40 DUP5 DUP7 SUB SLT ISZERO PUSH2 0x3B25 JUMPI PUSH2 0x3B24 PUSH2 0x31B2 JUMP JUMPDEST JUMPDEST PUSH1 0x0 PUSH2 0x3B33 DUP7 DUP3 DUP8 ADD PUSH2 0x3209 JUMP JUMPDEST SWAP4 POP POP PUSH1 0x20 DUP5 ADD CALLDATALOAD PUSH8 0xFFFFFFFFFFFFFFFF DUP2 GT ISZERO PUSH2 0x3B54 JUMPI PUSH2 0x3B53 PUSH2 0x31B7 JUMP JUMPDEST JUMPDEST PUSH2 0x3B60 DUP7 DUP3 DUP8 ADD PUSH2 0x3AB6 JUMP JUMPDEST SWAP3 POP SWAP3 POP POP SWAP3 POP SWAP3 POP SWAP3 JUMP JUMPDEST PUSH1 0x0 DUP1 PUSH1 0x0 PUSH1 0x40 DUP5 DUP7 SUB SLT ISZERO PUSH2 0x3B85 JUMPI PUSH2 0x3B84 PUSH2 0x31B2 JUMP JUMPDEST JUMPDEST PUSH1 0x0 PUSH2 0x3B93 DUP7 DUP3 DUP8 ADD PUSH2 0x3209 JUMP JUMPDEST SWAP4 POP POP PUSH1 0x20 DUP5 ADD CALLDATALOAD PUSH8 0xFFFFFFFFFFFFFFFF DUP2 GT ISZERO PUSH2 0x3BB4 JUMPI PUSH2 0x3BB3 PUSH2 0x31B7 JUMP JUMPDEST JUMPDEST PUSH2 0x3BC0 DUP7 DUP3 DUP8 ADD PUSH2 0x35B8 JUMP JUMPDEST SWAP3 POP SWAP3 POP POP SWAP3 POP SWAP3 POP SWAP3 JUMP JUMPDEST PUSH1 0x0 PUSH1 0x20 DUP3 DUP5 SUB SLT ISZERO PUSH2 0x3BE2 JUMPI PUSH2 0x3BE1 PUSH2 0x31B2 JUMP JUMPDEST JUMPDEST PUSH1 0x0 PUSH2 0x3BF0 DUP5 DUP3 DUP6 ADD PUSH2 0x31DD JUMP JUMPDEST SWAP2 POP POP SWAP3 SWAP2 POP POP JUMP JUMPDEST PUSH1 0x0 DUP1 PUSH1 0x40 DUP4 DUP6 SUB SLT ISZERO PUSH2 0x3C10 JUMPI PUSH2 0x3C0F PUSH2 0x31B2 JUMP JUMPDEST JUMPDEST PUSH1 0x0 PUSH2 0x3C1E DUP6 DUP3 DUP7 ADD PUSH2 0x34AB JUMP JUMPDEST SWAP3 POP POP PUSH1 0x20 PUSH2 0x3C2F DUP6 DUP3 DUP7 ADD PUSH2 0x34AB JUMP JUMPDEST SWAP2 POP POP SWAP3 POP SWAP3 SWAP1 POP JUMP JUMPDEST PUSH32 0x4E487B7100000000000000000000000000000000000000000000000000000000 PUSH1 0x0 MSTORE PUSH1 0x22 PUSH1 0x4 MSTORE PUSH1 0x24 PUSH1 0x0 REVERT JUMPDEST PUSH1 0x0 PUSH1 0x2 DUP3 DIV SWAP1 POP PUSH1 0x1 DUP3 AND DUP1 PUSH2 0x3C80 JUMPI PUSH1 0x7F DUP3 AND SWAP2 POP JUMPDEST PUSH1 0x20 DUP3 LT DUP2 SUB PUSH2 0x3C93 JUMPI PUSH2 0x3C92 PUSH2 0x3C39 JUMP JUMPDEST JUMPDEST POP SWAP2 SWAP1 POP JUMP JUMPDEST PUSH32 0x4E487B7100000000000000000000000000000000000000000000000000000000 PUSH1 0x0 MSTORE PUSH1 0x11 PUSH1 0x4 MSTORE PUSH1 0x24 PUSH1 0x0 REVERT JUMPDEST PUSH1 0x0 PUSH2 0x3CD3 DUP3 PUSH2 0x3174 JUMP JUMPDEST SWAP2 POP PUSH2 0x3CDE DUP4 PUSH2 0x3174 JUMP JUMPDEST SWAP3 POP DUP3 DUP3 MUL PUSH2 0x3CEC DUP2 PUSH2 0x3174 JUMP JUMPDEST SWAP2 POP DUP3 DUP3 DIV DUP5 EQ DUP4 ISZERO OR PUSH2 0x3D03 JUMPI PUSH2 0x3D02 PUSH2 0x3C99 JUMP JUMPDEST JUMPDEST POP SWAP3 SWAP2 POP POP JUMP JUMPDEST PUSH32 0x4E487B7100000000000000000000000000000000000000000000000000000000 PUSH1 0x0 MSTORE PUSH1 0x12 PUSH1 0x4 MSTORE PUSH1 0x24 PUSH1 0x0 REVERT JUMPDEST PUSH1 0x0 PUSH2 0x3D44 DUP3 PUSH2 0x3174 JUMP JUMPDEST SWAP2 POP PUSH2 0x3D4F DUP4 PUSH2 0x3174 JUMP JUMPDEST SWAP3 POP DUP3 PUSH2 0x3D5F JUMPI PUSH2 0x3D5E PUSH2 0x3D0A JUMP JUMPDEST JUMPDEST DUP3 DUP3 DIV SWAP1 POP SWAP3 SWAP2 POP POP JUMP JUMPDEST PUSH32 0x5075626C69632073616C6520686173206E6F7420737461727465642079657400 PUSH1 0x0 DUP3 ADD MSTORE POP JUMP JUMPDEST PUSH1 0x0 PUSH2 0x3DA0 PUSH1 0x1F DUP4 PUSH2 0x3364 JUMP JUMPDEST SWAP2 POP PUSH2 0x3DAB DUP3 PUSH2 0x3D6A JUMP JUMPDEST PUSH1 0x20 DUP3 ADD SWAP1 POP SWAP2 SWAP1 POP JUMP JUMPDEST PUSH1 0x0 PUSH1 0x20 DUP3 ADD SWAP1 POP DUP2 DUP2 SUB PUSH1 0x0 DUP4 ADD MSTORE PUSH2 0x3DCF DUP2 PUSH2 0x3D93 JUMP JUMPDEST SWAP1 POP SWAP2 SWAP1 POP JUMP JUMPDEST PUSH32 0x5265656E7472616E637947756172643A207265656E7472616E742063616C6C00 PUSH1 0x0 DUP3 ADD MSTORE POP JUMP JUMPDEST PUSH1 0x0 PUSH2 0x3E0C PUSH1 0x1F DUP4 PUSH2 0x3364 JUMP JUMPDEST SWAP2 POP PUSH2 0x3E17 DUP3 PUSH2 0x3DD6 JUMP JUMPDEST PUSH1 0x20 DUP3 ADD SWAP1 POP SWAP2 SWAP1 POP JUMP JUMPDEST PUSH1 0x0 PUSH1 0x20 DUP3 ADD SWAP1 POP DUP2 DUP2 SUB PUSH1 0x0 DUP4 ADD MSTORE PUSH2 0x3E3B DUP2 PUSH2 0x3DFF JUMP JUMPDEST SWAP1 POP SWAP2 SWAP1 POP JUMP JUMPDEST PUSH1 0x0 PUSH2 0x3E4D DUP3 PUSH2 0x3174 JUMP JUMPDEST SWAP2 POP PUSH2 0x3E58 DUP4 PUSH2 0x3174 JUMP JUMPDEST SWAP3 POP DUP3 DUP3 ADD SWAP1 POP DUP1 DUP3 GT ISZERO PUSH2 0x3E70 JUMPI PUSH2 0x3E6F PUSH2 0x3C99 JUMP JUMPDEST JUMPDEST SWAP3 SWAP2 POP POP JUMP JUMPDEST PUSH32 0x4578636565646564206D6178204E46547320616D6F756E740000000000000000 PUSH1 0x0 DUP3 ADD MSTORE POP JUMP JUMPDEST PUSH1 0x0 PUSH2 0x3EAC PUSH1 0x18 DUP4 PUSH2 0x3364 JUMP JUMPDEST SWAP2 POP PUSH2 0x3EB7 DUP3 PUSH2 0x3E76 JUMP JUMPDEST PUSH1 0x20 DUP3 ADD SWAP1 POP SWAP2 SWAP1 POP JUMP JUMPDEST PUSH1 0x0 PUSH1 0x20 DUP3 ADD SWAP1 POP DUP2 DUP2 SUB PUSH1 0x0 DUP4 ADD MSTORE PUSH2 0x3EDB DUP2 PUSH2 0x3E9F JUMP JUMPDEST SWAP1 POP SWAP2 SWAP1 POP JUMP JUMPDEST PUSH32 0x4D696E74696E6720776F756C64206578636565642077616C6C6574206C696D69 PUSH1 0x0 DUP3 ADD MSTORE PUSH32 0x7400000000000000000000000000000000000000000000000000000000000000 PUSH1 0x20 DUP3 ADD MSTORE POP JUMP JUMPDEST PUSH1 0x0 PUSH2 0x3F3E PUSH1 0x21 DUP4 PUSH2 0x3364 JUMP JUMPDEST SWAP2 POP PUSH2 0x3F49 DUP3 PUSH2 0x3EE2 JUMP JUMPDEST PUSH1 0x40 DUP3 ADD SWAP1 POP SWAP2 SWAP1 POP JUMP JUMPDEST PUSH1 0x0 PUSH1 0x20 DUP3 ADD SWAP1 POP DUP2 DUP2 SUB PUSH1 0x0 DUP4 ADD MSTORE PUSH2 0x3F6D DUP2 PUSH2 0x3F31 JUMP JUMPDEST SWAP1 POP SWAP2 SWAP1 POP JUMP JUMPDEST PUSH32 0x46756E6420616D6F756E7420697320696E636F72726563740000000000000000 PUSH1 0x0 DUP3 ADD MSTORE POP JUMP JUMPDEST PUSH1 0x0 PUSH2 0x3FAA PUSH1 0x18 DUP4 PUSH2 0x3364 JUMP JUMPDEST SWAP2 POP PUSH2 0x3FB5 DUP3 PUSH2 0x3F74 JUMP JUMPDEST PUSH1 0x20 DUP3 ADD SWAP1 POP SWAP2 SWAP1 POP JUMP JUMPDEST PUSH1 0x0 PUSH1 0x20 DUP3 ADD SWAP1 POP DUP2 DUP2 SUB PUSH1 0x0 DUP4 ADD MSTORE PUSH2 0x3FD9 DUP2 PUSH2 0x3F9D JUMP JUMPDEST SWAP1 POP SWAP2 SWAP1 POP JUMP JUMPDEST PUSH32 0x4D696E74696E67206576656E7420686173206E6F742073746172746564207965 PUSH1 0x0 DUP3 ADD MSTORE PUSH32 0x7400000000000000000000000000000000000000000000000000000000000000 PUSH1 0x20 DUP3 ADD MSTORE POP JUMP JUMPDEST PUSH1 0x0 PUSH2 0x403C PUSH1 0x21 DUP4 PUSH2 0x3364 JUMP JUMPDEST SWAP2 POP PUSH2 0x4047 DUP3 PUSH2 0x3FE0 JUMP JUMPDEST PUSH1 0x40 DUP3 ADD SWAP1 POP SWAP2 SWAP1 POP JUMP JUMPDEST PUSH1 0x0 PUSH1 0x20 DUP3 ADD SWAP1 POP DUP2 DUP2 SUB PUSH1 0x0 DUP4 ADD MSTORE PUSH2 0x406B DUP2 PUSH2 0x402F JUMP JUMPDEST SWAP1 POP SWAP2 SWAP1 POP JUMP JUMPDEST PUSH32 0x4578636565646564206D6178207072656D696E74204E46547320616D6F756E74 PUSH1 0x0 DUP3 ADD MSTORE POP JUMP JUMPDEST PUSH1 0x0 PUSH2 0x40A8 PUSH1 0x20 DUP4 PUSH2 0x3364 JUMP JUMPDEST SWAP2 POP PUSH2 0x40B3 DUP3 PUSH2 0x4072 JUMP JUMPDEST PUSH1 0x20 DUP3 ADD SWAP1 POP SWAP2 SWAP1 POP JUMP JUMPDEST PUSH1 0x0 PUSH1 0x20 DUP3 ADD SWAP1 POP DUP2 DUP2 SUB PUSH1 0x0 DUP4 ADD MSTORE PUSH2 0x40D7 DUP2 PUSH2 0x409B JUMP JUMPDEST SWAP1 POP SWAP2 SWAP1 POP JUMP JUMPDEST PUSH32 0x596F75722061646472657373206973206E6F7420696E20746865207768697465 PUSH1 0x0 DUP3 ADD MSTORE PUSH32 0x6C69737400000000000000000000000000000000000000000000000000000000 PUSH1 0x20 DUP3 ADD MSTORE POP JUMP JUMPDEST PUSH1 0x0 PUSH2 0x413A PUSH1 0x24 DUP4 PUSH2 0x3364 JUMP JUMPDEST SWAP2 POP PUSH2 0x4145 DUP3 PUSH2 0x40DE JUMP JUMPDEST PUSH1 0x40 DUP3 ADD SWAP1 POP SWAP2 SWAP1 POP JUMP JUMPDEST PUSH1 0x0 PUSH1 0x20 DUP3 ADD SWAP1 POP DUP2 DUP2 SUB PUSH1 0x0 DUP4 ADD MSTORE PUSH2 0x4169 DUP2 PUSH2 0x412D JUMP JUMPDEST SWAP1 POP SWAP2 SWAP1 POP JUMP JUMPDEST PUSH1 0x0 PUSH2 0x417B DUP3 PUSH2 0x3174 JUMP JUMPDEST SWAP2 POP PUSH32 0xFFFFFFFFFFFFFFFFFFFFFFFFFFFFFFFFFFFFFFFFFFFFFFFFFFFFFFFFFFFFFFFF DUP3 SUB PUSH2 0x41AD JUMPI PUSH2 0x41AC PUSH2 0x3C99 JUMP JUMPDEST JUMPDEST PUSH1 0x1 DUP3 ADD SWAP1 POP SWAP2 SWAP1 POP JUMP JUMPDEST PUSH1 0x0 DUP2 SWAP1 POP SWAP2 SWAP1 POP JUMP JUMPDEST PUSH1 0x0 DUP2 SWAP1 POP SWAP2 SWAP1 POP JUMP JUMPDEST PUSH1 0x0 PUSH2 0x41E7 PUSH2 0x41E2 PUSH2 0x41DD DUP5 PUSH2 0x41B8 JUMP JUMPDEST PUSH2 0x41C2 JUMP JUMPDEST PUSH2 0x3174 JUMP JUMPDEST SWAP1 POP SWAP2 SWAP1 POP JUMP JUMPDEST PUSH2 0x41F7 DUP2 PUSH2 0x41CC JUMP JUMPDEST DUP3 MSTORE POP POP JUMP JUMPDEST PUSH1 0x0 PUSH1 0x40 DUP3 ADD SWAP1 POP PUSH2 0x4212 PUSH1 0x0 DUP4 ADD DUP6 PUSH2 0x346A JUMP JUMPDEST PUSH2 0x421F PUSH1 0x20 DUP4 ADD DUP5 PUSH2 0x41EE JUMP JUMPDEST SWAP4 SWAP3 POP POP POP JUMP JUMPDEST PUSH1 0x0 DUP2 SWAP1 POP DUP2 PUSH1 0x0 MSTORE PUSH1 0x20 PUSH1 0x0 KECCAK256 SWAP1 POP SWAP2 SWAP1 POP JUMP JUMPDEST PUSH1 0x0 PUSH1 0x20 PUSH1 0x1F DUP4 ADD DIV SWAP1 POP SWAP2 SWAP1 POP JUMP JUMPDEST PUSH1 0x0 DUP3 DUP3 SHL SWAP1 POP SWAP3 SWAP2 POP POP JUMP JUMPDEST PUSH1 0x0 PUSH1 0x8 DUP4 MUL PUSH2 0x4288 PUSH32 0xFFFFFFFFFFFFFFFFFFFFFFFFFFFFFFFFFFFFFFFFFFFFFFFFFFFFFFFFFFFFFFFF DUP3 PUSH2 0x424B JUMP JUMPDEST PUSH2 0x4292 DUP7 DUP4 PUSH2 0x424B JUMP JUMPDEST SWAP6 POP DUP1 NOT DUP5 AND SWAP4 POP DUP1 DUP7 AND DUP5 OR SWAP3 POP POP POP SWAP4 SWAP3 POP POP POP JUMP JUMPDEST PUSH1 0x0 PUSH2 0x42C5 PUSH2 0x42C0 PUSH2 0x42BB DUP5 PUSH2 0x3174 JUMP JUMPDEST PUSH2 0x41C2 JUMP JUMPDEST PUSH2 0x3174 JUMP JUMPDEST SWAP1 POP SWAP2 SWAP1 POP JUMP JUMPDEST PUSH1 0x0 DUP2 SWAP1 POP SWAP2 SWAP1 POP JUMP JUMPDEST PUSH2 0x42DF DUP4 PUSH2 0x42AA JUMP JUMPDEST PUSH2 0x42F3 PUSH2 0x42EB DUP3 PUSH2 0x42CC JUMP JUMPDEST DUP5 DUP5 SLOAD PUSH2 0x4258 JUMP JUMPDEST DUP3 SSTORE POP POP POP POP JUMP JUMPDEST PUSH1 0x0 SWAP1 JUMP JUMPDEST PUSH2 0x4308 PUSH2 0x42FB JUMP JUMPDEST PUSH2 0x4313 DUP2 DUP5 DUP5 PUSH2 0x42D6 JUMP JUMPDEST POP POP POP JUMP JUMPDEST JUMPDEST DUP2 DUP2 LT ISZERO PUSH2 0x4337 JUMPI PUSH2 0x432C PUSH1 0x0 DUP3 PUSH2 0x4300 JUMP JUMPDEST PUSH1 0x1 DUP2 ADD SWAP1 POP PUSH2 0x4319 JUMP JUMPDEST POP POP JUMP JUMPDEST PUSH1 0x1F DUP3 GT ISZERO PUSH2 0x437C JUMPI PUSH2 0x434D DUP2 PUSH2 0x4226 JUMP JUMPDEST PUSH2 0x4356 DUP5 PUSH2 0x423B JUMP JUMPDEST DUP2 ADD PUSH1 0x20 DUP6 LT ISZERO PUSH2 0x4365 JUMPI DUP2 SWAP1 POP JUMPDEST PUSH2 0x4379 PUSH2 0x4371 DUP6 PUSH2 0x423B JUMP JUMPDEST DUP4 ADD DUP3 PUSH2 0x4318 JUMP JUMPDEST POP POP JUMPDEST POP POP POP JUMP JUMPDEST PUSH1 0x0 DUP3 DUP3 SHR SWAP1 POP SWAP3 SWAP2 POP POP JUMP JUMPDEST PUSH1 0x0 PUSH2 0x439F PUSH1 0x0 NOT DUP5 PUSH1 0x8 MUL PUSH2 0x4381 JUMP JUMPDEST NOT DUP1 DUP4 AND SWAP2 POP POP SWAP3 SWAP2 POP POP JUMP JUMPDEST PUSH1 0x0 PUSH2 0x43B8 DUP4 DUP4 PUSH2 0x438E JUMP JUMPDEST SWAP2 POP DUP3 PUSH1 0x2 MUL DUP3 OR SWAP1 POP SWAP3 SWAP2 POP POP JUMP JUMPDEST PUSH2 0x43D1 DUP3 PUSH2 0x3359 JUMP JUMPDEST PUSH8 0xFFFFFFFFFFFFFFFF DUP2 GT ISZERO PUSH2 0x43EA JUMPI PUSH2 0x43E9 PUSH2 0x3673 JUMP JUMPDEST JUMPDEST PUSH2 0x43F4 DUP3 SLOAD PUSH2 0x3C68 JUMP JUMPDEST PUSH2 0x43FF DUP3 DUP3 DUP6 PUSH2 0x433B JUMP JUMPDEST PUSH1 0x0 PUSH1 0x20 SWAP1 POP PUSH1 0x1F DUP4 GT PUSH1 0x1 DUP2 EQ PUSH2 0x4432 JUMPI PUSH1 0x0 DUP5 ISZERO PUSH2 0x4420 JUMPI DUP3 DUP8 ADD MLOAD SWAP1 POP JUMPDEST PUSH2 0x442A DUP6 DUP3 PUSH2 0x43AC JUMP JUMPDEST DUP7 SSTORE POP PUSH2 0x4492 JUMP JUMPDEST PUSH1 0x1F NOT DUP5 AND PUSH2 0x4440 DUP7 PUSH2 0x4226 JUMP JUMPDEST PUSH1 0x0 JUMPDEST DUP3 DUP2 LT ISZERO PUSH2 0x4468 JUMPI DUP5 DUP10 ADD MLOAD DUP3 SSTORE PUSH1 0x1 DUP3 ADD SWAP2 POP PUSH1 0x20 DUP6 ADD SWAP5 POP PUSH1 0x20 DUP2 ADD SWAP1 POP PUSH2 0x4443 JUMP JUMPDEST DUP7 DUP4 LT ISZERO PUSH2 0x4485 JUMPI DUP5 DUP10 ADD MLOAD PUSH2 0x4481 PUSH1 0x1F DUP10 AND DUP3 PUSH2 0x438E JUMP JUMPDEST DUP4 SSTORE POP JUMPDEST PUSH1 0x1 PUSH1 0x2 DUP9 MUL ADD DUP9 SSTORE POP POP POP JUMPDEST POP POP POP POP POP POP JUMP JUMPDEST PUSH32 0x4E487B7100000000000000000000000000000000000000000000000000000000 PUSH1 0x0 MSTORE PUSH1 0x32 PUSH1 0x4 MSTORE PUSH1 0x24 PUSH1 0x0 REVERT JUMPDEST PUSH1 0x0 DUP2 SWAP1 POP SWAP3 SWAP2 POP POP JUMP JUMPDEST PUSH1 0x0 PUSH2 0x44DF DUP3 PUSH2 0x3359 JUMP JUMPDEST PUSH2 0x44E9 DUP2 DUP6 PUSH2 0x44C9 JUMP JUMPDEST SWAP4 POP PUSH2 0x44F9 DUP2 DUP6 PUSH1 0x20 DUP7 ADD PUSH2 0x3375 JUMP JUMPDEST DUP1 DUP5 ADD SWAP2 POP POP SWAP3 SWAP2 POP POP JUMP JUMPDEST PUSH32 0x2E6A736F6E000000000000000000000000000000000000000000000000000000 PUSH1 0x0 DUP3 ADD MSTORE POP JUMP JUMPDEST PUSH1 0x0 PUSH2 0x453B PUSH1 0x5 DUP4 PUSH2 0x44C9 JUMP JUMPDEST SWAP2 POP PUSH2 0x4546 DUP3 PUSH2 0x4505 JUMP JUMPDEST PUSH1 0x5 DUP3 ADD SWAP1 POP SWAP2 SWAP1 POP JUMP JUMPDEST PUSH1 0x0 PUSH2 0x455D DUP3 DUP5 PUSH2 0x44D4 JUMP JUMPDEST SWAP2 POP PUSH2 0x4568 DUP3 PUSH2 0x452E JUMP JUMPDEST SWAP2 POP DUP2 SWAP1 POP SWAP3 SWAP2 POP POP JUMP JUMPDEST PUSH32 0x50726573616C6520686173206E6F742073746172746564207965740000000000 PUSH1 0x0 DUP3 ADD MSTORE POP JUMP JUMPDEST PUSH1 0x0 PUSH2 0x45A9 PUSH1 0x1B DUP4 PUSH2 0x3364 JUMP JUMPDEST SWAP2 POP PUSH2 0x45B4 DUP3 PUSH2 0x4573 JUMP JUMPDEST PUSH1 0x20 DUP3 ADD SWAP1 POP SWAP2 SWAP1 POP JUMP JUMPDEST PUSH1 0x0 PUSH1 0x20 DUP3 ADD SWAP1 POP DUP2 DUP2 SUB PUSH1 0x0 DUP4 ADD MSTORE PUSH2 0x45D8 DUP2 PUSH2 0x459C JUMP JUMPDEST SWAP1 POP SWAP2 SWAP1 POP JUMP JUMPDEST PUSH32 0x50726573616C65206D757374206265206D696E7465642066726F6D206F757220 PUSH1 0x0 DUP3 ADD MSTORE PUSH32 0x7765627369746500000000000000000000000000000000000000000000000000 PUSH1 0x20 DUP3 ADD MSTORE POP JUMP JUMPDEST PUSH1 0x0 PUSH2 0x463B PUSH1 0x27 DUP4 PUSH2 0x3364 JUMP JUMPDEST SWAP2 POP PUSH2 0x4646 DUP3 PUSH2 0x45DF JUMP JUMPDEST PUSH1 0x40 DUP3 ADD SWAP1 POP SWAP2 SWAP1 POP JUMP JUMPDEST PUSH1 0x0 PUSH1 0x20 DUP3 ADD SWAP1 POP DUP2 DUP2 SUB PUSH1 0x0 DUP4 ADD MSTORE PUSH2 0x466A DUP2 PUSH2 0x462E JUMP JUMPDEST SWAP1 POP SWAP2 SWAP1 POP JUMP JUMPDEST PUSH32 0x4F776E61626C653A206E6577206F776E657220697320746865207A65726F2061 PUSH1 0x0 DUP3 ADD MSTORE PUSH32 0x6464726573730000000000000000000000000000000000000000000000000000 PUSH1 0x20 DUP3 ADD MSTORE POP JUMP JUMPDEST PUSH1 0x0 PUSH2 0x46CD PUSH1 0x26 DUP4 PUSH2 0x3364 JUMP JUMPDEST SWAP2 POP PUSH2 0x46D8 DUP3 PUSH2 0x4671 JUMP JUMPDEST PUSH1 0x40 DUP3 ADD SWAP1 POP SWAP2 SWAP1 POP JUMP JUMPDEST PUSH1 0x0 PUSH1 0x20 DUP3 ADD SWAP1 POP DUP2 DUP2 SUB PUSH1 0x0 DUP4 ADD MSTORE PUSH2 0x46FC DUP2 PUSH2 0x46C0 JUMP JUMPDEST SWAP1 POP SWAP2 SWAP1 POP JUMP JUMPDEST PUSH32 0x4F776E61626C653A2063616C6C6572206973206E6F7420746865206F776E6572 PUSH1 0x0 DUP3 ADD MSTORE POP JUMP JUMPDEST PUSH1 0x0 PUSH2 0x4739 PUSH1 0x20 DUP4 PUSH2 0x3364 JUMP JUMPDEST SWAP2 POP PUSH2 0x4744 DUP3 PUSH2 0x4703 JUMP JUMPDEST PUSH1 0x20 DUP3 ADD SWAP1 POP SWAP2 SWAP1 POP JUMP JUMPDEST PUSH1 0x0 PUSH1 0x20 DUP3 ADD SWAP1 POP DUP2 DUP2 SUB PUSH1 0x0 DUP4 ADD MSTORE PUSH2 0x4768 DUP2 PUSH2 0x472C JUMP JUMPDEST SWAP1 POP SWAP2 SWAP1 POP JUMP JUMPDEST PUSH1 0x0 PUSH2 0x477A DUP3 PUSH2 0x3174 JUMP JUMPDEST SWAP2 POP PUSH1 0x0 DUP3 SUB PUSH2 0x478D JUMPI PUSH2 0x478C PUSH2 0x3C99 JUMP JUMPDEST JUMPDEST PUSH1 0x1 DUP3 SUB SWAP1 POP SWAP2 SWAP1 POP JUMP JUMPDEST PUSH32 0x455243323938313A20726F79616C7479206665652077696C6C20657863656564 PUSH1 0x0 DUP3 ADD MSTORE PUSH32 0x2073616C65507269636500000000000000000000000000000000000000000000 PUSH1 0x20 DUP3 ADD MSTORE POP JUMP JUMPDEST PUSH1 0x0 PUSH2 0x47F4 PUSH1 0x2A DUP4 PUSH2 0x3364 JUMP JUMPDEST SWAP2 POP PUSH2 0x47FF DUP3 PUSH2 0x4798 JUMP JUMPDEST PUSH1 0x40 DUP3 ADD SWAP1 POP SWAP2 SWAP1 POP JUMP JUMPDEST PUSH1 0x0 PUSH1 0x20 DUP3 ADD SWAP1 POP DUP2 DUP2 SUB PUSH1 0x0 DUP4 ADD MSTORE PUSH2 0x4823 DUP2 PUSH2 0x47E7 JUMP JUMPDEST SWAP1 POP SWAP2 SWAP1 POP JUMP JUMPDEST PUSH32 0x455243323938313A20696E76616C696420726563656976657200000000000000 PUSH1 0x0 DUP3 ADD MSTORE POP JUMP JUMPDEST PUSH1 0x0 PUSH2 0x4860 PUSH1 0x19 DUP4 PUSH2 0x3364 JUMP JUMPDEST SWAP2 POP PUSH2 0x486B DUP3 PUSH2 0x482A JUMP JUMPDEST PUSH1 0x20 DUP3 ADD SWAP1 POP SWAP2 SWAP1 POP JUMP JUMPDEST PUSH1 0x0 PUSH1 0x20 DUP3 ADD SWAP1 POP DUP2 DUP2 SUB PUSH1 0x0 DUP4 ADD MSTORE PUSH2 0x488F DUP2 PUSH2 0x4853 JUMP JUMPDEST SWAP1 POP SWAP2 SWAP1 POP JUMP JUMPDEST PUSH1 0x0 DUP2 MLOAD SWAP1 POP SWAP2 SWAP1 POP JUMP JUMPDEST PUSH1 0x0 DUP3 DUP3 MSTORE PUSH1 0x20 DUP3 ADD SWAP1 POP SWAP3 SWAP2 POP POP JUMP JUMPDEST PUSH1 0x0 PUSH2 0x48BD DUP3 PUSH2 0x4896 JUMP JUMPDEST PUSH2 0x48C7 DUP2 DUP6 PUSH2 0x48A1 JUMP JUMPDEST SWAP4 POP PUSH2 0x48D7 DUP2 DUP6 PUSH1 0x20 DUP7 ADD PUSH2 0x3375 JUMP JUMPDEST PUSH2 0x48E0 DUP2 PUSH2 0x339F JUMP JUMPDEST DUP5 ADD SWAP2 POP POP SWAP3 SWAP2 POP POP JUMP JUMPDEST PUSH1 0x0 PUSH1 0x80 DUP3 ADD SWAP1 POP PUSH2 0x4900 PUSH1 0x0 DUP4 ADD DUP8 PUSH2 0x346A JUMP JUMPDEST PUSH2 0x490D PUSH1 0x20 DUP4 ADD DUP7 PUSH2 0x346A JUMP JUMPDEST PUSH2 0x491A PUSH1 0x40 DUP4 ADD DUP6 PUSH2 0x317E JUMP JUMPDEST DUP2 DUP2 SUB PUSH1 0x60 DUP4 ADD MSTORE PUSH2 0x492C DUP2 DUP5 PUSH2 0x48B2 JUMP JUMPDEST SWAP1 POP SWAP6 SWAP5 POP POP POP POP POP JUMP JUMPDEST PUSH1 0x0 DUP2 MLOAD SWAP1 POP PUSH2 0x4946 DUP2 PUSH2 0x328A JUMP JUMPDEST SWAP3 SWAP2 POP POP JUMP JUMPDEST PUSH1 0x0 PUSH1 0x20 DUP3 DUP5 SUB SLT ISZERO PUSH2 0x4962 JUMPI PUSH2 0x4961 PUSH2 0x31B2 JUMP JUMPDEST JUMPDEST PUSH1 0x0 PUSH2 0x4970 DUP5 DUP3 DUP6 ADD PUSH2 0x4937 JUMP JUMPDEST SWAP2 POP POP SWAP3 SWAP2 POP POP JUMP JUMPDEST PUSH1 0x0 PUSH2 0x4985 DUP3 DUP6 PUSH2 0x44D4 JUMP JUMPDEST SWAP2 POP PUSH2 0x4991 DUP3 DUP5 PUSH2 0x44D4 JUMP JUMPDEST SWAP2 POP DUP2 SWAP1 POP SWAP4 SWAP3 POP POP POP JUMP INVALID LOG2 PUSH5 0x6970667358 0x22 SLT KECCAK256 0xDD SDIV 0xD9 RETURN PUSH12 0x28F894159CF010264932F16B LOG1 SIGNEXTEND 0x2F 0xC6 LOG0 0xD6 NUMBER 0xBB 0xA7 DUP9 PUSH3 0xAF0004 LOG0 PUSH5 0x736F6C6343 STOP ADDMOD SGT STOP CALLER "},"methodIdentifiers":{"NFTLimitPresale()":"855d5180","NFTLimitPublic()":"fdc36316","NFTtracker(address)":"15c914db","airdrop(uint256,address[])":"bdf7a8e6","approve(address,uint256)":"095ea7b3","balanceOf(address)":"70a08231","changeDefaultRoyalties(address,uint96)":"8b63d54a","freeMint(bytes32[],uint256)":"3615ab45","getApproved(uint256)":"081812fc","isApprovedForAll(address,address)":"e985e9c5","lastDropId()":"41f4bbfe","maxSupply()":"d5abeb01","name()":"06fdde03","owner()":"8da5cb5b","ownerOf(uint256)":"6352211e","presaleMint(uint256,bytes32[])":"e3e1e8ef","presalePrice()":"000e7fa8","presaleStarted()":"04549d6f","publicMint(uint256)":"2db11544","publicSalePrice()":"9b6860c8","publicSaleStarted()":"a2e91477","renounceOwnership()":"715018a6","royaltyInfo(uint256,uint256)":"2a55205a","safeTransferFrom(address,address,uint256)":"42842e0e","safeTransferFrom(address,address,uint256,bytes)":"b88d4fde","setApprovalForAll(address,bool)":"a22cb465","setBaseURI(string)":"55f804b3","setNFTHardcap(uint256)":"3abb9190","setNFTLimits(uint256,uint256)":"14dcb428","setNewDrop(uint256,uint256,uint256,bool,bytes32)":"a9fe3075","setNewMaxSupply(uint256,uint256)":"62644066","setNewMerkleRoot(bytes32,uint256)":"0175df62","setNewPreMintMaxSupply(uint256,uint256)":"d60e45ee","setNewTimeMintAfterPreMint(uint256,uint256)":"2a8f8c5e","setPrices(uint256,uint256)":"05fefda7","setWhiteListState(bool,uint256)":"92913970","setmerkleRoot(bytes32)":"e858ad03","startFreeMint(uint256)":"2efd3cb9","stopFreeMint(uint256)":"956e6e1e","supportsInterface(bytes4)":"01ffc9a7","symbol()":"95d89b41","togglePresaleStarted()":"ed1fc2a2","togglePublicSaleStarted()":"2f814575","tokenURI(uint256)":"c87b56dd","totalNFTs()":"0d0e96da","totalSupply()":"18160ddd","transferFrom(address,address,uint256)":"23b872dd","transferOwnership(address)":"f2fde38b"}}}}}