{"contracts/Girant_Hero_Medusa.sol":{"Girand_Hero_Medusa":{"abi":[{"inputs":[{"internalType":"string","name":"baseURI","type":"string"},{"internalType":"string","name":"name","type":"string"},{"internalType":"string","name":"symbol","type":"string"},{"internalType":"uint96","name":"royalty","type":"uint96"},{"internalType":"bytes32","name":"_merkleRoot","type":"bytes32"}],"stateMutability":"nonpayable","type":"constructor"},{"inputs":[],"name":"ApprovalCallerNotOwnerNorApproved","type":"error"},{"inputs":[],"name":"ApprovalQueryForNonexistentToken","type":"error"},{"inputs":[],"name":"BalanceQueryForZeroAddress","type":"error"},{"inputs":[],"name":"MintERC2309QuantityExceedsLimit","type":"error"},{"inputs":[],"name":"MintToZeroAddress","type":"error"},{"inputs":[],"name":"MintZeroQuantity","type":"error"},{"inputs":[],"name":"OwnerQueryForNonexistentToken","type":"error"},{"inputs":[],"name":"OwnershipNotInitializedForExtraData","type":"error"},{"inputs":[],"name":"TransferCallerNotOwnerNorApproved","type":"error"},{"inputs":[],"name":"TransferFromIncorrectOwner","type":"error"},{"inputs":[],"name":"TransferToNonERC721ReceiverImplementer","type":"error"},{"inputs":[],"name":"TransferToZeroAddress","type":"error"},{"inputs":[],"name":"URIQueryForNonexistentToken","type":"error"},{"anonymous":false,"inputs":[{"indexed":true,"internalType":"address","name":"owner","type":"address"},{"indexed":true,"internalType":"address","name":"approved","type":"address"},{"indexed":true,"internalType":"uint256","name":"tokenId","type":"uint256"}],"name":"Approval","type":"event"},{"anonymous":false,"inputs":[{"indexed":true,"internalType":"address","name":"owner","type":"address"},{"indexed":true,"internalType":"address","name":"operator","type":"address"},{"indexed":false,"internalType":"bool","name":"approved","type":"bool"}],"name":"ApprovalForAll","type":"event"},{"anonymous":false,"inputs":[{"indexed":false,"internalType":"string","name":"baseURI","type":"string"}],"name":"BaseURIChanged","type":"event"},{"anonymous":false,"inputs":[{"indexed":true,"internalType":"uint256","name":"fromTokenId","type":"uint256"},{"indexed":false,"internalType":"uint256","name":"toTokenId","type":"uint256"},{"indexed":true,"internalType":"address","name":"from","type":"address"},{"indexed":true,"internalType":"address","name":"to","type":"address"}],"name":"ConsecutiveTransfer","type":"event"},{"anonymous":false,"inputs":[{"indexed":false,"internalType":"address","name":"mintTo","type":"address"},{"indexed":false,"internalType":"uint256","name":"tokensCount","type":"uint256"}],"name":"FreeMint","type":"event"},{"anonymous":false,"inputs":[{"indexed":true,"internalType":"address","name":"previousOwner","type":"address"},{"indexed":true,"internalType":"address","name":"newOwner","type":"address"}],"name":"OwnershipTransferred","type":"event"},{"anonymous":false,"inputs":[{"indexed":true,"internalType":"address","name":"from","type":"address"},{"indexed":true,"internalType":"address","name":"to","type":"address"},{"indexed":true,"internalType":"uint256","name":"tokenId","type":"uint256"}],"name":"Transfer","type":"event"},{"inputs":[],"name":"activeDrop","outputs":[{"internalType":"uint256","name":"","type":"uint256"}],"stateMutability":"view","type":"function"},{"inputs":[{"internalType":"address","name":"to","type":"address"},{"internalType":"uint256","name":"tokenId","type":"uint256"}],"name":"approve","outputs":[],"stateMutability":"payable","type":"function"},{"inputs":[{"internalType":"address","name":"owner","type":"address"}],"name":"balanceOf","outputs":[{"internalType":"uint256","name":"","type":"uint256"}],"stateMutability":"view","type":"function"},{"inputs":[{"internalType":"address","name":"receiver","type":"address"},{"internalType":"uint96","name":"feeNumerator","type":"uint96"}],"name":"changeDefaultRoyalties","outputs":[],"stateMutability":"nonpayable","type":"function"},{"inputs":[{"internalType":"uint256","name":"","type":"uint256"}],"name":"drops","outputs":[{"internalType":"uint256","name":"id","type":"uint256"},{"internalType":"uint256","name":"totalSupply","type":"uint256"},{"internalType":"uint256","name":"preMintMaxSupply","type":"uint256"},{"internalType":"uint256","name":"maxDropSupply","type":"uint256"},{"internalType":"uint256","name":"timePreMintStart","type":"uint256"},{"internalType":"uint256","name":"timeMintAfterPreMint","type":"uint256"},{"internalType":"bool","name":"preMintStarted","type":"bool"},{"internalType":"bool","name":"whiteList","type":"bool"},{"internalType":"bytes32","name":"merkleRoot","type":"bytes32"}],"stateMutability":"view","type":"function"},{"inputs":[{"internalType":"bytes32[]","name":"proof","type":"bytes32[]"}],"name":"freeMint","outputs":[],"stateMutability":"nonpayable","type":"function"},{"inputs":[{"internalType":"uint256","name":"tokenId","type":"uint256"}],"name":"getApproved","outputs":[{"internalType":"address","name":"","type":"address"}],"stateMutability":"view","type":"function"},{"inputs":[{"internalType":"uint256","name":"dropId","type":"uint256"}],"name":"getDropData","outputs":[{"internalType":"uint256","name":"totalSupply","type":"uint256"},{"internalType":"uint256","name":"preMintMaxSupply","type":"uint256"},{"internalType":"uint256","name":"maxDropSupply","type":"uint256"},{"internalType":"uint256","name":"timeMintAfterPreMint","type":"uint256"},{"internalType":"bool","name":"preMintStarted","type":"bool"},{"internalType":"bool","name":"whiteList","type":"bool"},{"internalType":"bytes32","name":"merkleRoot","type":"bytes32"}],"stateMutability":"view","type":"function"},{"inputs":[{"internalType":"uint256","name":"dropId","type":"uint256"},{"internalType":"address","name":"trackAddress","type":"address"}],"name":"getDropNFTtrackerInfo","outputs":[{"internalType":"bool","name":"nftMinted","type":"bool"}],"stateMutability":"view","type":"function"},{"inputs":[{"internalType":"address","name":"owner","type":"address"},{"internalType":"address","name":"operator","type":"address"}],"name":"isApprovedForAll","outputs":[{"internalType":"bool","name":"","type":"bool"}],"stateMutability":"view","type":"function"},{"inputs":[],"name":"maxSupply","outputs":[{"internalType":"uint256","name":"","type":"uint256"}],"stateMutability":"view","type":"function"},{"inputs":[],"name":"name","outputs":[{"internalType":"string","name":"","type":"string"}],"stateMutability":"view","type":"function"},{"inputs":[],"name":"owner","outputs":[{"internalType":"address","name":"","type":"address"}],"stateMutability":"view","type":"function"},{"inputs":[{"internalType":"uint256","name":"tokenId","type":"uint256"}],"name":"ownerOf","outputs":[{"internalType":"address","name":"","type":"address"}],"stateMutability":"view","type":"function"},{"inputs":[],"name":"renounceOwnership","outputs":[],"stateMutability":"nonpayable","type":"function"},{"inputs":[{"internalType":"uint256","name":"_tokenId","type":"uint256"},{"internalType":"uint256","name":"_salePrice","type":"uint256"}],"name":"royaltyInfo","outputs":[{"internalType":"address","name":"","type":"address"},{"internalType":"uint256","name":"","type":"uint256"}],"stateMutability":"view","type":"function"},{"inputs":[{"internalType":"address","name":"from","type":"address"},{"internalType":"address","name":"to","type":"address"},{"internalType":"uint256","name":"tokenId","type":"uint256"}],"name":"safeTransferFrom","outputs":[],"stateMutability":"payable","type":"function"},{"inputs":[{"internalType":"address","name":"from","type":"address"},{"internalType":"address","name":"to","type":"address"},{"internalType":"uint256","name":"tokenId","type":"uint256"},{"internalType":"bytes","name":"_data","type":"bytes"}],"name":"safeTransferFrom","outputs":[],"stateMutability":"payable","type":"function"},{"inputs":[{"internalType":"address","name":"operator","type":"address"},{"internalType":"bool","name":"approved","type":"bool"}],"name":"setApprovalForAll","outputs":[],"stateMutability":"nonpayable","type":"function"},{"inputs":[{"internalType":"string","name":"baseURI","type":"string"}],"name":"setBaseURI","outputs":[],"stateMutability":"nonpayable","type":"function"},{"inputs":[{"internalType":"uint256","name":"_preMintMaxSupply","type":"uint256"},{"internalType":"uint256","name":"_maxSupply","type":"uint256"},{"internalType":"uint256","name":"_timeMintAfterPreMint","type":"uint256"},{"internalType":"bool","name":"_whiteList","type":"bool"},{"internalType":"bytes32","name":"_merkleRoot","type":"bytes32"}],"name":"setNewDrop","outputs":[],"stateMutability":"nonpayable","type":"function"},{"inputs":[{"internalType":"uint256","name":"_maxSupply","type":"uint256"}],"name":"setNewMaxSupply","outputs":[],"stateMutability":"nonpayable","type":"function"},{"inputs":[{"internalType":"bytes32","name":"_merkleRoot","type":"bytes32"}],"name":"setNewMerkleRoot","outputs":[],"stateMutability":"nonpayable","type":"function"},{"inputs":[{"internalType":"uint256","name":"_preMintMaxSupply","type":"uint256"}],"name":"setNewPreMintMaxSupply","outputs":[],"stateMutability":"nonpayable","type":"function"},{"inputs":[{"internalType":"uint256","name":"_timeMintAfterPreMint","type":"uint256"}],"name":"setNewTimeMintAfterPreMint","outputs":[],"stateMutability":"nonpayable","type":"function"},{"inputs":[{"internalType":"bool","name":"_whiteList","type":"bool"}],"name":"setWhiteListState","outputs":[],"stateMutability":"nonpayable","type":"function"},{"inputs":[],"name":"startPreMint","outputs":[],"stateMutability":"nonpayable","type":"function"},{"inputs":[],"name":"stopMint","outputs":[],"stateMutability":"nonpayable","type":"function"},{"inputs":[{"internalType":"bytes4","name":"interfaceId","type":"bytes4"}],"name":"supportsInterface","outputs":[{"internalType":"bool","name":"","type":"bool"}],"stateMutability":"view","type":"function"},{"inputs":[],"name":"symbol","outputs":[{"internalType":"string","name":"","type":"string"}],"stateMutability":"view","type":"function"},{"inputs":[{"internalType":"uint256","name":"tokenId","type":"uint256"}],"name":"tokenURI","outputs":[{"internalType":"string","name":"","type":"string"}],"stateMutability":"view","type":"function"},{"inputs":[],"name":"totalSupply","outputs":[{"internalType":"uint256","name":"","type":"uint256"}],"stateMutability":"view","type":"function"},{"inputs":[{"internalType":"address","name":"from","type":"address"},{"internalType":"address","name":"to","type":"address"},{"internalType":"uint256","name":"tokenId","type":"uint256"}],"name":"transferFrom","outputs":[],"stateMutability":"payable","type":"function"},{"inputs":[{"internalType":"address","name":"newOwner","type":"address"}],"name":"transferOwnership","outputs":[],"stateMutability":"nonpayable","type":"function"}],"evm":{"bytecode":{"linkReferences":{},"object":"60806040523480156200001157600080fd5b5060405162004a7438038062004a7483398181016040528101906200003791906200062f565b8383620000596200004d6200019a60201b60201c565b620001a260201b60201c565b6001808190555081600690816200007191906200095f565b5080600790816200008391906200095f565b50620000946200026660201b60201c565b600481905550505084600f9081620000ad91906200095f565b506001600e819055506005600c6000600e548152602001908152602001600020600201819055506005600c6000600e548152602001908152602001600020600301819055506064600c6000600e548152602001908152602001600020600501819055506001600c6000600e54815260200190815260200160002060060160016101000a81548160ff02191690831515021790555080600c6000600e54815260200190815260200160002060070181905550600c6000600e54815260200190815260200160002060030154600d819055506200018f33836200026b60201b60201c565b505050505062000b61565b600033905090565b60008060009054906101000a900473ffffffffffffffffffffffffffffffffffffffff169050816000806101000a81548173ffffffffffffffffffffffffffffffffffffffff021916908373ffffffffffffffffffffffffffffffffffffffff1602179055508173ffffffffffffffffffffffffffffffffffffffff168173ffffffffffffffffffffffffffffffffffffffff167f8be0079c531659141344cd1fd0a4f28419497f9722a3daafe3b4186f6b6457e060405160405180910390a35050565b600090565b6200027b6200040e60201b60201c565b6bffffffffffffffffffffffff16816bffffffffffffffffffffffff161115620002dc576040517f08c379a0000000000000000000000000000000000000000000000000000000008152600401620002d39062000acd565b60405180910390fd5b600073ffffffffffffffffffffffffffffffffffffffff168273ffffffffffffffffffffffffffffffffffffffff16036200034e576040517f08c379a0000000000000000000000000000000000000000000000000000000008152600401620003459062000b3f565b60405180910390fd5b60405180604001604052808373ffffffffffffffffffffffffffffffffffffffff168152602001826bffffffffffffffffffffffff16815250600260008201518160000160006101000a81548173ffffffffffffffffffffffffffffffffffffffff021916908373ffffffffffffffffffffffffffffffffffffffff16021790555060208201518160000160146101000a8154816bffffffffffffffffffffffff02191690836bffffffffffffffffffffffff1602179055509050505050565b6000612710905090565b6000604051905090565b600080fd5b600080fd5b600080fd5b600080fd5b6000601f19601f8301169050919050565b7f4e487b7100000000000000000000000000000000000000000000000000000000600052604160045260246000fd5b620004818262000436565b810181811067ffffffffffffffff82111715620004a357620004a262000447565b5b80604052505050565b6000620004b862000418565b9050620004c6828262000476565b919050565b600067ffffffffffffffff821115620004e957620004e862000447565b5b620004f48262000436565b9050602081019050919050565b60005b838110156200052157808201518184015260208101905062000504565b60008484015250505050565b6000620005446200053e84620004cb565b620004ac565b90508281526020810184848401111562000563576200056262000431565b5b6200057084828562000501565b509392505050565b600082601f83011262000590576200058f6200042c565b5b8151620005a28482602086016200052d565b91505092915050565b60006bffffffffffffffffffffffff82169050919050565b620005ce81620005ab565b8114620005da57600080fd5b50565b600081519050620005ee81620005c3565b92915050565b6000819050919050565b6200060981620005f4565b81146200061557600080fd5b50565b6000815190506200062981620005fe565b92915050565b600080600080600060a086880312156200064e576200064d62000422565b5b600086015167ffffffffffffffff8111156200066f576200066e62000427565b5b6200067d8882890162000578565b955050602086015167ffffffffffffffff811115620006a157620006a062000427565b5b620006af8882890162000578565b945050604086015167ffffffffffffffff811115620006d357620006d262000427565b5b620006e18882890162000578565b9350506060620006f488828901620005dd565b9250506080620007078882890162000618565b9150509295509295909350565b600081519050919050565b7f4e487b7100000000000000000000000000000000000000000000000000000000600052602260045260246000fd5b600060028204905060018216806200076757607f821691505b6020821081036200077d576200077c6200071f565b5b50919050565b60008190508160005260206000209050919050565b60006020601f8301049050919050565b600082821b905092915050565b600060088302620007e77fffffffffffffffffffffffffffffffffffffffffffffffffffffffffffffffff82620007a8565b620007f38683620007a8565b95508019841693508086168417925050509392505050565b6000819050919050565b6000819050919050565b6000620008406200083a62000834846200080b565b62000815565b6200080b565b9050919050565b6000819050919050565b6200085c836200081f565b620008746200086b8262000847565b848454620007b5565b825550505050565b600090565b6200088b6200087c565b6200089881848462000851565b505050565b5b81811015620008c057620008b460008262000881565b6001810190506200089e565b5050565b601f8211156200090f57620008d98162000783565b620008e48462000798565b81016020851015620008f4578190505b6200090c620009038562000798565b8301826200089d565b50505b505050565b600082821c905092915050565b6000620009346000198460080262000914565b1980831691505092915050565b60006200094f838362000921565b9150826002028217905092915050565b6200096a8262000714565b67ffffffffffffffff81111562000986576200098562000447565b5b6200099282546200074e565b6200099f828285620008c4565b600060209050601f831160018114620009d75760008415620009c2578287015190505b620009ce858262000941565b86555062000a3e565b601f198416620009e78662000783565b60005b8281101562000a1157848901518255600182019150602085019450602081019050620009ea565b8683101562000a31578489015162000a2d601f89168262000921565b8355505b6001600288020188555050505b505050505050565b600082825260208201905092915050565b7f455243323938313a20726f79616c7479206665652077696c6c2065786365656460008201527f2073616c65507269636500000000000000000000000000000000000000000000602082015250565b600062000ab5602a8362000a46565b915062000ac28262000a57565b604082019050919050565b6000602082019050818103600083015262000ae88162000aa6565b9050919050565b7f455243323938313a20696e76616c696420726563656976657200000000000000600082015250565b600062000b2760198362000a46565b915062000b348262000aef565b602082019050919050565b6000602082019050818103600083015262000b5a8162000b18565b9050919050565b613f038062000b716000396000f3fe6080604052600436106101f95760003560e01c80638b63d54a1161010d578063b88d4fde116100a0578063d55829651161006f578063d558296514610716578063d5abeb011461072d578063e985e9c514610758578063f247b56914610795578063f2fde38b146107c0576101f9565b8063b88d4fde14610651578063be91484c1461066d578063c87b56dd146106b0578063cfd1c79f146106ed576101f9565b8063a22cb465116100dc578063a22cb465146105ad578063a9fe3075146105d6578063b3e5e0de146105ff578063b7c7d9a714610628576101f9565b80638b63d54a146104f15780638da5cb5b1461051a578063922003cd1461054557806395d89b4114610582576101f9565b806342842e0e11610190578063611236a41161015f578063611236a41461040e5780636352211e1461043757806370a0823114610474578063715018a6146104b157806388d15d50146104c8576101f9565b806342842e0e1461035b57806355f804b31461037757806358b1adbf146103a05780635eb39968146103c9576101f9565b806318160ddd116101cc57806318160ddd146102bf57806323b872dd146102ea5780632a55205a14610306578063363f032514610344576101f9565b806301ffc9a7146101fe57806306fdde031461023b578063081812fc14610266578063095ea7b3146102a3575b600080fd5b34801561020a57600080fd5b5061022560048036038101906102209190612917565b6107e9565b604051610232919061295f565b60405180910390f35b34801561024757600080fd5b5061025061080b565b60405161025d9190612a0a565b60405180910390f35b34801561027257600080fd5b5061028d60048036038101906102889190612a62565b61089d565b60405161029a9190612ad0565b60405180910390f35b6102bd60048036038101906102b89190612b17565b6108fb565b005b3480156102cb57600080fd5b506102d461090b565b6040516102e19190612b66565b60405180910390f35b61030460048036038101906102ff9190612b81565b610922565b005b34801561031257600080fd5b5061032d60048036038101906103289190612bd4565b610be3565b60405161033b929190612c14565b60405180910390f35b34801561035057600080fd5b50610359610dcd565b005b61037560048036038101906103709190612b81565b610e25565b005b34801561038357600080fd5b5061039e60048036038101906103999190612d72565b610e45565b005b3480156103ac57600080fd5b506103c760048036038101906103c29190612a62565b610e97565b005b3480156103d557600080fd5b506103f060048036038101906103eb9190612a62565b610ebf565b60405161040599989796959493929190612dd4565b60405180910390f35b34801561041a57600080fd5b5061043560048036038101906104309190612e8d565b610f27565b005b34801561044357600080fd5b5061045e60048036038101906104599190612a62565b610f4f565b60405161046b9190612ad0565b60405180910390f35b34801561048057600080fd5b5061049b60048036038101906104969190612eba565b610f61565b6040516104a89190612b66565b60405180910390f35b3480156104bd57600080fd5b506104c6610ff8565b005b3480156104d457600080fd5b506104ef60048036038101906104ea9190612f47565b61100c565b005b3480156104fd57600080fd5b5061051860048036038101906105139190612fd8565b6113ea565b005b34801561052657600080fd5b5061052f611408565b60405161053c9190612ad0565b60405180910390f35b34801561055157600080fd5b5061056c60048036038101906105679190613018565b611431565b604051610579919061295f565b60405180910390f35b34801561058e57600080fd5b5061059761149c565b6040516105a49190612a0a565b60405180910390f35b3480156105b957600080fd5b506105d460048036038101906105cf9190613084565b61152e565b005b3480156105e257600080fd5b506105fd60048036038101906105f891906130c4565b611639565b005b34801561060b57600080fd5b506106266004803603810190610621919061313f565b61173c565b005b34801561063457600080fd5b5061064f600480360381019061064a9190612a62565b611777565b005b61066b6004803603810190610666919061320d565b61179f565b005b34801561067957600080fd5b50610694600480360381019061068f9190612a62565b6117f1565b6040516106a79796959493929190613290565b60405180910390f35b3480156106bc57600080fd5b506106d760048036038101906106d29190612a62565b6118d0565b6040516106e49190612a0a565b60405180910390f35b3480156106f957600080fd5b50610714600480360381019061070f9190612a62565b611907565b005b34801561072257600080fd5b5061072b61192f565b005b34801561073957600080fd5b5061074261196a565b60405161074f9190612b66565b60405180910390f35b34801561076457600080fd5b5061077f600480360381019061077a91906132ff565b611970565b60405161078c919061295f565b60405180910390f35b3480156107a157600080fd5b506107aa611a04565b6040516107b79190612b66565b60405180910390f35b3480156107cc57600080fd5b506107e760048036038101906107e29190612eba565b611a0a565b005b60006107f482611a8d565b80610804575061080382611b1f565b5b9050919050565b60606006805461081a9061336e565b80601f01602080910402602001604051908101604052809291908181526020018280546108469061336e565b80156108935780601f1061086857610100808354040283529160200191610893565b820191906000526020600020905b81548152906001019060200180831161087657829003601f168201915b5050505050905090565b60006108a882611b99565b6108bd576108bc63cf4700e460e01b611c12565b5b600a600083815260200190815260200160002060000160009054906101000a900473ffffffffffffffffffffffffffffffffffffffff169050919050565b61090782826001611c1c565b5050565b6000610915611d4b565b6005546004540303905090565b600061092d82611d50565b905073ffffffffffffffffffffffffffffffffffffffff8473ffffffffffffffffffffffffffffffffffffffff161693508373ffffffffffffffffffffffffffffffffffffffff168173ffffffffffffffffffffffffffffffffffffffff16146109a2576109a163a114810060e01b611c12565b5b6000806109ae84611e3c565b915091506109c481876109bf611e63565b611e6b565b6109ef576109d9866109d4611e63565b611970565b6109ee576109ed6359c896be60e01b611c12565b5b5b6109fc8686866001611eaf565b8015610a0757600082555b600960008773ffffffffffffffffffffffffffffffffffffffff1673ffffffffffffffffffffffffffffffffffffffff168152602001908152602001600020600081546001900391905081905550600960008673ffffffffffffffffffffffffffffffffffffffff1673ffffffffffffffffffffffffffffffffffffffff1681526020019081526020016000206000815460010191905081905550610ad585610ab1888887611eb5565b7c020000000000000000000000000000000000000000000000000000000017611edd565b600860008681526020019081526020016000208190555060007c0200000000000000000000000000000000000000000000000000000000841603610b5b5760006001850190506000600860008381526020019081526020016000205403610b59576004548114610b58578360086000838152602001908152602001600020819055505b5b505b600073ffffffffffffffffffffffffffffffffffffffff8673ffffffffffffffffffffffffffffffffffffffff161690508481887fddf252ad1be2c89b69c2b068fc378daa952ba7f163c4a11628f55a4df523b3ef600080a460008103610bcd57610bcc63ea553b3460e01b611c12565b5b610bda8787876001611f08565b50505050505050565b6000806000600360008681526020019081526020016000206040518060400160405290816000820160009054906101000a900473ffffffffffffffffffffffffffffffffffffffff1673ffffffffffffffffffffffffffffffffffffffff1673ffffffffffffffffffffffffffffffffffffffff1681526020016000820160149054906101000a90046bffffffffffffffffffffffff166bffffffffffffffffffffffff166bffffffffffffffffffffffff16815250509050600073ffffffffffffffffffffffffffffffffffffffff16816000015173ffffffffffffffffffffffffffffffffffffffff1603610d785760026040518060400160405290816000820160009054906101000a900473ffffffffffffffffffffffffffffffffffffffff1673ffffffffffffffffffffffffffffffffffffffff1673ffffffffffffffffffffffffffffffffffffffff1681526020016000820160149054906101000a90046bffffffffffffffffffffffff166bffffffffffffffffffffffff166bffffffffffffffffffffffff168152505090505b6000610d82611f0e565b6bffffffffffffffffffffffff1682602001516bffffffffffffffffffffffff1686610dae91906133ce565b610db8919061343f565b90508160000151819350935050509250929050565b610dd5611f18565b42600c6000600e548152602001908152602001600020600401819055506001600c6000600e54815260200190815260200160002060060160006101000a81548160ff021916908315150217905550565b610e408383836040518060200160405280600081525061179f565b505050565b610e4d611f18565b80600f9081610e5c919061361c565b507f5411e8ebf1636d9e83d5fc4900bf80cbac82e8790da2a4c94db4895e889eedf681604051610e8c9190612a0a565b60405180910390a150565b610e9f611f18565b80600c6000600e5481526020019081526020016000206005018190555050565b600c6020528060005260406000206000915090508060000154908060010154908060020154908060030154908060040154908060050154908060060160009054906101000a900460ff16908060060160019054906101000a900460ff16908060070154905089565b610f2f611f18565b80600c6000600e5481526020019081526020016000206007018190555050565b6000610f5a82611d50565b9050919050565b60008073ffffffffffffffffffffffffffffffffffffffff168273ffffffffffffffffffffffffffffffffffffffff1603610fa757610fa6638f4eb60460e01b611c12565b5b67ffffffffffffffff600960008473ffffffffffffffffffffffffffffffffffffffff1673ffffffffffffffffffffffffffffffffffffffff16815260200190815260200160002054169050919050565b611000611f18565b61100a6000611f96565b565b600c6000600e54815260200190815260200160002060060160009054906101000a900460ff16611071576040517f08c379a000000000000000000000000000000000000000000000000000000000815260040161106890613760565b60405180910390fd5b6002600154036110b6576040517f08c379a00000000000000000000000000000000000000000000000000000000081526004016110ad906137cc565b60405180910390fd5b6002600181905550600c6000600e54815260200190815260200160002060060160019054906101000a900460ff1615611133576110f3828261205a565b611132576040517f08c379a00000000000000000000000000000000000000000000000000000000081526004016111299061385e565b60405180910390fd5b5b42600c6000600e54815260200190815260200160002060050154600c6000600e54815260200190815260200160002060040154611170919061387e565b11156111e957600c6000600e54815260200190815260200160002060020154600c6000600e54815260200190815260200160002060010154106111e8576040517f08c379a00000000000000000000000000000000000000000000000000000000081526004016111df906138fe565b60405180910390fd5b5b600c6000600e54815260200190815260200160002060030154600c6000600e548152602001908152602001600020600101541061125b576040517f08c379a00000000000000000000000000000000000000000000000000000000081526004016112529061396a565b60405180910390fd5b600c6000600e54815260200190815260200160002060080160003373ffffffffffffffffffffffffffffffffffffffff1673ffffffffffffffffffffffffffffffffffffffff16815260200190815260200160002060009054906101000a900460ff16156112fe576040517f08c379a00000000000000000000000000000000000000000000000000000000081526004016112f5906139fc565b60405180910390fd5b6001600c6000600e54815260200190815260200160002060080160003373ffffffffffffffffffffffffffffffffffffffff1673ffffffffffffffffffffffffffffffffffffffff16815260200190815260200160002060006101000a81548160ff021916908315150217905550600c6000600e548152602001908152602001600020600101600081548092919061139590613a1c565b91905055506113a53360016120f9565b7f1a75c98f3caa5c596c30e5e4c83e0802685273950677d98a322c514a03b05b573360016040516113d7929190613a9f565b60405180910390a1600180819055505050565b6113f2611f18565b6113fa612117565b6114048282612164565b5050565b60008060009054906101000a900473ffffffffffffffffffffffffffffffffffffffff16905090565b6000600c600084815260200190815260200160002060080160008373ffffffffffffffffffffffffffffffffffffffff1673ffffffffffffffffffffffffffffffffffffffff16815260200190815260200160002060009054906101000a900460ff16905092915050565b6060600780546114ab9061336e565b80601f01602080910402602001604051908101604052809291908181526020018280546114d79061336e565b80156115245780601f106114f957610100808354040283529160200191611524565b820191906000526020600020905b81548152906001019060200180831161150757829003601f168201915b5050505050905090565b80600b600061153b611e63565b73ffffffffffffffffffffffffffffffffffffffff1673ffffffffffffffffffffffffffffffffffffffff16815260200190815260200160002060008473ffffffffffffffffffffffffffffffffffffffff1673ffffffffffffffffffffffffffffffffffffffff16815260200190815260200160002060006101000a81548160ff0219169083151502179055508173ffffffffffffffffffffffffffffffffffffffff166115e8611e63565b73ffffffffffffffffffffffffffffffffffffffff167f17307eab39ab6107e8899845ad3d59bd9653f200f220920489ca2b5937696c318360405161162d919061295f565b60405180910390a35050565b611641611f18565b600e600081548092919061165490613a1c565b9190505550600e54600c6000600e5481526020019081526020016000206000018190555084600c6000600e5481526020019081526020016000206002018190555083600c6000600e5481526020019081526020016000206003018190555082600c6000600e5481526020019081526020016000206005018190555081600c6000600e54815260200190815260200160002060060160016101000a81548160ff02191690831515021790555080600c6000600e5481526020019081526020016000206007018190555083600d600082825461172e919061387e565b925050819055505050505050565b611744611f18565b80600c6000600e54815260200190815260200160002060060160016101000a81548160ff02191690831515021790555050565b61177f611f18565b80600c6000600e5481526020019081526020016000206003018190555050565b6117aa848484610922565b60008373ffffffffffffffffffffffffffffffffffffffff163b146117eb576117d5848484846122f9565b6117ea576117e963d1a57ed660e01b611c12565b5b5b50505050565b6000806000806000806000600c600089815260200190815260200160002060010154600c60008a815260200190815260200160002060020154600c60008b815260200190815260200160002060030154600c60008c815260200190815260200160002060050154600c60008d815260200190815260200160002060060160009054906101000a900460ff16600c60008e815260200190815260200160002060060160019054906101000a900460ff16600c60008f8152602001908152602001600020600701549650965096509650965096509650919395979092949650565b606060006118dd83612428565b9050806040516020016118f09190613b50565b604051602081830303815290604052915050919050565b61190f611f18565b80600c6000600e5481526020019081526020016000206002018190555050565b611937611f18565b6000600c6000600e54815260200190815260200160002060060160006101000a81548160ff021916908315150217905550565b600d5481565b6000600b60008473ffffffffffffffffffffffffffffffffffffffff1673ffffffffffffffffffffffffffffffffffffffff16815260200190815260200160002060008373ffffffffffffffffffffffffffffffffffffffff1673ffffffffffffffffffffffffffffffffffffffff16815260200190815260200160002060009054906101000a900460ff16905092915050565b600e5481565b611a12611f18565b600073ffffffffffffffffffffffffffffffffffffffff168173ffffffffffffffffffffffffffffffffffffffff1603611a81576040517f08c379a0000000000000000000000000000000000000000000000000000000008152600401611a7890613be4565b60405180910390fd5b611a8a81611f96565b50565b60006301ffc9a760e01b827bffffffffffffffffffffffffffffffffffffffffffffffffffffffff19161480611ae857506380ac58cd60e01b827bffffffffffffffffffffffffffffffffffffffffffffffffffffffff1916145b80611b185750635b5e139f60e01b827bffffffffffffffffffffffffffffffffffffffffffffffffffffffff1916145b9050919050565b60007f2a55205a000000000000000000000000000000000000000000000000000000007bffffffffffffffffffffffffffffffffffffffffffffffffffffffff1916827bffffffffffffffffffffffffffffffffffffffffffffffffffffffff19161480611b925750611b91826124a5565b5b9050919050565b600081611ba4611d4b565b11611c0d57600454821015611c0c5760005b6000600860008581526020019081526020016000205491508103611be55782611bde90613c04565b9250611bb6565b60007c01000000000000000000000000000000000000000000000000000000008216149150505b5b919050565b8060005260046000fd5b6000611c2783610f4f565b9050818015611c6957508073ffffffffffffffffffffffffffffffffffffffff16611c50611e63565b73ffffffffffffffffffffffffffffffffffffffff1614155b15611c9557611c7f81611c7a611e63565b611970565b611c9457611c9363cfb3b94260e01b611c12565b5b5b83600a600085815260200190815260200160002060000160006101000a81548173ffffffffffffffffffffffffffffffffffffffff021916908373ffffffffffffffffffffffffffffffffffffffff160217905550828473ffffffffffffffffffffffffffffffffffffffff168273ffffffffffffffffffffffffffffffffffffffff167f8c5be1e5ebec7d5bd14f71427d1e84f3dd0314c0f7b2291e5b200ac8c7c3b92560405160405180910390a450505050565b600090565b600081611d5b611d4b565b11611e26576008600083815260200190815260200160002054905060008103611dfd576004548210611d9857611d9763df2d9b4260e01b611c12565b5b5b60086000836001900393508381526020019081526020016000205490506000810315611df85760007c010000000000000000000000000000000000000000000000000000000082160315611e3757611df763df2d9b4260e01b611c12565b5b611d99565b60007c010000000000000000000000000000000000000000000000000000000082160315611e37575b611e3663df2d9b4260e01b611c12565b5b919050565b6000806000600a600085815260200190815260200160002090508092508254915050915091565b600033905090565b600073ffffffffffffffffffffffffffffffffffffffff8316925073ffffffffffffffffffffffffffffffffffffffff821691508382148383141790509392505050565b50505050565b60008060e883901c905060e8611ecc86868461250f565b62ffffff16901b9150509392505050565b600073ffffffffffffffffffffffffffffffffffffffff83169250814260a01b178317905092915050565b50505050565b6000612710905090565b611f20612518565b73ffffffffffffffffffffffffffffffffffffffff16611f3e611408565b73ffffffffffffffffffffffffffffffffffffffff1614611f94576040517f08c379a0000000000000000000000000000000000000000000000000000000008152600401611f8b90613c79565b60405180910390fd5b565b60008060009054906101000a900473ffffffffffffffffffffffffffffffffffffffff169050816000806101000a81548173ffffffffffffffffffffffffffffffffffffffff021916908373ffffffffffffffffffffffffffffffffffffffff1602179055508173ffffffffffffffffffffffffffffffffffffffff168173ffffffffffffffffffffffffffffffffffffffff167f8be0079c531659141344cd1fd0a4f28419497f9722a3daafe3b4186f6b6457e060405160405180910390a35050565b6000803360405160200161206e9190612ad0565b60405160208183030381529060405280519060200120905060006120ec858580806020026020016040519081016040528093929190818152602001838360200280828437600081840152601f19601f82011690508083019250505050505050600c6000600e5481526020019081526020016000206007015484612520565b9050809250505092915050565b612113828260405180602001604052806000815250612537565b5050565b6002600080820160006101000a81549073ffffffffffffffffffffffffffffffffffffffff02191690556000820160146101000a8154906bffffffffffffffffffffffff02191690555050565b61216c611f0e565b6bffffffffffffffffffffffff16816bffffffffffffffffffffffff1611156121ca576040517f08c379a00000000000000000000000000000000000000000000000000000000081526004016121c190613d0b565b60405180910390fd5b600073ffffffffffffffffffffffffffffffffffffffff168273ffffffffffffffffffffffffffffffffffffffff1603612239576040517f08c379a000000000000000000000000000000000000000000000000000000000815260040161223090613d77565b60405180910390fd5b60405180604001604052808373ffffffffffffffffffffffffffffffffffffffff168152602001826bffffffffffffffffffffffff16815250600260008201518160000160006101000a81548173ffffffffffffffffffffffffffffffffffffffff021916908373ffffffffffffffffffffffffffffffffffffffff16021790555060208201518160000160146101000a8154816bffffffffffffffffffffffff02191690836bffffffffffffffffffffffff1602179055509050505050565b60008373ffffffffffffffffffffffffffffffffffffffff1663150b7a0261231f611e63565b8786866040518563ffffffff1660e01b81526004016123419493929190613dec565b6020604051808303816000875af192505050801561237d57506040513d601f19601f8201168201806040525081019061237a9190613e4d565b60015b6123d5573d80600081146123ad576040519150601f19603f3d011682016040523d82523d6000602084013e6123b2565b606091505b5060008151036123cd576123cc63d1a57ed660e01b611c12565b5b805181602001fd5b63150b7a0260e01b7bffffffffffffffffffffffffffffffffffffffffffffffffffffffff1916817bffffffffffffffffffffffffffffffffffffffffffffffffffffffff191614915050949350505050565b606061243382611b99565b6124485761244763a14c4b5060e01b611c12565b5b60006124526125bd565b90506000815103612472576040518060200160405280600081525061249d565b8061247c8461264f565b60405160200161248d929190613e7a565b6040516020818303038152906040525b915050919050565b60007f01ffc9a7000000000000000000000000000000000000000000000000000000007bffffffffffffffffffffffffffffffffffffffffffffffffffffffff1916827bffffffffffffffffffffffffffffffffffffffffffffffffffffffff1916149050919050565b60009392505050565b600033905090565b60008261252d858461269f565b1490509392505050565b61254183836126f5565b60008373ffffffffffffffffffffffffffffffffffffffff163b146125b85760006004549050600083820390505b61258260008683806001019450866122f9565b6125975761259663d1a57ed660e01b611c12565b5b81811061256f5781600454146125b5576125b4600060e01b611c12565b5b50505b505050565b6060600f80546125cc9061336e565b80601f01602080910402602001604051908101604052809291908181526020018280546125f89061336e565b80156126455780601f1061261a57610100808354040283529160200191612645565b820191906000526020600020905b81548152906001019060200180831161262857829003601f168201915b5050505050905090565b606060a060405101806040526020810391506000825281835b60011561268a57600184039350600a81066030018453600a8104905080612668575b50828103602084039350808452505050919050565b60008082905060005b84518110156126ea576126d5828683815181106126c8576126c7613e9e565b5b6020026020010151612859565b915080806126e290613a1c565b9150506126a8565b508091505092915050565b60006004549050600082036127155761271463b562e8dd60e01b611c12565b5b6127226000848385611eaf565b612742836127336000866000611eb5565b61273c85612884565b17611edd565b6008600083815260200190815260200160002081905550600160406001901b178202600960008573ffffffffffffffffffffffffffffffffffffffff1673ffffffffffffffffffffffffffffffffffffffff16815260200190815260200160002060008282540192505081905550600073ffffffffffffffffffffffffffffffffffffffff8473ffffffffffffffffffffffffffffffffffffffff16169050600081036127fa576127f9632e07630060e01b611c12565b5b6000838301905060008390505b808360007fddf252ad1be2c89b69c2b068fc378daa952ba7f163c4a11628f55a4df523b3ef600080a481816001019150810361280757816004819055505050506128546000848385611f08565b505050565b60008183106128715761286c8284612894565b61287c565b61287b8383612894565b5b905092915050565b60006001821460e11b9050919050565b600082600052816020526040600020905092915050565b6000604051905090565b600080fd5b600080fd5b60007fffffffff0000000000000000000000000000000000000000000000000000000082169050919050565b6128f4816128bf565b81146128ff57600080fd5b50565b600081359050612911816128eb565b92915050565b60006020828403121561292d5761292c6128b5565b5b600061293b84828501612902565b91505092915050565b60008115159050919050565b61295981612944565b82525050565b60006020820190506129746000830184612950565b92915050565b600081519050919050565b600082825260208201905092915050565b60005b838110156129b4578082015181840152602081019050612999565b60008484015250505050565b6000601f19601f8301169050919050565b60006129dc8261297a565b6129e68185612985565b93506129f6818560208601612996565b6129ff816129c0565b840191505092915050565b60006020820190508181036000830152612a2481846129d1565b905092915050565b6000819050919050565b612a3f81612a2c565b8114612a4a57600080fd5b50565b600081359050612a5c81612a36565b92915050565b600060208284031215612a7857612a776128b5565b5b6000612a8684828501612a4d565b91505092915050565b600073ffffffffffffffffffffffffffffffffffffffff82169050919050565b6000612aba82612a8f565b9050919050565b612aca81612aaf565b82525050565b6000602082019050612ae56000830184612ac1565b92915050565b612af481612aaf565b8114612aff57600080fd5b50565b600081359050612b1181612aeb565b92915050565b60008060408385031215612b2e57612b2d6128b5565b5b6000612b3c85828601612b02565b9250506020612b4d85828601612a4d565b9150509250929050565b612b6081612a2c565b82525050565b6000602082019050612b7b6000830184612b57565b92915050565b600080600060608486031215612b9a57612b996128b5565b5b6000612ba886828701612b02565b9350506020612bb986828701612b02565b9250506040612bca86828701612a4d565b9150509250925092565b60008060408385031215612beb57612bea6128b5565b5b6000612bf985828601612a4d565b9250506020612c0a85828601612a4d565b9150509250929050565b6000604082019050612c296000830185612ac1565b612c366020830184612b57565b9392505050565b600080fd5b600080fd5b7f4e487b7100000000000000000000000000000000000000000000000000000000600052604160045260246000fd5b612c7f826129c0565b810181811067ffffffffffffffff82111715612c9e57612c9d612c47565b5b80604052505050565b6000612cb16128ab565b9050612cbd8282612c76565b919050565b600067ffffffffffffffff821115612cdd57612cdc612c47565b5b612ce6826129c0565b9050602081019050919050565b82818337600083830152505050565b6000612d15612d1084612cc2565b612ca7565b905082815260208101848484011115612d3157612d30612c42565b5b612d3c848285612cf3565b509392505050565b600082601f830112612d5957612d58612c3d565b5b8135612d69848260208601612d02565b91505092915050565b600060208284031215612d8857612d876128b5565b5b600082013567ffffffffffffffff811115612da657612da56128ba565b5b612db284828501612d44565b91505092915050565b6000819050919050565b612dce81612dbb565b82525050565b600061012082019050612dea600083018c612b57565b612df7602083018b612b57565b612e04604083018a612b57565b612e116060830189612b57565b612e1e6080830188612b57565b612e2b60a0830187612b57565b612e3860c0830186612950565b612e4560e0830185612950565b612e53610100830184612dc5565b9a9950505050505050505050565b612e6a81612dbb565b8114612e7557600080fd5b50565b600081359050612e8781612e61565b92915050565b600060208284031215612ea357612ea26128b5565b5b6000612eb184828501612e78565b91505092915050565b600060208284031215612ed057612ecf6128b5565b5b6000612ede84828501612b02565b91505092915050565b600080fd5b600080fd5b60008083601f840112612f0757612f06612c3d565b5b8235905067ffffffffffffffff811115612f2457612f23612ee7565b5b602083019150836020820283011115612f4057612f3f612eec565b5b9250929050565b60008060208385031215612f5e57612f5d6128b5565b5b600083013567ffffffffffffffff811115612f7c57612f7b6128ba565b5b612f8885828601612ef1565b92509250509250929050565b60006bffffffffffffffffffffffff82169050919050565b612fb581612f94565b8114612fc057600080fd5b50565b600081359050612fd281612fac565b92915050565b60008060408385031215612fef57612fee6128b5565b5b6000612ffd85828601612b02565b925050602061300e85828601612fc3565b9150509250929050565b6000806040838503121561302f5761302e6128b5565b5b600061303d85828601612a4d565b925050602061304e85828601612b02565b9150509250929050565b61306181612944565b811461306c57600080fd5b50565b60008135905061307e81613058565b92915050565b6000806040838503121561309b5761309a6128b5565b5b60006130a985828601612b02565b92505060206130ba8582860161306f565b9150509250929050565b600080600080600060a086880312156130e0576130df6128b5565b5b60006130ee88828901612a4d565b95505060206130ff88828901612a4d565b945050604061311088828901612a4d565b93505060606131218882890161306f565b925050608061313288828901612e78565b9150509295509295909350565b600060208284031215613155576131546128b5565b5b60006131638482850161306f565b91505092915050565b600067ffffffffffffffff82111561318757613186612c47565b5b613190826129c0565b9050602081019050919050565b60006131b06131ab8461316c565b612ca7565b9050828152602081018484840111156131cc576131cb612c42565b5b6131d7848285612cf3565b509392505050565b600082601f8301126131f4576131f3612c3d565b5b813561320484826020860161319d565b91505092915050565b60008060008060808587031215613227576132266128b5565b5b600061323587828801612b02565b945050602061324687828801612b02565b935050604061325787828801612a4d565b925050606085013567ffffffffffffffff811115613278576132776128ba565b5b613284878288016131df565b91505092959194509250565b600060e0820190506132a5600083018a612b57565b6132b26020830189612b57565b6132bf6040830188612b57565b6132cc6060830187612b57565b6132d96080830186612950565b6132e660a0830185612950565b6132f360c0830184612dc5565b98975050505050505050565b60008060408385031215613316576133156128b5565b5b600061332485828601612b02565b925050602061333585828601612b02565b9150509250929050565b7f4e487b7100000000000000000000000000000000000000000000000000000000600052602260045260246000fd5b6000600282049050600182168061338657607f821691505b6020821081036133995761339861333f565b5b50919050565b7f4e487b7100000000000000000000000000000000000000000000000000000000600052601160045260246000fd5b60006133d982612a2c565b91506133e483612a2c565b92508282026133f281612a2c565b915082820484148315176134095761340861339f565b5b5092915050565b7f4e487b7100000000000000000000000000000000000000000000000000000000600052601260045260246000fd5b600061344a82612a2c565b915061345583612a2c565b92508261346557613464613410565b5b828204905092915050565b60008190508160005260206000209050919050565b60006020601f8301049050919050565b600082821b905092915050565b6000600883026134d27fffffffffffffffffffffffffffffffffffffffffffffffffffffffffffffffff82613495565b6134dc8683613495565b95508019841693508086168417925050509392505050565b6000819050919050565b600061351961351461350f84612a2c565b6134f4565b612a2c565b9050919050565b6000819050919050565b613533836134fe565b61354761353f82613520565b8484546134a2565b825550505050565b600090565b61355c61354f565b61356781848461352a565b505050565b5b8181101561358b57613580600082613554565b60018101905061356d565b5050565b601f8211156135d0576135a181613470565b6135aa84613485565b810160208510156135b9578190505b6135cd6135c585613485565b83018261356c565b50505b505050565b600082821c905092915050565b60006135f3600019846008026135d5565b1980831691505092915050565b600061360c83836135e2565b9150826002028217905092915050565b6136258261297a565b67ffffffffffffffff81111561363e5761363d612c47565b5b613648825461336e565b61365382828561358f565b600060209050601f8311600181146136865760008415613674578287015190505b61367e8582613600565b8655506136e6565b601f19841661369486613470565b60005b828110156136bc57848901518255600182019150602085019450602081019050613697565b868310156136d957848901516136d5601f8916826135e2565b8355505b6001600288020188555050505b505050505050565b7f4d696e74696e67206576656e7420686173206e6f74207374617274656420796560008201527f7400000000000000000000000000000000000000000000000000000000000000602082015250565b600061374a602183612985565b9150613755826136ee565b604082019050919050565b600060208201905081810360008301526137798161373d565b9050919050565b7f5265656e7472616e637947756172643a207265656e7472616e742063616c6c00600082015250565b60006137b6601f83612985565b91506137c182613780565b602082019050919050565b600060208201905081810360008301526137e5816137a9565b9050919050565b7f596f75722061646472657373206973206e6f7420696e2074686520776869746560008201527f6c69737400000000000000000000000000000000000000000000000000000000602082015250565b6000613848602483612985565b9150613853826137ec565b604082019050919050565b600060208201905081810360008301526138778161383b565b9050919050565b600061388982612a2c565b915061389483612a2c565b92508282019050808211156138ac576138ab61339f565b5b92915050565b7f4578636565646564206d6178207072656d696e74204e46547320616d6f756e74600082015250565b60006138e8602083612985565b91506138f3826138b2565b602082019050919050565b60006020820190508181036000830152613917816138db565b9050919050565b7f4578636565646564206d6178204e46547320616d6f756e740000000000000000600082015250565b6000613954601883612985565b915061395f8261391e565b602082019050919050565b6000602082019050818103600083015261398381613947565b9050919050565b7f4d696e74696e6720776f756c64206578636565642077616c6c6574206c696d6960008201527f7400000000000000000000000000000000000000000000000000000000000000602082015250565b60006139e6602183612985565b91506139f18261398a565b604082019050919050565b60006020820190508181036000830152613a15816139d9565b9050919050565b6000613a2782612a2c565b91507fffffffffffffffffffffffffffffffffffffffffffffffffffffffffffffffff8203613a5957613a5861339f565b5b600182019050919050565b6000819050919050565b6000613a89613a84613a7f84613a64565b6134f4565b612a2c565b9050919050565b613a9981613a6e565b82525050565b6000604082019050613ab46000830185612ac1565b613ac16020830184613a90565b9392505050565b600081905092915050565b6000613ade8261297a565b613ae88185613ac8565b9350613af8818560208601612996565b80840191505092915050565b7f2e6a736f6e000000000000000000000000000000000000000000000000000000600082015250565b6000613b3a600583613ac8565b9150613b4582613b04565b600582019050919050565b6000613b5c8284613ad3565b9150613b6782613b2d565b915081905092915050565b7f4f776e61626c653a206e6577206f776e657220697320746865207a65726f206160008201527f6464726573730000000000000000000000000000000000000000000000000000602082015250565b6000613bce602683612985565b9150613bd982613b72565b604082019050919050565b60006020820190508181036000830152613bfd81613bc1565b9050919050565b6000613c0f82612a2c565b915060008203613c2257613c2161339f565b5b600182039050919050565b7f4f776e61626c653a2063616c6c6572206973206e6f7420746865206f776e6572600082015250565b6000613c63602083612985565b9150613c6e82613c2d565b602082019050919050565b60006020820190508181036000830152613c9281613c56565b9050919050565b7f455243323938313a20726f79616c7479206665652077696c6c2065786365656460008201527f2073616c65507269636500000000000000000000000000000000000000000000602082015250565b6000613cf5602a83612985565b9150613d0082613c99565b604082019050919050565b60006020820190508181036000830152613d2481613ce8565b9050919050565b7f455243323938313a20696e76616c696420726563656976657200000000000000600082015250565b6000613d61601983612985565b9150613d6c82613d2b565b602082019050919050565b60006020820190508181036000830152613d9081613d54565b9050919050565b600081519050919050565b600082825260208201905092915050565b6000613dbe82613d97565b613dc88185613da2565b9350613dd8818560208601612996565b613de1816129c0565b840191505092915050565b6000608082019050613e016000830187612ac1565b613e0e6020830186612ac1565b613e1b6040830185612b57565b8181036060830152613e2d8184613db3565b905095945050505050565b600081519050613e47816128eb565b92915050565b600060208284031215613e6357613e626128b5565b5b6000613e7184828501613e38565b91505092915050565b6000613e868285613ad3565b9150613e928284613ad3565b91508190509392505050565b7f4e487b7100000000000000000000000000000000000000000000000000000000600052603260045260246000fdfea26469706673582212200995550ee265af9f62123b8239b553b309f1c931e3089da970f65caf606fa33e64736f6c63430008130033","opcodes":"PUSH1 0x80 PUSH1 0x40 MSTORE CALLVALUE DUP1 ISZERO PUSH3 0x11 JUMPI PUSH1 0x0 DUP1 REVERT JUMPDEST POP PUSH1 0x40 MLOAD PUSH3 0x4A74 CODESIZE SUB DUP1 PUSH3 0x4A74 DUP4 CODECOPY DUP2 DUP2 ADD PUSH1 0x40 MSTORE DUP2 ADD SWAP1 PUSH3 0x37 SWAP2 SWAP1 PUSH3 0x62F JUMP JUMPDEST DUP4 DUP4 PUSH3 0x59 PUSH3 0x4D PUSH3 0x19A PUSH1 0x20 SHL PUSH1 0x20 SHR JUMP JUMPDEST PUSH3 0x1A2 PUSH1 0x20 SHL PUSH1 0x20 SHR JUMP JUMPDEST PUSH1 0x1 DUP1 DUP2 SWAP1 SSTORE POP DUP2 PUSH1 0x6 SWAP1 DUP2 PUSH3 0x71 SWAP2 SWAP1 PUSH3 0x95F JUMP JUMPDEST POP DUP1 PUSH1 0x7 SWAP1 DUP2 PUSH3 0x83 SWAP2 SWAP1 PUSH3 0x95F JUMP JUMPDEST POP PUSH3 0x94 PUSH3 0x266 PUSH1 0x20 SHL PUSH1 0x20 SHR JUMP JUMPDEST PUSH1 0x4 DUP2 SWAP1 SSTORE POP POP POP DUP5 PUSH1 0xF SWAP1 DUP2 PUSH3 0xAD SWAP2 SWAP1 PUSH3 0x95F JUMP JUMPDEST POP PUSH1 0x1 PUSH1 0xE DUP2 SWAP1 SSTORE POP PUSH1 0x5 PUSH1 0xC PUSH1 0x0 PUSH1 0xE SLOAD DUP2 MSTORE PUSH1 0x20 ADD SWAP1 DUP2 MSTORE PUSH1 0x20 ADD PUSH1 0x0 KECCAK256 PUSH1 0x2 ADD DUP2 SWAP1 SSTORE POP PUSH1 0x5 PUSH1 0xC PUSH1 0x0 PUSH1 0xE SLOAD DUP2 MSTORE PUSH1 0x20 ADD SWAP1 DUP2 MSTORE PUSH1 0x20 ADD PUSH1 0x0 KECCAK256 PUSH1 0x3 ADD DUP2 SWAP1 SSTORE POP PUSH1 0x64 PUSH1 0xC PUSH1 0x0 PUSH1 0xE SLOAD DUP2 MSTORE PUSH1 0x20 ADD SWAP1 DUP2 MSTORE PUSH1 0x20 ADD PUSH1 0x0 KECCAK256 PUSH1 0x5 ADD DUP2 SWAP1 SSTORE POP PUSH1 0x1 PUSH1 0xC PUSH1 0x0 PUSH1 0xE SLOAD DUP2 MSTORE PUSH1 0x20 ADD SWAP1 DUP2 MSTORE PUSH1 0x20 ADD PUSH1 0x0 KECCAK256 PUSH1 0x6 ADD PUSH1 0x1 PUSH2 0x100 EXP DUP2 SLOAD DUP2 PUSH1 0xFF MUL NOT AND SWAP1 DUP4 ISZERO ISZERO MUL OR SWAP1 SSTORE POP DUP1 PUSH1 0xC PUSH1 0x0 PUSH1 0xE SLOAD DUP2 MSTORE PUSH1 0x20 ADD SWAP1 DUP2 MSTORE PUSH1 0x20 ADD PUSH1 0x0 KECCAK256 PUSH1 0x7 ADD DUP2 SWAP1 SSTORE POP PUSH1 0xC PUSH1 0x0 PUSH1 0xE SLOAD DUP2 MSTORE PUSH1 0x20 ADD SWAP1 DUP2 MSTORE PUSH1 0x20 ADD PUSH1 0x0 KECCAK256 PUSH1 0x3 ADD SLOAD PUSH1 0xD DUP2 SWAP1 SSTORE POP PUSH3 0x18F CALLER DUP4 PUSH3 0x26B PUSH1 0x20 SHL PUSH1 0x20 SHR JUMP JUMPDEST POP POP POP POP POP PUSH3 0xB61 JUMP JUMPDEST PUSH1 0x0 CALLER SWAP1 POP SWAP1 JUMP JUMPDEST PUSH1 0x0 DUP1 PUSH1 0x0 SWAP1 SLOAD SWAP1 PUSH2 0x100 EXP SWAP1 DIV PUSH20 0xFFFFFFFFFFFFFFFFFFFFFFFFFFFFFFFFFFFFFFFF AND SWAP1 POP DUP2 PUSH1 0x0 DUP1 PUSH2 0x100 EXP DUP2 SLOAD DUP2 PUSH20 0xFFFFFFFFFFFFFFFFFFFFFFFFFFFFFFFFFFFFFFFF MUL NOT AND SWAP1 DUP4 PUSH20 0xFFFFFFFFFFFFFFFFFFFFFFFFFFFFFFFFFFFFFFFF AND MUL OR SWAP1 SSTORE POP DUP2 PUSH20 0xFFFFFFFFFFFFFFFFFFFFFFFFFFFFFFFFFFFFFFFF AND DUP2 PUSH20 0xFFFFFFFFFFFFFFFFFFFFFFFFFFFFFFFFFFFFFFFF AND PUSH32 0x8BE0079C531659141344CD1FD0A4F28419497F9722A3DAAFE3B4186F6B6457E0 PUSH1 0x40 MLOAD PUSH1 0x40 MLOAD DUP1 SWAP2 SUB SWAP1 LOG3 POP POP JUMP JUMPDEST PUSH1 0x0 SWAP1 JUMP JUMPDEST PUSH3 0x27B PUSH3 0x40E PUSH1 0x20 SHL PUSH1 0x20 SHR JUMP JUMPDEST PUSH12 0xFFFFFFFFFFFFFFFFFFFFFFFF AND DUP2 PUSH12 0xFFFFFFFFFFFFFFFFFFFFFFFF AND GT ISZERO PUSH3 0x2DC JUMPI PUSH1 0x40 MLOAD PUSH32 0x8C379A000000000000000000000000000000000000000000000000000000000 DUP2 MSTORE PUSH1 0x4 ADD PUSH3 0x2D3 SWAP1 PUSH3 0xACD JUMP JUMPDEST PUSH1 0x40 MLOAD DUP1 SWAP2 SUB SWAP1 REVERT JUMPDEST PUSH1 0x0 PUSH20 0xFFFFFFFFFFFFFFFFFFFFFFFFFFFFFFFFFFFFFFFF AND DUP3 PUSH20 0xFFFFFFFFFFFFFFFFFFFFFFFFFFFFFFFFFFFFFFFF AND SUB PUSH3 0x34E JUMPI PUSH1 0x40 MLOAD PUSH32 0x8C379A000000000000000000000000000000000000000000000000000000000 DUP2 MSTORE PUSH1 0x4 ADD PUSH3 0x345 SWAP1 PUSH3 0xB3F JUMP JUMPDEST PUSH1 0x40 MLOAD DUP1 SWAP2 SUB SWAP1 REVERT JUMPDEST PUSH1 0x40 MLOAD DUP1 PUSH1 0x40 ADD PUSH1 0x40 MSTORE DUP1 DUP4 PUSH20 0xFFFFFFFFFFFFFFFFFFFFFFFFFFFFFFFFFFFFFFFF AND DUP2 MSTORE PUSH1 0x20 ADD DUP3 PUSH12 0xFFFFFFFFFFFFFFFFFFFFFFFF AND DUP2 MSTORE POP PUSH1 0x2 PUSH1 0x0 DUP3 ADD MLOAD DUP2 PUSH1 0x0 ADD PUSH1 0x0 PUSH2 0x100 EXP DUP2 SLOAD DUP2 PUSH20 0xFFFFFFFFFFFFFFFFFFFFFFFFFFFFFFFFFFFFFFFF MUL NOT AND SWAP1 DUP4 PUSH20 0xFFFFFFFFFFFFFFFFFFFFFFFFFFFFFFFFFFFFFFFF AND MUL OR SWAP1 SSTORE POP PUSH1 0x20 DUP3 ADD MLOAD DUP2 PUSH1 0x0 ADD PUSH1 0x14 PUSH2 0x100 EXP DUP2 SLOAD DUP2 PUSH12 0xFFFFFFFFFFFFFFFFFFFFFFFF MUL NOT AND SWAP1 DUP4 PUSH12 0xFFFFFFFFFFFFFFFFFFFFFFFF AND MUL OR SWAP1 SSTORE POP SWAP1 POP POP POP POP JUMP JUMPDEST PUSH1 0x0 PUSH2 0x2710 SWAP1 POP SWAP1 JUMP JUMPDEST PUSH1 0x0 PUSH1 0x40 MLOAD SWAP1 POP SWAP1 JUMP JUMPDEST PUSH1 0x0 DUP1 REVERT JUMPDEST PUSH1 0x0 DUP1 REVERT JUMPDEST PUSH1 0x0 DUP1 REVERT JUMPDEST PUSH1 0x0 DUP1 REVERT JUMPDEST PUSH1 0x0 PUSH1 0x1F NOT PUSH1 0x1F DUP4 ADD AND SWAP1 POP SWAP2 SWAP1 POP JUMP JUMPDEST PUSH32 0x4E487B7100000000000000000000000000000000000000000000000000000000 PUSH1 0x0 MSTORE PUSH1 0x41 PUSH1 0x4 MSTORE PUSH1 0x24 PUSH1 0x0 REVERT JUMPDEST PUSH3 0x481 DUP3 PUSH3 0x436 JUMP JUMPDEST DUP2 ADD DUP2 DUP2 LT PUSH8 0xFFFFFFFFFFFFFFFF DUP3 GT OR ISZERO PUSH3 0x4A3 JUMPI PUSH3 0x4A2 PUSH3 0x447 JUMP JUMPDEST JUMPDEST DUP1 PUSH1 0x40 MSTORE POP POP POP JUMP JUMPDEST PUSH1 0x0 PUSH3 0x4B8 PUSH3 0x418 JUMP JUMPDEST SWAP1 POP PUSH3 0x4C6 DUP3 DUP3 PUSH3 0x476 JUMP JUMPDEST SWAP2 SWAP1 POP JUMP JUMPDEST PUSH1 0x0 PUSH8 0xFFFFFFFFFFFFFFFF DUP3 GT ISZERO PUSH3 0x4E9 JUMPI PUSH3 0x4E8 PUSH3 0x447 JUMP JUMPDEST JUMPDEST PUSH3 0x4F4 DUP3 PUSH3 0x436 JUMP JUMPDEST SWAP1 POP PUSH1 0x20 DUP2 ADD SWAP1 POP SWAP2 SWAP1 POP JUMP JUMPDEST PUSH1 0x0 JUMPDEST DUP4 DUP2 LT ISZERO PUSH3 0x521 JUMPI DUP1 DUP3 ADD MLOAD DUP2 DUP5 ADD MSTORE PUSH1 0x20 DUP2 ADD SWAP1 POP PUSH3 0x504 JUMP JUMPDEST PUSH1 0x0 DUP5 DUP5 ADD MSTORE POP POP POP POP JUMP JUMPDEST PUSH1 0x0 PUSH3 0x544 PUSH3 0x53E DUP5 PUSH3 0x4CB JUMP JUMPDEST PUSH3 0x4AC JUMP JUMPDEST SWAP1 POP DUP3 DUP2 MSTORE PUSH1 0x20 DUP2 ADD DUP5 DUP5 DUP5 ADD GT ISZERO PUSH3 0x563 JUMPI PUSH3 0x562 PUSH3 0x431 JUMP JUMPDEST JUMPDEST PUSH3 0x570 DUP5 DUP3 DUP6 PUSH3 0x501 JUMP JUMPDEST POP SWAP4 SWAP3 POP POP POP JUMP JUMPDEST PUSH1 0x0 DUP3 PUSH1 0x1F DUP4 ADD SLT PUSH3 0x590 JUMPI PUSH3 0x58F PUSH3 0x42C JUMP JUMPDEST JUMPDEST DUP2 MLOAD PUSH3 0x5A2 DUP5 DUP3 PUSH1 0x20 DUP7 ADD PUSH3 0x52D JUMP JUMPDEST SWAP2 POP POP SWAP3 SWAP2 POP POP JUMP JUMPDEST PUSH1 0x0 PUSH12 0xFFFFFFFFFFFFFFFFFFFFFFFF DUP3 AND SWAP1 POP SWAP2 SWAP1 POP JUMP JUMPDEST PUSH3 0x5CE DUP2 PUSH3 0x5AB JUMP JUMPDEST DUP2 EQ PUSH3 0x5DA JUMPI PUSH1 0x0 DUP1 REVERT JUMPDEST POP JUMP JUMPDEST PUSH1 0x0 DUP2 MLOAD SWAP1 POP PUSH3 0x5EE DUP2 PUSH3 0x5C3 JUMP JUMPDEST SWAP3 SWAP2 POP POP JUMP JUMPDEST PUSH1 0x0 DUP2 SWAP1 POP SWAP2 SWAP1 POP JUMP JUMPDEST PUSH3 0x609 DUP2 PUSH3 0x5F4 JUMP JUMPDEST DUP2 EQ PUSH3 0x615 JUMPI PUSH1 0x0 DUP1 REVERT JUMPDEST POP JUMP JUMPDEST PUSH1 0x0 DUP2 MLOAD SWAP1 POP PUSH3 0x629 DUP2 PUSH3 0x5FE JUMP JUMPDEST SWAP3 SWAP2 POP POP JUMP JUMPDEST PUSH1 0x0 DUP1 PUSH1 0x0 DUP1 PUSH1 0x0 PUSH1 0xA0 DUP7 DUP9 SUB SLT ISZERO PUSH3 0x64E JUMPI PUSH3 0x64D PUSH3 0x422 JUMP JUMPDEST JUMPDEST PUSH1 0x0 DUP7 ADD MLOAD PUSH8 0xFFFFFFFFFFFFFFFF DUP2 GT ISZERO PUSH3 0x66F JUMPI PUSH3 0x66E PUSH3 0x427 JUMP JUMPDEST JUMPDEST PUSH3 0x67D DUP9 DUP3 DUP10 ADD PUSH3 0x578 JUMP JUMPDEST SWAP6 POP POP PUSH1 0x20 DUP7 ADD MLOAD PUSH8 0xFFFFFFFFFFFFFFFF DUP2 GT ISZERO PUSH3 0x6A1 JUMPI PUSH3 0x6A0 PUSH3 0x427 JUMP JUMPDEST JUMPDEST PUSH3 0x6AF DUP9 DUP3 DUP10 ADD PUSH3 0x578 JUMP JUMPDEST SWAP5 POP POP PUSH1 0x40 DUP7 ADD MLOAD PUSH8 0xFFFFFFFFFFFFFFFF DUP2 GT ISZERO PUSH3 0x6D3 JUMPI PUSH3 0x6D2 PUSH3 0x427 JUMP JUMPDEST JUMPDEST PUSH3 0x6E1 DUP9 DUP3 DUP10 ADD PUSH3 0x578 JUMP JUMPDEST SWAP4 POP POP PUSH1 0x60 PUSH3 0x6F4 DUP9 DUP3 DUP10 ADD PUSH3 0x5DD JUMP JUMPDEST SWAP3 POP POP PUSH1 0x80 PUSH3 0x707 DUP9 DUP3 DUP10 ADD PUSH3 0x618 JUMP JUMPDEST SWAP2 POP POP SWAP3 SWAP6 POP SWAP3 SWAP6 SWAP1 SWAP4 POP JUMP JUMPDEST PUSH1 0x0 DUP2 MLOAD SWAP1 POP SWAP2 SWAP1 POP JUMP JUMPDEST PUSH32 0x4E487B7100000000000000000000000000000000000000000000000000000000 PUSH1 0x0 MSTORE PUSH1 0x22 PUSH1 0x4 MSTORE PUSH1 0x24 PUSH1 0x0 REVERT JUMPDEST PUSH1 0x0 PUSH1 0x2 DUP3 DIV SWAP1 POP PUSH1 0x1 DUP3 AND DUP1 PUSH3 0x767 JUMPI PUSH1 0x7F DUP3 AND SWAP2 POP JUMPDEST PUSH1 0x20 DUP3 LT DUP2 SUB PUSH3 0x77D JUMPI PUSH3 0x77C PUSH3 0x71F JUMP JUMPDEST JUMPDEST POP SWAP2 SWAP1 POP JUMP JUMPDEST PUSH1 0x0 DUP2 SWAP1 POP DUP2 PUSH1 0x0 MSTORE PUSH1 0x20 PUSH1 0x0 KECCAK256 SWAP1 POP SWAP2 SWAP1 POP JUMP JUMPDEST PUSH1 0x0 PUSH1 0x20 PUSH1 0x1F DUP4 ADD DIV SWAP1 POP SWAP2 SWAP1 POP JUMP JUMPDEST PUSH1 0x0 DUP3 DUP3 SHL SWAP1 POP SWAP3 SWAP2 POP POP JUMP JUMPDEST PUSH1 0x0 PUSH1 0x8 DUP4 MUL PUSH3 0x7E7 PUSH32 0xFFFFFFFFFFFFFFFFFFFFFFFFFFFFFFFFFFFFFFFFFFFFFFFFFFFFFFFFFFFFFFFF DUP3 PUSH3 0x7A8 JUMP JUMPDEST PUSH3 0x7F3 DUP7 DUP4 PUSH3 0x7A8 JUMP JUMPDEST SWAP6 POP DUP1 NOT DUP5 AND SWAP4 POP DUP1 DUP7 AND DUP5 OR SWAP3 POP POP POP SWAP4 SWAP3 POP POP POP JUMP JUMPDEST PUSH1 0x0 DUP2 SWAP1 POP SWAP2 SWAP1 POP JUMP JUMPDEST PUSH1 0x0 DUP2 SWAP1 POP SWAP2 SWAP1 POP JUMP JUMPDEST PUSH1 0x0 PUSH3 0x840 PUSH3 0x83A PUSH3 0x834 DUP5 PUSH3 0x80B JUMP JUMPDEST PUSH3 0x815 JUMP JUMPDEST PUSH3 0x80B JUMP JUMPDEST SWAP1 POP SWAP2 SWAP1 POP JUMP JUMPDEST PUSH1 0x0 DUP2 SWAP1 POP SWAP2 SWAP1 POP JUMP JUMPDEST PUSH3 0x85C DUP4 PUSH3 0x81F JUMP JUMPDEST PUSH3 0x874 PUSH3 0x86B DUP3 PUSH3 0x847 JUMP JUMPDEST DUP5 DUP5 SLOAD PUSH3 0x7B5 JUMP JUMPDEST DUP3 SSTORE POP POP POP POP JUMP JUMPDEST PUSH1 0x0 SWAP1 JUMP JUMPDEST PUSH3 0x88B PUSH3 0x87C JUMP JUMPDEST PUSH3 0x898 DUP2 DUP5 DUP5 PUSH3 0x851 JUMP JUMPDEST POP POP POP JUMP JUMPDEST JUMPDEST DUP2 DUP2 LT ISZERO PUSH3 0x8C0 JUMPI PUSH3 0x8B4 PUSH1 0x0 DUP3 PUSH3 0x881 JUMP JUMPDEST PUSH1 0x1 DUP2 ADD SWAP1 POP PUSH3 0x89E JUMP JUMPDEST POP POP JUMP JUMPDEST PUSH1 0x1F DUP3 GT ISZERO PUSH3 0x90F JUMPI PUSH3 0x8D9 DUP2 PUSH3 0x783 JUMP JUMPDEST PUSH3 0x8E4 DUP5 PUSH3 0x798 JUMP JUMPDEST DUP2 ADD PUSH1 0x20 DUP6 LT ISZERO PUSH3 0x8F4 JUMPI DUP2 SWAP1 POP JUMPDEST PUSH3 0x90C PUSH3 0x903 DUP6 PUSH3 0x798 JUMP JUMPDEST DUP4 ADD DUP3 PUSH3 0x89D JUMP JUMPDEST POP POP JUMPDEST POP POP POP JUMP JUMPDEST PUSH1 0x0 DUP3 DUP3 SHR SWAP1 POP SWAP3 SWAP2 POP POP JUMP JUMPDEST PUSH1 0x0 PUSH3 0x934 PUSH1 0x0 NOT DUP5 PUSH1 0x8 MUL PUSH3 0x914 JUMP JUMPDEST NOT DUP1 DUP4 AND SWAP2 POP POP SWAP3 SWAP2 POP POP JUMP JUMPDEST PUSH1 0x0 PUSH3 0x94F DUP4 DUP4 PUSH3 0x921 JUMP JUMPDEST SWAP2 POP DUP3 PUSH1 0x2 MUL DUP3 OR SWAP1 POP SWAP3 SWAP2 POP POP JUMP JUMPDEST PUSH3 0x96A DUP3 PUSH3 0x714 JUMP JUMPDEST PUSH8 0xFFFFFFFFFFFFFFFF DUP2 GT ISZERO PUSH3 0x986 JUMPI PUSH3 0x985 PUSH3 0x447 JUMP JUMPDEST JUMPDEST PUSH3 0x992 DUP3 SLOAD PUSH3 0x74E JUMP JUMPDEST PUSH3 0x99F DUP3 DUP3 DUP6 PUSH3 0x8C4 JUMP JUMPDEST PUSH1 0x0 PUSH1 0x20 SWAP1 POP PUSH1 0x1F DUP4 GT PUSH1 0x1 DUP2 EQ PUSH3 0x9D7 JUMPI PUSH1 0x0 DUP5 ISZERO PUSH3 0x9C2 JUMPI DUP3 DUP8 ADD MLOAD SWAP1 POP JUMPDEST PUSH3 0x9CE DUP6 DUP3 PUSH3 0x941 JUMP JUMPDEST DUP7 SSTORE POP PUSH3 0xA3E JUMP JUMPDEST PUSH1 0x1F NOT DUP5 AND PUSH3 0x9E7 DUP7 PUSH3 0x783 JUMP JUMPDEST PUSH1 0x0 JUMPDEST DUP3 DUP2 LT ISZERO PUSH3 0xA11 JUMPI DUP5 DUP10 ADD MLOAD DUP3 SSTORE PUSH1 0x1 DUP3 ADD SWAP2 POP PUSH1 0x20 DUP6 ADD SWAP5 POP PUSH1 0x20 DUP2 ADD SWAP1 POP PUSH3 0x9EA JUMP JUMPDEST DUP7 DUP4 LT ISZERO PUSH3 0xA31 JUMPI DUP5 DUP10 ADD MLOAD PUSH3 0xA2D PUSH1 0x1F DUP10 AND DUP3 PUSH3 0x921 JUMP JUMPDEST DUP4 SSTORE POP JUMPDEST PUSH1 0x1 PUSH1 0x2 DUP9 MUL ADD DUP9 SSTORE POP POP POP JUMPDEST POP POP POP POP POP POP JUMP JUMPDEST PUSH1 0x0 DUP3 DUP3 MSTORE PUSH1 0x20 DUP3 ADD SWAP1 POP SWAP3 SWAP2 POP POP JUMP JUMPDEST PUSH32 0x455243323938313A20726F79616C7479206665652077696C6C20657863656564 PUSH1 0x0 DUP3 ADD MSTORE PUSH32 0x2073616C65507269636500000000000000000000000000000000000000000000 PUSH1 0x20 DUP3 ADD MSTORE POP JUMP JUMPDEST PUSH1 0x0 PUSH3 0xAB5 PUSH1 0x2A DUP4 PUSH3 0xA46 JUMP JUMPDEST SWAP2 POP PUSH3 0xAC2 DUP3 PUSH3 0xA57 JUMP JUMPDEST PUSH1 0x40 DUP3 ADD SWAP1 POP SWAP2 SWAP1 POP JUMP JUMPDEST PUSH1 0x0 PUSH1 0x20 DUP3 ADD SWAP1 POP DUP2 DUP2 SUB PUSH1 0x0 DUP4 ADD MSTORE PUSH3 0xAE8 DUP2 PUSH3 0xAA6 JUMP JUMPDEST SWAP1 POP SWAP2 SWAP1 POP JUMP JUMPDEST PUSH32 0x455243323938313A20696E76616C696420726563656976657200000000000000 PUSH1 0x0 DUP3 ADD MSTORE POP JUMP JUMPDEST PUSH1 0x0 PUSH3 0xB27 PUSH1 0x19 DUP4 PUSH3 0xA46 JUMP JUMPDEST SWAP2 POP PUSH3 0xB34 DUP3 PUSH3 0xAEF JUMP JUMPDEST PUSH1 0x20 DUP3 ADD SWAP1 POP SWAP2 SWAP1 POP JUMP JUMPDEST PUSH1 0x0 PUSH1 0x20 DUP3 ADD SWAP1 POP DUP2 DUP2 SUB PUSH1 0x0 DUP4 ADD MSTORE PUSH3 0xB5A DUP2 PUSH3 0xB18 JUMP JUMPDEST SWAP1 POP SWAP2 SWAP1 POP JUMP JUMPDEST PUSH2 0x3F03 DUP1 PUSH3 0xB71 PUSH1 0x0 CODECOPY PUSH1 0x0 RETURN INVALID PUSH1 0x80 PUSH1 0x40 MSTORE PUSH1 0x4 CALLDATASIZE LT PUSH2 0x1F9 JUMPI PUSH1 0x0 CALLDATALOAD PUSH1 0xE0 SHR DUP1 PUSH4 0x8B63D54A GT PUSH2 0x10D JUMPI DUP1 PUSH4 0xB88D4FDE GT PUSH2 0xA0 JUMPI DUP1 PUSH4 0xD5582965 GT PUSH2 0x6F JUMPI DUP1 PUSH4 0xD5582965 EQ PUSH2 0x716 JUMPI DUP1 PUSH4 0xD5ABEB01 EQ PUSH2 0x72D JUMPI DUP1 PUSH4 0xE985E9C5 EQ PUSH2 0x758 JUMPI DUP1 PUSH4 0xF247B569 EQ PUSH2 0x795 JUMPI DUP1 PUSH4 0xF2FDE38B EQ PUSH2 0x7C0 JUMPI PUSH2 0x1F9 JUMP JUMPDEST DUP1 PUSH4 0xB88D4FDE EQ PUSH2 0x651 JUMPI DUP1 PUSH4 0xBE91484C EQ PUSH2 0x66D JUMPI DUP1 PUSH4 0xC87B56DD EQ PUSH2 0x6B0 JUMPI DUP1 PUSH4 0xCFD1C79F EQ PUSH2 0x6ED JUMPI PUSH2 0x1F9 JUMP JUMPDEST DUP1 PUSH4 0xA22CB465 GT PUSH2 0xDC JUMPI DUP1 PUSH4 0xA22CB465 EQ PUSH2 0x5AD JUMPI DUP1 PUSH4 0xA9FE3075 EQ PUSH2 0x5D6 JUMPI DUP1 PUSH4 0xB3E5E0DE EQ PUSH2 0x5FF JUMPI DUP1 PUSH4 0xB7C7D9A7 EQ PUSH2 0x628 JUMPI PUSH2 0x1F9 JUMP JUMPDEST DUP1 PUSH4 0x8B63D54A EQ PUSH2 0x4F1 JUMPI DUP1 PUSH4 0x8DA5CB5B EQ PUSH2 0x51A JUMPI DUP1 PUSH4 0x922003CD EQ PUSH2 0x545 JUMPI DUP1 PUSH4 0x95D89B41 EQ PUSH2 0x582 JUMPI PUSH2 0x1F9 JUMP JUMPDEST DUP1 PUSH4 0x42842E0E GT PUSH2 0x190 JUMPI DUP1 PUSH4 0x611236A4 GT PUSH2 0x15F JUMPI DUP1 PUSH4 0x611236A4 EQ PUSH2 0x40E JUMPI DUP1 PUSH4 0x6352211E EQ PUSH2 0x437 JUMPI DUP1 PUSH4 0x70A08231 EQ PUSH2 0x474 JUMPI DUP1 PUSH4 0x715018A6 EQ PUSH2 0x4B1 JUMPI DUP1 PUSH4 0x88D15D50 EQ PUSH2 0x4C8 JUMPI PUSH2 0x1F9 JUMP JUMPDEST DUP1 PUSH4 0x42842E0E EQ PUSH2 0x35B JUMPI DUP1 PUSH4 0x55F804B3 EQ PUSH2 0x377 JUMPI DUP1 PUSH4 0x58B1ADBF EQ PUSH2 0x3A0 JUMPI DUP1 PUSH4 0x5EB39968 EQ PUSH2 0x3C9 JUMPI PUSH2 0x1F9 JUMP JUMPDEST DUP1 PUSH4 0x18160DDD GT PUSH2 0x1CC JUMPI DUP1 PUSH4 0x18160DDD EQ PUSH2 0x2BF JUMPI DUP1 PUSH4 0x23B872DD EQ PUSH2 0x2EA JUMPI DUP1 PUSH4 0x2A55205A EQ PUSH2 0x306 JUMPI DUP1 PUSH4 0x363F0325 EQ PUSH2 0x344 JUMPI PUSH2 0x1F9 JUMP JUMPDEST DUP1 PUSH4 0x1FFC9A7 EQ PUSH2 0x1FE JUMPI DUP1 PUSH4 0x6FDDE03 EQ PUSH2 0x23B JUMPI DUP1 PUSH4 0x81812FC EQ PUSH2 0x266 JUMPI DUP1 PUSH4 0x95EA7B3 EQ PUSH2 0x2A3 JUMPI JUMPDEST PUSH1 0x0 DUP1 REVERT JUMPDEST CALLVALUE DUP1 ISZERO PUSH2 0x20A JUMPI PUSH1 0x0 DUP1 REVERT JUMPDEST POP PUSH2 0x225 PUSH1 0x4 DUP1 CALLDATASIZE SUB DUP2 ADD SWAP1 PUSH2 0x220 SWAP2 SWAP1 PUSH2 0x2917 JUMP JUMPDEST PUSH2 0x7E9 JUMP JUMPDEST PUSH1 0x40 MLOAD PUSH2 0x232 SWAP2 SWAP1 PUSH2 0x295F JUMP JUMPDEST PUSH1 0x40 MLOAD DUP1 SWAP2 SUB SWAP1 RETURN JUMPDEST CALLVALUE DUP1 ISZERO PUSH2 0x247 JUMPI PUSH1 0x0 DUP1 REVERT JUMPDEST POP PUSH2 0x250 PUSH2 0x80B JUMP JUMPDEST PUSH1 0x40 MLOAD PUSH2 0x25D SWAP2 SWAP1 PUSH2 0x2A0A JUMP JUMPDEST PUSH1 0x40 MLOAD DUP1 SWAP2 SUB SWAP1 RETURN JUMPDEST CALLVALUE DUP1 ISZERO PUSH2 0x272 JUMPI PUSH1 0x0 DUP1 REVERT JUMPDEST POP PUSH2 0x28D PUSH1 0x4 DUP1 CALLDATASIZE SUB DUP2 ADD SWAP1 PUSH2 0x288 SWAP2 SWAP1 PUSH2 0x2A62 JUMP JUMPDEST PUSH2 0x89D JUMP JUMPDEST PUSH1 0x40 MLOAD PUSH2 0x29A SWAP2 SWAP1 PUSH2 0x2AD0 JUMP JUMPDEST PUSH1 0x40 MLOAD DUP1 SWAP2 SUB SWAP1 RETURN JUMPDEST PUSH2 0x2BD PUSH1 0x4 DUP1 CALLDATASIZE SUB DUP2 ADD SWAP1 PUSH2 0x2B8 SWAP2 SWAP1 PUSH2 0x2B17 JUMP JUMPDEST PUSH2 0x8FB JUMP JUMPDEST STOP JUMPDEST CALLVALUE DUP1 ISZERO PUSH2 0x2CB JUMPI PUSH1 0x0 DUP1 REVERT JUMPDEST POP PUSH2 0x2D4 PUSH2 0x90B JUMP JUMPDEST PUSH1 0x40 MLOAD PUSH2 0x2E1 SWAP2 SWAP1 PUSH2 0x2B66 JUMP JUMPDEST PUSH1 0x40 MLOAD DUP1 SWAP2 SUB SWAP1 RETURN JUMPDEST PUSH2 0x304 PUSH1 0x4 DUP1 CALLDATASIZE SUB DUP2 ADD SWAP1 PUSH2 0x2FF SWAP2 SWAP1 PUSH2 0x2B81 JUMP JUMPDEST PUSH2 0x922 JUMP JUMPDEST STOP JUMPDEST CALLVALUE DUP1 ISZERO PUSH2 0x312 JUMPI PUSH1 0x0 DUP1 REVERT JUMPDEST POP PUSH2 0x32D PUSH1 0x4 DUP1 CALLDATASIZE SUB DUP2 ADD SWAP1 PUSH2 0x328 SWAP2 SWAP1 PUSH2 0x2BD4 JUMP JUMPDEST PUSH2 0xBE3 JUMP JUMPDEST PUSH1 0x40 MLOAD PUSH2 0x33B SWAP3 SWAP2 SWAP1 PUSH2 0x2C14 JUMP JUMPDEST PUSH1 0x40 MLOAD DUP1 SWAP2 SUB SWAP1 RETURN JUMPDEST CALLVALUE DUP1 ISZERO PUSH2 0x350 JUMPI PUSH1 0x0 DUP1 REVERT JUMPDEST POP PUSH2 0x359 PUSH2 0xDCD JUMP JUMPDEST STOP JUMPDEST PUSH2 0x375 PUSH1 0x4 DUP1 CALLDATASIZE SUB DUP2 ADD SWAP1 PUSH2 0x370 SWAP2 SWAP1 PUSH2 0x2B81 JUMP JUMPDEST PUSH2 0xE25 JUMP JUMPDEST STOP JUMPDEST CALLVALUE DUP1 ISZERO PUSH2 0x383 JUMPI PUSH1 0x0 DUP1 REVERT JUMPDEST POP PUSH2 0x39E PUSH1 0x4 DUP1 CALLDATASIZE SUB DUP2 ADD SWAP1 PUSH2 0x399 SWAP2 SWAP1 PUSH2 0x2D72 JUMP JUMPDEST PUSH2 0xE45 JUMP JUMPDEST STOP JUMPDEST CALLVALUE DUP1 ISZERO PUSH2 0x3AC JUMPI PUSH1 0x0 DUP1 REVERT JUMPDEST POP PUSH2 0x3C7 PUSH1 0x4 DUP1 CALLDATASIZE SUB DUP2 ADD SWAP1 PUSH2 0x3C2 SWAP2 SWAP1 PUSH2 0x2A62 JUMP JUMPDEST PUSH2 0xE97 JUMP JUMPDEST STOP JUMPDEST CALLVALUE DUP1 ISZERO PUSH2 0x3D5 JUMPI PUSH1 0x0 DUP1 REVERT JUMPDEST POP PUSH2 0x3F0 PUSH1 0x4 DUP1 CALLDATASIZE SUB DUP2 ADD SWAP1 PUSH2 0x3EB SWAP2 SWAP1 PUSH2 0x2A62 JUMP JUMPDEST PUSH2 0xEBF JUMP JUMPDEST PUSH1 0x40 MLOAD PUSH2 0x405 SWAP10 SWAP9 SWAP8 SWAP7 SWAP6 SWAP5 SWAP4 SWAP3 SWAP2 SWAP1 PUSH2 0x2DD4 JUMP JUMPDEST PUSH1 0x40 MLOAD DUP1 SWAP2 SUB SWAP1 RETURN JUMPDEST CALLVALUE DUP1 ISZERO PUSH2 0x41A JUMPI PUSH1 0x0 DUP1 REVERT JUMPDEST POP PUSH2 0x435 PUSH1 0x4 DUP1 CALLDATASIZE SUB DUP2 ADD SWAP1 PUSH2 0x430 SWAP2 SWAP1 PUSH2 0x2E8D JUMP JUMPDEST PUSH2 0xF27 JUMP JUMPDEST STOP JUMPDEST CALLVALUE DUP1 ISZERO PUSH2 0x443 JUMPI PUSH1 0x0 DUP1 REVERT JUMPDEST POP PUSH2 0x45E PUSH1 0x4 DUP1 CALLDATASIZE SUB DUP2 ADD SWAP1 PUSH2 0x459 SWAP2 SWAP1 PUSH2 0x2A62 JUMP JUMPDEST PUSH2 0xF4F JUMP JUMPDEST PUSH1 0x40 MLOAD PUSH2 0x46B SWAP2 SWAP1 PUSH2 0x2AD0 JUMP JUMPDEST PUSH1 0x40 MLOAD DUP1 SWAP2 SUB SWAP1 RETURN JUMPDEST CALLVALUE DUP1 ISZERO PUSH2 0x480 JUMPI PUSH1 0x0 DUP1 REVERT JUMPDEST POP PUSH2 0x49B PUSH1 0x4 DUP1 CALLDATASIZE SUB DUP2 ADD SWAP1 PUSH2 0x496 SWAP2 SWAP1 PUSH2 0x2EBA JUMP JUMPDEST PUSH2 0xF61 JUMP JUMPDEST PUSH1 0x40 MLOAD PUSH2 0x4A8 SWAP2 SWAP1 PUSH2 0x2B66 JUMP JUMPDEST PUSH1 0x40 MLOAD DUP1 SWAP2 SUB SWAP1 RETURN JUMPDEST CALLVALUE DUP1 ISZERO PUSH2 0x4BD JUMPI PUSH1 0x0 DUP1 REVERT JUMPDEST POP PUSH2 0x4C6 PUSH2 0xFF8 JUMP JUMPDEST STOP JUMPDEST CALLVALUE DUP1 ISZERO PUSH2 0x4D4 JUMPI PUSH1 0x0 DUP1 REVERT JUMPDEST POP PUSH2 0x4EF PUSH1 0x4 DUP1 CALLDATASIZE SUB DUP2 ADD SWAP1 PUSH2 0x4EA SWAP2 SWAP1 PUSH2 0x2F47 JUMP JUMPDEST PUSH2 0x100C JUMP JUMPDEST STOP JUMPDEST CALLVALUE DUP1 ISZERO PUSH2 0x4FD JUMPI PUSH1 0x0 DUP1 REVERT JUMPDEST POP PUSH2 0x518 PUSH1 0x4 DUP1 CALLDATASIZE SUB DUP2 ADD SWAP1 PUSH2 0x513 SWAP2 SWAP1 PUSH2 0x2FD8 JUMP JUMPDEST PUSH2 0x13EA JUMP JUMPDEST STOP JUMPDEST CALLVALUE DUP1 ISZERO PUSH2 0x526 JUMPI PUSH1 0x0 DUP1 REVERT JUMPDEST POP PUSH2 0x52F PUSH2 0x1408 JUMP JUMPDEST PUSH1 0x40 MLOAD PUSH2 0x53C SWAP2 SWAP1 PUSH2 0x2AD0 JUMP JUMPDEST PUSH1 0x40 MLOAD DUP1 SWAP2 SUB SWAP1 RETURN JUMPDEST CALLVALUE DUP1 ISZERO PUSH2 0x551 JUMPI PUSH1 0x0 DUP1 REVERT JUMPDEST POP PUSH2 0x56C PUSH1 0x4 DUP1 CALLDATASIZE SUB DUP2 ADD SWAP1 PUSH2 0x567 SWAP2 SWAP1 PUSH2 0x3018 JUMP JUMPDEST PUSH2 0x1431 JUMP JUMPDEST PUSH1 0x40 MLOAD PUSH2 0x579 SWAP2 SWAP1 PUSH2 0x295F JUMP JUMPDEST PUSH1 0x40 MLOAD DUP1 SWAP2 SUB SWAP1 RETURN JUMPDEST CALLVALUE DUP1 ISZERO PUSH2 0x58E JUMPI PUSH1 0x0 DUP1 REVERT JUMPDEST POP PUSH2 0x597 PUSH2 0x149C JUMP JUMPDEST PUSH1 0x40 MLOAD PUSH2 0x5A4 SWAP2 SWAP1 PUSH2 0x2A0A JUMP JUMPDEST PUSH1 0x40 MLOAD DUP1 SWAP2 SUB SWAP1 RETURN JUMPDEST CALLVALUE DUP1 ISZERO PUSH2 0x5B9 JUMPI PUSH1 0x0 DUP1 REVERT JUMPDEST POP PUSH2 0x5D4 PUSH1 0x4 DUP1 CALLDATASIZE SUB DUP2 ADD SWAP1 PUSH2 0x5CF SWAP2 SWAP1 PUSH2 0x3084 JUMP JUMPDEST PUSH2 0x152E JUMP JUMPDEST STOP JUMPDEST CALLVALUE DUP1 ISZERO PUSH2 0x5E2 JUMPI PUSH1 0x0 DUP1 REVERT JUMPDEST POP PUSH2 0x5FD PUSH1 0x4 DUP1 CALLDATASIZE SUB DUP2 ADD SWAP1 PUSH2 0x5F8 SWAP2 SWAP1 PUSH2 0x30C4 JUMP JUMPDEST PUSH2 0x1639 JUMP JUMPDEST STOP JUMPDEST CALLVALUE DUP1 ISZERO PUSH2 0x60B JUMPI PUSH1 0x0 DUP1 REVERT JUMPDEST POP PUSH2 0x626 PUSH1 0x4 DUP1 CALLDATASIZE SUB DUP2 ADD SWAP1 PUSH2 0x621 SWAP2 SWAP1 PUSH2 0x313F JUMP JUMPDEST PUSH2 0x173C JUMP JUMPDEST STOP JUMPDEST CALLVALUE DUP1 ISZERO PUSH2 0x634 JUMPI PUSH1 0x0 DUP1 REVERT JUMPDEST POP PUSH2 0x64F PUSH1 0x4 DUP1 CALLDATASIZE SUB DUP2 ADD SWAP1 PUSH2 0x64A SWAP2 SWAP1 PUSH2 0x2A62 JUMP JUMPDEST PUSH2 0x1777 JUMP JUMPDEST STOP JUMPDEST PUSH2 0x66B PUSH1 0x4 DUP1 CALLDATASIZE SUB DUP2 ADD SWAP1 PUSH2 0x666 SWAP2 SWAP1 PUSH2 0x320D JUMP JUMPDEST PUSH2 0x179F JUMP JUMPDEST STOP JUMPDEST CALLVALUE DUP1 ISZERO PUSH2 0x679 JUMPI PUSH1 0x0 DUP1 REVERT JUMPDEST POP PUSH2 0x694 PUSH1 0x4 DUP1 CALLDATASIZE SUB DUP2 ADD SWAP1 PUSH2 0x68F SWAP2 SWAP1 PUSH2 0x2A62 JUMP JUMPDEST PUSH2 0x17F1 JUMP JUMPDEST PUSH1 0x40 MLOAD PUSH2 0x6A7 SWAP8 SWAP7 SWAP6 SWAP5 SWAP4 SWAP3 SWAP2 SWAP1 PUSH2 0x3290 JUMP JUMPDEST PUSH1 0x40 MLOAD DUP1 SWAP2 SUB SWAP1 RETURN JUMPDEST CALLVALUE DUP1 ISZERO PUSH2 0x6BC JUMPI PUSH1 0x0 DUP1 REVERT JUMPDEST POP PUSH2 0x6D7 PUSH1 0x4 DUP1 CALLDATASIZE SUB DUP2 ADD SWAP1 PUSH2 0x6D2 SWAP2 SWAP1 PUSH2 0x2A62 JUMP JUMPDEST PUSH2 0x18D0 JUMP JUMPDEST PUSH1 0x40 MLOAD PUSH2 0x6E4 SWAP2 SWAP1 PUSH2 0x2A0A JUMP JUMPDEST PUSH1 0x40 MLOAD DUP1 SWAP2 SUB SWAP1 RETURN JUMPDEST CALLVALUE DUP1 ISZERO PUSH2 0x6F9 JUMPI PUSH1 0x0 DUP1 REVERT JUMPDEST POP PUSH2 0x714 PUSH1 0x4 DUP1 CALLDATASIZE SUB DUP2 ADD SWAP1 PUSH2 0x70F SWAP2 SWAP1 PUSH2 0x2A62 JUMP JUMPDEST PUSH2 0x1907 JUMP JUMPDEST STOP JUMPDEST CALLVALUE DUP1 ISZERO PUSH2 0x722 JUMPI PUSH1 0x0 DUP1 REVERT JUMPDEST POP PUSH2 0x72B PUSH2 0x192F JUMP JUMPDEST STOP JUMPDEST CALLVALUE DUP1 ISZERO PUSH2 0x739 JUMPI PUSH1 0x0 DUP1 REVERT JUMPDEST POP PUSH2 0x742 PUSH2 0x196A JUMP JUMPDEST PUSH1 0x40 MLOAD PUSH2 0x74F SWAP2 SWAP1 PUSH2 0x2B66 JUMP JUMPDEST PUSH1 0x40 MLOAD DUP1 SWAP2 SUB SWAP1 RETURN JUMPDEST CALLVALUE DUP1 ISZERO PUSH2 0x764 JUMPI PUSH1 0x0 DUP1 REVERT JUMPDEST POP PUSH2 0x77F PUSH1 0x4 DUP1 CALLDATASIZE SUB DUP2 ADD SWAP1 PUSH2 0x77A SWAP2 SWAP1 PUSH2 0x32FF JUMP JUMPDEST PUSH2 0x1970 JUMP JUMPDEST PUSH1 0x40 MLOAD PUSH2 0x78C SWAP2 SWAP1 PUSH2 0x295F JUMP JUMPDEST PUSH1 0x40 MLOAD DUP1 SWAP2 SUB SWAP1 RETURN JUMPDEST CALLVALUE DUP1 ISZERO PUSH2 0x7A1 JUMPI PUSH1 0x0 DUP1 REVERT JUMPDEST POP PUSH2 0x7AA PUSH2 0x1A04 JUMP JUMPDEST PUSH1 0x40 MLOAD PUSH2 0x7B7 SWAP2 SWAP1 PUSH2 0x2B66 JUMP JUMPDEST PUSH1 0x40 MLOAD DUP1 SWAP2 SUB SWAP1 RETURN JUMPDEST CALLVALUE DUP1 ISZERO PUSH2 0x7CC JUMPI PUSH1 0x0 DUP1 REVERT JUMPDEST POP PUSH2 0x7E7 PUSH1 0x4 DUP1 CALLDATASIZE SUB DUP2 ADD SWAP1 PUSH2 0x7E2 SWAP2 SWAP1 PUSH2 0x2EBA JUMP JUMPDEST PUSH2 0x1A0A JUMP JUMPDEST STOP JUMPDEST PUSH1 0x0 PUSH2 0x7F4 DUP3 PUSH2 0x1A8D JUMP JUMPDEST DUP1 PUSH2 0x804 JUMPI POP PUSH2 0x803 DUP3 PUSH2 0x1B1F JUMP JUMPDEST JUMPDEST SWAP1 POP SWAP2 SWAP1 POP JUMP JUMPDEST PUSH1 0x60 PUSH1 0x6 DUP1 SLOAD PUSH2 0x81A SWAP1 PUSH2 0x336E JUMP JUMPDEST DUP1 PUSH1 0x1F ADD PUSH1 0x20 DUP1 SWAP2 DIV MUL PUSH1 0x20 ADD PUSH1 0x40 MLOAD SWAP1 DUP2 ADD PUSH1 0x40 MSTORE DUP1 SWAP3 SWAP2 SWAP1 DUP2 DUP2 MSTORE PUSH1 0x20 ADD DUP3 DUP1 SLOAD PUSH2 0x846 SWAP1 PUSH2 0x336E JUMP JUMPDEST DUP1 ISZERO PUSH2 0x893 JUMPI DUP1 PUSH1 0x1F LT PUSH2 0x868 JUMPI PUSH2 0x100 DUP1 DUP4 SLOAD DIV MUL DUP4 MSTORE SWAP2 PUSH1 0x20 ADD SWAP2 PUSH2 0x893 JUMP JUMPDEST DUP3 ADD SWAP2 SWAP1 PUSH1 0x0 MSTORE PUSH1 0x20 PUSH1 0x0 KECCAK256 SWAP1 JUMPDEST DUP2 SLOAD DUP2 MSTORE SWAP1 PUSH1 0x1 ADD SWAP1 PUSH1 0x20 ADD DUP1 DUP4 GT PUSH2 0x876 JUMPI DUP3 SWAP1 SUB PUSH1 0x1F AND DUP3 ADD SWAP2 JUMPDEST POP POP POP POP POP SWAP1 POP SWAP1 JUMP JUMPDEST PUSH1 0x0 PUSH2 0x8A8 DUP3 PUSH2 0x1B99 JUMP JUMPDEST PUSH2 0x8BD JUMPI PUSH2 0x8BC PUSH4 0xCF4700E4 PUSH1 0xE0 SHL PUSH2 0x1C12 JUMP JUMPDEST JUMPDEST PUSH1 0xA PUSH1 0x0 DUP4 DUP2 MSTORE PUSH1 0x20 ADD SWAP1 DUP2 MSTORE PUSH1 0x20 ADD PUSH1 0x0 KECCAK256 PUSH1 0x0 ADD PUSH1 0x0 SWAP1 SLOAD SWAP1 PUSH2 0x100 EXP SWAP1 DIV PUSH20 0xFFFFFFFFFFFFFFFFFFFFFFFFFFFFFFFFFFFFFFFF AND SWAP1 POP SWAP2 SWAP1 POP JUMP JUMPDEST PUSH2 0x907 DUP3 DUP3 PUSH1 0x1 PUSH2 0x1C1C JUMP JUMPDEST POP POP JUMP JUMPDEST PUSH1 0x0 PUSH2 0x915 PUSH2 0x1D4B JUMP JUMPDEST PUSH1 0x5 SLOAD PUSH1 0x4 SLOAD SUB SUB SWAP1 POP SWAP1 JUMP JUMPDEST PUSH1 0x0 PUSH2 0x92D DUP3 PUSH2 0x1D50 JUMP JUMPDEST SWAP1 POP PUSH20 0xFFFFFFFFFFFFFFFFFFFFFFFFFFFFFFFFFFFFFFFF DUP5 PUSH20 0xFFFFFFFFFFFFFFFFFFFFFFFFFFFFFFFFFFFFFFFF AND AND SWAP4 POP DUP4 PUSH20 0xFFFFFFFFFFFFFFFFFFFFFFFFFFFFFFFFFFFFFFFF AND DUP2 PUSH20 0xFFFFFFFFFFFFFFFFFFFFFFFFFFFFFFFFFFFFFFFF AND EQ PUSH2 0x9A2 JUMPI PUSH2 0x9A1 PUSH4 0xA1148100 PUSH1 0xE0 SHL PUSH2 0x1C12 JUMP JUMPDEST JUMPDEST PUSH1 0x0 DUP1 PUSH2 0x9AE DUP5 PUSH2 0x1E3C JUMP JUMPDEST SWAP2 POP SWAP2 POP PUSH2 0x9C4 DUP2 DUP8 PUSH2 0x9BF PUSH2 0x1E63 JUMP JUMPDEST PUSH2 0x1E6B JUMP JUMPDEST PUSH2 0x9EF JUMPI PUSH2 0x9D9 DUP7 PUSH2 0x9D4 PUSH2 0x1E63 JUMP JUMPDEST PUSH2 0x1970 JUMP JUMPDEST PUSH2 0x9EE JUMPI PUSH2 0x9ED PUSH4 0x59C896BE PUSH1 0xE0 SHL PUSH2 0x1C12 JUMP JUMPDEST JUMPDEST JUMPDEST PUSH2 0x9FC DUP7 DUP7 DUP7 PUSH1 0x1 PUSH2 0x1EAF JUMP JUMPDEST DUP1 ISZERO PUSH2 0xA07 JUMPI PUSH1 0x0 DUP3 SSTORE JUMPDEST PUSH1 0x9 PUSH1 0x0 DUP8 PUSH20 0xFFFFFFFFFFFFFFFFFFFFFFFFFFFFFFFFFFFFFFFF AND PUSH20 0xFFFFFFFFFFFFFFFFFFFFFFFFFFFFFFFFFFFFFFFF AND DUP2 MSTORE PUSH1 0x20 ADD SWAP1 DUP2 MSTORE PUSH1 0x20 ADD PUSH1 0x0 KECCAK256 PUSH1 0x0 DUP2 SLOAD PUSH1 0x1 SWAP1 SUB SWAP2 SWAP1 POP DUP2 SWAP1 SSTORE POP PUSH1 0x9 PUSH1 0x0 DUP7 PUSH20 0xFFFFFFFFFFFFFFFFFFFFFFFFFFFFFFFFFFFFFFFF AND PUSH20 0xFFFFFFFFFFFFFFFFFFFFFFFFFFFFFFFFFFFFFFFF AND DUP2 MSTORE PUSH1 0x20 ADD SWAP1 DUP2 MSTORE PUSH1 0x20 ADD PUSH1 0x0 KECCAK256 PUSH1 0x0 DUP2 SLOAD PUSH1 0x1 ADD SWAP2 SWAP1 POP DUP2 SWAP1 SSTORE POP PUSH2 0xAD5 DUP6 PUSH2 0xAB1 DUP9 DUP9 DUP8 PUSH2 0x1EB5 JUMP JUMPDEST PUSH29 0x200000000000000000000000000000000000000000000000000000000 OR PUSH2 0x1EDD JUMP JUMPDEST PUSH1 0x8 PUSH1 0x0 DUP7 DUP2 MSTORE PUSH1 0x20 ADD SWAP1 DUP2 MSTORE PUSH1 0x20 ADD PUSH1 0x0 KECCAK256 DUP2 SWAP1 SSTORE POP PUSH1 0x0 PUSH29 0x200000000000000000000000000000000000000000000000000000000 DUP5 AND SUB PUSH2 0xB5B JUMPI PUSH1 0x0 PUSH1 0x1 DUP6 ADD SWAP1 POP PUSH1 0x0 PUSH1 0x8 PUSH1 0x0 DUP4 DUP2 MSTORE PUSH1 0x20 ADD SWAP1 DUP2 MSTORE PUSH1 0x20 ADD PUSH1 0x0 KECCAK256 SLOAD SUB PUSH2 0xB59 JUMPI PUSH1 0x4 SLOAD DUP2 EQ PUSH2 0xB58 JUMPI DUP4 PUSH1 0x8 PUSH1 0x0 DUP4 DUP2 MSTORE PUSH1 0x20 ADD SWAP1 DUP2 MSTORE PUSH1 0x20 ADD PUSH1 0x0 KECCAK256 DUP2 SWAP1 SSTORE POP JUMPDEST JUMPDEST POP JUMPDEST PUSH1 0x0 PUSH20 0xFFFFFFFFFFFFFFFFFFFFFFFFFFFFFFFFFFFFFFFF DUP7 PUSH20 0xFFFFFFFFFFFFFFFFFFFFFFFFFFFFFFFFFFFFFFFF AND AND SWAP1 POP DUP5 DUP2 DUP9 PUSH32 0xDDF252AD1BE2C89B69C2B068FC378DAA952BA7F163C4A11628F55A4DF523B3EF PUSH1 0x0 DUP1 LOG4 PUSH1 0x0 DUP2 SUB PUSH2 0xBCD JUMPI PUSH2 0xBCC PUSH4 0xEA553B34 PUSH1 0xE0 SHL PUSH2 0x1C12 JUMP JUMPDEST JUMPDEST PUSH2 0xBDA DUP8 DUP8 DUP8 PUSH1 0x1 PUSH2 0x1F08 JUMP JUMPDEST POP POP POP POP POP POP POP JUMP JUMPDEST PUSH1 0x0 DUP1 PUSH1 0x0 PUSH1 0x3 PUSH1 0x0 DUP7 DUP2 MSTORE PUSH1 0x20 ADD SWAP1 DUP2 MSTORE PUSH1 0x20 ADD PUSH1 0x0 KECCAK256 PUSH1 0x40 MLOAD DUP1 PUSH1 0x40 ADD PUSH1 0x40 MSTORE SWAP1 DUP2 PUSH1 0x0 DUP3 ADD PUSH1 0x0 SWAP1 SLOAD SWAP1 PUSH2 0x100 EXP SWAP1 DIV PUSH20 0xFFFFFFFFFFFFFFFFFFFFFFFFFFFFFFFFFFFFFFFF AND PUSH20 0xFFFFFFFFFFFFFFFFFFFFFFFFFFFFFFFFFFFFFFFF AND PUSH20 0xFFFFFFFFFFFFFFFFFFFFFFFFFFFFFFFFFFFFFFFF AND DUP2 MSTORE PUSH1 0x20 ADD PUSH1 0x0 DUP3 ADD PUSH1 0x14 SWAP1 SLOAD SWAP1 PUSH2 0x100 EXP SWAP1 DIV PUSH12 0xFFFFFFFFFFFFFFFFFFFFFFFF AND PUSH12 0xFFFFFFFFFFFFFFFFFFFFFFFF AND PUSH12 0xFFFFFFFFFFFFFFFFFFFFFFFF AND DUP2 MSTORE POP POP SWAP1 POP PUSH1 0x0 PUSH20 0xFFFFFFFFFFFFFFFFFFFFFFFFFFFFFFFFFFFFFFFF AND DUP2 PUSH1 0x0 ADD MLOAD PUSH20 0xFFFFFFFFFFFFFFFFFFFFFFFFFFFFFFFFFFFFFFFF AND SUB PUSH2 0xD78 JUMPI PUSH1 0x2 PUSH1 0x40 MLOAD DUP1 PUSH1 0x40 ADD PUSH1 0x40 MSTORE SWAP1 DUP2 PUSH1 0x0 DUP3 ADD PUSH1 0x0 SWAP1 SLOAD SWAP1 PUSH2 0x100 EXP SWAP1 DIV PUSH20 0xFFFFFFFFFFFFFFFFFFFFFFFFFFFFFFFFFFFFFFFF AND PUSH20 0xFFFFFFFFFFFFFFFFFFFFFFFFFFFFFFFFFFFFFFFF AND PUSH20 0xFFFFFFFFFFFFFFFFFFFFFFFFFFFFFFFFFFFFFFFF AND DUP2 MSTORE PUSH1 0x20 ADD PUSH1 0x0 DUP3 ADD PUSH1 0x14 SWAP1 SLOAD SWAP1 PUSH2 0x100 EXP SWAP1 DIV PUSH12 0xFFFFFFFFFFFFFFFFFFFFFFFF AND PUSH12 0xFFFFFFFFFFFFFFFFFFFFFFFF AND PUSH12 0xFFFFFFFFFFFFFFFFFFFFFFFF AND DUP2 MSTORE POP POP SWAP1 POP JUMPDEST PUSH1 0x0 PUSH2 0xD82 PUSH2 0x1F0E JUMP JUMPDEST PUSH12 0xFFFFFFFFFFFFFFFFFFFFFFFF AND DUP3 PUSH1 0x20 ADD MLOAD PUSH12 0xFFFFFFFFFFFFFFFFFFFFFFFF AND DUP7 PUSH2 0xDAE SWAP2 SWAP1 PUSH2 0x33CE JUMP JUMPDEST PUSH2 0xDB8 SWAP2 SWAP1 PUSH2 0x343F JUMP JUMPDEST SWAP1 POP DUP2 PUSH1 0x0 ADD MLOAD DUP2 SWAP4 POP SWAP4 POP POP POP SWAP3 POP SWAP3 SWAP1 POP JUMP JUMPDEST PUSH2 0xDD5 PUSH2 0x1F18 JUMP JUMPDEST TIMESTAMP PUSH1 0xC PUSH1 0x0 PUSH1 0xE SLOAD DUP2 MSTORE PUSH1 0x20 ADD SWAP1 DUP2 MSTORE PUSH1 0x20 ADD PUSH1 0x0 KECCAK256 PUSH1 0x4 ADD DUP2 SWAP1 SSTORE POP PUSH1 0x1 PUSH1 0xC PUSH1 0x0 PUSH1 0xE SLOAD DUP2 MSTORE PUSH1 0x20 ADD SWAP1 DUP2 MSTORE PUSH1 0x20 ADD PUSH1 0x0 KECCAK256 PUSH1 0x6 ADD PUSH1 0x0 PUSH2 0x100 EXP DUP2 SLOAD DUP2 PUSH1 0xFF MUL NOT AND SWAP1 DUP4 ISZERO ISZERO MUL OR SWAP1 SSTORE POP JUMP JUMPDEST PUSH2 0xE40 DUP4 DUP4 DUP4 PUSH1 0x40 MLOAD DUP1 PUSH1 0x20 ADD PUSH1 0x40 MSTORE DUP1 PUSH1 0x0 DUP2 MSTORE POP PUSH2 0x179F JUMP JUMPDEST POP POP POP JUMP JUMPDEST PUSH2 0xE4D PUSH2 0x1F18 JUMP JUMPDEST DUP1 PUSH1 0xF SWAP1 DUP2 PUSH2 0xE5C SWAP2 SWAP1 PUSH2 0x361C JUMP JUMPDEST POP PUSH32 0x5411E8EBF1636D9E83D5FC4900BF80CBAC82E8790DA2A4C94DB4895E889EEDF6 DUP2 PUSH1 0x40 MLOAD PUSH2 0xE8C SWAP2 SWAP1 PUSH2 0x2A0A JUMP JUMPDEST PUSH1 0x40 MLOAD DUP1 SWAP2 SUB SWAP1 LOG1 POP JUMP JUMPDEST PUSH2 0xE9F PUSH2 0x1F18 JUMP JUMPDEST DUP1 PUSH1 0xC PUSH1 0x0 PUSH1 0xE SLOAD DUP2 MSTORE PUSH1 0x20 ADD SWAP1 DUP2 MSTORE PUSH1 0x20 ADD PUSH1 0x0 KECCAK256 PUSH1 0x5 ADD DUP2 SWAP1 SSTORE POP POP JUMP JUMPDEST PUSH1 0xC PUSH1 0x20 MSTORE DUP1 PUSH1 0x0 MSTORE PUSH1 0x40 PUSH1 0x0 KECCAK256 PUSH1 0x0 SWAP2 POP SWAP1 POP DUP1 PUSH1 0x0 ADD SLOAD SWAP1 DUP1 PUSH1 0x1 ADD SLOAD SWAP1 DUP1 PUSH1 0x2 ADD SLOAD SWAP1 DUP1 PUSH1 0x3 ADD SLOAD SWAP1 DUP1 PUSH1 0x4 ADD SLOAD SWAP1 DUP1 PUSH1 0x5 ADD SLOAD SWAP1 DUP1 PUSH1 0x6 ADD PUSH1 0x0 SWAP1 SLOAD SWAP1 PUSH2 0x100 EXP SWAP1 DIV PUSH1 0xFF AND SWAP1 DUP1 PUSH1 0x6 ADD PUSH1 0x1 SWAP1 SLOAD SWAP1 PUSH2 0x100 EXP SWAP1 DIV PUSH1 0xFF AND SWAP1 DUP1 PUSH1 0x7 ADD SLOAD SWAP1 POP DUP10 JUMP JUMPDEST PUSH2 0xF2F PUSH2 0x1F18 JUMP JUMPDEST DUP1 PUSH1 0xC PUSH1 0x0 PUSH1 0xE SLOAD DUP2 MSTORE PUSH1 0x20 ADD SWAP1 DUP2 MSTORE PUSH1 0x20 ADD PUSH1 0x0 KECCAK256 PUSH1 0x7 ADD DUP2 SWAP1 SSTORE POP POP JUMP JUMPDEST PUSH1 0x0 PUSH2 0xF5A DUP3 PUSH2 0x1D50 JUMP JUMPDEST SWAP1 POP SWAP2 SWAP1 POP JUMP JUMPDEST PUSH1 0x0 DUP1 PUSH20 0xFFFFFFFFFFFFFFFFFFFFFFFFFFFFFFFFFFFFFFFF AND DUP3 PUSH20 0xFFFFFFFFFFFFFFFFFFFFFFFFFFFFFFFFFFFFFFFF AND SUB PUSH2 0xFA7 JUMPI PUSH2 0xFA6 PUSH4 0x8F4EB604 PUSH1 0xE0 SHL PUSH2 0x1C12 JUMP JUMPDEST JUMPDEST PUSH8 0xFFFFFFFFFFFFFFFF PUSH1 0x9 PUSH1 0x0 DUP5 PUSH20 0xFFFFFFFFFFFFFFFFFFFFFFFFFFFFFFFFFFFFFFFF AND PUSH20 0xFFFFFFFFFFFFFFFFFFFFFFFFFFFFFFFFFFFFFFFF AND DUP2 MSTORE PUSH1 0x20 ADD SWAP1 DUP2 MSTORE PUSH1 0x20 ADD PUSH1 0x0 KECCAK256 SLOAD AND SWAP1 POP SWAP2 SWAP1 POP JUMP JUMPDEST PUSH2 0x1000 PUSH2 0x1F18 JUMP JUMPDEST PUSH2 0x100A PUSH1 0x0 PUSH2 0x1F96 JUMP JUMPDEST JUMP JUMPDEST PUSH1 0xC PUSH1 0x0 PUSH1 0xE SLOAD DUP2 MSTORE PUSH1 0x20 ADD SWAP1 DUP2 MSTORE PUSH1 0x20 ADD PUSH1 0x0 KECCAK256 PUSH1 0x6 ADD PUSH1 0x0 SWAP1 SLOAD SWAP1 PUSH2 0x100 EXP SWAP1 DIV PUSH1 0xFF AND PUSH2 0x1071 JUMPI PUSH1 0x40 MLOAD PUSH32 0x8C379A000000000000000000000000000000000000000000000000000000000 DUP2 MSTORE PUSH1 0x4 ADD PUSH2 0x1068 SWAP1 PUSH2 0x3760 JUMP JUMPDEST PUSH1 0x40 MLOAD DUP1 SWAP2 SUB SWAP1 REVERT JUMPDEST PUSH1 0x2 PUSH1 0x1 SLOAD SUB PUSH2 0x10B6 JUMPI PUSH1 0x40 MLOAD PUSH32 0x8C379A000000000000000000000000000000000000000000000000000000000 DUP2 MSTORE PUSH1 0x4 ADD PUSH2 0x10AD SWAP1 PUSH2 0x37CC JUMP JUMPDEST PUSH1 0x40 MLOAD DUP1 SWAP2 SUB SWAP1 REVERT JUMPDEST PUSH1 0x2 PUSH1 0x1 DUP2 SWAP1 SSTORE POP PUSH1 0xC PUSH1 0x0 PUSH1 0xE SLOAD DUP2 MSTORE PUSH1 0x20 ADD SWAP1 DUP2 MSTORE PUSH1 0x20 ADD PUSH1 0x0 KECCAK256 PUSH1 0x6 ADD PUSH1 0x1 SWAP1 SLOAD SWAP1 PUSH2 0x100 EXP SWAP1 DIV PUSH1 0xFF AND ISZERO PUSH2 0x1133 JUMPI PUSH2 0x10F3 DUP3 DUP3 PUSH2 0x205A JUMP JUMPDEST PUSH2 0x1132 JUMPI PUSH1 0x40 MLOAD PUSH32 0x8C379A000000000000000000000000000000000000000000000000000000000 DUP2 MSTORE PUSH1 0x4 ADD PUSH2 0x1129 SWAP1 PUSH2 0x385E JUMP JUMPDEST PUSH1 0x40 MLOAD DUP1 SWAP2 SUB SWAP1 REVERT JUMPDEST JUMPDEST TIMESTAMP PUSH1 0xC PUSH1 0x0 PUSH1 0xE SLOAD DUP2 MSTORE PUSH1 0x20 ADD SWAP1 DUP2 MSTORE PUSH1 0x20 ADD PUSH1 0x0 KECCAK256 PUSH1 0x5 ADD SLOAD PUSH1 0xC PUSH1 0x0 PUSH1 0xE SLOAD DUP2 MSTORE PUSH1 0x20 ADD SWAP1 DUP2 MSTORE PUSH1 0x20 ADD PUSH1 0x0 KECCAK256 PUSH1 0x4 ADD SLOAD PUSH2 0x1170 SWAP2 SWAP1 PUSH2 0x387E JUMP JUMPDEST GT ISZERO PUSH2 0x11E9 JUMPI PUSH1 0xC PUSH1 0x0 PUSH1 0xE SLOAD DUP2 MSTORE PUSH1 0x20 ADD SWAP1 DUP2 MSTORE PUSH1 0x20 ADD PUSH1 0x0 KECCAK256 PUSH1 0x2 ADD SLOAD PUSH1 0xC PUSH1 0x0 PUSH1 0xE SLOAD DUP2 MSTORE PUSH1 0x20 ADD SWAP1 DUP2 MSTORE PUSH1 0x20 ADD PUSH1 0x0 KECCAK256 PUSH1 0x1 ADD SLOAD LT PUSH2 0x11E8 JUMPI PUSH1 0x40 MLOAD PUSH32 0x8C379A000000000000000000000000000000000000000000000000000000000 DUP2 MSTORE PUSH1 0x4 ADD PUSH2 0x11DF SWAP1 PUSH2 0x38FE JUMP JUMPDEST PUSH1 0x40 MLOAD DUP1 SWAP2 SUB SWAP1 REVERT JUMPDEST JUMPDEST PUSH1 0xC PUSH1 0x0 PUSH1 0xE SLOAD DUP2 MSTORE PUSH1 0x20 ADD SWAP1 DUP2 MSTORE PUSH1 0x20 ADD PUSH1 0x0 KECCAK256 PUSH1 0x3 ADD SLOAD PUSH1 0xC PUSH1 0x0 PUSH1 0xE SLOAD DUP2 MSTORE PUSH1 0x20 ADD SWAP1 DUP2 MSTORE PUSH1 0x20 ADD PUSH1 0x0 KECCAK256 PUSH1 0x1 ADD SLOAD LT PUSH2 0x125B JUMPI PUSH1 0x40 MLOAD PUSH32 0x8C379A000000000000000000000000000000000000000000000000000000000 DUP2 MSTORE PUSH1 0x4 ADD PUSH2 0x1252 SWAP1 PUSH2 0x396A JUMP JUMPDEST PUSH1 0x40 MLOAD DUP1 SWAP2 SUB SWAP1 REVERT JUMPDEST PUSH1 0xC PUSH1 0x0 PUSH1 0xE SLOAD DUP2 MSTORE PUSH1 0x20 ADD SWAP1 DUP2 MSTORE PUSH1 0x20 ADD PUSH1 0x0 KECCAK256 PUSH1 0x8 ADD PUSH1 0x0 CALLER PUSH20 0xFFFFFFFFFFFFFFFFFFFFFFFFFFFFFFFFFFFFFFFF AND PUSH20 0xFFFFFFFFFFFFFFFFFFFFFFFFFFFFFFFFFFFFFFFF AND DUP2 MSTORE PUSH1 0x20 ADD SWAP1 DUP2 MSTORE PUSH1 0x20 ADD PUSH1 0x0 KECCAK256 PUSH1 0x0 SWAP1 SLOAD SWAP1 PUSH2 0x100 EXP SWAP1 DIV PUSH1 0xFF AND ISZERO PUSH2 0x12FE JUMPI PUSH1 0x40 MLOAD PUSH32 0x8C379A000000000000000000000000000000000000000000000000000000000 DUP2 MSTORE PUSH1 0x4 ADD PUSH2 0x12F5 SWAP1 PUSH2 0x39FC JUMP JUMPDEST PUSH1 0x40 MLOAD DUP1 SWAP2 SUB SWAP1 REVERT JUMPDEST PUSH1 0x1 PUSH1 0xC PUSH1 0x0 PUSH1 0xE SLOAD DUP2 MSTORE PUSH1 0x20 ADD SWAP1 DUP2 MSTORE PUSH1 0x20 ADD PUSH1 0x0 KECCAK256 PUSH1 0x8 ADD PUSH1 0x0 CALLER PUSH20 0xFFFFFFFFFFFFFFFFFFFFFFFFFFFFFFFFFFFFFFFF AND PUSH20 0xFFFFFFFFFFFFFFFFFFFFFFFFFFFFFFFFFFFFFFFF AND DUP2 MSTORE PUSH1 0x20 ADD SWAP1 DUP2 MSTORE PUSH1 0x20 ADD PUSH1 0x0 KECCAK256 PUSH1 0x0 PUSH2 0x100 EXP DUP2 SLOAD DUP2 PUSH1 0xFF MUL NOT AND SWAP1 DUP4 ISZERO ISZERO MUL OR SWAP1 SSTORE POP PUSH1 0xC PUSH1 0x0 PUSH1 0xE SLOAD DUP2 MSTORE PUSH1 0x20 ADD SWAP1 DUP2 MSTORE PUSH1 0x20 ADD PUSH1 0x0 KECCAK256 PUSH1 0x1 ADD PUSH1 0x0 DUP2 SLOAD DUP1 SWAP3 SWAP2 SWAP1 PUSH2 0x1395 SWAP1 PUSH2 0x3A1C JUMP JUMPDEST SWAP2 SWAP1 POP SSTORE POP PUSH2 0x13A5 CALLER PUSH1 0x1 PUSH2 0x20F9 JUMP JUMPDEST PUSH32 0x1A75C98F3CAA5C596C30E5E4C83E0802685273950677D98A322C514A03B05B57 CALLER PUSH1 0x1 PUSH1 0x40 MLOAD PUSH2 0x13D7 SWAP3 SWAP2 SWAP1 PUSH2 0x3A9F JUMP JUMPDEST PUSH1 0x40 MLOAD DUP1 SWAP2 SUB SWAP1 LOG1 PUSH1 0x1 DUP1 DUP2 SWAP1 SSTORE POP POP POP JUMP JUMPDEST PUSH2 0x13F2 PUSH2 0x1F18 JUMP JUMPDEST PUSH2 0x13FA PUSH2 0x2117 JUMP JUMPDEST PUSH2 0x1404 DUP3 DUP3 PUSH2 0x2164 JUMP JUMPDEST POP POP JUMP JUMPDEST PUSH1 0x0 DUP1 PUSH1 0x0 SWAP1 SLOAD SWAP1 PUSH2 0x100 EXP SWAP1 DIV PUSH20 0xFFFFFFFFFFFFFFFFFFFFFFFFFFFFFFFFFFFFFFFF AND SWAP1 POP SWAP1 JUMP JUMPDEST PUSH1 0x0 PUSH1 0xC PUSH1 0x0 DUP5 DUP2 MSTORE PUSH1 0x20 ADD SWAP1 DUP2 MSTORE PUSH1 0x20 ADD PUSH1 0x0 KECCAK256 PUSH1 0x8 ADD PUSH1 0x0 DUP4 PUSH20 0xFFFFFFFFFFFFFFFFFFFFFFFFFFFFFFFFFFFFFFFF AND PUSH20 0xFFFFFFFFFFFFFFFFFFFFFFFFFFFFFFFFFFFFFFFF AND DUP2 MSTORE PUSH1 0x20 ADD SWAP1 DUP2 MSTORE PUSH1 0x20 ADD PUSH1 0x0 KECCAK256 PUSH1 0x0 SWAP1 SLOAD SWAP1 PUSH2 0x100 EXP SWAP1 DIV PUSH1 0xFF AND SWAP1 POP SWAP3 SWAP2 POP POP JUMP JUMPDEST PUSH1 0x60 PUSH1 0x7 DUP1 SLOAD PUSH2 0x14AB SWAP1 PUSH2 0x336E JUMP JUMPDEST DUP1 PUSH1 0x1F ADD PUSH1 0x20 DUP1 SWAP2 DIV MUL PUSH1 0x20 ADD PUSH1 0x40 MLOAD SWAP1 DUP2 ADD PUSH1 0x40 MSTORE DUP1 SWAP3 SWAP2 SWAP1 DUP2 DUP2 MSTORE PUSH1 0x20 ADD DUP3 DUP1 SLOAD PUSH2 0x14D7 SWAP1 PUSH2 0x336E JUMP JUMPDEST DUP1 ISZERO PUSH2 0x1524 JUMPI DUP1 PUSH1 0x1F LT PUSH2 0x14F9 JUMPI PUSH2 0x100 DUP1 DUP4 SLOAD DIV MUL DUP4 MSTORE SWAP2 PUSH1 0x20 ADD SWAP2 PUSH2 0x1524 JUMP JUMPDEST DUP3 ADD SWAP2 SWAP1 PUSH1 0x0 MSTORE PUSH1 0x20 PUSH1 0x0 KECCAK256 SWAP1 JUMPDEST DUP2 SLOAD DUP2 MSTORE SWAP1 PUSH1 0x1 ADD SWAP1 PUSH1 0x20 ADD DUP1 DUP4 GT PUSH2 0x1507 JUMPI DUP3 SWAP1 SUB PUSH1 0x1F AND DUP3 ADD SWAP2 JUMPDEST POP POP POP POP POP SWAP1 POP SWAP1 JUMP JUMPDEST DUP1 PUSH1 0xB PUSH1 0x0 PUSH2 0x153B PUSH2 0x1E63 JUMP JUMPDEST PUSH20 0xFFFFFFFFFFFFFFFFFFFFFFFFFFFFFFFFFFFFFFFF AND PUSH20 0xFFFFFFFFFFFFFFFFFFFFFFFFFFFFFFFFFFFFFFFF AND DUP2 MSTORE PUSH1 0x20 ADD SWAP1 DUP2 MSTORE PUSH1 0x20 ADD PUSH1 0x0 KECCAK256 PUSH1 0x0 DUP5 PUSH20 0xFFFFFFFFFFFFFFFFFFFFFFFFFFFFFFFFFFFFFFFF AND PUSH20 0xFFFFFFFFFFFFFFFFFFFFFFFFFFFFFFFFFFFFFFFF AND DUP2 MSTORE PUSH1 0x20 ADD SWAP1 DUP2 MSTORE PUSH1 0x20 ADD PUSH1 0x0 KECCAK256 PUSH1 0x0 PUSH2 0x100 EXP DUP2 SLOAD DUP2 PUSH1 0xFF MUL NOT AND SWAP1 DUP4 ISZERO ISZERO MUL OR SWAP1 SSTORE POP DUP2 PUSH20 0xFFFFFFFFFFFFFFFFFFFFFFFFFFFFFFFFFFFFFFFF AND PUSH2 0x15E8 PUSH2 0x1E63 JUMP JUMPDEST PUSH20 0xFFFFFFFFFFFFFFFFFFFFFFFFFFFFFFFFFFFFFFFF AND PUSH32 0x17307EAB39AB6107E8899845AD3D59BD9653F200F220920489CA2B5937696C31 DUP4 PUSH1 0x40 MLOAD PUSH2 0x162D SWAP2 SWAP1 PUSH2 0x295F JUMP JUMPDEST PUSH1 0x40 MLOAD DUP1 SWAP2 SUB SWAP1 LOG3 POP POP JUMP JUMPDEST PUSH2 0x1641 PUSH2 0x1F18 JUMP JUMPDEST PUSH1 0xE PUSH1 0x0 DUP2 SLOAD DUP1 SWAP3 SWAP2 SWAP1 PUSH2 0x1654 SWAP1 PUSH2 0x3A1C JUMP JUMPDEST SWAP2 SWAP1 POP SSTORE POP PUSH1 0xE SLOAD PUSH1 0xC PUSH1 0x0 PUSH1 0xE SLOAD DUP2 MSTORE PUSH1 0x20 ADD SWAP1 DUP2 MSTORE PUSH1 0x20 ADD PUSH1 0x0 KECCAK256 PUSH1 0x0 ADD DUP2 SWAP1 SSTORE POP DUP5 PUSH1 0xC PUSH1 0x0 PUSH1 0xE SLOAD DUP2 MSTORE PUSH1 0x20 ADD SWAP1 DUP2 MSTORE PUSH1 0x20 ADD PUSH1 0x0 KECCAK256 PUSH1 0x2 ADD DUP2 SWAP1 SSTORE POP DUP4 PUSH1 0xC PUSH1 0x0 PUSH1 0xE SLOAD DUP2 MSTORE PUSH1 0x20 ADD SWAP1 DUP2 MSTORE PUSH1 0x20 ADD PUSH1 0x0 KECCAK256 PUSH1 0x3 ADD DUP2 SWAP1 SSTORE POP DUP3 PUSH1 0xC PUSH1 0x0 PUSH1 0xE SLOAD DUP2 MSTORE PUSH1 0x20 ADD SWAP1 DUP2 MSTORE PUSH1 0x20 ADD PUSH1 0x0 KECCAK256 PUSH1 0x5 ADD DUP2 SWAP1 SSTORE POP DUP2 PUSH1 0xC PUSH1 0x0 PUSH1 0xE SLOAD DUP2 MSTORE PUSH1 0x20 ADD SWAP1 DUP2 MSTORE PUSH1 0x20 ADD PUSH1 0x0 KECCAK256 PUSH1 0x6 ADD PUSH1 0x1 PUSH2 0x100 EXP DUP2 SLOAD DUP2 PUSH1 0xFF MUL NOT AND SWAP1 DUP4 ISZERO ISZERO MUL OR SWAP1 SSTORE POP DUP1 PUSH1 0xC PUSH1 0x0 PUSH1 0xE SLOAD DUP2 MSTORE PUSH1 0x20 ADD SWAP1 DUP2 MSTORE PUSH1 0x20 ADD PUSH1 0x0 KECCAK256 PUSH1 0x7 ADD DUP2 SWAP1 SSTORE POP DUP4 PUSH1 0xD PUSH1 0x0 DUP3 DUP3 SLOAD PUSH2 0x172E SWAP2 SWAP1 PUSH2 0x387E JUMP JUMPDEST SWAP3 POP POP DUP2 SWAP1 SSTORE POP POP POP POP POP POP JUMP JUMPDEST PUSH2 0x1744 PUSH2 0x1F18 JUMP JUMPDEST DUP1 PUSH1 0xC PUSH1 0x0 PUSH1 0xE SLOAD DUP2 MSTORE PUSH1 0x20 ADD SWAP1 DUP2 MSTORE PUSH1 0x20 ADD PUSH1 0x0 KECCAK256 PUSH1 0x6 ADD PUSH1 0x1 PUSH2 0x100 EXP DUP2 SLOAD DUP2 PUSH1 0xFF MUL NOT AND SWAP1 DUP4 ISZERO ISZERO MUL OR SWAP1 SSTORE POP POP JUMP JUMPDEST PUSH2 0x177F PUSH2 0x1F18 JUMP JUMPDEST DUP1 PUSH1 0xC PUSH1 0x0 PUSH1 0xE SLOAD DUP2 MSTORE PUSH1 0x20 ADD SWAP1 DUP2 MSTORE PUSH1 0x20 ADD PUSH1 0x0 KECCAK256 PUSH1 0x3 ADD DUP2 SWAP1 SSTORE POP POP JUMP JUMPDEST PUSH2 0x17AA DUP5 DUP5 DUP5 PUSH2 0x922 JUMP JUMPDEST PUSH1 0x0 DUP4 PUSH20 0xFFFFFFFFFFFFFFFFFFFFFFFFFFFFFFFFFFFFFFFF AND EXTCODESIZE EQ PUSH2 0x17EB JUMPI PUSH2 0x17D5 DUP5 DUP5 DUP5 DUP5 PUSH2 0x22F9 JUMP JUMPDEST PUSH2 0x17EA JUMPI PUSH2 0x17E9 PUSH4 0xD1A57ED6 PUSH1 0xE0 SHL PUSH2 0x1C12 JUMP JUMPDEST JUMPDEST JUMPDEST POP POP POP POP JUMP JUMPDEST PUSH1 0x0 DUP1 PUSH1 0x0 DUP1 PUSH1 0x0 DUP1 PUSH1 0x0 PUSH1 0xC PUSH1 0x0 DUP10 DUP2 MSTORE PUSH1 0x20 ADD SWAP1 DUP2 MSTORE PUSH1 0x20 ADD PUSH1 0x0 KECCAK256 PUSH1 0x1 ADD SLOAD PUSH1 0xC PUSH1 0x0 DUP11 DUP2 MSTORE PUSH1 0x20 ADD SWAP1 DUP2 MSTORE PUSH1 0x20 ADD PUSH1 0x0 KECCAK256 PUSH1 0x2 ADD SLOAD PUSH1 0xC PUSH1 0x0 DUP12 DUP2 MSTORE PUSH1 0x20 ADD SWAP1 DUP2 MSTORE PUSH1 0x20 ADD PUSH1 0x0 KECCAK256 PUSH1 0x3 ADD SLOAD PUSH1 0xC PUSH1 0x0 DUP13 DUP2 MSTORE PUSH1 0x20 ADD SWAP1 DUP2 MSTORE PUSH1 0x20 ADD PUSH1 0x0 KECCAK256 PUSH1 0x5 ADD SLOAD PUSH1 0xC PUSH1 0x0 DUP14 DUP2 MSTORE PUSH1 0x20 ADD SWAP1 DUP2 MSTORE PUSH1 0x20 ADD PUSH1 0x0 KECCAK256 PUSH1 0x6 ADD PUSH1 0x0 SWAP1 SLOAD SWAP1 PUSH2 0x100 EXP SWAP1 DIV PUSH1 0xFF AND PUSH1 0xC PUSH1 0x0 DUP15 DUP2 MSTORE PUSH1 0x20 ADD SWAP1 DUP2 MSTORE PUSH1 0x20 ADD PUSH1 0x0 KECCAK256 PUSH1 0x6 ADD PUSH1 0x1 SWAP1 SLOAD SWAP1 PUSH2 0x100 EXP SWAP1 DIV PUSH1 0xFF AND PUSH1 0xC PUSH1 0x0 DUP16 DUP2 MSTORE PUSH1 0x20 ADD SWAP1 DUP2 MSTORE PUSH1 0x20 ADD PUSH1 0x0 KECCAK256 PUSH1 0x7 ADD SLOAD SWAP7 POP SWAP7 POP SWAP7 POP SWAP7 POP SWAP7 POP SWAP7 POP SWAP7 POP SWAP2 SWAP4 SWAP6 SWAP8 SWAP1 SWAP3 SWAP5 SWAP7 POP JUMP JUMPDEST PUSH1 0x60 PUSH1 0x0 PUSH2 0x18DD DUP4 PUSH2 0x2428 JUMP JUMPDEST SWAP1 POP DUP1 PUSH1 0x40 MLOAD PUSH1 0x20 ADD PUSH2 0x18F0 SWAP2 SWAP1 PUSH2 0x3B50 JUMP JUMPDEST PUSH1 0x40 MLOAD PUSH1 0x20 DUP2 DUP4 SUB SUB DUP2 MSTORE SWAP1 PUSH1 0x40 MSTORE SWAP2 POP POP SWAP2 SWAP1 POP JUMP JUMPDEST PUSH2 0x190F PUSH2 0x1F18 JUMP JUMPDEST DUP1 PUSH1 0xC PUSH1 0x0 PUSH1 0xE SLOAD DUP2 MSTORE PUSH1 0x20 ADD SWAP1 DUP2 MSTORE PUSH1 0x20 ADD PUSH1 0x0 KECCAK256 PUSH1 0x2 ADD DUP2 SWAP1 SSTORE POP POP JUMP JUMPDEST PUSH2 0x1937 PUSH2 0x1F18 JUMP JUMPDEST PUSH1 0x0 PUSH1 0xC PUSH1 0x0 PUSH1 0xE SLOAD DUP2 MSTORE PUSH1 0x20 ADD SWAP1 DUP2 MSTORE PUSH1 0x20 ADD PUSH1 0x0 KECCAK256 PUSH1 0x6 ADD PUSH1 0x0 PUSH2 0x100 EXP DUP2 SLOAD DUP2 PUSH1 0xFF MUL NOT AND SWAP1 DUP4 ISZERO ISZERO MUL OR SWAP1 SSTORE POP JUMP JUMPDEST PUSH1 0xD SLOAD DUP2 JUMP JUMPDEST PUSH1 0x0 PUSH1 0xB PUSH1 0x0 DUP5 PUSH20 0xFFFFFFFFFFFFFFFFFFFFFFFFFFFFFFFFFFFFFFFF AND PUSH20 0xFFFFFFFFFFFFFFFFFFFFFFFFFFFFFFFFFFFFFFFF AND DUP2 MSTORE PUSH1 0x20 ADD SWAP1 DUP2 MSTORE PUSH1 0x20 ADD PUSH1 0x0 KECCAK256 PUSH1 0x0 DUP4 PUSH20 0xFFFFFFFFFFFFFFFFFFFFFFFFFFFFFFFFFFFFFFFF AND PUSH20 0xFFFFFFFFFFFFFFFFFFFFFFFFFFFFFFFFFFFFFFFF AND DUP2 MSTORE PUSH1 0x20 ADD SWAP1 DUP2 MSTORE PUSH1 0x20 ADD PUSH1 0x0 KECCAK256 PUSH1 0x0 SWAP1 SLOAD SWAP1 PUSH2 0x100 EXP SWAP1 DIV PUSH1 0xFF AND SWAP1 POP SWAP3 SWAP2 POP POP JUMP JUMPDEST PUSH1 0xE SLOAD DUP2 JUMP JUMPDEST PUSH2 0x1A12 PUSH2 0x1F18 JUMP JUMPDEST PUSH1 0x0 PUSH20 0xFFFFFFFFFFFFFFFFFFFFFFFFFFFFFFFFFFFFFFFF AND DUP2 PUSH20 0xFFFFFFFFFFFFFFFFFFFFFFFFFFFFFFFFFFFFFFFF AND SUB PUSH2 0x1A81 JUMPI PUSH1 0x40 MLOAD PUSH32 0x8C379A000000000000000000000000000000000000000000000000000000000 DUP2 MSTORE PUSH1 0x4 ADD PUSH2 0x1A78 SWAP1 PUSH2 0x3BE4 JUMP JUMPDEST PUSH1 0x40 MLOAD DUP1 SWAP2 SUB SWAP1 REVERT JUMPDEST PUSH2 0x1A8A DUP2 PUSH2 0x1F96 JUMP JUMPDEST POP JUMP JUMPDEST PUSH1 0x0 PUSH4 0x1FFC9A7 PUSH1 0xE0 SHL DUP3 PUSH28 0xFFFFFFFFFFFFFFFFFFFFFFFFFFFFFFFFFFFFFFFFFFFFFFFFFFFFFFFF NOT AND EQ DUP1 PUSH2 0x1AE8 JUMPI POP PUSH4 0x80AC58CD PUSH1 0xE0 SHL DUP3 PUSH28 0xFFFFFFFFFFFFFFFFFFFFFFFFFFFFFFFFFFFFFFFFFFFFFFFFFFFFFFFF NOT AND EQ JUMPDEST DUP1 PUSH2 0x1B18 JUMPI POP PUSH4 0x5B5E139F PUSH1 0xE0 SHL DUP3 PUSH28 0xFFFFFFFFFFFFFFFFFFFFFFFFFFFFFFFFFFFFFFFFFFFFFFFFFFFFFFFF NOT AND EQ JUMPDEST SWAP1 POP SWAP2 SWAP1 POP JUMP JUMPDEST PUSH1 0x0 PUSH32 0x2A55205A00000000000000000000000000000000000000000000000000000000 PUSH28 0xFFFFFFFFFFFFFFFFFFFFFFFFFFFFFFFFFFFFFFFFFFFFFFFFFFFFFFFF NOT AND DUP3 PUSH28 0xFFFFFFFFFFFFFFFFFFFFFFFFFFFFFFFFFFFFFFFFFFFFFFFFFFFFFFFF NOT AND EQ DUP1 PUSH2 0x1B92 JUMPI POP PUSH2 0x1B91 DUP3 PUSH2 0x24A5 JUMP JUMPDEST JUMPDEST SWAP1 POP SWAP2 SWAP1 POP JUMP JUMPDEST PUSH1 0x0 DUP2 PUSH2 0x1BA4 PUSH2 0x1D4B JUMP JUMPDEST GT PUSH2 0x1C0D JUMPI PUSH1 0x4 SLOAD DUP3 LT ISZERO PUSH2 0x1C0C JUMPI PUSH1 0x0 JUMPDEST PUSH1 0x0 PUSH1 0x8 PUSH1 0x0 DUP6 DUP2 MSTORE PUSH1 0x20 ADD SWAP1 DUP2 MSTORE PUSH1 0x20 ADD PUSH1 0x0 KECCAK256 SLOAD SWAP2 POP DUP2 SUB PUSH2 0x1BE5 JUMPI DUP3 PUSH2 0x1BDE SWAP1 PUSH2 0x3C04 JUMP JUMPDEST SWAP3 POP PUSH2 0x1BB6 JUMP JUMPDEST PUSH1 0x0 PUSH29 0x100000000000000000000000000000000000000000000000000000000 DUP3 AND EQ SWAP2 POP POP JUMPDEST JUMPDEST SWAP2 SWAP1 POP JUMP JUMPDEST DUP1 PUSH1 0x0 MSTORE PUSH1 0x4 PUSH1 0x0 REVERT JUMPDEST PUSH1 0x0 PUSH2 0x1C27 DUP4 PUSH2 0xF4F JUMP JUMPDEST SWAP1 POP DUP2 DUP1 ISZERO PUSH2 0x1C69 JUMPI POP DUP1 PUSH20 0xFFFFFFFFFFFFFFFFFFFFFFFFFFFFFFFFFFFFFFFF AND PUSH2 0x1C50 PUSH2 0x1E63 JUMP JUMPDEST PUSH20 0xFFFFFFFFFFFFFFFFFFFFFFFFFFFFFFFFFFFFFFFF AND EQ ISZERO JUMPDEST ISZERO PUSH2 0x1C95 JUMPI PUSH2 0x1C7F DUP2 PUSH2 0x1C7A PUSH2 0x1E63 JUMP JUMPDEST PUSH2 0x1970 JUMP JUMPDEST PUSH2 0x1C94 JUMPI PUSH2 0x1C93 PUSH4 0xCFB3B942 PUSH1 0xE0 SHL PUSH2 0x1C12 JUMP JUMPDEST JUMPDEST JUMPDEST DUP4 PUSH1 0xA PUSH1 0x0 DUP6 DUP2 MSTORE PUSH1 0x20 ADD SWAP1 DUP2 MSTORE PUSH1 0x20 ADD PUSH1 0x0 KECCAK256 PUSH1 0x0 ADD PUSH1 0x0 PUSH2 0x100 EXP DUP2 SLOAD DUP2 PUSH20 0xFFFFFFFFFFFFFFFFFFFFFFFFFFFFFFFFFFFFFFFF MUL NOT AND SWAP1 DUP4 PUSH20 0xFFFFFFFFFFFFFFFFFFFFFFFFFFFFFFFFFFFFFFFF AND MUL OR SWAP1 SSTORE POP DUP3 DUP5 PUSH20 0xFFFFFFFFFFFFFFFFFFFFFFFFFFFFFFFFFFFFFFFF AND DUP3 PUSH20 0xFFFFFFFFFFFFFFFFFFFFFFFFFFFFFFFFFFFFFFFF AND PUSH32 0x8C5BE1E5EBEC7D5BD14F71427D1E84F3DD0314C0F7B2291E5B200AC8C7C3B925 PUSH1 0x40 MLOAD PUSH1 0x40 MLOAD DUP1 SWAP2 SUB SWAP1 LOG4 POP POP POP POP JUMP JUMPDEST PUSH1 0x0 SWAP1 JUMP JUMPDEST PUSH1 0x0 DUP2 PUSH2 0x1D5B PUSH2 0x1D4B JUMP JUMPDEST GT PUSH2 0x1E26 JUMPI PUSH1 0x8 PUSH1 0x0 DUP4 DUP2 MSTORE PUSH1 0x20 ADD SWAP1 DUP2 MSTORE PUSH1 0x20 ADD PUSH1 0x0 KECCAK256 SLOAD SWAP1 POP PUSH1 0x0 DUP2 SUB PUSH2 0x1DFD JUMPI PUSH1 0x4 SLOAD DUP3 LT PUSH2 0x1D98 JUMPI PUSH2 0x1D97 PUSH4 0xDF2D9B42 PUSH1 0xE0 SHL PUSH2 0x1C12 JUMP JUMPDEST JUMPDEST JUMPDEST PUSH1 0x8 PUSH1 0x0 DUP4 PUSH1 0x1 SWAP1 SUB SWAP4 POP DUP4 DUP2 MSTORE PUSH1 0x20 ADD SWAP1 DUP2 MSTORE PUSH1 0x20 ADD PUSH1 0x0 KECCAK256 SLOAD SWAP1 POP PUSH1 0x0 DUP2 SUB ISZERO PUSH2 0x1DF8 JUMPI PUSH1 0x0 PUSH29 0x100000000000000000000000000000000000000000000000000000000 DUP3 AND SUB ISZERO PUSH2 0x1E37 JUMPI PUSH2 0x1DF7 PUSH4 0xDF2D9B42 PUSH1 0xE0 SHL PUSH2 0x1C12 JUMP JUMPDEST JUMPDEST PUSH2 0x1D99 JUMP JUMPDEST PUSH1 0x0 PUSH29 0x100000000000000000000000000000000000000000000000000000000 DUP3 AND SUB ISZERO PUSH2 0x1E37 JUMPI JUMPDEST PUSH2 0x1E36 PUSH4 0xDF2D9B42 PUSH1 0xE0 SHL PUSH2 0x1C12 JUMP JUMPDEST JUMPDEST SWAP2 SWAP1 POP JUMP JUMPDEST PUSH1 0x0 DUP1 PUSH1 0x0 PUSH1 0xA PUSH1 0x0 DUP6 DUP2 MSTORE PUSH1 0x20 ADD SWAP1 DUP2 MSTORE PUSH1 0x20 ADD PUSH1 0x0 KECCAK256 SWAP1 POP DUP1 SWAP3 POP DUP3 SLOAD SWAP2 POP POP SWAP2 POP SWAP2 JUMP JUMPDEST PUSH1 0x0 CALLER SWAP1 POP SWAP1 JUMP JUMPDEST PUSH1 0x0 PUSH20 0xFFFFFFFFFFFFFFFFFFFFFFFFFFFFFFFFFFFFFFFF DUP4 AND SWAP3 POP PUSH20 0xFFFFFFFFFFFFFFFFFFFFFFFFFFFFFFFFFFFFFFFF DUP3 AND SWAP2 POP DUP4 DUP3 EQ DUP4 DUP4 EQ OR SWAP1 POP SWAP4 SWAP3 POP POP POP JUMP JUMPDEST POP POP POP POP JUMP JUMPDEST PUSH1 0x0 DUP1 PUSH1 0xE8 DUP4 SWAP1 SHR SWAP1 POP PUSH1 0xE8 PUSH2 0x1ECC DUP7 DUP7 DUP5 PUSH2 0x250F JUMP JUMPDEST PUSH3 0xFFFFFF AND SWAP1 SHL SWAP2 POP POP SWAP4 SWAP3 POP POP POP JUMP JUMPDEST PUSH1 0x0 PUSH20 0xFFFFFFFFFFFFFFFFFFFFFFFFFFFFFFFFFFFFFFFF DUP4 AND SWAP3 POP DUP2 TIMESTAMP PUSH1 0xA0 SHL OR DUP4 OR SWAP1 POP SWAP3 SWAP2 POP POP JUMP JUMPDEST POP POP POP POP JUMP JUMPDEST PUSH1 0x0 PUSH2 0x2710 SWAP1 POP SWAP1 JUMP JUMPDEST PUSH2 0x1F20 PUSH2 0x2518 JUMP JUMPDEST PUSH20 0xFFFFFFFFFFFFFFFFFFFFFFFFFFFFFFFFFFFFFFFF AND PUSH2 0x1F3E PUSH2 0x1408 JUMP JUMPDEST PUSH20 0xFFFFFFFFFFFFFFFFFFFFFFFFFFFFFFFFFFFFFFFF AND EQ PUSH2 0x1F94 JUMPI PUSH1 0x40 MLOAD PUSH32 0x8C379A000000000000000000000000000000000000000000000000000000000 DUP2 MSTORE PUSH1 0x4 ADD PUSH2 0x1F8B SWAP1 PUSH2 0x3C79 JUMP JUMPDEST PUSH1 0x40 MLOAD DUP1 SWAP2 SUB SWAP1 REVERT JUMPDEST JUMP JUMPDEST PUSH1 0x0 DUP1 PUSH1 0x0 SWAP1 SLOAD SWAP1 PUSH2 0x100 EXP SWAP1 DIV PUSH20 0xFFFFFFFFFFFFFFFFFFFFFFFFFFFFFFFFFFFFFFFF AND SWAP1 POP DUP2 PUSH1 0x0 DUP1 PUSH2 0x100 EXP DUP2 SLOAD DUP2 PUSH20 0xFFFFFFFFFFFFFFFFFFFFFFFFFFFFFFFFFFFFFFFF MUL NOT AND SWAP1 DUP4 PUSH20 0xFFFFFFFFFFFFFFFFFFFFFFFFFFFFFFFFFFFFFFFF AND MUL OR SWAP1 SSTORE POP DUP2 PUSH20 0xFFFFFFFFFFFFFFFFFFFFFFFFFFFFFFFFFFFFFFFF AND DUP2 PUSH20 0xFFFFFFFFFFFFFFFFFFFFFFFFFFFFFFFFFFFFFFFF AND PUSH32 0x8BE0079C531659141344CD1FD0A4F28419497F9722A3DAAFE3B4186F6B6457E0 PUSH1 0x40 MLOAD PUSH1 0x40 MLOAD DUP1 SWAP2 SUB SWAP1 LOG3 POP POP JUMP JUMPDEST PUSH1 0x0 DUP1 CALLER PUSH1 0x40 MLOAD PUSH1 0x20 ADD PUSH2 0x206E SWAP2 SWAP1 PUSH2 0x2AD0 JUMP JUMPDEST PUSH1 0x40 MLOAD PUSH1 0x20 DUP2 DUP4 SUB SUB DUP2 MSTORE SWAP1 PUSH1 0x40 MSTORE DUP1 MLOAD SWAP1 PUSH1 0x20 ADD KECCAK256 SWAP1 POP PUSH1 0x0 PUSH2 0x20EC DUP6 DUP6 DUP1 DUP1 PUSH1 0x20 MUL PUSH1 0x20 ADD PUSH1 0x40 MLOAD SWAP1 DUP2 ADD PUSH1 0x40 MSTORE DUP1 SWAP4 SWAP3 SWAP2 SWAP1 DUP2 DUP2 MSTORE PUSH1 0x20 ADD DUP4 DUP4 PUSH1 0x20 MUL DUP1 DUP3 DUP5 CALLDATACOPY PUSH1 0x0 DUP2 DUP5 ADD MSTORE PUSH1 0x1F NOT PUSH1 0x1F DUP3 ADD AND SWAP1 POP DUP1 DUP4 ADD SWAP3 POP POP POP POP POP POP POP PUSH1 0xC PUSH1 0x0 PUSH1 0xE SLOAD DUP2 MSTORE PUSH1 0x20 ADD SWAP1 DUP2 MSTORE PUSH1 0x20 ADD PUSH1 0x0 KECCAK256 PUSH1 0x7 ADD SLOAD DUP5 PUSH2 0x2520 JUMP JUMPDEST SWAP1 POP DUP1 SWAP3 POP POP POP SWAP3 SWAP2 POP POP JUMP JUMPDEST PUSH2 0x2113 DUP3 DUP3 PUSH1 0x40 MLOAD DUP1 PUSH1 0x20 ADD PUSH1 0x40 MSTORE DUP1 PUSH1 0x0 DUP2 MSTORE POP PUSH2 0x2537 JUMP JUMPDEST POP POP JUMP JUMPDEST PUSH1 0x2 PUSH1 0x0 DUP1 DUP3 ADD PUSH1 0x0 PUSH2 0x100 EXP DUP2 SLOAD SWAP1 PUSH20 0xFFFFFFFFFFFFFFFFFFFFFFFFFFFFFFFFFFFFFFFF MUL NOT AND SWAP1 SSTORE PUSH1 0x0 DUP3 ADD PUSH1 0x14 PUSH2 0x100 EXP DUP2 SLOAD SWAP1 PUSH12 0xFFFFFFFFFFFFFFFFFFFFFFFF MUL NOT AND SWAP1 SSTORE POP POP JUMP JUMPDEST PUSH2 0x216C PUSH2 0x1F0E JUMP JUMPDEST PUSH12 0xFFFFFFFFFFFFFFFFFFFFFFFF AND DUP2 PUSH12 0xFFFFFFFFFFFFFFFFFFFFFFFF AND GT ISZERO PUSH2 0x21CA JUMPI PUSH1 0x40 MLOAD PUSH32 0x8C379A000000000000000000000000000000000000000000000000000000000 DUP2 MSTORE PUSH1 0x4 ADD PUSH2 0x21C1 SWAP1 PUSH2 0x3D0B JUMP JUMPDEST PUSH1 0x40 MLOAD DUP1 SWAP2 SUB SWAP1 REVERT JUMPDEST PUSH1 0x0 PUSH20 0xFFFFFFFFFFFFFFFFFFFFFFFFFFFFFFFFFFFFFFFF AND DUP3 PUSH20 0xFFFFFFFFFFFFFFFFFFFFFFFFFFFFFFFFFFFFFFFF AND SUB PUSH2 0x2239 JUMPI PUSH1 0x40 MLOAD PUSH32 0x8C379A000000000000000000000000000000000000000000000000000000000 DUP2 MSTORE PUSH1 0x4 ADD PUSH2 0x2230 SWAP1 PUSH2 0x3D77 JUMP JUMPDEST PUSH1 0x40 MLOAD DUP1 SWAP2 SUB SWAP1 REVERT JUMPDEST PUSH1 0x40 MLOAD DUP1 PUSH1 0x40 ADD PUSH1 0x40 MSTORE DUP1 DUP4 PUSH20 0xFFFFFFFFFFFFFFFFFFFFFFFFFFFFFFFFFFFFFFFF AND DUP2 MSTORE PUSH1 0x20 ADD DUP3 PUSH12 0xFFFFFFFFFFFFFFFFFFFFFFFF AND DUP2 MSTORE POP PUSH1 0x2 PUSH1 0x0 DUP3 ADD MLOAD DUP2 PUSH1 0x0 ADD PUSH1 0x0 PUSH2 0x100 EXP DUP2 SLOAD DUP2 PUSH20 0xFFFFFFFFFFFFFFFFFFFFFFFFFFFFFFFFFFFFFFFF MUL NOT AND SWAP1 DUP4 PUSH20 0xFFFFFFFFFFFFFFFFFFFFFFFFFFFFFFFFFFFFFFFF AND MUL OR SWAP1 SSTORE POP PUSH1 0x20 DUP3 ADD MLOAD DUP2 PUSH1 0x0 ADD PUSH1 0x14 PUSH2 0x100 EXP DUP2 SLOAD DUP2 PUSH12 0xFFFFFFFFFFFFFFFFFFFFFFFF MUL NOT AND SWAP1 DUP4 PUSH12 0xFFFFFFFFFFFFFFFFFFFFFFFF AND MUL OR SWAP1 SSTORE POP SWAP1 POP POP POP POP JUMP JUMPDEST PUSH1 0x0 DUP4 PUSH20 0xFFFFFFFFFFFFFFFFFFFFFFFFFFFFFFFFFFFFFFFF AND PUSH4 0x150B7A02 PUSH2 0x231F PUSH2 0x1E63 JUMP JUMPDEST DUP8 DUP7 DUP7 PUSH1 0x40 MLOAD DUP6 PUSH4 0xFFFFFFFF AND PUSH1 0xE0 SHL DUP2 MSTORE PUSH1 0x4 ADD PUSH2 0x2341 SWAP5 SWAP4 SWAP3 SWAP2 SWAP1 PUSH2 0x3DEC JUMP JUMPDEST PUSH1 0x20 PUSH1 0x40 MLOAD DUP1 DUP4 SUB DUP2 PUSH1 0x0 DUP8 GAS CALL SWAP3 POP POP POP DUP1 ISZERO PUSH2 0x237D JUMPI POP PUSH1 0x40 MLOAD RETURNDATASIZE PUSH1 0x1F NOT PUSH1 0x1F DUP3 ADD AND DUP3 ADD DUP1 PUSH1 0x40 MSTORE POP DUP2 ADD SWAP1 PUSH2 0x237A SWAP2 SWAP1 PUSH2 0x3E4D JUMP JUMPDEST PUSH1 0x1 JUMPDEST PUSH2 0x23D5 JUMPI RETURNDATASIZE DUP1 PUSH1 0x0 DUP2 EQ PUSH2 0x23AD JUMPI PUSH1 0x40 MLOAD SWAP2 POP PUSH1 0x1F NOT PUSH1 0x3F RETURNDATASIZE ADD AND DUP3 ADD PUSH1 0x40 MSTORE RETURNDATASIZE DUP3 MSTORE RETURNDATASIZE PUSH1 0x0 PUSH1 0x20 DUP5 ADD RETURNDATACOPY PUSH2 0x23B2 JUMP JUMPDEST PUSH1 0x60 SWAP2 POP JUMPDEST POP PUSH1 0x0 DUP2 MLOAD SUB PUSH2 0x23CD JUMPI PUSH2 0x23CC PUSH4 0xD1A57ED6 PUSH1 0xE0 SHL PUSH2 0x1C12 JUMP JUMPDEST JUMPDEST DUP1 MLOAD DUP2 PUSH1 0x20 ADD REVERT JUMPDEST PUSH4 0x150B7A02 PUSH1 0xE0 SHL PUSH28 0xFFFFFFFFFFFFFFFFFFFFFFFFFFFFFFFFFFFFFFFFFFFFFFFFFFFFFFFF NOT AND DUP2 PUSH28 0xFFFFFFFFFFFFFFFFFFFFFFFFFFFFFFFFFFFFFFFFFFFFFFFFFFFFFFFF NOT AND EQ SWAP2 POP POP SWAP5 SWAP4 POP POP POP POP JUMP JUMPDEST PUSH1 0x60 PUSH2 0x2433 DUP3 PUSH2 0x1B99 JUMP JUMPDEST PUSH2 0x2448 JUMPI PUSH2 0x2447 PUSH4 0xA14C4B50 PUSH1 0xE0 SHL PUSH2 0x1C12 JUMP JUMPDEST JUMPDEST PUSH1 0x0 PUSH2 0x2452 PUSH2 0x25BD JUMP JUMPDEST SWAP1 POP PUSH1 0x0 DUP2 MLOAD SUB PUSH2 0x2472 JUMPI PUSH1 0x40 MLOAD DUP1 PUSH1 0x20 ADD PUSH1 0x40 MSTORE DUP1 PUSH1 0x0 DUP2 MSTORE POP PUSH2 0x249D JUMP JUMPDEST DUP1 PUSH2 0x247C DUP5 PUSH2 0x264F JUMP JUMPDEST PUSH1 0x40 MLOAD PUSH1 0x20 ADD PUSH2 0x248D SWAP3 SWAP2 SWAP1 PUSH2 0x3E7A JUMP JUMPDEST PUSH1 0x40 MLOAD PUSH1 0x20 DUP2 DUP4 SUB SUB DUP2 MSTORE SWAP1 PUSH1 0x40 MSTORE JUMPDEST SWAP2 POP POP SWAP2 SWAP1 POP JUMP JUMPDEST PUSH1 0x0 PUSH32 0x1FFC9A700000000000000000000000000000000000000000000000000000000 PUSH28 0xFFFFFFFFFFFFFFFFFFFFFFFFFFFFFFFFFFFFFFFFFFFFFFFFFFFFFFFF NOT AND DUP3 PUSH28 0xFFFFFFFFFFFFFFFFFFFFFFFFFFFFFFFFFFFFFFFFFFFFFFFFFFFFFFFF NOT AND EQ SWAP1 POP SWAP2 SWAP1 POP JUMP JUMPDEST PUSH1 0x0 SWAP4 SWAP3 POP POP POP JUMP JUMPDEST PUSH1 0x0 CALLER SWAP1 POP SWAP1 JUMP JUMPDEST PUSH1 0x0 DUP3 PUSH2 0x252D DUP6 DUP5 PUSH2 0x269F JUMP JUMPDEST EQ SWAP1 POP SWAP4 SWAP3 POP POP POP JUMP JUMPDEST PUSH2 0x2541 DUP4 DUP4 PUSH2 0x26F5 JUMP JUMPDEST PUSH1 0x0 DUP4 PUSH20 0xFFFFFFFFFFFFFFFFFFFFFFFFFFFFFFFFFFFFFFFF AND EXTCODESIZE EQ PUSH2 0x25B8 JUMPI PUSH1 0x0 PUSH1 0x4 SLOAD SWAP1 POP PUSH1 0x0 DUP4 DUP3 SUB SWAP1 POP JUMPDEST PUSH2 0x2582 PUSH1 0x0 DUP7 DUP4 DUP1 PUSH1 0x1 ADD SWAP5 POP DUP7 PUSH2 0x22F9 JUMP JUMPDEST PUSH2 0x2597 JUMPI PUSH2 0x2596 PUSH4 0xD1A57ED6 PUSH1 0xE0 SHL PUSH2 0x1C12 JUMP JUMPDEST JUMPDEST DUP2 DUP2 LT PUSH2 0x256F JUMPI DUP2 PUSH1 0x4 SLOAD EQ PUSH2 0x25B5 JUMPI PUSH2 0x25B4 PUSH1 0x0 PUSH1 0xE0 SHL PUSH2 0x1C12 JUMP JUMPDEST JUMPDEST POP POP JUMPDEST POP POP POP JUMP JUMPDEST PUSH1 0x60 PUSH1 0xF DUP1 SLOAD PUSH2 0x25CC SWAP1 PUSH2 0x336E JUMP JUMPDEST DUP1 PUSH1 0x1F ADD PUSH1 0x20 DUP1 SWAP2 DIV MUL PUSH1 0x20 ADD PUSH1 0x40 MLOAD SWAP1 DUP2 ADD PUSH1 0x40 MSTORE DUP1 SWAP3 SWAP2 SWAP1 DUP2 DUP2 MSTORE PUSH1 0x20 ADD DUP3 DUP1 SLOAD PUSH2 0x25F8 SWAP1 PUSH2 0x336E JUMP JUMPDEST DUP1 ISZERO PUSH2 0x2645 JUMPI DUP1 PUSH1 0x1F LT PUSH2 0x261A JUMPI PUSH2 0x100 DUP1 DUP4 SLOAD DIV MUL DUP4 MSTORE SWAP2 PUSH1 0x20 ADD SWAP2 PUSH2 0x2645 JUMP JUMPDEST DUP3 ADD SWAP2 SWAP1 PUSH1 0x0 MSTORE PUSH1 0x20 PUSH1 0x0 KECCAK256 SWAP1 JUMPDEST DUP2 SLOAD DUP2 MSTORE SWAP1 PUSH1 0x1 ADD SWAP1 PUSH1 0x20 ADD DUP1 DUP4 GT PUSH2 0x2628 JUMPI DUP3 SWAP1 SUB PUSH1 0x1F AND DUP3 ADD SWAP2 JUMPDEST POP POP POP POP POP SWAP1 POP SWAP1 JUMP JUMPDEST PUSH1 0x60 PUSH1 0xA0 PUSH1 0x40 MLOAD ADD DUP1 PUSH1 0x40 MSTORE PUSH1 0x20 DUP2 SUB SWAP2 POP PUSH1 0x0 DUP3 MSTORE DUP2 DUP4 JUMPDEST PUSH1 0x1 ISZERO PUSH2 0x268A JUMPI PUSH1 0x1 DUP5 SUB SWAP4 POP PUSH1 0xA DUP2 MOD PUSH1 0x30 ADD DUP5 MSTORE8 PUSH1 0xA DUP2 DIV SWAP1 POP DUP1 PUSH2 0x2668 JUMPI JUMPDEST POP DUP3 DUP2 SUB PUSH1 0x20 DUP5 SUB SWAP4 POP DUP1 DUP5 MSTORE POP POP POP SWAP2 SWAP1 POP JUMP JUMPDEST PUSH1 0x0 DUP1 DUP3 SWAP1 POP PUSH1 0x0 JUMPDEST DUP5 MLOAD DUP2 LT ISZERO PUSH2 0x26EA JUMPI PUSH2 0x26D5 DUP3 DUP7 DUP4 DUP2 MLOAD DUP2 LT PUSH2 0x26C8 JUMPI PUSH2 0x26C7 PUSH2 0x3E9E JUMP JUMPDEST JUMPDEST PUSH1 0x20 MUL PUSH1 0x20 ADD ADD MLOAD PUSH2 0x2859 JUMP JUMPDEST SWAP2 POP DUP1 DUP1 PUSH2 0x26E2 SWAP1 PUSH2 0x3A1C JUMP JUMPDEST SWAP2 POP POP PUSH2 0x26A8 JUMP JUMPDEST POP DUP1 SWAP2 POP POP SWAP3 SWAP2 POP POP JUMP JUMPDEST PUSH1 0x0 PUSH1 0x4 SLOAD SWAP1 POP PUSH1 0x0 DUP3 SUB PUSH2 0x2715 JUMPI PUSH2 0x2714 PUSH4 0xB562E8DD PUSH1 0xE0 SHL PUSH2 0x1C12 JUMP JUMPDEST JUMPDEST PUSH2 0x2722 PUSH1 0x0 DUP5 DUP4 DUP6 PUSH2 0x1EAF JUMP JUMPDEST PUSH2 0x2742 DUP4 PUSH2 0x2733 PUSH1 0x0 DUP7 PUSH1 0x0 PUSH2 0x1EB5 JUMP JUMPDEST PUSH2 0x273C DUP6 PUSH2 0x2884 JUMP JUMPDEST OR PUSH2 0x1EDD JUMP JUMPDEST PUSH1 0x8 PUSH1 0x0 DUP4 DUP2 MSTORE PUSH1 0x20 ADD SWAP1 DUP2 MSTORE PUSH1 0x20 ADD PUSH1 0x0 KECCAK256 DUP2 SWAP1 SSTORE POP PUSH1 0x1 PUSH1 0x40 PUSH1 0x1 SWAP1 SHL OR DUP3 MUL PUSH1 0x9 PUSH1 0x0 DUP6 PUSH20 0xFFFFFFFFFFFFFFFFFFFFFFFFFFFFFFFFFFFFFFFF AND PUSH20 0xFFFFFFFFFFFFFFFFFFFFFFFFFFFFFFFFFFFFFFFF AND DUP2 MSTORE PUSH1 0x20 ADD SWAP1 DUP2 MSTORE PUSH1 0x20 ADD PUSH1 0x0 KECCAK256 PUSH1 0x0 DUP3 DUP3 SLOAD ADD SWAP3 POP POP DUP2 SWAP1 SSTORE POP PUSH1 0x0 PUSH20 0xFFFFFFFFFFFFFFFFFFFFFFFFFFFFFFFFFFFFFFFF DUP5 PUSH20 0xFFFFFFFFFFFFFFFFFFFFFFFFFFFFFFFFFFFFFFFF AND AND SWAP1 POP PUSH1 0x0 DUP2 SUB PUSH2 0x27FA JUMPI PUSH2 0x27F9 PUSH4 0x2E076300 PUSH1 0xE0 SHL PUSH2 0x1C12 JUMP JUMPDEST JUMPDEST PUSH1 0x0 DUP4 DUP4 ADD SWAP1 POP PUSH1 0x0 DUP4 SWAP1 POP JUMPDEST DUP1 DUP4 PUSH1 0x0 PUSH32 0xDDF252AD1BE2C89B69C2B068FC378DAA952BA7F163C4A11628F55A4DF523B3EF PUSH1 0x0 DUP1 LOG4 DUP2 DUP2 PUSH1 0x1 ADD SWAP2 POP DUP2 SUB PUSH2 0x2807 JUMPI DUP2 PUSH1 0x4 DUP2 SWAP1 SSTORE POP POP POP POP PUSH2 0x2854 PUSH1 0x0 DUP5 DUP4 DUP6 PUSH2 0x1F08 JUMP JUMPDEST POP POP POP JUMP JUMPDEST PUSH1 0x0 DUP2 DUP4 LT PUSH2 0x2871 JUMPI PUSH2 0x286C DUP3 DUP5 PUSH2 0x2894 JUMP JUMPDEST PUSH2 0x287C JUMP JUMPDEST PUSH2 0x287B DUP4 DUP4 PUSH2 0x2894 JUMP JUMPDEST JUMPDEST SWAP1 POP SWAP3 SWAP2 POP POP JUMP JUMPDEST PUSH1 0x0 PUSH1 0x1 DUP3 EQ PUSH1 0xE1 SHL SWAP1 POP SWAP2 SWAP1 POP JUMP JUMPDEST PUSH1 0x0 DUP3 PUSH1 0x0 MSTORE DUP2 PUSH1 0x20 MSTORE PUSH1 0x40 PUSH1 0x0 KECCAK256 SWAP1 POP SWAP3 SWAP2 POP POP JUMP JUMPDEST PUSH1 0x0 PUSH1 0x40 MLOAD SWAP1 POP SWAP1 JUMP JUMPDEST PUSH1 0x0 DUP1 REVERT JUMPDEST PUSH1 0x0 DUP1 REVERT JUMPDEST PUSH1 0x0 PUSH32 0xFFFFFFFF00000000000000000000000000000000000000000000000000000000 DUP3 AND SWAP1 POP SWAP2 SWAP1 POP JUMP JUMPDEST PUSH2 0x28F4 DUP2 PUSH2 0x28BF JUMP JUMPDEST DUP2 EQ PUSH2 0x28FF JUMPI PUSH1 0x0 DUP1 REVERT JUMPDEST POP JUMP JUMPDEST PUSH1 0x0 DUP2 CALLDATALOAD SWAP1 POP PUSH2 0x2911 DUP2 PUSH2 0x28EB JUMP JUMPDEST SWAP3 SWAP2 POP POP JUMP JUMPDEST PUSH1 0x0 PUSH1 0x20 DUP3 DUP5 SUB SLT ISZERO PUSH2 0x292D JUMPI PUSH2 0x292C PUSH2 0x28B5 JUMP JUMPDEST JUMPDEST PUSH1 0x0 PUSH2 0x293B DUP5 DUP3 DUP6 ADD PUSH2 0x2902 JUMP JUMPDEST SWAP2 POP POP SWAP3 SWAP2 POP POP JUMP JUMPDEST PUSH1 0x0 DUP2 ISZERO ISZERO SWAP1 POP SWAP2 SWAP1 POP JUMP JUMPDEST PUSH2 0x2959 DUP2 PUSH2 0x2944 JUMP JUMPDEST DUP3 MSTORE POP POP JUMP JUMPDEST PUSH1 0x0 PUSH1 0x20 DUP3 ADD SWAP1 POP PUSH2 0x2974 PUSH1 0x0 DUP4 ADD DUP5 PUSH2 0x2950 JUMP JUMPDEST SWAP3 SWAP2 POP POP JUMP JUMPDEST PUSH1 0x0 DUP2 MLOAD SWAP1 POP SWAP2 SWAP1 POP JUMP JUMPDEST PUSH1 0x0 DUP3 DUP3 MSTORE PUSH1 0x20 DUP3 ADD SWAP1 POP SWAP3 SWAP2 POP POP JUMP JUMPDEST PUSH1 0x0 JUMPDEST DUP4 DUP2 LT ISZERO PUSH2 0x29B4 JUMPI DUP1 DUP3 ADD MLOAD DUP2 DUP5 ADD MSTORE PUSH1 0x20 DUP2 ADD SWAP1 POP PUSH2 0x2999 JUMP JUMPDEST PUSH1 0x0 DUP5 DUP5 ADD MSTORE POP POP POP POP JUMP JUMPDEST PUSH1 0x0 PUSH1 0x1F NOT PUSH1 0x1F DUP4 ADD AND SWAP1 POP SWAP2 SWAP1 POP JUMP JUMPDEST PUSH1 0x0 PUSH2 0x29DC DUP3 PUSH2 0x297A JUMP JUMPDEST PUSH2 0x29E6 DUP2 DUP6 PUSH2 0x2985 JUMP JUMPDEST SWAP4 POP PUSH2 0x29F6 DUP2 DUP6 PUSH1 0x20 DUP7 ADD PUSH2 0x2996 JUMP JUMPDEST PUSH2 0x29FF DUP2 PUSH2 0x29C0 JUMP JUMPDEST DUP5 ADD SWAP2 POP POP SWAP3 SWAP2 POP POP JUMP JUMPDEST PUSH1 0x0 PUSH1 0x20 DUP3 ADD SWAP1 POP DUP2 DUP2 SUB PUSH1 0x0 DUP4 ADD MSTORE PUSH2 0x2A24 DUP2 DUP5 PUSH2 0x29D1 JUMP JUMPDEST SWAP1 POP SWAP3 SWAP2 POP POP JUMP JUMPDEST PUSH1 0x0 DUP2 SWAP1 POP SWAP2 SWAP1 POP JUMP JUMPDEST PUSH2 0x2A3F DUP2 PUSH2 0x2A2C JUMP JUMPDEST DUP2 EQ PUSH2 0x2A4A JUMPI PUSH1 0x0 DUP1 REVERT JUMPDEST POP JUMP JUMPDEST PUSH1 0x0 DUP2 CALLDATALOAD SWAP1 POP PUSH2 0x2A5C DUP2 PUSH2 0x2A36 JUMP JUMPDEST SWAP3 SWAP2 POP POP JUMP JUMPDEST PUSH1 0x0 PUSH1 0x20 DUP3 DUP5 SUB SLT ISZERO PUSH2 0x2A78 JUMPI PUSH2 0x2A77 PUSH2 0x28B5 JUMP JUMPDEST JUMPDEST PUSH1 0x0 PUSH2 0x2A86 DUP5 DUP3 DUP6 ADD PUSH2 0x2A4D JUMP JUMPDEST SWAP2 POP POP SWAP3 SWAP2 POP POP JUMP JUMPDEST PUSH1 0x0 PUSH20 0xFFFFFFFFFFFFFFFFFFFFFFFFFFFFFFFFFFFFFFFF DUP3 AND SWAP1 POP SWAP2 SWAP1 POP JUMP JUMPDEST PUSH1 0x0 PUSH2 0x2ABA DUP3 PUSH2 0x2A8F JUMP JUMPDEST SWAP1 POP SWAP2 SWAP1 POP JUMP JUMPDEST PUSH2 0x2ACA DUP2 PUSH2 0x2AAF JUMP JUMPDEST DUP3 MSTORE POP POP JUMP JUMPDEST PUSH1 0x0 PUSH1 0x20 DUP3 ADD SWAP1 POP PUSH2 0x2AE5 PUSH1 0x0 DUP4 ADD DUP5 PUSH2 0x2AC1 JUMP JUMPDEST SWAP3 SWAP2 POP POP JUMP JUMPDEST PUSH2 0x2AF4 DUP2 PUSH2 0x2AAF JUMP JUMPDEST DUP2 EQ PUSH2 0x2AFF JUMPI PUSH1 0x0 DUP1 REVERT JUMPDEST POP JUMP JUMPDEST PUSH1 0x0 DUP2 CALLDATALOAD SWAP1 POP PUSH2 0x2B11 DUP2 PUSH2 0x2AEB JUMP JUMPDEST SWAP3 SWAP2 POP POP JUMP JUMPDEST PUSH1 0x0 DUP1 PUSH1 0x40 DUP4 DUP6 SUB SLT ISZERO PUSH2 0x2B2E JUMPI PUSH2 0x2B2D PUSH2 0x28B5 JUMP JUMPDEST JUMPDEST PUSH1 0x0 PUSH2 0x2B3C DUP6 DUP3 DUP7 ADD PUSH2 0x2B02 JUMP JUMPDEST SWAP3 POP POP PUSH1 0x20 PUSH2 0x2B4D DUP6 DUP3 DUP7 ADD PUSH2 0x2A4D JUMP JUMPDEST SWAP2 POP POP SWAP3 POP SWAP3 SWAP1 POP JUMP JUMPDEST PUSH2 0x2B60 DUP2 PUSH2 0x2A2C JUMP JUMPDEST DUP3 MSTORE POP POP JUMP JUMPDEST PUSH1 0x0 PUSH1 0x20 DUP3 ADD SWAP1 POP PUSH2 0x2B7B PUSH1 0x0 DUP4 ADD DUP5 PUSH2 0x2B57 JUMP JUMPDEST SWAP3 SWAP2 POP POP JUMP JUMPDEST PUSH1 0x0 DUP1 PUSH1 0x0 PUSH1 0x60 DUP5 DUP7 SUB SLT ISZERO PUSH2 0x2B9A JUMPI PUSH2 0x2B99 PUSH2 0x28B5 JUMP JUMPDEST JUMPDEST PUSH1 0x0 PUSH2 0x2BA8 DUP7 DUP3 DUP8 ADD PUSH2 0x2B02 JUMP JUMPDEST SWAP4 POP POP PUSH1 0x20 PUSH2 0x2BB9 DUP7 DUP3 DUP8 ADD PUSH2 0x2B02 JUMP JUMPDEST SWAP3 POP POP PUSH1 0x40 PUSH2 0x2BCA DUP7 DUP3 DUP8 ADD PUSH2 0x2A4D JUMP JUMPDEST SWAP2 POP POP SWAP3 POP SWAP3 POP SWAP3 JUMP JUMPDEST PUSH1 0x0 DUP1 PUSH1 0x40 DUP4 DUP6 SUB SLT ISZERO PUSH2 0x2BEB JUMPI PUSH2 0x2BEA PUSH2 0x28B5 JUMP JUMPDEST JUMPDEST PUSH1 0x0 PUSH2 0x2BF9 DUP6 DUP3 DUP7 ADD PUSH2 0x2A4D JUMP JUMPDEST SWAP3 POP POP PUSH1 0x20 PUSH2 0x2C0A DUP6 DUP3 DUP7 ADD PUSH2 0x2A4D JUMP JUMPDEST SWAP2 POP POP SWAP3 POP SWAP3 SWAP1 POP JUMP JUMPDEST PUSH1 0x0 PUSH1 0x40 DUP3 ADD SWAP1 POP PUSH2 0x2C29 PUSH1 0x0 DUP4 ADD DUP6 PUSH2 0x2AC1 JUMP JUMPDEST PUSH2 0x2C36 PUSH1 0x20 DUP4 ADD DUP5 PUSH2 0x2B57 JUMP JUMPDEST SWAP4 SWAP3 POP POP POP JUMP JUMPDEST PUSH1 0x0 DUP1 REVERT JUMPDEST PUSH1 0x0 DUP1 REVERT JUMPDEST PUSH32 0x4E487B7100000000000000000000000000000000000000000000000000000000 PUSH1 0x0 MSTORE PUSH1 0x41 PUSH1 0x4 MSTORE PUSH1 0x24 PUSH1 0x0 REVERT JUMPDEST PUSH2 0x2C7F DUP3 PUSH2 0x29C0 JUMP JUMPDEST DUP2 ADD DUP2 DUP2 LT PUSH8 0xFFFFFFFFFFFFFFFF DUP3 GT OR ISZERO PUSH2 0x2C9E JUMPI PUSH2 0x2C9D PUSH2 0x2C47 JUMP JUMPDEST JUMPDEST DUP1 PUSH1 0x40 MSTORE POP POP POP JUMP JUMPDEST PUSH1 0x0 PUSH2 0x2CB1 PUSH2 0x28AB JUMP JUMPDEST SWAP1 POP PUSH2 0x2CBD DUP3 DUP3 PUSH2 0x2C76 JUMP JUMPDEST SWAP2 SWAP1 POP JUMP JUMPDEST PUSH1 0x0 PUSH8 0xFFFFFFFFFFFFFFFF DUP3 GT ISZERO PUSH2 0x2CDD JUMPI PUSH2 0x2CDC PUSH2 0x2C47 JUMP JUMPDEST JUMPDEST PUSH2 0x2CE6 DUP3 PUSH2 0x29C0 JUMP JUMPDEST SWAP1 POP PUSH1 0x20 DUP2 ADD SWAP1 POP SWAP2 SWAP1 POP JUMP JUMPDEST DUP3 DUP2 DUP4 CALLDATACOPY PUSH1 0x0 DUP4 DUP4 ADD MSTORE POP POP POP JUMP JUMPDEST PUSH1 0x0 PUSH2 0x2D15 PUSH2 0x2D10 DUP5 PUSH2 0x2CC2 JUMP JUMPDEST PUSH2 0x2CA7 JUMP JUMPDEST SWAP1 POP DUP3 DUP2 MSTORE PUSH1 0x20 DUP2 ADD DUP5 DUP5 DUP5 ADD GT ISZERO PUSH2 0x2D31 JUMPI PUSH2 0x2D30 PUSH2 0x2C42 JUMP JUMPDEST JUMPDEST PUSH2 0x2D3C DUP5 DUP3 DUP6 PUSH2 0x2CF3 JUMP JUMPDEST POP SWAP4 SWAP3 POP POP POP JUMP JUMPDEST PUSH1 0x0 DUP3 PUSH1 0x1F DUP4 ADD SLT PUSH2 0x2D59 JUMPI PUSH2 0x2D58 PUSH2 0x2C3D JUMP JUMPDEST JUMPDEST DUP2 CALLDATALOAD PUSH2 0x2D69 DUP5 DUP3 PUSH1 0x20 DUP7 ADD PUSH2 0x2D02 JUMP JUMPDEST SWAP2 POP POP SWAP3 SWAP2 POP POP JUMP JUMPDEST PUSH1 0x0 PUSH1 0x20 DUP3 DUP5 SUB SLT ISZERO PUSH2 0x2D88 JUMPI PUSH2 0x2D87 PUSH2 0x28B5 JUMP JUMPDEST JUMPDEST PUSH1 0x0 DUP3 ADD CALLDATALOAD PUSH8 0xFFFFFFFFFFFFFFFF DUP2 GT ISZERO PUSH2 0x2DA6 JUMPI PUSH2 0x2DA5 PUSH2 0x28BA JUMP JUMPDEST JUMPDEST PUSH2 0x2DB2 DUP5 DUP3 DUP6 ADD PUSH2 0x2D44 JUMP JUMPDEST SWAP2 POP POP SWAP3 SWAP2 POP POP JUMP JUMPDEST PUSH1 0x0 DUP2 SWAP1 POP SWAP2 SWAP1 POP JUMP JUMPDEST PUSH2 0x2DCE DUP2 PUSH2 0x2DBB JUMP JUMPDEST DUP3 MSTORE POP POP JUMP JUMPDEST PUSH1 0x0 PUSH2 0x120 DUP3 ADD SWAP1 POP PUSH2 0x2DEA PUSH1 0x0 DUP4 ADD DUP13 PUSH2 0x2B57 JUMP JUMPDEST PUSH2 0x2DF7 PUSH1 0x20 DUP4 ADD DUP12 PUSH2 0x2B57 JUMP JUMPDEST PUSH2 0x2E04 PUSH1 0x40 DUP4 ADD DUP11 PUSH2 0x2B57 JUMP JUMPDEST PUSH2 0x2E11 PUSH1 0x60 DUP4 ADD DUP10 PUSH2 0x2B57 JUMP JUMPDEST PUSH2 0x2E1E PUSH1 0x80 DUP4 ADD DUP9 PUSH2 0x2B57 JUMP JUMPDEST PUSH2 0x2E2B PUSH1 0xA0 DUP4 ADD DUP8 PUSH2 0x2B57 JUMP JUMPDEST PUSH2 0x2E38 PUSH1 0xC0 DUP4 ADD DUP7 PUSH2 0x2950 JUMP JUMPDEST PUSH2 0x2E45 PUSH1 0xE0 DUP4 ADD DUP6 PUSH2 0x2950 JUMP JUMPDEST PUSH2 0x2E53 PUSH2 0x100 DUP4 ADD DUP5 PUSH2 0x2DC5 JUMP JUMPDEST SWAP11 SWAP10 POP POP POP POP POP POP POP POP POP POP JUMP JUMPDEST PUSH2 0x2E6A DUP2 PUSH2 0x2DBB JUMP JUMPDEST DUP2 EQ PUSH2 0x2E75 JUMPI PUSH1 0x0 DUP1 REVERT JUMPDEST POP JUMP JUMPDEST PUSH1 0x0 DUP2 CALLDATALOAD SWAP1 POP PUSH2 0x2E87 DUP2 PUSH2 0x2E61 JUMP JUMPDEST SWAP3 SWAP2 POP POP JUMP JUMPDEST PUSH1 0x0 PUSH1 0x20 DUP3 DUP5 SUB SLT ISZERO PUSH2 0x2EA3 JUMPI PUSH2 0x2EA2 PUSH2 0x28B5 JUMP JUMPDEST JUMPDEST PUSH1 0x0 PUSH2 0x2EB1 DUP5 DUP3 DUP6 ADD PUSH2 0x2E78 JUMP JUMPDEST SWAP2 POP POP SWAP3 SWAP2 POP POP JUMP JUMPDEST PUSH1 0x0 PUSH1 0x20 DUP3 DUP5 SUB SLT ISZERO PUSH2 0x2ED0 JUMPI PUSH2 0x2ECF PUSH2 0x28B5 JUMP JUMPDEST JUMPDEST PUSH1 0x0 PUSH2 0x2EDE DUP5 DUP3 DUP6 ADD PUSH2 0x2B02 JUMP JUMPDEST SWAP2 POP POP SWAP3 SWAP2 POP POP JUMP JUMPDEST PUSH1 0x0 DUP1 REVERT JUMPDEST PUSH1 0x0 DUP1 REVERT JUMPDEST PUSH1 0x0 DUP1 DUP4 PUSH1 0x1F DUP5 ADD SLT PUSH2 0x2F07 JUMPI PUSH2 0x2F06 PUSH2 0x2C3D JUMP JUMPDEST JUMPDEST DUP3 CALLDATALOAD SWAP1 POP PUSH8 0xFFFFFFFFFFFFFFFF DUP2 GT ISZERO PUSH2 0x2F24 JUMPI PUSH2 0x2F23 PUSH2 0x2EE7 JUMP JUMPDEST JUMPDEST PUSH1 0x20 DUP4 ADD SWAP2 POP DUP4 PUSH1 0x20 DUP3 MUL DUP4 ADD GT ISZERO PUSH2 0x2F40 JUMPI PUSH2 0x2F3F PUSH2 0x2EEC JUMP JUMPDEST JUMPDEST SWAP3 POP SWAP3 SWAP1 POP JUMP JUMPDEST PUSH1 0x0 DUP1 PUSH1 0x20 DUP4 DUP6 SUB SLT ISZERO PUSH2 0x2F5E JUMPI PUSH2 0x2F5D PUSH2 0x28B5 JUMP JUMPDEST JUMPDEST PUSH1 0x0 DUP4 ADD CALLDATALOAD PUSH8 0xFFFFFFFFFFFFFFFF DUP2 GT ISZERO PUSH2 0x2F7C JUMPI PUSH2 0x2F7B PUSH2 0x28BA JUMP JUMPDEST JUMPDEST PUSH2 0x2F88 DUP6 DUP3 DUP7 ADD PUSH2 0x2EF1 JUMP JUMPDEST SWAP3 POP SWAP3 POP POP SWAP3 POP SWAP3 SWAP1 POP JUMP JUMPDEST PUSH1 0x0 PUSH12 0xFFFFFFFFFFFFFFFFFFFFFFFF DUP3 AND SWAP1 POP SWAP2 SWAP1 POP JUMP JUMPDEST PUSH2 0x2FB5 DUP2 PUSH2 0x2F94 JUMP JUMPDEST DUP2 EQ PUSH2 0x2FC0 JUMPI PUSH1 0x0 DUP1 REVERT JUMPDEST POP JUMP JUMPDEST PUSH1 0x0 DUP2 CALLDATALOAD SWAP1 POP PUSH2 0x2FD2 DUP2 PUSH2 0x2FAC JUMP JUMPDEST SWAP3 SWAP2 POP POP JUMP JUMPDEST PUSH1 0x0 DUP1 PUSH1 0x40 DUP4 DUP6 SUB SLT ISZERO PUSH2 0x2FEF JUMPI PUSH2 0x2FEE PUSH2 0x28B5 JUMP JUMPDEST JUMPDEST PUSH1 0x0 PUSH2 0x2FFD DUP6 DUP3 DUP7 ADD PUSH2 0x2B02 JUMP JUMPDEST SWAP3 POP POP PUSH1 0x20 PUSH2 0x300E DUP6 DUP3 DUP7 ADD PUSH2 0x2FC3 JUMP JUMPDEST SWAP2 POP POP SWAP3 POP SWAP3 SWAP1 POP JUMP JUMPDEST PUSH1 0x0 DUP1 PUSH1 0x40 DUP4 DUP6 SUB SLT ISZERO PUSH2 0x302F JUMPI PUSH2 0x302E PUSH2 0x28B5 JUMP JUMPDEST JUMPDEST PUSH1 0x0 PUSH2 0x303D DUP6 DUP3 DUP7 ADD PUSH2 0x2A4D JUMP JUMPDEST SWAP3 POP POP PUSH1 0x20 PUSH2 0x304E DUP6 DUP3 DUP7 ADD PUSH2 0x2B02 JUMP JUMPDEST SWAP2 POP POP SWAP3 POP SWAP3 SWAP1 POP JUMP JUMPDEST PUSH2 0x3061 DUP2 PUSH2 0x2944 JUMP JUMPDEST DUP2 EQ PUSH2 0x306C JUMPI PUSH1 0x0 DUP1 REVERT JUMPDEST POP JUMP JUMPDEST PUSH1 0x0 DUP2 CALLDATALOAD SWAP1 POP PUSH2 0x307E DUP2 PUSH2 0x3058 JUMP JUMPDEST SWAP3 SWAP2 POP POP JUMP JUMPDEST PUSH1 0x0 DUP1 PUSH1 0x40 DUP4 DUP6 SUB SLT ISZERO PUSH2 0x309B JUMPI PUSH2 0x309A PUSH2 0x28B5 JUMP JUMPDEST JUMPDEST PUSH1 0x0 PUSH2 0x30A9 DUP6 DUP3 DUP7 ADD PUSH2 0x2B02 JUMP JUMPDEST SWAP3 POP POP PUSH1 0x20 PUSH2 0x30BA DUP6 DUP3 DUP7 ADD PUSH2 0x306F JUMP JUMPDEST SWAP2 POP POP SWAP3 POP SWAP3 SWAP1 POP JUMP JUMPDEST PUSH1 0x0 DUP1 PUSH1 0x0 DUP1 PUSH1 0x0 PUSH1 0xA0 DUP7 DUP9 SUB SLT ISZERO PUSH2 0x30E0 JUMPI PUSH2 0x30DF PUSH2 0x28B5 JUMP JUMPDEST JUMPDEST PUSH1 0x0 PUSH2 0x30EE DUP9 DUP3 DUP10 ADD PUSH2 0x2A4D JUMP JUMPDEST SWAP6 POP POP PUSH1 0x20 PUSH2 0x30FF DUP9 DUP3 DUP10 ADD PUSH2 0x2A4D JUMP JUMPDEST SWAP5 POP POP PUSH1 0x40 PUSH2 0x3110 DUP9 DUP3 DUP10 ADD PUSH2 0x2A4D JUMP JUMPDEST SWAP4 POP POP PUSH1 0x60 PUSH2 0x3121 DUP9 DUP3 DUP10 ADD PUSH2 0x306F JUMP JUMPDEST SWAP3 POP POP PUSH1 0x80 PUSH2 0x3132 DUP9 DUP3 DUP10 ADD PUSH2 0x2E78 JUMP JUMPDEST SWAP2 POP POP SWAP3 SWAP6 POP SWAP3 SWAP6 SWAP1 SWAP4 POP JUMP JUMPDEST PUSH1 0x0 PUSH1 0x20 DUP3 DUP5 SUB SLT ISZERO PUSH2 0x3155 JUMPI PUSH2 0x3154 PUSH2 0x28B5 JUMP JUMPDEST JUMPDEST PUSH1 0x0 PUSH2 0x3163 DUP5 DUP3 DUP6 ADD PUSH2 0x306F JUMP JUMPDEST SWAP2 POP POP SWAP3 SWAP2 POP POP JUMP JUMPDEST PUSH1 0x0 PUSH8 0xFFFFFFFFFFFFFFFF DUP3 GT ISZERO PUSH2 0x3187 JUMPI PUSH2 0x3186 PUSH2 0x2C47 JUMP JUMPDEST JUMPDEST PUSH2 0x3190 DUP3 PUSH2 0x29C0 JUMP JUMPDEST SWAP1 POP PUSH1 0x20 DUP2 ADD SWAP1 POP SWAP2 SWAP1 POP JUMP JUMPDEST PUSH1 0x0 PUSH2 0x31B0 PUSH2 0x31AB DUP5 PUSH2 0x316C JUMP JUMPDEST PUSH2 0x2CA7 JUMP JUMPDEST SWAP1 POP DUP3 DUP2 MSTORE PUSH1 0x20 DUP2 ADD DUP5 DUP5 DUP5 ADD GT ISZERO PUSH2 0x31CC JUMPI PUSH2 0x31CB PUSH2 0x2C42 JUMP JUMPDEST JUMPDEST PUSH2 0x31D7 DUP5 DUP3 DUP6 PUSH2 0x2CF3 JUMP JUMPDEST POP SWAP4 SWAP3 POP POP POP JUMP JUMPDEST PUSH1 0x0 DUP3 PUSH1 0x1F DUP4 ADD SLT PUSH2 0x31F4 JUMPI PUSH2 0x31F3 PUSH2 0x2C3D JUMP JUMPDEST JUMPDEST DUP2 CALLDATALOAD PUSH2 0x3204 DUP5 DUP3 PUSH1 0x20 DUP7 ADD PUSH2 0x319D JUMP JUMPDEST SWAP2 POP POP SWAP3 SWAP2 POP POP JUMP JUMPDEST PUSH1 0x0 DUP1 PUSH1 0x0 DUP1 PUSH1 0x80 DUP6 DUP8 SUB SLT ISZERO PUSH2 0x3227 JUMPI PUSH2 0x3226 PUSH2 0x28B5 JUMP JUMPDEST JUMPDEST PUSH1 0x0 PUSH2 0x3235 DUP8 DUP3 DUP9 ADD PUSH2 0x2B02 JUMP JUMPDEST SWAP5 POP POP PUSH1 0x20 PUSH2 0x3246 DUP8 DUP3 DUP9 ADD PUSH2 0x2B02 JUMP JUMPDEST SWAP4 POP POP PUSH1 0x40 PUSH2 0x3257 DUP8 DUP3 DUP9 ADD PUSH2 0x2A4D JUMP JUMPDEST SWAP3 POP POP PUSH1 0x60 DUP6 ADD CALLDATALOAD PUSH8 0xFFFFFFFFFFFFFFFF DUP2 GT ISZERO PUSH2 0x3278 JUMPI PUSH2 0x3277 PUSH2 0x28BA JUMP JUMPDEST JUMPDEST PUSH2 0x3284 DUP8 DUP3 DUP9 ADD PUSH2 0x31DF JUMP JUMPDEST SWAP2 POP POP SWAP3 SWAP6 SWAP2 SWAP5 POP SWAP3 POP JUMP JUMPDEST PUSH1 0x0 PUSH1 0xE0 DUP3 ADD SWAP1 POP PUSH2 0x32A5 PUSH1 0x0 DUP4 ADD DUP11 PUSH2 0x2B57 JUMP JUMPDEST PUSH2 0x32B2 PUSH1 0x20 DUP4 ADD DUP10 PUSH2 0x2B57 JUMP JUMPDEST PUSH2 0x32BF PUSH1 0x40 DUP4 ADD DUP9 PUSH2 0x2B57 JUMP JUMPDEST PUSH2 0x32CC PUSH1 0x60 DUP4 ADD DUP8 PUSH2 0x2B57 JUMP JUMPDEST PUSH2 0x32D9 PUSH1 0x80 DUP4 ADD DUP7 PUSH2 0x2950 JUMP JUMPDEST PUSH2 0x32E6 PUSH1 0xA0 DUP4 ADD DUP6 PUSH2 0x2950 JUMP JUMPDEST PUSH2 0x32F3 PUSH1 0xC0 DUP4 ADD DUP5 PUSH2 0x2DC5 JUMP JUMPDEST SWAP9 SWAP8 POP POP POP POP POP POP POP POP JUMP JUMPDEST PUSH1 0x0 DUP1 PUSH1 0x40 DUP4 DUP6 SUB SLT ISZERO PUSH2 0x3316 JUMPI PUSH2 0x3315 PUSH2 0x28B5 JUMP JUMPDEST JUMPDEST PUSH1 0x0 PUSH2 0x3324 DUP6 DUP3 DUP7 ADD PUSH2 0x2B02 JUMP JUMPDEST SWAP3 POP POP PUSH1 0x20 PUSH2 0x3335 DUP6 DUP3 DUP7 ADD PUSH2 0x2B02 JUMP JUMPDEST SWAP2 POP POP SWAP3 POP SWAP3 SWAP1 POP JUMP JUMPDEST PUSH32 0x4E487B7100000000000000000000000000000000000000000000000000000000 PUSH1 0x0 MSTORE PUSH1 0x22 PUSH1 0x4 MSTORE PUSH1 0x24 PUSH1 0x0 REVERT JUMPDEST PUSH1 0x0 PUSH1 0x2 DUP3 DIV SWAP1 POP PUSH1 0x1 DUP3 AND DUP1 PUSH2 0x3386 JUMPI PUSH1 0x7F DUP3 AND SWAP2 POP JUMPDEST PUSH1 0x20 DUP3 LT DUP2 SUB PUSH2 0x3399 JUMPI PUSH2 0x3398 PUSH2 0x333F JUMP JUMPDEST JUMPDEST POP SWAP2 SWAP1 POP JUMP JUMPDEST PUSH32 0x4E487B7100000000000000000000000000000000000000000000000000000000 PUSH1 0x0 MSTORE PUSH1 0x11 PUSH1 0x4 MSTORE PUSH1 0x24 PUSH1 0x0 REVERT JUMPDEST PUSH1 0x0 PUSH2 0x33D9 DUP3 PUSH2 0x2A2C JUMP JUMPDEST SWAP2 POP PUSH2 0x33E4 DUP4 PUSH2 0x2A2C JUMP JUMPDEST SWAP3 POP DUP3 DUP3 MUL PUSH2 0x33F2 DUP2 PUSH2 0x2A2C JUMP JUMPDEST SWAP2 POP DUP3 DUP3 DIV DUP5 EQ DUP4 ISZERO OR PUSH2 0x3409 JUMPI PUSH2 0x3408 PUSH2 0x339F JUMP JUMPDEST JUMPDEST POP SWAP3 SWAP2 POP POP JUMP JUMPDEST PUSH32 0x4E487B7100000000000000000000000000000000000000000000000000000000 PUSH1 0x0 MSTORE PUSH1 0x12 PUSH1 0x4 MSTORE PUSH1 0x24 PUSH1 0x0 REVERT JUMPDEST PUSH1 0x0 PUSH2 0x344A DUP3 PUSH2 0x2A2C JUMP JUMPDEST SWAP2 POP PUSH2 0x3455 DUP4 PUSH2 0x2A2C JUMP JUMPDEST SWAP3 POP DUP3 PUSH2 0x3465 JUMPI PUSH2 0x3464 PUSH2 0x3410 JUMP JUMPDEST JUMPDEST DUP3 DUP3 DIV SWAP1 POP SWAP3 SWAP2 POP POP JUMP JUMPDEST PUSH1 0x0 DUP2 SWAP1 POP DUP2 PUSH1 0x0 MSTORE PUSH1 0x20 PUSH1 0x0 KECCAK256 SWAP1 POP SWAP2 SWAP1 POP JUMP JUMPDEST PUSH1 0x0 PUSH1 0x20 PUSH1 0x1F DUP4 ADD DIV SWAP1 POP SWAP2 SWAP1 POP JUMP JUMPDEST PUSH1 0x0 DUP3 DUP3 SHL SWAP1 POP SWAP3 SWAP2 POP POP JUMP JUMPDEST PUSH1 0x0 PUSH1 0x8 DUP4 MUL PUSH2 0x34D2 PUSH32 0xFFFFFFFFFFFFFFFFFFFFFFFFFFFFFFFFFFFFFFFFFFFFFFFFFFFFFFFFFFFFFFFF DUP3 PUSH2 0x3495 JUMP JUMPDEST PUSH2 0x34DC DUP7 DUP4 PUSH2 0x3495 JUMP JUMPDEST SWAP6 POP DUP1 NOT DUP5 AND SWAP4 POP DUP1 DUP7 AND DUP5 OR SWAP3 POP POP POP SWAP4 SWAP3 POP POP POP JUMP JUMPDEST PUSH1 0x0 DUP2 SWAP1 POP SWAP2 SWAP1 POP JUMP JUMPDEST PUSH1 0x0 PUSH2 0x3519 PUSH2 0x3514 PUSH2 0x350F DUP5 PUSH2 0x2A2C JUMP JUMPDEST PUSH2 0x34F4 JUMP JUMPDEST PUSH2 0x2A2C JUMP JUMPDEST SWAP1 POP SWAP2 SWAP1 POP JUMP JUMPDEST PUSH1 0x0 DUP2 SWAP1 POP SWAP2 SWAP1 POP JUMP JUMPDEST PUSH2 0x3533 DUP4 PUSH2 0x34FE JUMP JUMPDEST PUSH2 0x3547 PUSH2 0x353F DUP3 PUSH2 0x3520 JUMP JUMPDEST DUP5 DUP5 SLOAD PUSH2 0x34A2 JUMP JUMPDEST DUP3 SSTORE POP POP POP POP JUMP JUMPDEST PUSH1 0x0 SWAP1 JUMP JUMPDEST PUSH2 0x355C PUSH2 0x354F JUMP JUMPDEST PUSH2 0x3567 DUP2 DUP5 DUP5 PUSH2 0x352A JUMP JUMPDEST POP POP POP JUMP JUMPDEST JUMPDEST DUP2 DUP2 LT ISZERO PUSH2 0x358B JUMPI PUSH2 0x3580 PUSH1 0x0 DUP3 PUSH2 0x3554 JUMP JUMPDEST PUSH1 0x1 DUP2 ADD SWAP1 POP PUSH2 0x356D JUMP JUMPDEST POP POP JUMP JUMPDEST PUSH1 0x1F DUP3 GT ISZERO PUSH2 0x35D0 JUMPI PUSH2 0x35A1 DUP2 PUSH2 0x3470 JUMP JUMPDEST PUSH2 0x35AA DUP5 PUSH2 0x3485 JUMP JUMPDEST DUP2 ADD PUSH1 0x20 DUP6 LT ISZERO PUSH2 0x35B9 JUMPI DUP2 SWAP1 POP JUMPDEST PUSH2 0x35CD PUSH2 0x35C5 DUP6 PUSH2 0x3485 JUMP JUMPDEST DUP4 ADD DUP3 PUSH2 0x356C JUMP JUMPDEST POP POP JUMPDEST POP POP POP JUMP JUMPDEST PUSH1 0x0 DUP3 DUP3 SHR SWAP1 POP SWAP3 SWAP2 POP POP JUMP JUMPDEST PUSH1 0x0 PUSH2 0x35F3 PUSH1 0x0 NOT DUP5 PUSH1 0x8 MUL PUSH2 0x35D5 JUMP JUMPDEST NOT DUP1 DUP4 AND SWAP2 POP POP SWAP3 SWAP2 POP POP JUMP JUMPDEST PUSH1 0x0 PUSH2 0x360C DUP4 DUP4 PUSH2 0x35E2 JUMP JUMPDEST SWAP2 POP DUP3 PUSH1 0x2 MUL DUP3 OR SWAP1 POP SWAP3 SWAP2 POP POP JUMP JUMPDEST PUSH2 0x3625 DUP3 PUSH2 0x297A JUMP JUMPDEST PUSH8 0xFFFFFFFFFFFFFFFF DUP2 GT ISZERO PUSH2 0x363E JUMPI PUSH2 0x363D PUSH2 0x2C47 JUMP JUMPDEST JUMPDEST PUSH2 0x3648 DUP3 SLOAD PUSH2 0x336E JUMP JUMPDEST PUSH2 0x3653 DUP3 DUP3 DUP6 PUSH2 0x358F JUMP JUMPDEST PUSH1 0x0 PUSH1 0x20 SWAP1 POP PUSH1 0x1F DUP4 GT PUSH1 0x1 DUP2 EQ PUSH2 0x3686 JUMPI PUSH1 0x0 DUP5 ISZERO PUSH2 0x3674 JUMPI DUP3 DUP8 ADD MLOAD SWAP1 POP JUMPDEST PUSH2 0x367E DUP6 DUP3 PUSH2 0x3600 JUMP JUMPDEST DUP7 SSTORE POP PUSH2 0x36E6 JUMP JUMPDEST PUSH1 0x1F NOT DUP5 AND PUSH2 0x3694 DUP7 PUSH2 0x3470 JUMP JUMPDEST PUSH1 0x0 JUMPDEST DUP3 DUP2 LT ISZERO PUSH2 0x36BC JUMPI DUP5 DUP10 ADD MLOAD DUP3 SSTORE PUSH1 0x1 DUP3 ADD SWAP2 POP PUSH1 0x20 DUP6 ADD SWAP5 POP PUSH1 0x20 DUP2 ADD SWAP1 POP PUSH2 0x3697 JUMP JUMPDEST DUP7 DUP4 LT ISZERO PUSH2 0x36D9 JUMPI DUP5 DUP10 ADD MLOAD PUSH2 0x36D5 PUSH1 0x1F DUP10 AND DUP3 PUSH2 0x35E2 JUMP JUMPDEST DUP4 SSTORE POP JUMPDEST PUSH1 0x1 PUSH1 0x2 DUP9 MUL ADD DUP9 SSTORE POP POP POP JUMPDEST POP POP POP POP POP POP JUMP JUMPDEST PUSH32 0x4D696E74696E67206576656E7420686173206E6F742073746172746564207965 PUSH1 0x0 DUP3 ADD MSTORE PUSH32 0x7400000000000000000000000000000000000000000000000000000000000000 PUSH1 0x20 DUP3 ADD MSTORE POP JUMP JUMPDEST PUSH1 0x0 PUSH2 0x374A PUSH1 0x21 DUP4 PUSH2 0x2985 JUMP JUMPDEST SWAP2 POP PUSH2 0x3755 DUP3 PUSH2 0x36EE JUMP JUMPDEST PUSH1 0x40 DUP3 ADD SWAP1 POP SWAP2 SWAP1 POP JUMP JUMPDEST PUSH1 0x0 PUSH1 0x20 DUP3 ADD SWAP1 POP DUP2 DUP2 SUB PUSH1 0x0 DUP4 ADD MSTORE PUSH2 0x3779 DUP2 PUSH2 0x373D JUMP JUMPDEST SWAP1 POP SWAP2 SWAP1 POP JUMP JUMPDEST PUSH32 0x5265656E7472616E637947756172643A207265656E7472616E742063616C6C00 PUSH1 0x0 DUP3 ADD MSTORE POP JUMP JUMPDEST PUSH1 0x0 PUSH2 0x37B6 PUSH1 0x1F DUP4 PUSH2 0x2985 JUMP JUMPDEST SWAP2 POP PUSH2 0x37C1 DUP3 PUSH2 0x3780 JUMP JUMPDEST PUSH1 0x20 DUP3 ADD SWAP1 POP SWAP2 SWAP1 POP JUMP JUMPDEST PUSH1 0x0 PUSH1 0x20 DUP3 ADD SWAP1 POP DUP2 DUP2 SUB PUSH1 0x0 DUP4 ADD MSTORE PUSH2 0x37E5 DUP2 PUSH2 0x37A9 JUMP JUMPDEST SWAP1 POP SWAP2 SWAP1 POP JUMP JUMPDEST PUSH32 0x596F75722061646472657373206973206E6F7420696E20746865207768697465 PUSH1 0x0 DUP3 ADD MSTORE PUSH32 0x6C69737400000000000000000000000000000000000000000000000000000000 PUSH1 0x20 DUP3 ADD MSTORE POP JUMP JUMPDEST PUSH1 0x0 PUSH2 0x3848 PUSH1 0x24 DUP4 PUSH2 0x2985 JUMP JUMPDEST SWAP2 POP PUSH2 0x3853 DUP3 PUSH2 0x37EC JUMP JUMPDEST PUSH1 0x40 DUP3 ADD SWAP1 POP SWAP2 SWAP1 POP JUMP JUMPDEST PUSH1 0x0 PUSH1 0x20 DUP3 ADD SWAP1 POP DUP2 DUP2 SUB PUSH1 0x0 DUP4 ADD MSTORE PUSH2 0x3877 DUP2 PUSH2 0x383B JUMP JUMPDEST SWAP1 POP SWAP2 SWAP1 POP JUMP JUMPDEST PUSH1 0x0 PUSH2 0x3889 DUP3 PUSH2 0x2A2C JUMP JUMPDEST SWAP2 POP PUSH2 0x3894 DUP4 PUSH2 0x2A2C JUMP JUMPDEST SWAP3 POP DUP3 DUP3 ADD SWAP1 POP DUP1 DUP3 GT ISZERO PUSH2 0x38AC JUMPI PUSH2 0x38AB PUSH2 0x339F JUMP JUMPDEST JUMPDEST SWAP3 SWAP2 POP POP JUMP JUMPDEST PUSH32 0x4578636565646564206D6178207072656D696E74204E46547320616D6F756E74 PUSH1 0x0 DUP3 ADD MSTORE POP JUMP JUMPDEST PUSH1 0x0 PUSH2 0x38E8 PUSH1 0x20 DUP4 PUSH2 0x2985 JUMP JUMPDEST SWAP2 POP PUSH2 0x38F3 DUP3 PUSH2 0x38B2 JUMP JUMPDEST PUSH1 0x20 DUP3 ADD SWAP1 POP SWAP2 SWAP1 POP JUMP JUMPDEST PUSH1 0x0 PUSH1 0x20 DUP3 ADD SWAP1 POP DUP2 DUP2 SUB PUSH1 0x0 DUP4 ADD MSTORE PUSH2 0x3917 DUP2 PUSH2 0x38DB JUMP JUMPDEST SWAP1 POP SWAP2 SWAP1 POP JUMP JUMPDEST PUSH32 0x4578636565646564206D6178204E46547320616D6F756E740000000000000000 PUSH1 0x0 DUP3 ADD MSTORE POP JUMP JUMPDEST PUSH1 0x0 PUSH2 0x3954 PUSH1 0x18 DUP4 PUSH2 0x2985 JUMP JUMPDEST SWAP2 POP PUSH2 0x395F DUP3 PUSH2 0x391E JUMP JUMPDEST PUSH1 0x20 DUP3 ADD SWAP1 POP SWAP2 SWAP1 POP JUMP JUMPDEST PUSH1 0x0 PUSH1 0x20 DUP3 ADD SWAP1 POP DUP2 DUP2 SUB PUSH1 0x0 DUP4 ADD MSTORE PUSH2 0x3983 DUP2 PUSH2 0x3947 JUMP JUMPDEST SWAP1 POP SWAP2 SWAP1 POP JUMP JUMPDEST PUSH32 0x4D696E74696E6720776F756C64206578636565642077616C6C6574206C696D69 PUSH1 0x0 DUP3 ADD MSTORE PUSH32 0x7400000000000000000000000000000000000000000000000000000000000000 PUSH1 0x20 DUP3 ADD MSTORE POP JUMP JUMPDEST PUSH1 0x0 PUSH2 0x39E6 PUSH1 0x21 DUP4 PUSH2 0x2985 JUMP JUMPDEST SWAP2 POP PUSH2 0x39F1 DUP3 PUSH2 0x398A JUMP JUMPDEST PUSH1 0x40 DUP3 ADD SWAP1 POP SWAP2 SWAP1 POP JUMP JUMPDEST PUSH1 0x0 PUSH1 0x20 DUP3 ADD SWAP1 POP DUP2 DUP2 SUB PUSH1 0x0 DUP4 ADD MSTORE PUSH2 0x3A15 DUP2 PUSH2 0x39D9 JUMP JUMPDEST SWAP1 POP SWAP2 SWAP1 POP JUMP JUMPDEST PUSH1 0x0 PUSH2 0x3A27 DUP3 PUSH2 0x2A2C JUMP JUMPDEST SWAP2 POP PUSH32 0xFFFFFFFFFFFFFFFFFFFFFFFFFFFFFFFFFFFFFFFFFFFFFFFFFFFFFFFFFFFFFFFF DUP3 SUB PUSH2 0x3A59 JUMPI PUSH2 0x3A58 PUSH2 0x339F JUMP JUMPDEST JUMPDEST PUSH1 0x1 DUP3 ADD SWAP1 POP SWAP2 SWAP1 POP JUMP JUMPDEST PUSH1 0x0 DUP2 SWAP1 POP SWAP2 SWAP1 POP JUMP JUMPDEST PUSH1 0x0 PUSH2 0x3A89 PUSH2 0x3A84 PUSH2 0x3A7F DUP5 PUSH2 0x3A64 JUMP JUMPDEST PUSH2 0x34F4 JUMP JUMPDEST PUSH2 0x2A2C JUMP JUMPDEST SWAP1 POP SWAP2 SWAP1 POP JUMP JUMPDEST PUSH2 0x3A99 DUP2 PUSH2 0x3A6E JUMP JUMPDEST DUP3 MSTORE POP POP JUMP JUMPDEST PUSH1 0x0 PUSH1 0x40 DUP3 ADD SWAP1 POP PUSH2 0x3AB4 PUSH1 0x0 DUP4 ADD DUP6 PUSH2 0x2AC1 JUMP JUMPDEST PUSH2 0x3AC1 PUSH1 0x20 DUP4 ADD DUP5 PUSH2 0x3A90 JUMP JUMPDEST SWAP4 SWAP3 POP POP POP JUMP JUMPDEST PUSH1 0x0 DUP2 SWAP1 POP SWAP3 SWAP2 POP POP JUMP JUMPDEST PUSH1 0x0 PUSH2 0x3ADE DUP3 PUSH2 0x297A JUMP JUMPDEST PUSH2 0x3AE8 DUP2 DUP6 PUSH2 0x3AC8 JUMP JUMPDEST SWAP4 POP PUSH2 0x3AF8 DUP2 DUP6 PUSH1 0x20 DUP7 ADD PUSH2 0x2996 JUMP JUMPDEST DUP1 DUP5 ADD SWAP2 POP POP SWAP3 SWAP2 POP POP JUMP JUMPDEST PUSH32 0x2E6A736F6E000000000000000000000000000000000000000000000000000000 PUSH1 0x0 DUP3 ADD MSTORE POP JUMP JUMPDEST PUSH1 0x0 PUSH2 0x3B3A PUSH1 0x5 DUP4 PUSH2 0x3AC8 JUMP JUMPDEST SWAP2 POP PUSH2 0x3B45 DUP3 PUSH2 0x3B04 JUMP JUMPDEST PUSH1 0x5 DUP3 ADD SWAP1 POP SWAP2 SWAP1 POP JUMP JUMPDEST PUSH1 0x0 PUSH2 0x3B5C DUP3 DUP5 PUSH2 0x3AD3 JUMP JUMPDEST SWAP2 POP PUSH2 0x3B67 DUP3 PUSH2 0x3B2D JUMP JUMPDEST SWAP2 POP DUP2 SWAP1 POP SWAP3 SWAP2 POP POP JUMP JUMPDEST PUSH32 0x4F776E61626C653A206E6577206F776E657220697320746865207A65726F2061 PUSH1 0x0 DUP3 ADD MSTORE PUSH32 0x6464726573730000000000000000000000000000000000000000000000000000 PUSH1 0x20 DUP3 ADD MSTORE POP JUMP JUMPDEST PUSH1 0x0 PUSH2 0x3BCE PUSH1 0x26 DUP4 PUSH2 0x2985 JUMP JUMPDEST SWAP2 POP PUSH2 0x3BD9 DUP3 PUSH2 0x3B72 JUMP JUMPDEST PUSH1 0x40 DUP3 ADD SWAP1 POP SWAP2 SWAP1 POP JUMP JUMPDEST PUSH1 0x0 PUSH1 0x20 DUP3 ADD SWAP1 POP DUP2 DUP2 SUB PUSH1 0x0 DUP4 ADD MSTORE PUSH2 0x3BFD DUP2 PUSH2 0x3BC1 JUMP JUMPDEST SWAP1 POP SWAP2 SWAP1 POP JUMP JUMPDEST PUSH1 0x0 PUSH2 0x3C0F DUP3 PUSH2 0x2A2C JUMP JUMPDEST SWAP2 POP PUSH1 0x0 DUP3 SUB PUSH2 0x3C22 JUMPI PUSH2 0x3C21 PUSH2 0x339F JUMP JUMPDEST JUMPDEST PUSH1 0x1 DUP3 SUB SWAP1 POP SWAP2 SWAP1 POP JUMP JUMPDEST PUSH32 0x4F776E61626C653A2063616C6C6572206973206E6F7420746865206F776E6572 PUSH1 0x0 DUP3 ADD MSTORE POP JUMP JUMPDEST PUSH1 0x0 PUSH2 0x3C63 PUSH1 0x20 DUP4 PUSH2 0x2985 JUMP JUMPDEST SWAP2 POP PUSH2 0x3C6E DUP3 PUSH2 0x3C2D JUMP JUMPDEST PUSH1 0x20 DUP3 ADD SWAP1 POP SWAP2 SWAP1 POP JUMP JUMPDEST PUSH1 0x0 PUSH1 0x20 DUP3 ADD SWAP1 POP DUP2 DUP2 SUB PUSH1 0x0 DUP4 ADD MSTORE PUSH2 0x3C92 DUP2 PUSH2 0x3C56 JUMP JUMPDEST SWAP1 POP SWAP2 SWAP1 POP JUMP JUMPDEST PUSH32 0x455243323938313A20726F79616C7479206665652077696C6C20657863656564 PUSH1 0x0 DUP3 ADD MSTORE PUSH32 0x2073616C65507269636500000000000000000000000000000000000000000000 PUSH1 0x20 DUP3 ADD MSTORE POP JUMP JUMPDEST PUSH1 0x0 PUSH2 0x3CF5 PUSH1 0x2A DUP4 PUSH2 0x2985 JUMP JUMPDEST SWAP2 POP PUSH2 0x3D00 DUP3 PUSH2 0x3C99 JUMP JUMPDEST PUSH1 0x40 DUP3 ADD SWAP1 POP SWAP2 SWAP1 POP JUMP JUMPDEST PUSH1 0x0 PUSH1 0x20 DUP3 ADD SWAP1 POP DUP2 DUP2 SUB PUSH1 0x0 DUP4 ADD MSTORE PUSH2 0x3D24 DUP2 PUSH2 0x3CE8 JUMP JUMPDEST SWAP1 POP SWAP2 SWAP1 POP JUMP JUMPDEST PUSH32 0x455243323938313A20696E76616C696420726563656976657200000000000000 PUSH1 0x0 DUP3 ADD MSTORE POP JUMP JUMPDEST PUSH1 0x0 PUSH2 0x3D61 PUSH1 0x19 DUP4 PUSH2 0x2985 JUMP JUMPDEST SWAP2 POP PUSH2 0x3D6C DUP3 PUSH2 0x3D2B JUMP JUMPDEST PUSH1 0x20 DUP3 ADD SWAP1 POP SWAP2 SWAP1 POP JUMP JUMPDEST PUSH1 0x0 PUSH1 0x20 DUP3 ADD SWAP1 POP DUP2 DUP2 SUB PUSH1 0x0 DUP4 ADD MSTORE PUSH2 0x3D90 DUP2 PUSH2 0x3D54 JUMP JUMPDEST SWAP1 POP SWAP2 SWAP1 POP JUMP JUMPDEST PUSH1 0x0 DUP2 MLOAD SWAP1 POP SWAP2 SWAP1 POP JUMP JUMPDEST PUSH1 0x0 DUP3 DUP3 MSTORE PUSH1 0x20 DUP3 ADD SWAP1 POP SWAP3 SWAP2 POP POP JUMP JUMPDEST PUSH1 0x0 PUSH2 0x3DBE DUP3 PUSH2 0x3D97 JUMP JUMPDEST PUSH2 0x3DC8 DUP2 DUP6 PUSH2 0x3DA2 JUMP JUMPDEST SWAP4 POP PUSH2 0x3DD8 DUP2 DUP6 PUSH1 0x20 DUP7 ADD PUSH2 0x2996 JUMP JUMPDEST PUSH2 0x3DE1 DUP2 PUSH2 0x29C0 JUMP JUMPDEST DUP5 ADD SWAP2 POP POP SWAP3 SWAP2 POP POP JUMP JUMPDEST PUSH1 0x0 PUSH1 0x80 DUP3 ADD SWAP1 POP PUSH2 0x3E01 PUSH1 0x0 DUP4 ADD DUP8 PUSH2 0x2AC1 JUMP JUMPDEST PUSH2 0x3E0E PUSH1 0x20 DUP4 ADD DUP7 PUSH2 0x2AC1 JUMP JUMPDEST PUSH2 0x3E1B PUSH1 0x40 DUP4 ADD DUP6 PUSH2 0x2B57 JUMP JUMPDEST DUP2 DUP2 SUB PUSH1 0x60 DUP4 ADD MSTORE PUSH2 0x3E2D DUP2 DUP5 PUSH2 0x3DB3 JUMP JUMPDEST SWAP1 POP SWAP6 SWAP5 POP POP POP POP POP JUMP JUMPDEST PUSH1 0x0 DUP2 MLOAD SWAP1 POP PUSH2 0x3E47 DUP2 PUSH2 0x28EB JUMP JUMPDEST SWAP3 SWAP2 POP POP JUMP JUMPDEST PUSH1 0x0 PUSH1 0x20 DUP3 DUP5 SUB SLT ISZERO PUSH2 0x3E63 JUMPI PUSH2 0x3E62 PUSH2 0x28B5 JUMP JUMPDEST JUMPDEST PUSH1 0x0 PUSH2 0x3E71 DUP5 DUP3 DUP6 ADD PUSH2 0x3E38 JUMP JUMPDEST SWAP2 POP POP SWAP3 SWAP2 POP POP JUMP JUMPDEST PUSH1 0x0 PUSH2 0x3E86 DUP3 DUP6 PUSH2 0x3AD3 JUMP JUMPDEST SWAP2 POP PUSH2 0x3E92 DUP3 DUP5 PUSH2 0x3AD3 JUMP JUMPDEST SWAP2 POP DUP2 SWAP1 POP SWAP4 SWAP3 POP POP POP JUMP JUMPDEST PUSH32 0x4E487B7100000000000000000000000000000000000000000000000000000000 PUSH1 0x0 MSTORE PUSH1 0x32 PUSH1 0x4 MSTORE PUSH1 0x24 PUSH1 0x0 REVERT INVALID LOG2 PUSH5 0x6970667358 0x22 SLT KECCAK256 MULMOD SWAP6 SSTORE 0xE 0xE2 PUSH6 0xAF9F62123B82 CODECOPY 0xB5 MSTORE8 0xB3 MULMOD CALL 0xC9 BALANCE 0xE3 ADDMOD SWAP14 0xA9 PUSH17 0xF65CAF606FA33E64736F6C634300081300 CALLER "},"methodIdentifiers":{"activeDrop()":"f247b569","approve(address,uint256)":"095ea7b3","balanceOf(address)":"70a08231","changeDefaultRoyalties(address,uint96)":"8b63d54a","drops(uint256)":"5eb39968","freeMint(bytes32[])":"88d15d50","getApproved(uint256)":"081812fc","getDropData(uint256)":"be91484c","getDropNFTtrackerInfo(uint256,address)":"922003cd","isApprovedForAll(address,address)":"e985e9c5","maxSupply()":"d5abeb01","name()":"06fdde03","owner()":"8da5cb5b","ownerOf(uint256)":"6352211e","renounceOwnership()":"715018a6","royaltyInfo(uint256,uint256)":"2a55205a","safeTransferFrom(address,address,uint256)":"42842e0e","safeTransferFrom(address,address,uint256,bytes)":"b88d4fde","setApprovalForAll(address,bool)":"a22cb465","setBaseURI(string)":"55f804b3","setNewDrop(uint256,uint256,uint256,bool,bytes32)":"a9fe3075","setNewMaxSupply(uint256)":"b7c7d9a7","setNewMerkleRoot(bytes32)":"611236a4","setNewPreMintMaxSupply(uint256)":"cfd1c79f","setNewTimeMintAfterPreMint(uint256)":"58b1adbf","setWhiteListState(bool)":"b3e5e0de","startPreMint()":"363f0325","stopMint()":"d5582965","supportsInterface(bytes4)":"01ffc9a7","symbol()":"95d89b41","tokenURI(uint256)":"c87b56dd","totalSupply()":"18160ddd","transferFrom(address,address,uint256)":"23b872dd","transferOwnership(address)":"f2fde38b"}}}}}